{
  "contractName": "CriolloToken",
  "abi": [
    {
      "inputs": [
        {
          "internalType": "string",
          "name": "name_",
          "type": "string"
        },
        {
          "internalType": "string",
          "name": "symbol_",
          "type": "string"
        },
        {
          "internalType": "string",
          "name": "_initBaseURI",
          "type": "string"
        }
      ],
      "stateMutability": "nonpayable",
      "type": "constructor"
    },
    {
      "anonymous": false,
      "inputs": [
        {
          "indexed": true,
          "internalType": "address",
          "name": "owner",
          "type": "address"
        },
        {
          "indexed": true,
          "internalType": "address",
          "name": "approved",
          "type": "address"
        },
        {
          "indexed": true,
          "internalType": "uint256",
          "name": "tokenId",
          "type": "uint256"
        }
      ],
      "name": "Approval",
      "type": "event"
    },
    {
      "anonymous": false,
      "inputs": [
        {
          "indexed": true,
          "internalType": "address",
          "name": "owner",
          "type": "address"
        },
        {
          "indexed": true,
          "internalType": "address",
          "name": "operator",
          "type": "address"
        },
        {
          "indexed": false,
          "internalType": "bool",
          "name": "approved",
          "type": "bool"
        }
      ],
      "name": "ApprovalForAll",
      "type": "event"
    },
    {
      "anonymous": false,
      "inputs": [
        {
          "indexed": true,
          "internalType": "address",
          "name": "previousOwner",
          "type": "address"
        },
        {
          "indexed": true,
          "internalType": "address",
          "name": "newOwner",
          "type": "address"
        }
      ],
      "name": "OwnershipTransferred",
      "type": "event"
    },
    {
      "anonymous": false,
      "inputs": [
        {
          "indexed": false,
          "internalType": "address",
          "name": "owner",
          "type": "address"
        },
        {
          "indexed": false,
          "internalType": "uint256",
          "name": "price",
          "type": "uint256"
        },
        {
          "indexed": false,
          "internalType": "uint256",
          "name": "id",
          "type": "uint256"
        }
      ],
      "name": "Purchase",
      "type": "event"
    },
    {
      "anonymous": false,
      "inputs": [
        {
          "indexed": false,
          "internalType": "uint256",
          "name": "_id",
          "type": "uint256"
        },
        {
          "indexed": false,
          "internalType": "address",
          "name": "_unlockerAddress",
          "type": "address"
        }
      ],
      "name": "TokenUnlocked",
      "type": "event"
    },
    {
      "anonymous": false,
      "inputs": [
        {
          "indexed": true,
          "internalType": "address",
          "name": "from",
          "type": "address"
        },
        {
          "indexed": true,
          "internalType": "address",
          "name": "to",
          "type": "address"
        },
        {
          "indexed": true,
          "internalType": "uint256",
          "name": "tokenId",
          "type": "uint256"
        }
      ],
      "name": "Transfer",
      "type": "event"
    },
    {
      "inputs": [
        {
          "internalType": "address",
          "name": "to",
          "type": "address"
        },
        {
          "internalType": "uint256",
          "name": "tokenId",
          "type": "uint256"
        }
      ],
      "name": "approve",
      "outputs": [],
      "stateMutability": "nonpayable",
      "type": "function"
    },
    {
      "inputs": [
        {
          "internalType": "address",
          "name": "owner",
          "type": "address"
        }
      ],
      "name": "balanceOf",
      "outputs": [
        {
          "internalType": "uint256",
          "name": "",
          "type": "uint256"
        }
      ],
      "stateMutability": "view",
      "type": "function"
    },
    {
      "inputs": [],
      "name": "baseExtension",
      "outputs": [
        {
          "internalType": "string",
          "name": "",
          "type": "string"
        }
      ],
      "stateMutability": "view",
      "type": "function"
    },
    {
      "inputs": [],
      "name": "baseURI",
      "outputs": [
        {
          "internalType": "string",
          "name": "",
          "type": "string"
        }
      ],
      "stateMutability": "view",
      "type": "function"
    },
    {
      "inputs": [
        {
          "internalType": "uint256",
          "name": "tokenId",
          "type": "uint256"
        }
      ],
      "name": "getApproved",
      "outputs": [
        {
          "internalType": "address",
          "name": "",
          "type": "address"
        }
      ],
      "stateMutability": "view",
      "type": "function"
    },
    {
      "inputs": [
        {
          "internalType": "address",
          "name": "owner",
          "type": "address"
        },
        {
          "internalType": "address",
          "name": "operator",
          "type": "address"
        }
      ],
      "name": "isApprovedForAll",
      "outputs": [
        {
          "internalType": "bool",
          "name": "",
          "type": "bool"
        }
      ],
      "stateMutability": "view",
      "type": "function"
    },
    {
      "inputs": [],
      "name": "name",
      "outputs": [
        {
          "internalType": "string",
          "name": "",
          "type": "string"
        }
      ],
      "stateMutability": "view",
      "type": "function"
    },
    {
      "inputs": [],
      "name": "owner",
      "outputs": [
        {
          "internalType": "address",
          "name": "",
          "type": "address"
        }
      ],
      "stateMutability": "view",
      "type": "function"
    },
    {
      "inputs": [
        {
          "internalType": "uint256",
          "name": "tokenId",
          "type": "uint256"
        }
      ],
      "name": "ownerOf",
      "outputs": [
        {
          "internalType": "address",
          "name": "",
          "type": "address"
        }
      ],
      "stateMutability": "view",
      "type": "function"
    },
    {
      "inputs": [],
      "name": "renounceOwnership",
      "outputs": [],
      "stateMutability": "nonpayable",
      "type": "function"
    },
    {
      "inputs": [
        {
          "internalType": "address",
          "name": "from",
          "type": "address"
        },
        {
          "internalType": "address",
          "name": "to",
          "type": "address"
        },
        {
          "internalType": "uint256",
          "name": "tokenId",
          "type": "uint256"
        }
      ],
      "name": "safeTransferFrom",
      "outputs": [],
      "stateMutability": "nonpayable",
      "type": "function"
    },
    {
      "inputs": [
        {
          "internalType": "address",
          "name": "from",
          "type": "address"
        },
        {
          "internalType": "address",
          "name": "to",
          "type": "address"
        },
        {
          "internalType": "uint256",
          "name": "tokenId",
          "type": "uint256"
        },
        {
          "internalType": "bytes",
          "name": "_data",
          "type": "bytes"
        }
      ],
      "name": "safeTransferFrom",
      "outputs": [],
      "stateMutability": "nonpayable",
      "type": "function"
    },
    {
      "inputs": [
        {
          "internalType": "address",
          "name": "operator",
          "type": "address"
        },
        {
          "internalType": "bool",
          "name": "approved",
          "type": "bool"
        }
      ],
      "name": "setApprovalForAll",
      "outputs": [],
      "stateMutability": "nonpayable",
      "type": "function"
    },
    {
      "inputs": [
        {
          "internalType": "bytes4",
          "name": "interfaceId",
          "type": "bytes4"
        }
      ],
      "name": "supportsInterface",
      "outputs": [
        {
          "internalType": "bool",
          "name": "",
          "type": "bool"
        }
      ],
      "stateMutability": "view",
      "type": "function"
    },
    {
      "inputs": [],
      "name": "symbol",
      "outputs": [
        {
          "internalType": "string",
          "name": "",
          "type": "string"
        }
      ],
      "stateMutability": "view",
      "type": "function"
    },
    {
      "inputs": [
        {
          "internalType": "uint256",
          "name": "tokenId",
          "type": "uint256"
        }
      ],
      "name": "tokenURI",
      "outputs": [
        {
          "internalType": "string",
          "name": "",
          "type": "string"
        }
      ],
      "stateMutability": "view",
      "type": "function"
    },
    {
      "inputs": [
        {
          "internalType": "address",
          "name": "from",
          "type": "address"
        },
        {
          "internalType": "address",
          "name": "to",
          "type": "address"
        },
        {
          "internalType": "uint256",
          "name": "tokenId",
          "type": "uint256"
        }
      ],
      "name": "transferFrom",
      "outputs": [],
      "stateMutability": "nonpayable",
      "type": "function"
    },
    {
      "inputs": [
        {
          "internalType": "address",
          "name": "newOwner",
          "type": "address"
        }
      ],
      "name": "transferOwnership",
      "outputs": [],
      "stateMutability": "nonpayable",
      "type": "function"
    },
    {
      "inputs": [
        {
          "internalType": "string",
          "name": "_newBaseURI",
          "type": "string"
        }
      ],
      "name": "setBaseURI",
      "outputs": [],
      "stateMutability": "nonpayable",
      "type": "function"
    },
    {
      "inputs": [
        {
          "internalType": "string",
          "name": "_newBaseExtension",
          "type": "string"
        }
      ],
      "name": "setBaseExtension",
      "outputs": [],
      "stateMutability": "nonpayable",
      "type": "function"
    },
    {
      "inputs": [
        {
          "internalType": "uint256",
          "name": "_price",
          "type": "uint256"
        }
      ],
      "name": "safeMint",
      "outputs": [],
      "stateMutability": "payable",
      "type": "function"
    },
    {
      "inputs": [
        {
          "internalType": "uint256",
          "name": "_id",
          "type": "uint256"
        },
        {
          "internalType": "uint256",
          "name": "_price",
          "type": "uint256"
        }
      ],
      "name": "addToMarketPlace",
      "outputs": [],
      "stateMutability": "nonpayable",
      "type": "function"
    },
    {
      "inputs": [
        {
          "internalType": "uint256",
          "name": "_tokenId",
          "type": "uint256"
        }
      ],
      "name": "getCriollo",
      "outputs": [
        {
          "internalType": "uint256",
          "name": "tokenId",
          "type": "uint256"
        },
        {
          "internalType": "uint256",
          "name": "price",
          "type": "uint256"
        },
        {
          "internalType": "uint256",
          "name": "state",
          "type": "uint256"
        },
        {
          "internalType": "address",
          "name": "tokenOwner",
          "type": "address"
        }
      ],
      "stateMutability": "view",
      "type": "function"
    },
    {
      "inputs": [
        {
          "internalType": "uint256",
          "name": "_id",
          "type": "uint256"
        }
      ],
      "name": "buy",
      "outputs": [],
      "stateMutability": "payable",
      "type": "function"
    },
    {
      "inputs": [
        {
          "internalType": "uint256",
          "name": "_id",
          "type": "uint256"
        }
      ],
      "name": "shipped",
      "outputs": [],
      "stateMutability": "nonpayable",
      "type": "function"
    },
    {
      "inputs": [
        {
          "internalType": "uint256",
          "name": "_id",
          "type": "uint256"
        }
      ],
      "name": "unlockToken",
      "outputs": [],
      "stateMutability": "nonpayable",
      "type": "function"
    },
    {
      "inputs": [],
      "name": "withdraw",
      "outputs": [],
      "stateMutability": "payable",
      "type": "function"
    }
  ],
  "bytecode": "0x60806040526040518060400160405280600581526020017f2e6a736f6e000000000000000000000000000000000000000000000000000000815250600890805190602001906200005192919062000298565b503480156200005f57600080fd5b5060405162004f5c38038062004f5c8339818101604052810190620000859190620003ba565b828281600090805190602001906200009f92919062000298565b508060019080519060200190620000b892919062000298565b505050620000db620000cf620000f560201b60201c565b620000fd60201b60201c565b620000ec81620001c360201b60201c565b5050506200064e565b600033905090565b6000600660009054906101000a900473ffffffffffffffffffffffffffffffffffffffff16905081600660006101000a81548173ffffffffffffffffffffffffffffffffffffffff021916908373ffffffffffffffffffffffffffffffffffffffff1602179055508173ffffffffffffffffffffffffffffffffffffffff168173ffffffffffffffffffffffffffffffffffffffff167f8be0079c531659141344cd1fd0a4f28419497f9722a3daafe3b4186f6b6457e060405160405180910390a35050565b620001d3620000f560201b60201c565b73ffffffffffffffffffffffffffffffffffffffff16620001f96200026e60201b60201c565b73ffffffffffffffffffffffffffffffffffffffff161462000252576040517f08c379a0000000000000000000000000000000000000000000000000000000008152600401620002499062000482565b60405180910390fd5b80600790805190602001906200026a92919062000298565b5050565b6000600660009054906101000a900473ffffffffffffffffffffffffffffffffffffffff16905090565b828054620002a6906200054a565b90600052602060002090601f016020900481019282620002ca576000855562000316565b82601f10620002e557805160ff191683800117855562000316565b8280016001018555821562000316579182015b8281111562000315578251825591602001919060010190620002f8565b5b50905062000325919062000329565b5090565b5b80821115620003445760008160009055506001016200032a565b5090565b60006200035f6200035984620004cd565b620004a4565b9050828152602081018484840111156200037857600080fd5b6200038584828562000514565b509392505050565b600082601f8301126200039f57600080fd5b8151620003b184826020860162000348565b91505092915050565b600080600060608486031215620003d057600080fd5b600084015167ffffffffffffffff811115620003eb57600080fd5b620003f9868287016200038d565b935050602084015167ffffffffffffffff8111156200041757600080fd5b62000425868287016200038d565b925050604084015167ffffffffffffffff8111156200044357600080fd5b62000451868287016200038d565b9150509250925092565b60006200046a60208362000503565b9150620004778262000625565b602082019050919050565b600060208201905081810360008301526200049d816200045b565b9050919050565b6000620004b0620004c3565b9050620004be828262000580565b919050565b6000604051905090565b600067ffffffffffffffff821115620004eb57620004ea620005e5565b5b620004f68262000614565b9050602081019050919050565b600082825260208201905092915050565b60005b838110156200053457808201518184015260208101905062000517565b8381111562000544576000848401525b50505050565b600060028204905060018216806200056357607f821691505b602082108114156200057a5762000579620005b6565b5b50919050565b6200058b8262000614565b810181811067ffffffffffffffff82111715620005ad57620005ac620005e5565b5b80604052505050565b7f4e487b7100000000000000000000000000000000000000000000000000000000600052602260045260246000fd5b7f4e487b7100000000000000000000000000000000000000000000000000000000600052604160045260246000fd5b6000601f19601f8301169050919050565b7f4f776e61626c653a2063616c6c6572206973206e6f7420746865206f776e6572600082015250565b6148fe806200065e6000396000f3fe60806040526004361061019c5760003560e01c8063715018a6116100ec578063c66828621161008a578063da3ef23f11610064578063da3ef23f1461058a578063dd2e0ac0146105b3578063e985e9c5146105dc578063f2fde38b146106195761019c565b8063c668286214610506578063c87b56dd14610531578063d96a094a1461056e5761019c565b806395d89b41116100c657806395d89b4114610460578063a22cb4651461048b578063ae3fc702146104b4578063b88d4fde146104dd5761019c565b8063715018a6146103f55780637a86196f1461040c5780638da5cb5b146104355761019c565b80633ccfd60b116101595780636352211e116101335780636352211e146103105780636c0360eb1461034d5780636df437541461037857806370a08231146103b85761019c565b80633ccfd60b146102b457806342842e0e146102be57806355f804b3146102e75761019c565b806301ffc9a7146101a157806306fdde03146101de578063081812fc14610209578063095ea7b31461024657806323b872dd1461026f57806331c864e814610298575b600080fd5b3480156101ad57600080fd5b506101c860048036038101906101c391906132de565b610642565b6040516101d5919061392e565b60405180910390f35b3480156101ea57600080fd5b506101f3610724565b6040516102009190613949565b60405180910390f35b34801561021557600080fd5b50610230600480360381019061022b9190613371565b6107b6565b60405161023d9190613890565b60405180910390f35b34801561025257600080fd5b5061026d600480360381019061026891906132a2565b61083b565b005b34801561027b57600080fd5b506102966004803603810190610291919061319c565b610953565b005b6102b260048036038101906102ad9190613371565b6109b3565b005b6102bc610c09565b005b3480156102ca57600080fd5b506102e560048036038101906102e0919061319c565b610d34565b005b3480156102f357600080fd5b5061030e60048036038101906103099190613330565b610d54565b005b34801561031c57600080fd5b5061033760048036038101906103329190613371565b610dea565b6040516103449190613890565b60405180910390f35b34801561035957600080fd5b50610362610e9c565b60405161036f9190613949565b60405180910390f35b34801561038457600080fd5b5061039f600480360381019061039a9190613371565b610f2a565b6040516103af9493929190613cc6565b60405180910390f35b3480156103c457600080fd5b506103df60048036038101906103da9190613137565b611000565b6040516103ec9190613cab565b60405180910390f35b34801561040157600080fd5b5061040a6110b8565b005b34801561041857600080fd5b50610433600480360381019061042e919061339a565b611140565b005b34801561044157600080fd5b5061044a611360565b6040516104579190613890565b60405180910390f35b34801561046c57600080fd5b5061047561138a565b6040516104829190613949565b60405180910390f35b34801561049757600080fd5b506104b260048036038101906104ad9190613266565b61141c565b005b3480156104c057600080fd5b506104db60048036038101906104d69190613371565b61159d565b005b3480156104e957600080fd5b5061050460048036038101906104ff91906131eb565b6117a1565b005b34801561051257600080fd5b5061051b611803565b6040516105289190613949565b60405180910390f35b34801561053d57600080fd5b5061055860048036038101906105539190613371565b611891565b6040516105659190613949565b60405180910390f35b61058860048036038101906105839190613371565b611938565b005b34801561059657600080fd5b506105b160048036038101906105ac9190613330565b611e0d565b005b3480156105bf57600080fd5b506105da60048036038101906105d59190613371565b611ea3565b005b3480156105e857600080fd5b5061060360048036038101906105fe9190613160565b612059565b604051610610919061392e565b60405180910390f35b34801561062557600080fd5b50610640600480360381019061063b9190613137565b6120ed565b005b60007f80ac58cd000000000000000000000000000000000000000000000000000000007bffffffffffffffffffffffffffffffffffffffffffffffffffffffff1916827bffffffffffffffffffffffffffffffffffffffffffffffffffffffff1916148061070d57507f5b5e139f000000000000000000000000000000000000000000000000000000007bffffffffffffffffffffffffffffffffffffffffffffffffffffffff1916827bffffffffffffffffffffffffffffffffffffffffffffffffffffffff1916145b8061071d575061071c826121e5565b5b9050919050565b60606000805461073390613f51565b80601f016020809104026020016040519081016040528092919081815260200182805461075f90613f51565b80156107ac5780601f10610781576101008083540402835291602001916107ac565b820191906000526020600020905b81548152906001019060200180831161078f57829003601f168201915b5050505050905090565b60006107c18261224f565b610800576040517f08c379a00000000000000000000000000000000000000000000000000000000081526004016107f790613bab565b60405180910390fd5b6004600083815260200190815260200160002060009054906101000a900473ffffffffffffffffffffffffffffffffffffffff169050919050565b600061084682610dea565b90508073ffffffffffffffffffffffffffffffffffffffff168373ffffffffffffffffffffffffffffffffffffffff1614156108b7576040517f08c379a00000000000000000000000000000000000000000000000000000000081526004016108ae90613c4b565b60405180910390fd5b8073ffffffffffffffffffffffffffffffffffffffff166108d66122bb565b73ffffffffffffffffffffffffffffffffffffffff1614806109055750610904816108ff6122bb565b612059565b5b610944576040517f08c379a000000000000000000000000000000000000000000000000000000000815260040161093b90613b0b565b60405180910390fd5b61094e83836122c3565b505050565b61096461095e6122bb565b8261237c565b6109a3576040517f08c379a000000000000000000000000000000000000000000000000000000000815260040161099a90613c8b565b60405180910390fd5b6109ae83838361245a565b505050565b6109bb6122bb565b73ffffffffffffffffffffffffffffffffffffffff166109d9611360565b73ffffffffffffffffffffffffffffffffffffffff1614610a2f576040517f08c379a0000000000000000000000000000000000000000000000000000000008152600401610a2690613bcb565b60405180910390fd5b6000610a3b6009612584565b9050604051806080016040528082815260200183815260200160006004811115610a8e577f4e487b7100000000000000000000000000000000000000000000000000000000600052602160045260246000fd5b8152602001610a9b611360565b73ffffffffffffffffffffffffffffffffffffffff16815250600a6000838152602001908152602001600020600082015181600001556020820151816001015560408201518160020160006101000a81548160ff02191690836004811115610b2c577f4e487b7100000000000000000000000000000000000000000000000000000000600052602160045260246000fd5b021790555060608201518160020160016101000a81548173ffffffffffffffffffffffffffffffffffffffff021916908373ffffffffffffffffffffffffffffffffffffffff160217905550905050610b853382612592565b3373ffffffffffffffffffffffffffffffffffffffff16610ba582610dea565b73ffffffffffffffffffffffffffffffffffffffff1614610bfb576040517f08c379a0000000000000000000000000000000000000000000000000000000008152600401610bf290613b6b565b60405180910390fd5b610c0560096125b0565b5050565b610c116122bb565b73ffffffffffffffffffffffffffffffffffffffff16610c2f611360565b73ffffffffffffffffffffffffffffffffffffffff1614610c85576040517f08c379a0000000000000000000000000000000000000000000000000000000008152600401610c7c90613bcb565b60405180910390fd5b60003373ffffffffffffffffffffffffffffffffffffffff1647604051610cab9061387b565b60006040518083038185875af1925050503d8060008114610ce8576040519150601f19603f3d011682016040523d82523d6000602084013e610ced565b606091505b5050905080610d31576040517f08c379a0000000000000000000000000000000000000000000000000000000008152600401610d2890613c6b565b60405180910390fd5b50565b610d4f838383604051806020016040528060008152506117a1565b505050565b610d5c6122bb565b73ffffffffffffffffffffffffffffffffffffffff16610d7a611360565b73ffffffffffffffffffffffffffffffffffffffff1614610dd0576040517f08c379a0000000000000000000000000000000000000000000000000000000008152600401610dc790613bcb565b60405180910390fd5b8060079080519060200190610de6929190612f5b565b5050565b6000806002600084815260200190815260200160002060009054906101000a900473ffffffffffffffffffffffffffffffffffffffff169050600073ffffffffffffffffffffffffffffffffffffffff168173ffffffffffffffffffffffffffffffffffffffff161415610e93576040517f08c379a0000000000000000000000000000000000000000000000000000000008152600401610e8a90613b4b565b60405180910390fd5b80915050919050565b60078054610ea990613f51565b80601f0160208091040260200160405190810160405280929190818152602001828054610ed590613f51565b8015610f225780601f10610ef757610100808354040283529160200191610f22565b820191906000526020600020905b815481529060010190602001808311610f0557829003601f168201915b505050505081565b600080600080600a6000868152602001908152602001600020600001549350600a6000868152602001908152602001600020600101549250600a600086815260200190815260200160002060020160009054906101000a900460ff166004811115610fbe577f4e487b7100000000000000000000000000000000000000000000000000000000600052602160045260246000fd5b9150600a600086815260200190815260200160002060020160019054906101000a900473ffffffffffffffffffffffffffffffffffffffff1690509193509193565b60008073ffffffffffffffffffffffffffffffffffffffff168273ffffffffffffffffffffffffffffffffffffffff161415611071576040517f08c379a000000000000000000000000000000000000000000000000000000000815260040161106890613b2b565b60405180910390fd5b600360008373ffffffffffffffffffffffffffffffffffffffff1673ffffffffffffffffffffffffffffffffffffffff168152602001908152602001600020549050919050565b6110c06122bb565b73ffffffffffffffffffffffffffffffffffffffff166110de611360565b73ffffffffffffffffffffffffffffffffffffffff1614611134576040517f08c379a000000000000000000000000000000000000000000000000000000000815260040161112b90613bcb565b60405180910390fd5b61113e60006125c6565b565b816000600481111561117b577f4e487b7100000000000000000000000000000000000000000000000000000000600052602160045260246000fd5b600a600083815260200190815260200160002060020160009054906101000a900460ff1660048111156111d7577f4e487b7100000000000000000000000000000000000000000000000000000000600052602160045260246000fd5b14611217576040517f08c379a000000000000000000000000000000000000000000000000000000000815260040161120e90613aab565b60405180910390fd5b61121f6122bb565b73ffffffffffffffffffffffffffffffffffffffff1661123d611360565b73ffffffffffffffffffffffffffffffffffffffff1614611293576040517f08c379a000000000000000000000000000000000000000000000000000000000815260040161128a90613bcb565b60405180910390fd5b61129c8361224f565b6112db576040517f08c379a00000000000000000000000000000000000000000000000000000000081526004016112d290613aeb565b60405180910390fd5b6001600a600085815260200190815260200160002060020160006101000a81548160ff0219169083600481111561133b577f4e487b7100000000000000000000000000000000000000000000000000000000600052602160045260246000fd5b021790555081600a600085815260200190815260200160002060010181905550505050565b6000600660009054906101000a900473ffffffffffffffffffffffffffffffffffffffff16905090565b60606001805461139990613f51565b80601f01602080910402602001604051908101604052809291908181526020018280546113c590613f51565b80156114125780601f106113e757610100808354040283529160200191611412565b820191906000526020600020905b8154815290600101906020018083116113f557829003601f168201915b5050505050905090565b6114246122bb565b73ffffffffffffffffffffffffffffffffffffffff168273ffffffffffffffffffffffffffffffffffffffff161415611492576040517f08c379a000000000000000000000000000000000000000000000000000000000815260040161148990613a4b565b60405180910390fd5b806005600061149f6122bb565b73ffffffffffffffffffffffffffffffffffffffff1673ffffffffffffffffffffffffffffffffffffffff16815260200190815260200160002060008473ffffffffffffffffffffffffffffffffffffffff1673ffffffffffffffffffffffffffffffffffffffff16815260200190815260200160002060006101000a81548160ff0219169083151502179055508173ffffffffffffffffffffffffffffffffffffffff1661154c6122bb565b73ffffffffffffffffffffffffffffffffffffffff167f17307eab39ab6107e8899845ad3d59bd9653f200f220920489ca2b5937696c3183604051611591919061392e565b60405180910390a35050565b6115a56122bb565b73ffffffffffffffffffffffffffffffffffffffff166115c3611360565b73ffffffffffffffffffffffffffffffffffffffff1614611619576040517f08c379a000000000000000000000000000000000000000000000000000000000815260040161161090613bcb565b60405180910390fd5b8060026004811115611654577f4e487b7100000000000000000000000000000000000000000000000000000000600052602160045260246000fd5b600a600083815260200190815260200160002060020160009054906101000a900460ff1660048111156116b0577f4e487b7100000000000000000000000000000000000000000000000000000000600052602160045260246000fd5b146116f0576040517f08c379a00000000000000000000000000000000000000000000000000000000081526004016116e7906139eb565b60405180910390fd5b6116f98261224f565b611738576040517f08c379a000000000000000000000000000000000000000000000000000000000815260040161172f90613aeb565b60405180910390fd5b6003600a600084815260200190815260200160002060020160006101000a81548160ff02191690836004811115611798577f4e487b7100000000000000000000000000000000000000000000000000000000600052602160045260246000fd5b02179055505050565b6117b26117ac6122bb565b8361237c565b6117f1576040517f08c379a00000000000000000000000000000000000000000000000000000000081526004016117e890613c8b565b60405180910390fd5b6117fd8484848461268c565b50505050565b6008805461181090613f51565b80601f016020809104026020016040519081016040528092919081815260200182805461183c90613f51565b80156118895780601f1061185e57610100808354040283529160200191611889565b820191906000526020600020905b81548152906001019060200180831161186c57829003601f168201915b505050505081565b606061189c8261224f565b6118db576040517f08c379a00000000000000000000000000000000000000000000000000000000081526004016118d290613c2b565b60405180910390fd5b60006118e56126e8565b905060008151116119055760405180602001604052806000815250611930565b8061190f8461277a565b604051602001611920929190613857565b6040516020818303038152906040525b915050919050565b8060016004811115611973577f4e487b7100000000000000000000000000000000000000000000000000000000600052602160045260246000fd5b600a600083815260200190815260200160002060020160009054906101000a900460ff1660048111156119cf577f4e487b7100000000000000000000000000000000000000000000000000000000600052602160045260246000fd5b1480611a6d5750600480811115611a0f577f4e487b7100000000000000000000000000000000000000000000000000000000600052602160045260246000fd5b600a600083815260200190815260200160002060020160009054906101000a900460ff166004811115611a6b577f4e487b7100000000000000000000000000000000000000000000000000000000600052602160045260246000fd5b145b611aac576040517f08c379a0000000000000000000000000000000000000000000000000000000008152600401611aa390613a6b565b60405180910390fd5b600a60008381526020019081526020016000206001015480341015611b06576040517f08c379a0000000000000000000000000000000000000000000000000000000008152600401611afd90613beb565b60405180910390fd5b611b0f8361224f565b611b4e576040517f08c379a0000000000000000000000000000000000000000000000000000000008152600401611b4590613aeb565b60405180910390fd5b6000600a600085815260200190815260200160002060020160019054906101000a900473ffffffffffffffffffffffffffffffffffffffff169050611b9c611b9585610dea565b338661245a565b33600a600086815260200190815260200160002060020160016101000a81548173ffffffffffffffffffffffffffffffffffffffff021916908373ffffffffffffffffffffffffffffffffffffffff16021790555060016004811115611c2b577f4e487b7100000000000000000000000000000000000000000000000000000000600052602160045260246000fd5b600a600086815260200190815260200160002060020160009054906101000a900460ff166004811115611c87577f4e487b7100000000000000000000000000000000000000000000000000000000600052602160045260246000fd5b1415611cf3576002600a600086815260200190815260200160002060020160006101000a81548160ff02191690836004811115611ced577f4e487b7100000000000000000000000000000000000000000000000000000000600052602160045260246000fd5b02179055505b60008173ffffffffffffffffffffffffffffffffffffffff1634604051611d199061387b565b60006040518083038185875af1925050503d8060008114611d56576040519150601f19603f3d011682016040523d82523d6000602084013e611d5b565b606091505b5050905080611d9f576040517f08c379a0000000000000000000000000000000000000000000000000000000008152600401611d9690613c6b565b60405180910390fd5b7f12cb4648cf3058b17ceeb33e579f8b0bc269fe0843f3900b8e24b6c54871703c33600a600088815260200190815260200160002060010154600a600089815260200190815260200160002060000154604051611dfe939291906138f7565b60405180910390a15050505050565b611e156122bb565b73ffffffffffffffffffffffffffffffffffffffff16611e33611360565b73ffffffffffffffffffffffffffffffffffffffff1614611e89576040517f08c379a0000000000000000000000000000000000000000000000000000000008152600401611e8090613bcb565b60405180910390fd5b8060089080519060200190611e9f929190612f5b565b5050565b8060036004811115611ede577f4e487b7100000000000000000000000000000000000000000000000000000000600052602160045260246000fd5b600a600083815260200190815260200160002060020160009054906101000a900460ff166004811115611f3a577f4e487b7100000000000000000000000000000000000000000000000000000000600052602160045260246000fd5b14611f7a576040517f08c379a0000000000000000000000000000000000000000000000000000000008152600401611f71906139ab565b60405180910390fd5b3373ffffffffffffffffffffffffffffffffffffffff16611f9a83610dea565b73ffffffffffffffffffffffffffffffffffffffff1614611ff0576040517f08c379a0000000000000000000000000000000000000000000000000000000008152600401611fe790613acb565b60405180910390fd5b6004600a600084815260200190815260200160002060020160006101000a81548160ff02191690836004811115612050577f4e487b7100000000000000000000000000000000000000000000000000000000600052602160045260246000fd5b02179055505050565b6000600560008473ffffffffffffffffffffffffffffffffffffffff1673ffffffffffffffffffffffffffffffffffffffff16815260200190815260200160002060008373ffffffffffffffffffffffffffffffffffffffff1673ffffffffffffffffffffffffffffffffffffffff16815260200190815260200160002060009054906101000a900460ff16905092915050565b6120f56122bb565b73ffffffffffffffffffffffffffffffffffffffff16612113611360565b73ffffffffffffffffffffffffffffffffffffffff1614612169576040517f08c379a000000000000000000000000000000000000000000000000000000000815260040161216090613bcb565b60405180910390fd5b600073ffffffffffffffffffffffffffffffffffffffff168173ffffffffffffffffffffffffffffffffffffffff1614156121d9576040517f08c379a00000000000000000000000000000000000000000000000000000000081526004016121d0906139cb565b60405180910390fd5b6121e2816125c6565b50565b60007f01ffc9a7000000000000000000000000000000000000000000000000000000007bffffffffffffffffffffffffffffffffffffffffffffffffffffffff1916827bffffffffffffffffffffffffffffffffffffffffffffffffffffffff1916149050919050565b60008073ffffffffffffffffffffffffffffffffffffffff166002600084815260200190815260200160002060009054906101000a900473ffffffffffffffffffffffffffffffffffffffff1673ffffffffffffffffffffffffffffffffffffffff1614159050919050565b600033905090565b816004600083815260200190815260200160002060006101000a81548173ffffffffffffffffffffffffffffffffffffffff021916908373ffffffffffffffffffffffffffffffffffffffff160217905550808273ffffffffffffffffffffffffffffffffffffffff1661233683610dea565b73ffffffffffffffffffffffffffffffffffffffff167f8c5be1e5ebec7d5bd14f71427d1e84f3dd0314c0f7b2291e5b200ac8c7c3b92560405160405180910390a45050565b60006123878261224f565b6123c6576040517f08c379a00000000000000000000000000000000000000000000000000000000081526004016123bd90613a8b565b60405180910390fd5b60006123d183610dea565b90508073ffffffffffffffffffffffffffffffffffffffff168473ffffffffffffffffffffffffffffffffffffffff16148061244057508373ffffffffffffffffffffffffffffffffffffffff16612428846107b6565b73ffffffffffffffffffffffffffffffffffffffff16145b8061245157506124508185612059565b5b91505092915050565b600480811115612493577f4e487b7100000000000000000000000000000000000000000000000000000000600052602160045260246000fd5b600a600083815260200190815260200160002060020160009054906101000a900460ff1660048111156124ef577f4e487b7100000000000000000000000000000000000000000000000000000000600052602160045260246000fd5b148061253557506124fe611360565b73ffffffffffffffffffffffffffffffffffffffff1661251d82610dea565b73ffffffffffffffffffffffffffffffffffffffff16145b612574576040517f08c379a000000000000000000000000000000000000000000000000000000000815260040161256b9061396b565b60405180910390fd5b61257f838383612927565b505050565b600081600001549050919050565b6125ac828260405180602001604052806000815250612b83565b5050565b6001816000016000828254019250508190555050565b6000600660009054906101000a900473ffffffffffffffffffffffffffffffffffffffff16905081600660006101000a81548173ffffffffffffffffffffffffffffffffffffffff021916908373ffffffffffffffffffffffffffffffffffffffff1602179055508173ffffffffffffffffffffffffffffffffffffffff168173ffffffffffffffffffffffffffffffffffffffff167f8be0079c531659141344cd1fd0a4f28419497f9722a3daafe3b4186f6b6457e060405160405180910390a35050565b61269784848461245a565b6126a384848484612bde565b6126e2576040517f08c379a00000000000000000000000000000000000000000000000000000000081526004016126d99061398b565b60405180910390fd5b50505050565b6060600780546126f790613f51565b80601f016020809104026020016040519081016040528092919081815260200182805461272390613f51565b80156127705780601f1061274557610100808354040283529160200191612770565b820191906000526020600020905b81548152906001019060200180831161275357829003601f168201915b5050505050905090565b606060008214156127c2576040518060400160405280600181526020017f30000000000000000000000000000000000000000000000000000000000000008152509050612922565b600082905060005b600082146127f45780806127dd90613fb4565b915050600a826127ed9190613e36565b91506127ca565b60008167ffffffffffffffff811115612836577f4e487b7100000000000000000000000000000000000000000000000000000000600052604160045260246000fd5b6040519080825280601f01601f1916602001820160405280156128685781602001600182028036833780820191505090505b5090505b6000851461291b576001826128819190613e67565b9150600a856128909190613ffd565b603061289c9190613de0565b60f81b8183815181106128d8577f4e487b7100000000000000000000000000000000000000000000000000000000600052603260045260246000fd5b60200101907effffffffffffffffffffffffffffffffffffffffffffffffffffffffffffff1916908160001a905350600a856129149190613e36565b945061286c565b8093505050505b919050565b8273ffffffffffffffffffffffffffffffffffffffff1661294782610dea565b73ffffffffffffffffffffffffffffffffffffffff161461299d576040517f08c379a000000000000000000000000000000000000000000000000000000000815260040161299490613c0b565b60405180910390fd5b600073ffffffffffffffffffffffffffffffffffffffff168273ffffffffffffffffffffffffffffffffffffffff161415612a0d576040517f08c379a0000000000000000000000000000000000000000000000000000000008152600401612a0490613a2b565b60405180910390fd5b612a18838383612d75565b612a236000826122c3565b6001600360008573ffffffffffffffffffffffffffffffffffffffff1673ffffffffffffffffffffffffffffffffffffffff1681526020019081526020016000206000828254612a739190613e67565b925050819055506001600360008473ffffffffffffffffffffffffffffffffffffffff1673ffffffffffffffffffffffffffffffffffffffff1681526020019081526020016000206000828254612aca9190613de0565b92505081905550816002600083815260200190815260200160002060006101000a81548173ffffffffffffffffffffffffffffffffffffffff021916908373ffffffffffffffffffffffffffffffffffffffff160217905550808273ffffffffffffffffffffffffffffffffffffffff168473ffffffffffffffffffffffffffffffffffffffff167fddf252ad1be2c89b69c2b068fc378daa952ba7f163c4a11628f55a4df523b3ef60405160405180910390a4505050565b612b8d8383612d7a565b612b9a6000848484612bde565b612bd9576040517f08c379a0000000000000000000000000000000000000000000000000000000008152600401612bd09061398b565b60405180910390fd5b505050565b6000612bff8473ffffffffffffffffffffffffffffffffffffffff16612f48565b15612d68578373ffffffffffffffffffffffffffffffffffffffff1663150b7a02612c286122bb565b8786866040518563ffffffff1660e01b8152600401612c4a94939291906138ab565b602060405180830381600087803b158015612c6457600080fd5b505af1925050508015612c9557506040513d601f19601f82011682018060405250810190612c929190613307565b60015b612d18573d8060008114612cc5576040519150601f19603f3d011682016040523d82523d6000602084013e612cca565b606091505b50600081511415612d10576040517f08c379a0000000000000000000000000000000000000000000000000000000008152600401612d079061398b565b60405180910390fd5b805181602001fd5b63150b7a0260e01b7bffffffffffffffffffffffffffffffffffffffffffffffffffffffff1916817bffffffffffffffffffffffffffffffffffffffffffffffffffffffff191614915050612d6d565b600190505b949350505050565b505050565b600073ffffffffffffffffffffffffffffffffffffffff168273ffffffffffffffffffffffffffffffffffffffff161415612dea576040517f08c379a0000000000000000000000000000000000000000000000000000000008152600401612de190613b8b565b60405180910390fd5b612df38161224f565b15612e33576040517f08c379a0000000000000000000000000000000000000000000000000000000008152600401612e2a90613a0b565b60405180910390fd5b612e3f60008383612d75565b6001600360008473ffffffffffffffffffffffffffffffffffffffff1673ffffffffffffffffffffffffffffffffffffffff1681526020019081526020016000206000828254612e8f9190613de0565b92505081905550816002600083815260200190815260200160002060006101000a81548173ffffffffffffffffffffffffffffffffffffffff021916908373ffffffffffffffffffffffffffffffffffffffff160217905550808273ffffffffffffffffffffffffffffffffffffffff16600073ffffffffffffffffffffffffffffffffffffffff167fddf252ad1be2c89b69c2b068fc378daa952ba7f163c4a11628f55a4df523b3ef60405160405180910390a45050565b600080823b905060008111915050919050565b828054612f6790613f51565b90600052602060002090601f016020900481019282612f895760008555612fd0565b82601f10612fa257805160ff1916838001178555612fd0565b82800160010185558215612fd0579182015b82811115612fcf578251825591602001919060010190612fb4565b5b509050612fdd9190612fe1565b5090565b5b80821115612ffa576000816000905550600101612fe2565b5090565b600061301161300c84613d30565b613d0b565b90508281526020810184848401111561302957600080fd5b613034848285613f0f565b509392505050565b600061304f61304a84613d61565b613d0b565b90508281526020810184848401111561306757600080fd5b613072848285613f0f565b509392505050565b6000813590506130898161486c565b92915050565b60008135905061309e81614883565b92915050565b6000813590506130b38161489a565b92915050565b6000815190506130c88161489a565b92915050565b600082601f8301126130df57600080fd5b81356130ef848260208601612ffe565b91505092915050565b600082601f83011261310957600080fd5b813561311984826020860161303c565b91505092915050565b600081359050613131816148b1565b92915050565b60006020828403121561314957600080fd5b60006131578482850161307a565b91505092915050565b6000806040838503121561317357600080fd5b60006131818582860161307a565b92505060206131928582860161307a565b9150509250929050565b6000806000606084860312156131b157600080fd5b60006131bf8682870161307a565b93505060206131d08682870161307a565b92505060406131e186828701613122565b9150509250925092565b6000806000806080858703121561320157600080fd5b600061320f8782880161307a565b94505060206132208782880161307a565b935050604061323187828801613122565b925050606085013567ffffffffffffffff81111561324e57600080fd5b61325a878288016130ce565b91505092959194509250565b6000806040838503121561327957600080fd5b60006132878582860161307a565b92505060206132988582860161308f565b9150509250929050565b600080604083850312156132b557600080fd5b60006132c38582860161307a565b92505060206132d485828601613122565b9150509250929050565b6000602082840312156132f057600080fd5b60006132fe848285016130a4565b91505092915050565b60006020828403121561331957600080fd5b6000613327848285016130b9565b91505092915050565b60006020828403121561334257600080fd5b600082013567ffffffffffffffff81111561335c57600080fd5b613368848285016130f8565b91505092915050565b60006020828403121561338357600080fd5b600061339184828501613122565b91505092915050565b600080604083850312156133ad57600080fd5b60006133bb85828601613122565b92505060206133cc85828601613122565b9150509250929050565b6133df81613e9b565b82525050565b6133ee81613ead565b82525050565b60006133ff82613d92565b6134098185613da8565b9350613419818560208601613f1e565b613422816140ea565b840191505092915050565b600061343882613d9d565b6134428185613dc4565b9350613452818560208601613f1e565b61345b816140ea565b840191505092915050565b600061347182613d9d565b61347b8185613dd5565b935061348b818560208601613f1e565b80840191505092915050565b60006134a4604183613dc4565b91506134af826140fb565b606082019050919050565b60006134c7603283613dc4565b91506134d282614170565b604082019050919050565b60006134ea603583613dc4565b91506134f5826141bf565b604082019050919050565b600061350d602683613dc4565b91506135188261420e565b604082019050919050565b6000613530603483613dc4565b915061353b8261425d565b604082019050919050565b6000613553601c83613dc4565b915061355e826142ac565b602082019050919050565b6000613576602483613dc4565b9150613581826142d5565b604082019050919050565b6000613599601983613dc4565b91506135a482614324565b602082019050919050565b60006135bc602f83613dc4565b91506135c78261434d565b604082019050919050565b60006135df602c83613dc4565b91506135ea8261439c565b604082019050919050565b6000613602603283613dc4565b915061360d826143eb565b604082019050919050565b6000613625603183613dc4565b91506136308261443a565b604082019050919050565b6000613648603783613dc4565b915061365382614489565b604082019050919050565b600061366b603883613dc4565b9150613676826144d8565b604082019050919050565b600061368e602a83613dc4565b915061369982614527565b604082019050919050565b60006136b1602983613dc4565b91506136bc82614576565b604082019050919050565b60006136d4603683613dc4565b91506136df826145c5565b604082019050919050565b60006136f7602083613dc4565b915061370282614614565b602082019050919050565b600061371a602c83613dc4565b91506137258261463d565b604082019050919050565b600061373d602083613dc4565b91506137488261468c565b602082019050919050565b6000613760602483613dc4565b915061376b826146b5565b604082019050919050565b6000613783602983613dc4565b915061378e82614704565b604082019050919050565b60006137a6602f83613dc4565b91506137b182614753565b604082019050919050565b60006137c9602183613dc4565b91506137d4826147a2565b604082019050919050565b60006137ec600083613db9565b91506137f7826147f1565b600082019050919050565b600061380f601083613dc4565b915061381a826147f4565b602082019050919050565b6000613832603183613dc4565b915061383d8261481d565b604082019050919050565b61385181613f05565b82525050565b60006138638285613466565b915061386f8284613466565b91508190509392505050565b6000613886826137df565b9150819050919050565b60006020820190506138a560008301846133d6565b92915050565b60006080820190506138c060008301876133d6565b6138cd60208301866133d6565b6138da6040830185613848565b81810360608301526138ec81846133f4565b905095945050505050565b600060608201905061390c60008301866133d6565b6139196020830185613848565b6139266040830184613848565b949350505050565b600060208201905061394360008301846133e5565b92915050565b60006020820190508181036000830152613963818461342d565b905092915050565b6000602082019050818103600083015261398481613497565b9050919050565b600060208201905081810360008301526139a4816134ba565b9050919050565b600060208201905081810360008301526139c4816134dd565b9050919050565b600060208201905081810360008301526139e481613500565b9050919050565b60006020820190508181036000830152613a0481613523565b9050919050565b60006020820190508181036000830152613a2481613546565b9050919050565b60006020820190508181036000830152613a4481613569565b9050919050565b60006020820190508181036000830152613a648161358c565b9050919050565b60006020820190508181036000830152613a84816135af565b9050919050565b60006020820190508181036000830152613aa4816135d2565b9050919050565b60006020820190508181036000830152613ac4816135f5565b9050919050565b60006020820190508181036000830152613ae481613618565b9050919050565b60006020820190508181036000830152613b048161363b565b9050919050565b60006020820190508181036000830152613b248161365e565b9050919050565b60006020820190508181036000830152613b4481613681565b9050919050565b60006020820190508181036000830152613b64816136a4565b9050919050565b60006020820190508181036000830152613b84816136c7565b9050919050565b60006020820190508181036000830152613ba4816136ea565b9050919050565b60006020820190508181036000830152613bc48161370d565b9050919050565b60006020820190508181036000830152613be481613730565b9050919050565b60006020820190508181036000830152613c0481613753565b9050919050565b60006020820190508181036000830152613c2481613776565b9050919050565b60006020820190508181036000830152613c4481613799565b9050919050565b60006020820190508181036000830152613c64816137bc565b9050919050565b60006020820190508181036000830152613c8481613802565b9050919050565b60006020820190508181036000830152613ca481613825565b9050919050565b6000602082019050613cc06000830184613848565b92915050565b6000608082019050613cdb6000830187613848565b613ce86020830186613848565b613cf56040830185613848565b613d0260608301846133d6565b95945050505050565b6000613d15613d26565b9050613d218282613f83565b919050565b6000604051905090565b600067ffffffffffffffff821115613d4b57613d4a6140bb565b5b613d54826140ea565b9050602081019050919050565b600067ffffffffffffffff821115613d7c57613d7b6140bb565b5b613d85826140ea565b9050602081019050919050565b600081519050919050565b600081519050919050565b600082825260208201905092915050565b600081905092915050565b600082825260208201905092915050565b600081905092915050565b6000613deb82613f05565b9150613df683613f05565b9250827fffffffffffffffffffffffffffffffffffffffffffffffffffffffffffffffff03821115613e2b57613e2a61402e565b5b828201905092915050565b6000613e4182613f05565b9150613e4c83613f05565b925082613e5c57613e5b61405d565b5b828204905092915050565b6000613e7282613f05565b9150613e7d83613f05565b925082821015613e9057613e8f61402e565b5b828203905092915050565b6000613ea682613ee5565b9050919050565b60008115159050919050565b60007fffffffff0000000000000000000000000000000000000000000000000000000082169050919050565b600073ffffffffffffffffffffffffffffffffffffffff82169050919050565b6000819050919050565b82818337600083830152505050565b60005b83811015613f3c578082015181840152602081019050613f21565b83811115613f4b576000848401525b50505050565b60006002820490506001821680613f6957607f821691505b60208210811415613f7d57613f7c61408c565b5b50919050565b613f8c826140ea565b810181811067ffffffffffffffff82111715613fab57613faa6140bb565b5b80604052505050565b6000613fbf82613f05565b91507fffffffffffffffffffffffffffffffffffffffffffffffffffffffffffffffff821415613ff257613ff161402e565b5b600182019050919050565b600061400882613f05565b915061401383613f05565b9250826140235761402261405d565b5b828206905092915050565b7f4e487b7100000000000000000000000000000000000000000000000000000000600052601160045260246000fd5b7f4e487b7100000000000000000000000000000000000000000000000000000000600052601260045260246000fd5b7f4e487b7100000000000000000000000000000000000000000000000000000000600052602260045260246000fd5b7f4e487b7100000000000000000000000000000000000000000000000000000000600052604160045260246000fd5b6000601f19601f8301169050919050565b7f4372696f6c6c6f546f6b656e3a204572726f722c205468697320746f6b656e2060008201527f6973206e6f74204c6f636b656420666f72206265656e207472616e736665722060208201527f2100000000000000000000000000000000000000000000000000000000000000604082015250565b7f4552433732313a207472616e7366657220746f206e6f6e20455243373231526560008201527f63656976657220696d706c656d656e7465720000000000000000000000000000602082015250565b7f4372696f6c6c6f546f6b656e3a204572726f722c205468697320746f6b656e2060008201527f686173206e6f74206265656e2053686970706564210000000000000000000000602082015250565b7f4f776e61626c653a206e6577206f776e657220697320746865207a65726f206160008201527f6464726573730000000000000000000000000000000000000000000000000000602082015250565b7f4372696f6c6c6f546f6b656e3a204572726f722c205468697320746f6b656e2060008201527f686173206e6f74206265656e204c6f636b656421000000000000000000000000602082015250565b7f4552433732313a20746f6b656e20616c7265616479206d696e74656400000000600082015250565b7f4552433732313a207472616e7366657220746f20746865207a65726f2061646460008201527f7265737300000000000000000000000000000000000000000000000000000000602082015250565b7f4552433732313a20617070726f766520746f2063616c6c657200000000000000600082015250565b7f4372696f6c6c6f546f6b656e3a204572726f722c205468697320746f6b656e2060008201527f6973206e6f7420666f722073616c650000000000000000000000000000000000602082015250565b7f4552433732313a206f70657261746f7220717565727920666f72206e6f6e657860008201527f697374656e7420746f6b656e0000000000000000000000000000000000000000602082015250565b7f4372696f6c6c6f546f6b656e3a204572726f722c205468697320746f6b656e2060008201527f63616e206e6f74206265206c6973746564210000000000000000000000000000602082015250565b7f4372696f6c6c6f546f6b656e3a204572726f722c20596f7520617265206e6f7460008201527f2074686520746f6b656e206f776e657221000000000000000000000000000000602082015250565b7f4372696f6c6c6f546f6b656e3a204572726f722c205468697320746f6b656e2060008201527f686173206e6f74206265656e206d696e74656420796574000000000000000000602082015250565b7f4552433732313a20617070726f76652063616c6c6572206973206e6f74206f7760008201527f6e6572206e6f7220617070726f76656420666f7220616c6c0000000000000000602082015250565b7f4552433732313a2062616c616e636520717565727920666f7220746865207a6560008201527f726f206164647265737300000000000000000000000000000000000000000000602082015250565b7f4552433732313a206f776e657220717565727920666f72206e6f6e657869737460008201527f656e7420746f6b656e0000000000000000000000000000000000000000000000602082015250565b7f4372696f6c6c6f73546f6b656e3a204572726f732c20546f6b656e207761732060008201527f6e6f74206d696e7465642073756363657366756c6c7900000000000000000000602082015250565b7f4552433732313a206d696e7420746f20746865207a65726f2061646472657373600082015250565b7f4552433732313a20617070726f76656420717565727920666f72206e6f6e657860008201527f697374656e7420746f6b656e0000000000000000000000000000000000000000602082015250565b7f4f776e61626c653a2063616c6c6572206973206e6f7420746865206f776e6572600082015250565b7f4372696f6c6c6f546f6b656e3a204572726f722c20546f6b656e20636f73742060008201527f6d6f726500000000000000000000000000000000000000000000000000000000602082015250565b7f4552433732313a207472616e73666572206f6620746f6b656e2074686174206960008201527f73206e6f74206f776e0000000000000000000000000000000000000000000000602082015250565b7f4552433732314d657461646174613a2055524920717565727920666f72206e6f60008201527f6e6578697374656e7420746f6b656e0000000000000000000000000000000000602082015250565b7f4552433732313a20617070726f76616c20746f2063757272656e74206f776e6560008201527f7200000000000000000000000000000000000000000000000000000000000000602082015250565b50565b7f5472616e73666572206661696c65642e00000000000000000000000000000000600082015250565b7f4552433732313a207472616e736665722063616c6c6572206973206e6f74206f60008201527f776e6572206e6f7220617070726f766564000000000000000000000000000000602082015250565b61487581613e9b565b811461488057600080fd5b50565b61488c81613ead565b811461489757600080fd5b50565b6148a381613eb9565b81146148ae57600080fd5b50565b6148ba81613f05565b81146148c557600080fd5b5056fea2646970667358221220d290f6e7279512e3dd8f71a7a03062a6e5304d37412188a618f6f17ad38346ba64736f6c63430008030033",
  "immutableReferences": {},
  "source": "// SPDX-License-Identifier: MIT\npragma solidity 0.8.3;\n\nimport \"@openzeppelin/contracts/token/ERC721/ERC721.sol\";\nimport \"@openzeppelin/contracts/access/Ownable.sol\";\nimport \"@openzeppelin/contracts/utils/Counters.sol\";\n\n/// @title A contract for creating NFT tokens\n/// @author Josue Perez\n/// @notice You can use this contract to Creates NFT tokens called CriollosToken\n/// This token is linked with a physical assets(a Chocolate) that will be send once\n/// the user buy it at our Market place, after receive the physical assets the user\n/// is able to trade the NFT token using another Market place for instance OpenSea\ncontract CriolloToken is ERC721, Ownable {\n    using Counters for Counters.Counter;\n\n    /// @notice Emitted when an user buy a NFT in our MarketPlace\n    /// @param owner The address of the Token Owner,\n    /// @param price The price for the token was bought\n    /// @param id The id of the NFT token.\n    /// @dev The price is only used in the first sale\n    event Purchase(address owner, uint256 price, uint256 id);\n\n    /// @notice Emitted when the token owner unlock the NFT once receive the chocolate\n    /// @param _id The id of the NFT token.\n    /// @param _unlockerAddress Address who unlocked the token\n    event TokenUnlocked(uint256 _id, address _unlockerAddress);\n\n    /// @notice State of the token.\n    /// @dev Used for handling the intial phase of the workflow,\n    /// after Users unlock the token, state should remain the same.\n    enum State {\n        NotListed,\n        ForSale,\n        Locked,\n        Shipped,\n        Unlocked\n    }\n\n    /// @notice State object for handling the state of the NFT\n    /// @dev tokenIs is incremented using Counters\n    struct Criollo {\n        uint256 tokenId;\n        uint256 price;\n        State state;\n        address payable tokenOwner;\n    }\n\n    string public baseURI;\n    string public baseExtension = \".json\";\n\n    Counters.Counter private _tokenIdCounter;\n\n    /// @dev Mapping from token ID to Criollo objects\n    mapping(uint256 => Criollo) criollos;\n\n    /// @dev Generate an exception if token can not be Listed in the MarketPlace\n    modifier canBeListed(uint256 _id) {\n        require(\n            criollos[_id].state == State.NotListed,\n            \"CriolloToken: Error, This token can not be listed!\"\n        );\n        _;\n    }\n\n    /// @dev Generate an exception if token is not unlocked\n    modifier isUnlocked(uint256 _id) {\n        require(\n            criollos[_id].state == State.Unlocked,\n            \"CriolloToken: Error, This token is not Unlocked !\"\n        );\n        _;\n    }\n\n    /// @dev Generate an exception if tocken is not Locked.\n    modifier isLocked(uint256 _id) {\n        require(\n            criollos[_id].state == State.Locked,\n            \"CriolloToken: Error, This token has not been Locked!\"\n        );\n        _;\n    }\n\n    /// @dev Generate an exception if tocken is not Shipped\n    modifier isShipped(uint256 _id) {\n        require(\n            criollos[_id].state == State.Shipped,\n            \"CriolloToken: Error, This token has not been Shipped!\"\n        );\n        _;\n    }\n\n    /// @dev Generate an exception if tocken is not For Sale\n    modifier forSale(uint256 _id) {\n        require(\n            criollos[_id].state == State.ForSale ||\n                criollos[_id].state == State.Unlocked,\n            \"CriolloToken: Error, This token is not for sale\"\n        );\n        _;\n    }\n\n    /// @dev Generate an exception if the user does not send exact amount of ether\n    modifier paidExactAmount(uint256 _price) {\n        require(msg.value >= _price, \"CriolloToken: Error, Token cost more\");\n        _;\n    }\n\n    /// @notice Constructor called once when deploy the contract\n    /// @param name_ Name of the NFT token\n    /// @param symbol_ Symbol of the NFT\n    /// @param _initBaseURI Contains the base URL where the metadata of the NFT is stored\n    constructor(\n        string memory name_,\n        string memory symbol_,\n        string memory _initBaseURI\n    ) ERC721(name_, symbol_) {\n        setBaseURI(_initBaseURI);\n    }\n\n    function _baseURI() internal view virtual override returns (string memory) {\n        return baseURI;\n    }\n\n    function setBaseURI(string memory _newBaseURI) public onlyOwner {\n        baseURI = _newBaseURI;\n    }\n\n    function setBaseExtension(string memory _newBaseExtension)\n        public\n        onlyOwner\n    {\n        baseExtension = _newBaseExtension;\n    }\n\n    /// @notice Mints a new token\n    /// @dev Only the contract owner can mints tokens\n    /// @param _price Initial price for the token.\n    function safeMint(uint256 _price) public payable onlyOwner {\n        uint256 _tokenId = _tokenIdCounter.current();\n\n        criollos[_tokenId] = Criollo({\n            price: _price,\n            tokenId: _tokenId,\n            state: State.NotListed,\n            tokenOwner: payable(owner())\n        });\n\n        _safeMint(msg.sender, _tokenId);\n\n        require(\n            ownerOf(_tokenId) == msg.sender,\n            \"CriollosToken: Erros, Token was not minted succesfully\"\n        );\n\n        _tokenIdCounter.increment();\n    }\n\n    /// @notice Add a token to the market place\n    /// @dev This function can only be used for the contract owner to make the token available to others users.\n    /// @param _id Id of the token.\n    /// @param _price Price for the token.\n    function addToMarketPlace(uint256 _id, uint256 _price)\n        public\n        canBeListed(_id)\n        onlyOwner\n    {\n        require(\n            _exists(_id),\n            \"CriolloToken: Error, This token has not been minted yet\"\n        );\n        criollos[_id].state = State.ForSale;\n        criollos[_id].price = _price;\n    }\n\n    /// @notice Fetch a token by Id\n    /// @dev Use this function whenever you need info about a token\n    /// @param _tokenId Id of the token.\n    /// @return tokenId - The Id of the token\n    /// @return price - The price of the token\n    /// @return state - The state of the token\n    /// @return tokenOwner - The owner's address of the token\n    function getCriollo(uint256 _tokenId)\n        public\n        view\n        returns (\n            uint256 tokenId,\n            uint256 price,\n            uint256 state,\n            address tokenOwner\n        )\n    {\n        tokenId = criollos[_tokenId].tokenId;\n        price = criollos[_tokenId].price;\n        state = uint256(criollos[_tokenId].state);\n        tokenOwner = criollos[_tokenId].tokenOwner;\n        return (tokenId, price, state, tokenOwner);\n    }\n\n    /// @notice Buy a token\n    /// @dev _buyFromCriollo when the token is bough from Criollo Marketplace, _buyFromUser when the token is bought(trade) out of the Marketplace\n    /// @param _id Id of the token.\n    function buy(uint256 _id)\n        external\n        payable\n        forSale(_id)\n        paidExactAmount(criollos[_id].price)\n    {\n        require(\n            _exists(_id),\n            \"CriolloToken: Error, This token has not been minted yet\"\n        );\n        address payable _currentOwner = criollos[_id].tokenOwner;\n\n        _transfer(ownerOf(_id), msg.sender, _id);\n\n        criollos[_id].tokenOwner = payable(msg.sender);\n\n        if (criollos[_id].state == State.ForSale) {\n            criollos[_id].state = State.Locked;\n        }\n\n        (bool success, ) = _currentOwner.call{value: msg.value}(\"\");\n        require(success, \"Transfer failed.\");\n\n        emit Purchase(msg.sender, criollos[_id].price, criollos[_id].tokenId);\n    }\n\n    /// @notice Ship an Item\n    /// @dev Only the contract owner can ship an Item, the token should be Bought first\n    /// @param _id Id of the token.\n    function shipped(uint256 _id) public onlyOwner isLocked(_id) {\n        require(\n            _exists(_id),\n            \"CriolloToken: Error, This token has not been minted yet\"\n        );\n        criollos[_id].state = State.Shipped;\n    }\n\n    /// @notice Unlock a Token\n    /// @dev Need to be the owner of the token\n    /// @param _id Id of the token.\n    function unlockToken(uint256 _id) public isShipped(_id) {\n        require(\n            ownerOf(_id) == msg.sender,\n            \"CriolloToken: Error, You are not the token owner!\"\n        );\n        criollos[_id].state = State.Unlocked;\n    }\n\n    /// @notice Withdraw balance\n    /// @dev From the contract owner to specific balance.\n    function withdraw() public payable onlyOwner {\n        (bool success, ) = payable(msg.sender).call{\n            value: address(this).balance\n        }(\"\");\n        require(success, \"Transfer failed.\");\n    }\n\n    function _transfer(\n        address from,\n        address to,\n        uint256 tokenId\n    ) internal override {\n        require(\n            criollos[tokenId].state == State.Unlocked ||\n                ownerOf(tokenId) == owner(),\n            \"CriolloToken: Error, This token is not Locked for been transfer !\"\n        );\n        super._transfer(from, to, tokenId);\n    }\n}\n",
  "sourcePath": "/home/josue/workspace/CryptoProjects/blockchain-developer-bootcamp-final-project/contracts/CriolloToken.sol",
  "compiler": {
    "name": "solc",
    "version": "0.8.3+commit.8d00100c.Emscripten.clang"
  },
  "schemaVersion": "3.4.3",
  "updatedAt": "2021-11-25T19:19:41.380Z",
  "devdoc": {
    "author": "Josue Perez",
    "events": {
      "Purchase(address,uint256,uint256)": {
        "details": "The price is only used in the first sale",
        "params": {
          "id": "The id of the NFT token.",
          "owner": "The address of the Token Owner,",
          "price": "The price for the token was bought"
        }
      },
      "TokenUnlocked(uint256,address)": {
        "params": {
          "_id": "The id of the NFT token.",
          "_unlockerAddress": "Address who unlocked the token"
        }
      }
    },
    "kind": "dev",
    "methods": {
      "addToMarketPlace(uint256,uint256)": {
        "details": "This function can only be used for the contract owner to make the token available to others users.",
        "params": {
          "_id": "Id of the token.",
          "_price": "Price for the token."
        }
      },
      "approve(address,uint256)": {
        "details": "See {IERC721-approve}."
      },
      "balanceOf(address)": {
        "details": "See {IERC721-balanceOf}."
      },
      "buy(uint256)": {
        "details": "_buyFromCriollo when the token is bough from Criollo Marketplace, _buyFromUser when the token is bought(trade) out of the Marketplace",
        "params": {
          "_id": "Id of the token."
        }
      },
      "constructor": {
        "params": {
          "_initBaseURI": "Contains the base URL where the metadata of the NFT is stored",
          "name_": "Name of the NFT token",
          "symbol_": "Symbol of the NFT"
        }
      },
      "getApproved(uint256)": {
        "details": "See {IERC721-getApproved}."
      },
      "getCriollo(uint256)": {
        "details": "Use this function whenever you need info about a token",
        "params": {
          "_tokenId": "Id of the token."
        },
        "returns": {
          "price": "- The price of the token",
          "state": "- The state of the token",
          "tokenId": "- The Id of the token",
          "tokenOwner": "- The owner's address of the token"
        }
      },
      "isApprovedForAll(address,address)": {
        "details": "See {IERC721-isApprovedForAll}."
      },
      "name()": {
        "details": "See {IERC721Metadata-name}."
      },
      "owner()": {
        "details": "Returns the address of the current owner."
      },
      "ownerOf(uint256)": {
        "details": "See {IERC721-ownerOf}."
      },
      "renounceOwnership()": {
        "details": "Leaves the contract without owner. It will not be possible to call `onlyOwner` functions anymore. Can only be called by the current owner. NOTE: Renouncing ownership will leave the contract without an owner, thereby removing any functionality that is only available to the owner."
      },
      "safeMint(uint256)": {
        "details": "Only the contract owner can mints tokens",
        "params": {
          "_price": "Initial price for the token."
        }
      },
      "safeTransferFrom(address,address,uint256)": {
        "details": "See {IERC721-safeTransferFrom}."
      },
      "safeTransferFrom(address,address,uint256,bytes)": {
        "details": "See {IERC721-safeTransferFrom}."
      },
      "setApprovalForAll(address,bool)": {
        "details": "See {IERC721-setApprovalForAll}."
      },
      "shipped(uint256)": {
        "details": "Only the contract owner can ship an Item, the token should be Bought first",
        "params": {
          "_id": "Id of the token."
        }
      },
      "supportsInterface(bytes4)": {
        "details": "See {IERC165-supportsInterface}."
      },
      "symbol()": {
        "details": "See {IERC721Metadata-symbol}."
      },
      "tokenURI(uint256)": {
        "details": "See {IERC721Metadata-tokenURI}."
      },
      "transferFrom(address,address,uint256)": {
        "details": "See {IERC721-transferFrom}."
      },
      "transferOwnership(address)": {
        "details": "Transfers ownership of the contract to a new account (`newOwner`). Can only be called by the current owner."
      },
      "unlockToken(uint256)": {
        "details": "Need to be the owner of the token",
        "params": {
          "_id": "Id of the token."
        }
      },
      "withdraw()": {
        "details": "From the contract owner to specific balance."
      }
    },
    "stateVariables": {
      "criollos": {
        "details": "Mapping from token ID to Criollo objects"
      }
    },
    "title": "A contract for creating NFT tokens",
    "version": 1
  },
  "userdoc": {
    "events": {
      "Purchase(address,uint256,uint256)": {
        "notice": "Emitted when an user buy a NFT in our MarketPlace"
      },
      "TokenUnlocked(uint256,address)": {
        "notice": "Emitted when the token owner unlock the NFT once receive the chocolate"
      }
    },
    "kind": "user",
    "methods": {
      "addToMarketPlace(uint256,uint256)": {
        "notice": "Add a token to the market place"
      },
      "buy(uint256)": {
        "notice": "Buy a token"
      },
      "constructor": {
        "notice": "Constructor called once when deploy the contract"
      },
      "getCriollo(uint256)": {
        "notice": "Fetch a token by Id"
      },
      "safeMint(uint256)": {
        "notice": "Mints a new token"
      },
      "shipped(uint256)": {
        "notice": "Ship an Item"
      },
      "unlockToken(uint256)": {
        "notice": "Unlock a Token"
      },
      "withdraw()": {
        "notice": "Withdraw balance"
      }
    },
    "notice": "You can use this contract to Creates NFT tokens called CriollosToken This token is linked with a physical assets(a Chocolate) that will be send once the user buy it at our Market place, after receive the physical assets the user is able to trade the NFT token using another Market place for instance OpenSea",
    "version": 1
  }
}