{
  "contractName": "CriolloToken",
  "abi": [
    {
      "inputs": [
        {
          "internalType": "string",
          "name": "name_",
          "type": "string"
        },
        {
          "internalType": "string",
          "name": "symbol_",
          "type": "string"
        },
        {
          "internalType": "string",
          "name": "_initBaseURI",
          "type": "string"
        }
      ],
      "stateMutability": "nonpayable",
      "type": "constructor"
    },
    {
      "anonymous": false,
      "inputs": [
        {
          "indexed": true,
          "internalType": "address",
          "name": "owner",
          "type": "address"
        },
        {
          "indexed": true,
          "internalType": "address",
          "name": "approved",
          "type": "address"
        },
        {
          "indexed": true,
          "internalType": "uint256",
          "name": "tokenId",
          "type": "uint256"
        }
      ],
      "name": "Approval",
      "type": "event"
    },
    {
      "anonymous": false,
      "inputs": [
        {
          "indexed": true,
          "internalType": "address",
          "name": "owner",
          "type": "address"
        },
        {
          "indexed": true,
          "internalType": "address",
          "name": "operator",
          "type": "address"
        },
        {
          "indexed": false,
          "internalType": "bool",
          "name": "approved",
          "type": "bool"
        }
      ],
      "name": "ApprovalForAll",
      "type": "event"
    },
    {
      "anonymous": false,
      "inputs": [
        {
          "indexed": true,
          "internalType": "address",
          "name": "previousOwner",
          "type": "address"
        },
        {
          "indexed": true,
          "internalType": "address",
          "name": "newOwner",
          "type": "address"
        }
      ],
      "name": "OwnershipTransferred",
      "type": "event"
    },
    {
      "anonymous": false,
      "inputs": [
        {
          "indexed": false,
          "internalType": "address",
          "name": "owner",
          "type": "address"
        },
        {
          "indexed": false,
          "internalType": "uint256",
          "name": "price",
          "type": "uint256"
        },
        {
          "indexed": false,
          "internalType": "uint256",
          "name": "id",
          "type": "uint256"
        }
      ],
      "name": "Purchase",
      "type": "event"
    },
    {
      "anonymous": false,
      "inputs": [
        {
          "indexed": false,
          "internalType": "uint256",
          "name": "_id",
          "type": "uint256"
        },
        {
          "indexed": false,
          "internalType": "address",
          "name": "_unlockerAddress",
          "type": "address"
        }
      ],
      "name": "TokenUnlocked",
      "type": "event"
    },
    {
      "anonymous": false,
      "inputs": [
        {
          "indexed": true,
          "internalType": "address",
          "name": "from",
          "type": "address"
        },
        {
          "indexed": true,
          "internalType": "address",
          "name": "to",
          "type": "address"
        },
        {
          "indexed": true,
          "internalType": "uint256",
          "name": "tokenId",
          "type": "uint256"
        }
      ],
      "name": "Transfer",
      "type": "event"
    },
    {
      "inputs": [
        {
          "internalType": "address",
          "name": "to",
          "type": "address"
        },
        {
          "internalType": "uint256",
          "name": "tokenId",
          "type": "uint256"
        }
      ],
      "name": "approve",
      "outputs": [],
      "stateMutability": "nonpayable",
      "type": "function"
    },
    {
      "inputs": [
        {
          "internalType": "address",
          "name": "owner",
          "type": "address"
        }
      ],
      "name": "balanceOf",
      "outputs": [
        {
          "internalType": "uint256",
          "name": "",
          "type": "uint256"
        }
      ],
      "stateMutability": "view",
      "type": "function",
      "constant": true
    },
    {
      "inputs": [],
      "name": "baseExtension",
      "outputs": [
        {
          "internalType": "string",
          "name": "",
          "type": "string"
        }
      ],
      "stateMutability": "view",
      "type": "function",
      "constant": true
    },
    {
      "inputs": [],
      "name": "baseURI",
      "outputs": [
        {
          "internalType": "string",
          "name": "",
          "type": "string"
        }
      ],
      "stateMutability": "view",
      "type": "function",
      "constant": true
    },
    {
      "inputs": [
        {
          "internalType": "uint256",
          "name": "tokenId",
          "type": "uint256"
        }
      ],
      "name": "getApproved",
      "outputs": [
        {
          "internalType": "address",
          "name": "",
          "type": "address"
        }
      ],
      "stateMutability": "view",
      "type": "function",
      "constant": true
    },
    {
      "inputs": [
        {
          "internalType": "address",
          "name": "owner",
          "type": "address"
        },
        {
          "internalType": "address",
          "name": "operator",
          "type": "address"
        }
      ],
      "name": "isApprovedForAll",
      "outputs": [
        {
          "internalType": "bool",
          "name": "",
          "type": "bool"
        }
      ],
      "stateMutability": "view",
      "type": "function",
      "constant": true
    },
    {
      "inputs": [],
      "name": "name",
      "outputs": [
        {
          "internalType": "string",
          "name": "",
          "type": "string"
        }
      ],
      "stateMutability": "view",
      "type": "function",
      "constant": true
    },
    {
      "inputs": [],
      "name": "owner",
      "outputs": [
        {
          "internalType": "address",
          "name": "",
          "type": "address"
        }
      ],
      "stateMutability": "view",
      "type": "function",
      "constant": true
    },
    {
      "inputs": [
        {
          "internalType": "uint256",
          "name": "tokenId",
          "type": "uint256"
        }
      ],
      "name": "ownerOf",
      "outputs": [
        {
          "internalType": "address",
          "name": "",
          "type": "address"
        }
      ],
      "stateMutability": "view",
      "type": "function",
      "constant": true
    },
    {
      "inputs": [],
      "name": "renounceOwnership",
      "outputs": [],
      "stateMutability": "nonpayable",
      "type": "function"
    },
    {
      "inputs": [
        {
          "internalType": "address",
          "name": "from",
          "type": "address"
        },
        {
          "internalType": "address",
          "name": "to",
          "type": "address"
        },
        {
          "internalType": "uint256",
          "name": "tokenId",
          "type": "uint256"
        }
      ],
      "name": "safeTransferFrom",
      "outputs": [],
      "stateMutability": "nonpayable",
      "type": "function"
    },
    {
      "inputs": [
        {
          "internalType": "address",
          "name": "from",
          "type": "address"
        },
        {
          "internalType": "address",
          "name": "to",
          "type": "address"
        },
        {
          "internalType": "uint256",
          "name": "tokenId",
          "type": "uint256"
        },
        {
          "internalType": "bytes",
          "name": "_data",
          "type": "bytes"
        }
      ],
      "name": "safeTransferFrom",
      "outputs": [],
      "stateMutability": "nonpayable",
      "type": "function"
    },
    {
      "inputs": [
        {
          "internalType": "address",
          "name": "operator",
          "type": "address"
        },
        {
          "internalType": "bool",
          "name": "approved",
          "type": "bool"
        }
      ],
      "name": "setApprovalForAll",
      "outputs": [],
      "stateMutability": "nonpayable",
      "type": "function"
    },
    {
      "inputs": [
        {
          "internalType": "bytes4",
          "name": "interfaceId",
          "type": "bytes4"
        }
      ],
      "name": "supportsInterface",
      "outputs": [
        {
          "internalType": "bool",
          "name": "",
          "type": "bool"
        }
      ],
      "stateMutability": "view",
      "type": "function",
      "constant": true
    },
    {
      "inputs": [],
      "name": "symbol",
      "outputs": [
        {
          "internalType": "string",
          "name": "",
          "type": "string"
        }
      ],
      "stateMutability": "view",
      "type": "function",
      "constant": true
    },
    {
      "inputs": [
        {
          "internalType": "uint256",
          "name": "index",
          "type": "uint256"
        }
      ],
      "name": "tokenByIndex",
      "outputs": [
        {
          "internalType": "uint256",
          "name": "",
          "type": "uint256"
        }
      ],
      "stateMutability": "view",
      "type": "function",
      "constant": true
    },
    {
      "inputs": [
        {
          "internalType": "address",
          "name": "owner",
          "type": "address"
        },
        {
          "internalType": "uint256",
          "name": "index",
          "type": "uint256"
        }
      ],
      "name": "tokenOfOwnerByIndex",
      "outputs": [
        {
          "internalType": "uint256",
          "name": "",
          "type": "uint256"
        }
      ],
      "stateMutability": "view",
      "type": "function",
      "constant": true
    },
    {
      "inputs": [],
      "name": "totalSupply",
      "outputs": [
        {
          "internalType": "uint256",
          "name": "",
          "type": "uint256"
        }
      ],
      "stateMutability": "view",
      "type": "function",
      "constant": true
    },
    {
      "inputs": [
        {
          "internalType": "address",
          "name": "from",
          "type": "address"
        },
        {
          "internalType": "address",
          "name": "to",
          "type": "address"
        },
        {
          "internalType": "uint256",
          "name": "tokenId",
          "type": "uint256"
        }
      ],
      "name": "transferFrom",
      "outputs": [],
      "stateMutability": "nonpayable",
      "type": "function"
    },
    {
      "inputs": [
        {
          "internalType": "address",
          "name": "newOwner",
          "type": "address"
        }
      ],
      "name": "transferOwnership",
      "outputs": [],
      "stateMutability": "nonpayable",
      "type": "function"
    },
    {
      "inputs": [
        {
          "internalType": "string",
          "name": "_newBaseURI",
          "type": "string"
        }
      ],
      "name": "setBaseURI",
      "outputs": [],
      "stateMutability": "nonpayable",
      "type": "function"
    },
    {
      "inputs": [
        {
          "internalType": "string",
          "name": "_newBaseExtension",
          "type": "string"
        }
      ],
      "name": "setBaseExtension",
      "outputs": [],
      "stateMutability": "nonpayable",
      "type": "function"
    },
    {
      "inputs": [
        {
          "internalType": "uint256",
          "name": "_price",
          "type": "uint256"
        }
      ],
      "name": "safeMint",
      "outputs": [],
      "stateMutability": "nonpayable",
      "type": "function"
    },
    {
      "inputs": [
        {
          "internalType": "uint256",
          "name": "tokenId",
          "type": "uint256"
        }
      ],
      "name": "tokenURI",
      "outputs": [
        {
          "internalType": "string",
          "name": "",
          "type": "string"
        }
      ],
      "stateMutability": "view",
      "type": "function",
      "constant": true
    },
    {
      "inputs": [
        {
          "internalType": "uint256",
          "name": "_id",
          "type": "uint256"
        },
        {
          "internalType": "uint256",
          "name": "_price",
          "type": "uint256"
        }
      ],
      "name": "addToMarketPlace",
      "outputs": [],
      "stateMutability": "nonpayable",
      "type": "function"
    },
    {
      "inputs": [
        {
          "internalType": "uint256",
          "name": "_tokenId",
          "type": "uint256"
        }
      ],
      "name": "getCriollo",
      "outputs": [
        {
          "internalType": "uint256",
          "name": "tokenId",
          "type": "uint256"
        },
        {
          "internalType": "uint256",
          "name": "price",
          "type": "uint256"
        },
        {
          "internalType": "uint256",
          "name": "state",
          "type": "uint256"
        }
      ],
      "stateMutability": "view",
      "type": "function",
      "constant": true
    },
    {
      "inputs": [],
      "name": "fetchMarketItems",
      "outputs": [
        {
          "components": [
            {
              "internalType": "uint256",
              "name": "tokenId",
              "type": "uint256"
            },
            {
              "internalType": "uint256",
              "name": "price",
              "type": "uint256"
            },
            {
              "internalType": "enum CriolloToken.State",
              "name": "state",
              "type": "uint8"
            }
          ],
          "internalType": "struct CriolloToken.Criollo[]",
          "name": "",
          "type": "tuple[]"
        }
      ],
      "stateMutability": "view",
      "type": "function",
      "constant": true
    },
    {
      "inputs": [],
      "name": "fetchMyNft",
      "outputs": [
        {
          "components": [
            {
              "internalType": "uint256",
              "name": "tokenId",
              "type": "uint256"
            },
            {
              "internalType": "uint256",
              "name": "price",
              "type": "uint256"
            },
            {
              "internalType": "enum CriolloToken.State",
              "name": "state",
              "type": "uint8"
            }
          ],
          "internalType": "struct CriolloToken.Criollo[]",
          "name": "",
          "type": "tuple[]"
        }
      ],
      "stateMutability": "view",
      "type": "function",
      "constant": true
    },
    {
      "inputs": [
        {
          "internalType": "uint256",
          "name": "_id",
          "type": "uint256"
        }
      ],
      "name": "buy",
      "outputs": [],
      "stateMutability": "payable",
      "type": "function",
      "payable": true
    },
    {
      "inputs": [
        {
          "internalType": "uint256",
          "name": "_id",
          "type": "uint256"
        }
      ],
      "name": "shipped",
      "outputs": [],
      "stateMutability": "nonpayable",
      "type": "function"
    },
    {
      "inputs": [
        {
          "internalType": "uint256",
          "name": "_id",
          "type": "uint256"
        }
      ],
      "name": "unlockToken",
      "outputs": [],
      "stateMutability": "nonpayable",
      "type": "function"
    },
    {
      "inputs": [],
      "name": "withdraw",
      "outputs": [],
      "stateMutability": "payable",
      "type": "function",
      "payable": true
    },
    {
      "inputs": [],
      "name": "isOwner",
      "outputs": [
        {
          "internalType": "bool",
          "name": "",
          "type": "bool"
        }
      ],
      "stateMutability": "view",
      "type": "function",
      "constant": true
    }
  ],
  "bytecode": "0x60806040526040518060400160405280600581526020017f2e6a736f6e000000000000000000000000000000000000000000000000000000815250600c90805190602001906200005192919062000298565b503480156200005f57600080fd5b5060405162005f6638038062005f668339818101604052810190620000859190620003ba565b828281600090805190602001906200009f92919062000298565b508060019080519060200190620000b892919062000298565b505050620000db620000cf620000f560201b60201c565b620000fd60201b60201c565b620000ec81620001c360201b60201c565b5050506200064e565b600033905090565b6000600a60009054906101000a900473ffffffffffffffffffffffffffffffffffffffff16905081600a60006101000a81548173ffffffffffffffffffffffffffffffffffffffff021916908373ffffffffffffffffffffffffffffffffffffffff1602179055508173ffffffffffffffffffffffffffffffffffffffff168173ffffffffffffffffffffffffffffffffffffffff167f8be0079c531659141344cd1fd0a4f28419497f9722a3daafe3b4186f6b6457e060405160405180910390a35050565b620001d3620000f560201b60201c565b73ffffffffffffffffffffffffffffffffffffffff16620001f96200026e60201b60201c565b73ffffffffffffffffffffffffffffffffffffffff161462000252576040517f08c379a0000000000000000000000000000000000000000000000000000000008152600401620002499062000482565b60405180910390fd5b80600b90805190602001906200026a92919062000298565b5050565b6000600a60009054906101000a900473ffffffffffffffffffffffffffffffffffffffff16905090565b828054620002a6906200054a565b90600052602060002090601f016020900481019282620002ca576000855562000316565b82601f10620002e557805160ff191683800117855562000316565b8280016001018555821562000316579182015b8281111562000315578251825591602001919060010190620002f8565b5b50905062000325919062000329565b5090565b5b80821115620003445760008160009055506001016200032a565b5090565b60006200035f6200035984620004cd565b620004a4565b9050828152602081018484840111156200037857600080fd5b6200038584828562000514565b509392505050565b600082601f8301126200039f57600080fd5b8151620003b184826020860162000348565b91505092915050565b600080600060608486031215620003d057600080fd5b600084015167ffffffffffffffff811115620003eb57600080fd5b620003f9868287016200038d565b935050602084015167ffffffffffffffff8111156200041757600080fd5b62000425868287016200038d565b925050604084015167ffffffffffffffff8111156200044357600080fd5b62000451868287016200038d565b9150509250925092565b60006200046a60208362000503565b9150620004778262000625565b602082019050919050565b600060208201905081810360008301526200049d816200045b565b9050919050565b6000620004b0620004c3565b9050620004be828262000580565b919050565b6000604051905090565b600067ffffffffffffffff821115620004eb57620004ea620005e5565b5b620004f68262000614565b9050602081019050919050565b600082825260208201905092915050565b60005b838110156200053457808201518184015260208101905062000517565b8381111562000544576000848401525b50505050565b600060028204905060018216806200056357607f821691505b602082108114156200057a5762000579620005b6565b5b50919050565b6200058b8262000614565b810181811067ffffffffffffffff82111715620005ad57620005ac620005e5565b5b80604052505050565b7f4e487b7100000000000000000000000000000000000000000000000000000000600052602260045260246000fd5b7f4e487b7100000000000000000000000000000000000000000000000000000000600052604160045260246000fd5b6000601f19601f8301169050919050565b7f4f776e61626c653a2063616c6c6572206973206e6f7420746865206f776e6572600082015250565b615908806200065e6000396000f3fe6080604052600436106101ee5760003560e01c806370a082311161010d578063ae3fc702116100a0578063d96a094a1161006f578063d96a094a146106f2578063da3ef23f1461070e578063dd2e0ac014610737578063e985e9c514610760578063f2fde38b1461079d576101ee565b8063ae3fc70214610638578063b88d4fde14610661578063c66828621461068a578063c87b56dd146106b5576101ee565b80638f32d59b116100dc5780638f32d59b1461058e57806395d89b41146105b95780639f7699eb146105e4578063a22cb4651461060f576101ee565b806370a08231146104e6578063715018a6146105235780637a86196f1461053a5780638da5cb5b14610563576101ee565b806331c864e81161018557806355f804b31161015457806355f804b3146104165780636352211e1461043f5780636c0360eb1461047c5780636df43754146104a7576101ee565b806331c864e81461037d5780633ccfd60b146103a657806342842e0e146103b05780634f6ccce7146103d9576101ee565b80630f08efe0116101c15780630f08efe0146102c157806318160ddd146102ec57806323b872dd146103175780632f745c5914610340576101ee565b806301ffc9a7146101f357806306fdde0314610230578063081812fc1461025b578063095ea7b314610298575b600080fd5b3480156101ff57600080fd5b5061021a60048036038101906102159190613f06565b6107c6565b6040516102279190614743565b60405180910390f35b34801561023c57600080fd5b50610245610840565b604051610252919061475e565b60405180910390f35b34801561026757600080fd5b50610282600480360381019061027d9190613f99565b6108d2565b60405161028f9190614683565b60405180910390f35b3480156102a457600080fd5b506102bf60048036038101906102ba9190613eca565b610957565b005b3480156102cd57600080fd5b506102d6610a6f565b6040516102e39190614721565b60405180910390f35b3480156102f857600080fd5b50610301610c3a565b60405161030e9190614b20565b60405180910390f35b34801561032357600080fd5b5061033e60048036038101906103399190613dc4565b610c47565b005b34801561034c57600080fd5b5061036760048036038101906103629190613eca565b610ca7565b6040516103749190614b20565b60405180910390f35b34801561038957600080fd5b506103a4600480360381019061039f9190613f99565b610d4c565b005b6103ae610f38565b005b3480156103bc57600080fd5b506103d760048036038101906103d29190613dc4565b611063565b005b3480156103e557600080fd5b5061040060048036038101906103fb9190613f99565b611083565b60405161040d9190614b20565b60405180910390f35b34801561042257600080fd5b5061043d60048036038101906104389190613f58565b61111a565b005b34801561044b57600080fd5b5061046660048036038101906104619190613f99565b6111b0565b6040516104739190614683565b60405180910390f35b34801561048857600080fd5b50610491611262565b60405161049e919061475e565b60405180910390f35b3480156104b357600080fd5b506104ce60048036038101906104c99190613f99565b6112f0565b6040516104dd93929190614b3b565b60405180910390f35b3480156104f257600080fd5b5061050d60048036038101906105089190613d5f565b61138c565b60405161051a9190614b20565b60405180910390f35b34801561052f57600080fd5b50610538611444565b005b34801561054657600080fd5b50610561600480360381019061055c9190613fc2565b6114cc565b005b34801561056f57600080fd5b506105786116ec565b6040516105859190614683565b60405180910390f35b34801561059a57600080fd5b506105a3611716565b6040516105b09190614743565b60405180910390f35b3480156105c557600080fd5b506105ce611753565b6040516105db919061475e565b60405180910390f35b3480156105f057600080fd5b506105f96117e5565b6040516106069190614721565b60405180910390f35b34801561061b57600080fd5b5061063660048036038101906106319190613e8e565b611a5d565b005b34801561064457600080fd5b5061065f600480360381019061065a9190613f99565b611a73565b005b34801561066d57600080fd5b5061068860048036038101906106839190613e13565b611c77565b005b34801561069657600080fd5b5061069f611cd9565b6040516106ac919061475e565b60405180910390f35b3480156106c157600080fd5b506106dc60048036038101906106d79190613f99565b611d67565b6040516106e9919061475e565b60405180910390f35b61070c60048036038101906107079190613f99565b611e11565b005b34801561071a57600080fd5b5061073560048036038101906107309190613f58565b612262565b005b34801561074357600080fd5b5061075e60048036038101906107599190613f99565b6122f8565b005b34801561076c57600080fd5b5061078760048036038101906107829190613d88565b6124ae565b6040516107949190614743565b60405180910390f35b3480156107a957600080fd5b506107c460048036038101906107bf9190613d5f565b612542565b005b60007f780e9d63000000000000000000000000000000000000000000000000000000007bffffffffffffffffffffffffffffffffffffffffffffffffffffffff1916827bffffffffffffffffffffffffffffffffffffffffffffffffffffffff1916148061083957506108388261263a565b5b9050919050565b60606000805461084f90614e2b565b80601f016020809104026020016040519081016040528092919081815260200182805461087b90614e2b565b80156108c85780601f1061089d576101008083540402835291602001916108c8565b820191906000526020600020905b8154815290600101906020018083116108ab57829003601f168201915b5050505050905090565b60006108dd8261271c565b61091c576040517f08c379a0000000000000000000000000000000000000000000000000000000008152600401610913906149e0565b60405180910390fd5b6004600083815260200190815260200160002060009054906101000a900473ffffffffffffffffffffffffffffffffffffffff169050919050565b6000610962826111b0565b90508073ffffffffffffffffffffffffffffffffffffffff168373ffffffffffffffffffffffffffffffffffffffff1614156109d3576040517f08c379a00000000000000000000000000000000000000000000000000000000081526004016109ca90614a80565b60405180910390fd5b8073ffffffffffffffffffffffffffffffffffffffff166109f2612788565b73ffffffffffffffffffffffffffffffffffffffff161480610a215750610a2081610a1b612788565b6124ae565b5b610a60576040517f08c379a0000000000000000000000000000000000000000000000000000000008152600401610a5790614960565b60405180910390fd5b610a6a8383612790565b505050565b60606000610a7d600d612849565b90506000808267ffffffffffffffff811115610ac2577f4e487b7100000000000000000000000000000000000000000000000000000000600052604160045260246000fd5b604051908082528060200260200182016040528015610afb57816020015b610ae8613b2a565b815260200190600190039081610ae05790505b5090506000600190505b838111610c30576000600e600083815260200190815260200160002090508060405180606001604052908160008201548152602001600182015481526020016002820160009054906101000a900460ff166004811115610b8e577f4e487b7100000000000000000000000000000000000000000000000000000000600052602160045260246000fd5b6004811115610bc6577f4e487b7100000000000000000000000000000000000000000000000000000000600052602160045260246000fd5b81525050838581518110610c03577f4e487b7100000000000000000000000000000000000000000000000000000000600052603260045260246000fd5b60200260200101819052508380610c1990614e8e565b945050508080610c2890614e8e565b915050610b05565b5080935050505090565b6000600880549050905090565b610c58610c52612788565b82612857565b610c97576040517f08c379a0000000000000000000000000000000000000000000000000000000008152600401610c8e90614ac0565b60405180910390fd5b610ca2838383612935565b505050565b6000610cb28361138c565b8210610cf3576040517f08c379a0000000000000000000000000000000000000000000000000000000008152600401610cea90614780565b60405180910390fd5b600660008473ffffffffffffffffffffffffffffffffffffffff1673ffffffffffffffffffffffffffffffffffffffff168152602001908152602001600020600083815260200190815260200160002054905092915050565b610d54612788565b73ffffffffffffffffffffffffffffffffffffffff16610d726116ec565b73ffffffffffffffffffffffffffffffffffffffff1614610dc8576040517f08c379a0000000000000000000000000000000000000000000000000000000008152600401610dbf90614a00565b60405180910390fd5b610dd2600d612afe565b6000610dde600d612849565b9050604051806060016040528082815260200183815260200160006004811115610e31577f4e487b7100000000000000000000000000000000000000000000000000000000600052602160045260246000fd5b815250600e6000838152602001908152602001600020600082015181600001556020820151816001015560408201518160020160006101000a81548160ff02191690836004811115610eac577f4e487b7100000000000000000000000000000000000000000000000000000000600052602160045260246000fd5b0217905550905050610ebe3382612b14565b3373ffffffffffffffffffffffffffffffffffffffff16610ede826111b0565b73ffffffffffffffffffffffffffffffffffffffff1614610f34576040517f08c379a0000000000000000000000000000000000000000000000000000000008152600401610f2b90614b00565b60405180910390fd5b5050565b610f40612788565b73ffffffffffffffffffffffffffffffffffffffff16610f5e6116ec565b73ffffffffffffffffffffffffffffffffffffffff1614610fb4576040517f08c379a0000000000000000000000000000000000000000000000000000000008152600401610fab90614a00565b60405180910390fd5b60003373ffffffffffffffffffffffffffffffffffffffff1647604051610fda9061466e565b60006040518083038185875af1925050503d8060008114611017576040519150601f19603f3d011682016040523d82523d6000602084013e61101c565b606091505b5050905080611060576040517f08c379a000000000000000000000000000000000000000000000000000000000815260040161105790614a20565b60405180910390fd5b50565b61107e83838360405180602001604052806000815250611c77565b505050565b600061108d610c3a565b82106110ce576040517f08c379a00000000000000000000000000000000000000000000000000000000081526004016110c590614ae0565b60405180910390fd5b60088281548110611108577f4e487b7100000000000000000000000000000000000000000000000000000000600052603260045260246000fd5b90600052602060002001549050919050565b611122612788565b73ffffffffffffffffffffffffffffffffffffffff166111406116ec565b73ffffffffffffffffffffffffffffffffffffffff1614611196576040517f08c379a000000000000000000000000000000000000000000000000000000000815260040161118d90614a00565b60405180910390fd5b80600b90805190602001906111ac929190613b83565b5050565b6000806002600084815260200190815260200160002060009054906101000a900473ffffffffffffffffffffffffffffffffffffffff169050600073ffffffffffffffffffffffffffffffffffffffff168173ffffffffffffffffffffffffffffffffffffffff161415611259576040517f08c379a0000000000000000000000000000000000000000000000000000000008152600401611250906149a0565b60405180910390fd5b80915050919050565b600b805461126f90614e2b565b80601f016020809104026020016040519081016040528092919081815260200182805461129b90614e2b565b80156112e85780601f106112bd576101008083540402835291602001916112e8565b820191906000526020600020905b8154815290600101906020018083116112cb57829003601f168201915b505050505081565b6000806000600e6000858152602001908152602001600020600001549250600e6000858152602001908152602001600020600101549150600e600085815260200190815260200160002060020160009054906101000a900460ff166004811115611383577f4e487b7100000000000000000000000000000000000000000000000000000000600052602160045260246000fd5b90509193909250565b60008073ffffffffffffffffffffffffffffffffffffffff168273ffffffffffffffffffffffffffffffffffffffff1614156113fd576040517f08c379a00000000000000000000000000000000000000000000000000000000081526004016113f490614980565b60405180910390fd5b600360008373ffffffffffffffffffffffffffffffffffffffff1673ffffffffffffffffffffffffffffffffffffffff168152602001908152602001600020549050919050565b61144c612788565b73ffffffffffffffffffffffffffffffffffffffff1661146a6116ec565b73ffffffffffffffffffffffffffffffffffffffff16146114c0576040517f08c379a00000000000000000000000000000000000000000000000000000000081526004016114b790614a00565b60405180910390fd5b6114ca6000612b32565b565b8160006004811115611507577f4e487b7100000000000000000000000000000000000000000000000000000000600052602160045260246000fd5b600e600083815260200190815260200160002060020160009054906101000a900460ff166004811115611563577f4e487b7100000000000000000000000000000000000000000000000000000000600052602160045260246000fd5b146115a3576040517f08c379a000000000000000000000000000000000000000000000000000000000815260040161159a90614900565b60405180910390fd5b6115ab612788565b73ffffffffffffffffffffffffffffffffffffffff166115c96116ec565b73ffffffffffffffffffffffffffffffffffffffff161461161f576040517f08c379a000000000000000000000000000000000000000000000000000000000815260040161161690614a00565b60405180910390fd5b6116288361271c565b611667576040517f08c379a000000000000000000000000000000000000000000000000000000000815260040161165e90614940565b60405180910390fd5b6001600e600085815260200190815260200160002060020160006101000a81548160ff021916908360048111156116c7577f4e487b7100000000000000000000000000000000000000000000000000000000600052602160045260246000fd5b021790555081600e600085815260200190815260200160002060010181905550505050565b6000600a60009054906101000a900473ffffffffffffffffffffffffffffffffffffffff16905090565b60006117206116ec565b73ffffffffffffffffffffffffffffffffffffffff163373ffffffffffffffffffffffffffffffffffffffff1614905090565b60606001805461176290614e2b565b80601f016020809104026020016040519081016040528092919081815260200182805461178e90614e2b565b80156117db5780601f106117b0576101008083540402835291602001916117db565b820191906000526020600020905b8154815290600101906020018083116117be57829003601f168201915b5050505050905090565b606060006117f3600d612849565b90506000806000600190505b838111611864573373ffffffffffffffffffffffffffffffffffffffff16611826826111b0565b73ffffffffffffffffffffffffffffffffffffffff16141561185157828061184d90614e8e565b9350505b808061185c90614e8e565b9150506117ff565b5060008267ffffffffffffffff8111156118a7577f4e487b7100000000000000000000000000000000000000000000000000000000600052604160045260246000fd5b6040519080825280602002602001820160405280156118e057816020015b6118cd613b2a565b8152602001906001900390816118c55790505b5090506000600190505b848111611a52573373ffffffffffffffffffffffffffffffffffffffff16611911826111b0565b73ffffffffffffffffffffffffffffffffffffffff161415611a3f576000600e600083815260200190815260200160002090508060405180606001604052908160008201548152602001600182015481526020016002820160009054906101000a900460ff1660048111156119af577f4e487b7100000000000000000000000000000000000000000000000000000000600052602160045260246000fd5b60048111156119e7577f4e487b7100000000000000000000000000000000000000000000000000000000600052602160045260246000fd5b81525050838581518110611a24577f4e487b7100000000000000000000000000000000000000000000000000000000600052603260045260246000fd5b60200260200101819052508380611a3a90614e8e565b945050505b8080611a4a90614e8e565b9150506118ea565b508094505050505090565b611a6f611a68612788565b8383612bf8565b5050565b611a7b612788565b73ffffffffffffffffffffffffffffffffffffffff16611a996116ec565b73ffffffffffffffffffffffffffffffffffffffff1614611aef576040517f08c379a0000000000000000000000000000000000000000000000000000000008152600401611ae690614a00565b60405180910390fd5b8060026004811115611b2a577f4e487b7100000000000000000000000000000000000000000000000000000000600052602160045260246000fd5b600e600083815260200190815260200160002060020160009054906101000a900460ff166004811115611b86577f4e487b7100000000000000000000000000000000000000000000000000000000600052602160045260246000fd5b14611bc6576040517f08c379a0000000000000000000000000000000000000000000000000000000008152600401611bbd90614820565b60405180910390fd5b611bcf8261271c565b611c0e576040517f08c379a0000000000000000000000000000000000000000000000000000000008152600401611c0590614940565b60405180910390fd5b6003600e600084815260200190815260200160002060020160006101000a81548160ff02191690836004811115611c6e577f4e487b7100000000000000000000000000000000000000000000000000000000600052602160045260246000fd5b02179055505050565b611c88611c82612788565b83612857565b611cc7576040517f08c379a0000000000000000000000000000000000000000000000000000000008152600401611cbe90614ac0565b60405180910390fd5b611cd384848484612d65565b50505050565b600c8054611ce690614e2b565b80601f0160208091040260200160405190810160405280929190818152602001828054611d1290614e2b565b8015611d5f5780601f10611d3457610100808354040283529160200191611d5f565b820191906000526020600020905b815481529060010190602001808311611d4257829003601f168201915b505050505081565b6060611d728261271c565b611db1576040517f08c379a0000000000000000000000000000000000000000000000000000000008152600401611da890614a60565b60405180910390fd5b6000611dbb612dc1565b90506000815111611ddb5760405180602001604052806000815250611e09565b80611de584612e53565b600c604051602001611df99392919061463d565b6040516020818303038152906040525b915050919050565b8060016004811115611e4c577f4e487b7100000000000000000000000000000000000000000000000000000000600052602160045260246000fd5b600e600083815260200190815260200160002060020160009054906101000a900460ff166004811115611ea8577f4e487b7100000000000000000000000000000000000000000000000000000000600052602160045260246000fd5b1480611f465750600480811115611ee8577f4e487b7100000000000000000000000000000000000000000000000000000000600052602160045260246000fd5b600e600083815260200190815260200160002060020160009054906101000a900460ff166004811115611f44577f4e487b7100000000000000000000000000000000000000000000000000000000600052602160045260246000fd5b145b611f85576040517f08c379a0000000000000000000000000000000000000000000000000000000008152600401611f7c906148c0565b60405180910390fd5b600e600083815260200190815260200160002060010154803414611fde576040517f08c379a0000000000000000000000000000000000000000000000000000000008152600401611fd5906147e0565b60405180910390fd5b611fe78361271c565b612026576040517f08c379a000000000000000000000000000000000000000000000000000000000815260040161201d90614940565b60405180910390fd5b6000612031846111b0565b905061204661203f856111b0565b3386612935565b60016004811115612080577f4e487b7100000000000000000000000000000000000000000000000000000000600052602160045260246000fd5b600e600086815260200190815260200160002060020160009054906101000a900460ff1660048111156120dc577f4e487b7100000000000000000000000000000000000000000000000000000000600052602160045260246000fd5b1415612148576002600e600086815260200190815260200160002060020160006101000a81548160ff02191690836004811115612142577f4e487b7100000000000000000000000000000000000000000000000000000000600052602160045260246000fd5b02179055505b60008173ffffffffffffffffffffffffffffffffffffffff163460405161216e9061466e565b60006040518083038185875af1925050503d80600081146121ab576040519150601f19603f3d011682016040523d82523d6000602084013e6121b0565b606091505b50509050806121f4576040517f08c379a00000000000000000000000000000000000000000000000000000000081526004016121eb90614aa0565b60405180910390fd5b7f12cb4648cf3058b17ceeb33e579f8b0bc269fe0843f3900b8e24b6c54871703c33600e600088815260200190815260200160002060010154600e600089815260200190815260200160002060000154604051612253939291906146ea565b60405180910390a15050505050565b61226a612788565b73ffffffffffffffffffffffffffffffffffffffff166122886116ec565b73ffffffffffffffffffffffffffffffffffffffff16146122de576040517f08c379a00000000000000000000000000000000000000000000000000000000081526004016122d590614a00565b60405180910390fd5b80600c90805190602001906122f4929190613b83565b5050565b8060036004811115612333577f4e487b7100000000000000000000000000000000000000000000000000000000600052602160045260246000fd5b600e600083815260200190815260200160002060020160009054906101000a900460ff16600481111561238f577f4e487b7100000000000000000000000000000000000000000000000000000000600052602160045260246000fd5b146123cf576040517f08c379a00000000000000000000000000000000000000000000000000000000081526004016123c6906147c0565b60405180910390fd5b3373ffffffffffffffffffffffffffffffffffffffff166123ef836111b0565b73ffffffffffffffffffffffffffffffffffffffff1614612445576040517f08c379a000000000000000000000000000000000000000000000000000000000815260040161243c90614920565b60405180910390fd5b6004600e600084815260200190815260200160002060020160006101000a81548160ff021916908360048111156124a5577f4e487b7100000000000000000000000000000000000000000000000000000000600052602160045260246000fd5b02179055505050565b6000600560008473ffffffffffffffffffffffffffffffffffffffff1673ffffffffffffffffffffffffffffffffffffffff16815260200190815260200160002060008373ffffffffffffffffffffffffffffffffffffffff1673ffffffffffffffffffffffffffffffffffffffff16815260200190815260200160002060009054906101000a900460ff16905092915050565b61254a612788565b73ffffffffffffffffffffffffffffffffffffffff166125686116ec565b73ffffffffffffffffffffffffffffffffffffffff16146125be576040517f08c379a00000000000000000000000000000000000000000000000000000000081526004016125b590614a00565b60405180910390fd5b600073ffffffffffffffffffffffffffffffffffffffff168173ffffffffffffffffffffffffffffffffffffffff16141561262e576040517f08c379a000000000000000000000000000000000000000000000000000000000815260040161262590614800565b60405180910390fd5b61263781612b32565b50565b60007f80ac58cd000000000000000000000000000000000000000000000000000000007bffffffffffffffffffffffffffffffffffffffffffffffffffffffff1916827bffffffffffffffffffffffffffffffffffffffffffffffffffffffff1916148061270557507f5b5e139f000000000000000000000000000000000000000000000000000000007bffffffffffffffffffffffffffffffffffffffffffffffffffffffff1916827bffffffffffffffffffffffffffffffffffffffffffffffffffffffff1916145b80612715575061271482613000565b5b9050919050565b60008073ffffffffffffffffffffffffffffffffffffffff166002600084815260200190815260200160002060009054906101000a900473ffffffffffffffffffffffffffffffffffffffff1673ffffffffffffffffffffffffffffffffffffffff1614159050919050565b600033905090565b816004600083815260200190815260200160002060006101000a81548173ffffffffffffffffffffffffffffffffffffffff021916908373ffffffffffffffffffffffffffffffffffffffff160217905550808273ffffffffffffffffffffffffffffffffffffffff16612803836111b0565b73ffffffffffffffffffffffffffffffffffffffff167f8c5be1e5ebec7d5bd14f71427d1e84f3dd0314c0f7b2291e5b200ac8c7c3b92560405160405180910390a45050565b600081600001549050919050565b60006128628261271c565b6128a1576040517f08c379a0000000000000000000000000000000000000000000000000000000008152600401612898906148e0565b60405180910390fd5b60006128ac836111b0565b90508073ffffffffffffffffffffffffffffffffffffffff168473ffffffffffffffffffffffffffffffffffffffff16148061291b57508373ffffffffffffffffffffffffffffffffffffffff16612903846108d2565b73ffffffffffffffffffffffffffffffffffffffff16145b8061292c575061292b81856124ae565b5b91505092915050565b60048081111561296e577f4e487b7100000000000000000000000000000000000000000000000000000000600052602160045260246000fd5b600e600083815260200190815260200160002060020160009054906101000a900460ff1660048111156129ca577f4e487b7100000000000000000000000000000000000000000000000000000000600052602160045260246000fd5b1480612aaf57506129d96116ec565b73ffffffffffffffffffffffffffffffffffffffff166129f8826111b0565b73ffffffffffffffffffffffffffffffffffffffff16148015612aae575060016004811115612a50577f4e487b7100000000000000000000000000000000000000000000000000000000600052602160045260246000fd5b600e600083815260200190815260200160002060020160009054906101000a900460ff166004811115612aac577f4e487b7100000000000000000000000000000000000000000000000000000000600052602160045260246000fd5b145b5b612aee576040517f08c379a0000000000000000000000000000000000000000000000000000000008152600401612ae590614860565b60405180910390fd5b612af983838361306a565b505050565b6001816000016000828254019250508190555050565b612b2e8282604051806020016040528060008152506132c6565b5050565b6000600a60009054906101000a900473ffffffffffffffffffffffffffffffffffffffff16905081600a60006101000a81548173ffffffffffffffffffffffffffffffffffffffff021916908373ffffffffffffffffffffffffffffffffffffffff1602179055508173ffffffffffffffffffffffffffffffffffffffff168173ffffffffffffffffffffffffffffffffffffffff167f8be0079c531659141344cd1fd0a4f28419497f9722a3daafe3b4186f6b6457e060405160405180910390a35050565b8173ffffffffffffffffffffffffffffffffffffffff168373ffffffffffffffffffffffffffffffffffffffff161415612c67576040517f08c379a0000000000000000000000000000000000000000000000000000000008152600401612c5e906148a0565b60405180910390fd5b80600560008573ffffffffffffffffffffffffffffffffffffffff1673ffffffffffffffffffffffffffffffffffffffff16815260200190815260200160002060008473ffffffffffffffffffffffffffffffffffffffff1673ffffffffffffffffffffffffffffffffffffffff16815260200190815260200160002060006101000a81548160ff0219169083151502179055508173ffffffffffffffffffffffffffffffffffffffff168373ffffffffffffffffffffffffffffffffffffffff167f17307eab39ab6107e8899845ad3d59bd9653f200f220920489ca2b5937696c3183604051612d589190614743565b60405180910390a3505050565b612d70848484612935565b612d7c84848484613321565b612dbb576040517f08c379a0000000000000000000000000000000000000000000000000000000008152600401612db2906147a0565b60405180910390fd5b50505050565b6060600b8054612dd090614e2b565b80601f0160208091040260200160405190810160405280929190818152602001828054612dfc90614e2b565b8015612e495780601f10612e1e57610100808354040283529160200191612e49565b820191906000526020600020905b815481529060010190602001808311612e2c57829003601f168201915b5050505050905090565b60606000821415612e9b576040518060400160405280600181526020017f30000000000000000000000000000000000000000000000000000000000000008152509050612ffb565b600082905060005b60008214612ecd578080612eb690614e8e565b915050600a82612ec69190614ceb565b9150612ea3565b60008167ffffffffffffffff811115612f0f577f4e487b7100000000000000000000000000000000000000000000000000000000600052604160045260246000fd5b6040519080825280601f01601f191660200182016040528015612f415781602001600182028036833780820191505090505b5090505b60008514612ff457600182612f5a9190614d1c565b9150600a85612f699190614ed7565b6030612f759190614c95565b60f81b818381518110612fb1577f4e487b7100000000000000000000000000000000000000000000000000000000600052603260045260246000fd5b60200101907effffffffffffffffffffffffffffffffffffffffffffffffffffffffffffff1916908160001a905350600a85612fed9190614ceb565b9450612f45565b8093505050505b919050565b60007f01ffc9a7000000000000000000000000000000000000000000000000000000007bffffffffffffffffffffffffffffffffffffffffffffffffffffffff1916827bffffffffffffffffffffffffffffffffffffffffffffffffffffffff1916149050919050565b8273ffffffffffffffffffffffffffffffffffffffff1661308a826111b0565b73ffffffffffffffffffffffffffffffffffffffff16146130e0576040517f08c379a00000000000000000000000000000000000000000000000000000000081526004016130d790614a40565b60405180910390fd5b600073ffffffffffffffffffffffffffffffffffffffff168273ffffffffffffffffffffffffffffffffffffffff161415613150576040517f08c379a000000000000000000000000000000000000000000000000000000000815260040161314790614880565b60405180910390fd5b61315b8383836134b8565b613166600082612790565b6001600360008573ffffffffffffffffffffffffffffffffffffffff1673ffffffffffffffffffffffffffffffffffffffff16815260200190815260200160002060008282546131b69190614d1c565b925050819055506001600360008473ffffffffffffffffffffffffffffffffffffffff1673ffffffffffffffffffffffffffffffffffffffff168152602001908152602001600020600082825461320d9190614c95565b92505081905550816002600083815260200190815260200160002060006101000a81548173ffffffffffffffffffffffffffffffffffffffff021916908373ffffffffffffffffffffffffffffffffffffffff160217905550808273ffffffffffffffffffffffffffffffffffffffff168473ffffffffffffffffffffffffffffffffffffffff167fddf252ad1be2c89b69c2b068fc378daa952ba7f163c4a11628f55a4df523b3ef60405160405180910390a4505050565b6132d083836135cc565b6132dd6000848484613321565b61331c576040517f08c379a0000000000000000000000000000000000000000000000000000000008152600401613313906147a0565b60405180910390fd5b505050565b60006133428473ffffffffffffffffffffffffffffffffffffffff1661379a565b156134ab578373ffffffffffffffffffffffffffffffffffffffff1663150b7a0261336b612788565b8786866040518563ffffffff1660e01b815260040161338d949392919061469e565b602060405180830381600087803b1580156133a757600080fd5b505af19250505080156133d857506040513d601f19601f820116820180604052508101906133d59190613f2f565b60015b61345b573d8060008114613408576040519150601f19603f3d011682016040523d82523d6000602084013e61340d565b606091505b50600081511415613453576040517f08c379a000000000000000000000000000000000000000000000000000000000815260040161344a906147a0565b60405180910390fd5b805181602001fd5b63150b7a0260e01b7bffffffffffffffffffffffffffffffffffffffffffffffffffffffff1916817bffffffffffffffffffffffffffffffffffffffffffffffffffffffff1916149150506134b0565b600190505b949350505050565b6134c38383836137ad565b600073ffffffffffffffffffffffffffffffffffffffff168373ffffffffffffffffffffffffffffffffffffffff16141561350657613501816137b2565b613545565b8173ffffffffffffffffffffffffffffffffffffffff168373ffffffffffffffffffffffffffffffffffffffff16146135445761354383826137fb565b5b5b600073ffffffffffffffffffffffffffffffffffffffff168273ffffffffffffffffffffffffffffffffffffffff1614156135885761358381613968565b6135c7565b8273ffffffffffffffffffffffffffffffffffffffff168273ffffffffffffffffffffffffffffffffffffffff16146135c6576135c58282613aab565b5b5b505050565b600073ffffffffffffffffffffffffffffffffffffffff168273ffffffffffffffffffffffffffffffffffffffff16141561363c576040517f08c379a0000000000000000000000000000000000000000000000000000000008152600401613633906149c0565b60405180910390fd5b6136458161271c565b15613685576040517f08c379a000000000000000000000000000000000000000000000000000000000815260040161367c90614840565b60405180910390fd5b613691600083836134b8565b6001600360008473ffffffffffffffffffffffffffffffffffffffff1673ffffffffffffffffffffffffffffffffffffffff16815260200190815260200160002060008282546136e19190614c95565b92505081905550816002600083815260200190815260200160002060006101000a81548173ffffffffffffffffffffffffffffffffffffffff021916908373ffffffffffffffffffffffffffffffffffffffff160217905550808273ffffffffffffffffffffffffffffffffffffffff16600073ffffffffffffffffffffffffffffffffffffffff167fddf252ad1be2c89b69c2b068fc378daa952ba7f163c4a11628f55a4df523b3ef60405160405180910390a45050565b600080823b905060008111915050919050565b505050565b6008805490506009600083815260200190815260200160002081905550600881908060018154018082558091505060019003906000526020600020016000909190919091505550565b600060016138088461138c565b6138129190614d1c565b90506000600760008481526020019081526020016000205490508181146138f7576000600660008673ffffffffffffffffffffffffffffffffffffffff1673ffffffffffffffffffffffffffffffffffffffff168152602001908152602001600020600084815260200190815260200160002054905080600660008773ffffffffffffffffffffffffffffffffffffffff1673ffffffffffffffffffffffffffffffffffffffff168152602001908152602001600020600084815260200190815260200160002081905550816007600083815260200190815260200160002081905550505b6007600084815260200190815260200160002060009055600660008573ffffffffffffffffffffffffffffffffffffffff1673ffffffffffffffffffffffffffffffffffffffff16815260200190815260200160002060008381526020019081526020016000206000905550505050565b6000600160088054905061397c9190614d1c565b90506000600960008481526020019081526020016000205490506000600883815481106139d2577f4e487b7100000000000000000000000000000000000000000000000000000000600052603260045260246000fd5b906000526020600020015490508060088381548110613a1a577f4e487b7100000000000000000000000000000000000000000000000000000000600052603260045260246000fd5b906000526020600020018190555081600960008381526020019081526020016000208190555060096000858152602001908152602001600020600090556008805480613a8f577f4e487b7100000000000000000000000000000000000000000000000000000000600052603160045260246000fd5b6001900381819060005260206000200160009055905550505050565b6000613ab68361138c565b905081600660008573ffffffffffffffffffffffffffffffffffffffff1673ffffffffffffffffffffffffffffffffffffffff168152602001908152602001600020600083815260200190815260200160002081905550806007600084815260200190815260200160002081905550505050565b6040518060600160405280600081526020016000815260200160006004811115613b7d577f4e487b7100000000000000000000000000000000000000000000000000000000600052602160045260246000fd5b81525090565b828054613b8f90614e2b565b90600052602060002090601f016020900481019282613bb15760008555613bf8565b82601f10613bca57805160ff1916838001178555613bf8565b82800160010185558215613bf8579182015b82811115613bf7578251825591602001919060010190613bdc565b5b509050613c059190613c09565b5090565b5b80821115613c22576000816000905550600101613c0a565b5090565b6000613c39613c3484614b97565b614b72565b905082815260208101848484011115613c5157600080fd5b613c5c848285614de9565b509392505050565b6000613c77613c7284614bc8565b614b72565b905082815260208101848484011115613c8f57600080fd5b613c9a848285614de9565b509392505050565b600081359050613cb181615876565b92915050565b600081359050613cc68161588d565b92915050565b600081359050613cdb816158a4565b92915050565b600081519050613cf0816158a4565b92915050565b600082601f830112613d0757600080fd5b8135613d17848260208601613c26565b91505092915050565b600082601f830112613d3157600080fd5b8135613d41848260208601613c64565b91505092915050565b600081359050613d59816158bb565b92915050565b600060208284031215613d7157600080fd5b6000613d7f84828501613ca2565b91505092915050565b60008060408385031215613d9b57600080fd5b6000613da985828601613ca2565b9250506020613dba85828601613ca2565b9150509250929050565b600080600060608486031215613dd957600080fd5b6000613de786828701613ca2565b9350506020613df886828701613ca2565b9250506040613e0986828701613d4a565b9150509250925092565b60008060008060808587031215613e2957600080fd5b6000613e3787828801613ca2565b9450506020613e4887828801613ca2565b9350506040613e5987828801613d4a565b925050606085013567ffffffffffffffff811115613e7657600080fd5b613e8287828801613cf6565b91505092959194509250565b60008060408385031215613ea157600080fd5b6000613eaf85828601613ca2565b9250506020613ec085828601613cb7565b9150509250929050565b60008060408385031215613edd57600080fd5b6000613eeb85828601613ca2565b9250506020613efc85828601613d4a565b9150509250929050565b600060208284031215613f1857600080fd5b6000613f2684828501613ccc565b91505092915050565b600060208284031215613f4157600080fd5b6000613f4f84828501613ce1565b91505092915050565b600060208284031215613f6a57600080fd5b600082013567ffffffffffffffff811115613f8457600080fd5b613f9084828501613d20565b91505092915050565b600060208284031215613fab57600080fd5b6000613fb984828501613d4a565b91505092915050565b60008060408385031215613fd557600080fd5b6000613fe385828601613d4a565b9250506020613ff485828601613d4a565b9150509250929050565b600061400a83836145dd565b60608301905092915050565b61401f81614d50565b82525050565b600061403082614c1e565b61403a8185614c4c565b935061404583614bf9565b8060005b8381101561407657815161405d8882613ffe565b975061406883614c3f565b925050600181019050614049565b5085935050505092915050565b61408c81614d62565b82525050565b600061409d82614c29565b6140a78185614c5d565b93506140b7818560208601614df8565b6140c081614ff3565b840191505092915050565b6140d481614dd7565b82525050565b60006140e582614c34565b6140ef8185614c79565b93506140ff818560208601614df8565b61410881614ff3565b840191505092915050565b600061411e82614c34565b6141288185614c8a565b9350614138818560208601614df8565b80840191505092915050565b6000815461415181614e2b565b61415b8186614c8a565b945060018216600081146141765760018114614187576141ba565b60ff198316865281860193506141ba565b61419085614c09565b60005b838110156141b257815481890152600182019150602081019050614193565b838801955050505b50505092915050565b60006141d0602b83614c79565b91506141db82615004565b604082019050919050565b60006141f3603283614c79565b91506141fe82615053565b604082019050919050565b6000614216603583614c79565b9150614221826150a2565b604082019050919050565b6000614239603583614c79565b9150614244826150f1565b604082019050919050565b600061425c602683614c79565b915061426782615140565b604082019050919050565b600061427f603483614c79565b915061428a8261518f565b604082019050919050565b60006142a2601c83614c79565b91506142ad826151de565b602082019050919050565b60006142c5604583614c79565b91506142d082615207565b606082019050919050565b60006142e8602483614c79565b91506142f38261527c565b604082019050919050565b600061430b601983614c79565b9150614316826152cb565b602082019050919050565b600061432e602f83614c79565b9150614339826152f4565b604082019050919050565b6000614351602c83614c79565b915061435c82615343565b604082019050919050565b6000614374603283614c79565b915061437f82615392565b604082019050919050565b6000614397603183614c79565b91506143a2826153e1565b604082019050919050565b60006143ba603783614c79565b91506143c582615430565b604082019050919050565b60006143dd603883614c79565b91506143e88261547f565b604082019050919050565b6000614400602a83614c79565b915061440b826154ce565b604082019050919050565b6000614423602983614c79565b915061442e8261551d565b604082019050919050565b6000614446602083614c79565b91506144518261556c565b602082019050919050565b6000614469602c83614c79565b915061447482615595565b604082019050919050565b600061448c602083614c79565b9150614497826155e4565b602082019050919050565b60006144af602583614c79565b91506144ba8261560d565b604082019050919050565b60006144d2602983614c79565b91506144dd8261565c565b604082019050919050565b60006144f5602f83614c79565b9150614500826156ab565b604082019050919050565b6000614518602183614c79565b9150614523826156fa565b604082019050919050565b600061453b600083614c6e565b915061454682615749565b600082019050919050565b600061455e601083614c79565b91506145698261574c565b602082019050919050565b6000614581603183614c79565b915061458c82615775565b604082019050919050565b60006145a4602c83614c79565b91506145af826157c4565b604082019050919050565b60006145c7603683614c79565b91506145d282615813565b604082019050919050565b6060820160008201516145f3600085018261461f565b506020820151614606602085018261461f565b50604082015161461960408501826140cb565b50505050565b61462881614dcd565b82525050565b61463781614dcd565b82525050565b60006146498286614113565b91506146558285614113565b91506146618284614144565b9150819050949350505050565b60006146798261452e565b9150819050919050565b60006020820190506146986000830184614016565b92915050565b60006080820190506146b36000830187614016565b6146c06020830186614016565b6146cd604083018561462e565b81810360608301526146df8184614092565b905095945050505050565b60006060820190506146ff6000830186614016565b61470c602083018561462e565b614719604083018461462e565b949350505050565b6000602082019050818103600083015261473b8184614025565b905092915050565b60006020820190506147586000830184614083565b92915050565b6000602082019050818103600083015261477881846140da565b905092915050565b60006020820190508181036000830152614799816141c3565b9050919050565b600060208201905081810360008301526147b9816141e6565b9050919050565b600060208201905081810360008301526147d981614209565b9050919050565b600060208201905081810360008301526147f98161422c565b9050919050565b600060208201905081810360008301526148198161424f565b9050919050565b6000602082019050818103600083015261483981614272565b9050919050565b6000602082019050818103600083015261485981614295565b9050919050565b60006020820190508181036000830152614879816142b8565b9050919050565b60006020820190508181036000830152614899816142db565b9050919050565b600060208201905081810360008301526148b9816142fe565b9050919050565b600060208201905081810360008301526148d981614321565b9050919050565b600060208201905081810360008301526148f981614344565b9050919050565b6000602082019050818103600083015261491981614367565b9050919050565b600060208201905081810360008301526149398161438a565b9050919050565b60006020820190508181036000830152614959816143ad565b9050919050565b60006020820190508181036000830152614979816143d0565b9050919050565b60006020820190508181036000830152614999816143f3565b9050919050565b600060208201905081810360008301526149b981614416565b9050919050565b600060208201905081810360008301526149d981614439565b9050919050565b600060208201905081810360008301526149f98161445c565b9050919050565b60006020820190508181036000830152614a198161447f565b9050919050565b60006020820190508181036000830152614a39816144a2565b9050919050565b60006020820190508181036000830152614a59816144c5565b9050919050565b60006020820190508181036000830152614a79816144e8565b9050919050565b60006020820190508181036000830152614a998161450b565b9050919050565b60006020820190508181036000830152614ab981614551565b9050919050565b60006020820190508181036000830152614ad981614574565b9050919050565b60006020820190508181036000830152614af981614597565b9050919050565b60006020820190508181036000830152614b19816145ba565b9050919050565b6000602082019050614b35600083018461462e565b92915050565b6000606082019050614b50600083018661462e565b614b5d602083018561462e565b614b6a604083018461462e565b949350505050565b6000614b7c614b8d565b9050614b888282614e5d565b919050565b6000604051905090565b600067ffffffffffffffff821115614bb257614bb1614fc4565b5b614bbb82614ff3565b9050602081019050919050565b600067ffffffffffffffff821115614be357614be2614fc4565b5b614bec82614ff3565b9050602081019050919050565b6000819050602082019050919050565b60008190508160005260206000209050919050565b600081519050919050565b600081519050919050565b600081519050919050565b6000602082019050919050565b600082825260208201905092915050565b600082825260208201905092915050565b600081905092915050565b600082825260208201905092915050565b600081905092915050565b6000614ca082614dcd565b9150614cab83614dcd565b9250827fffffffffffffffffffffffffffffffffffffffffffffffffffffffffffffffff03821115614ce057614cdf614f08565b5b828201905092915050565b6000614cf682614dcd565b9150614d0183614dcd565b925082614d1157614d10614f37565b5b828204905092915050565b6000614d2782614dcd565b9150614d3283614dcd565b925082821015614d4557614d44614f08565b5b828203905092915050565b6000614d5b82614dad565b9050919050565b60008115159050919050565b60007fffffffff0000000000000000000000000000000000000000000000000000000082169050919050565b6000819050614da882615862565b919050565b600073ffffffffffffffffffffffffffffffffffffffff82169050919050565b6000819050919050565b6000614de282614d9a565b9050919050565b82818337600083830152505050565b60005b83811015614e16578082015181840152602081019050614dfb565b83811115614e25576000848401525b50505050565b60006002820490506001821680614e4357607f821691505b60208210811415614e5757614e56614f95565b5b50919050565b614e6682614ff3565b810181811067ffffffffffffffff82111715614e8557614e84614fc4565b5b80604052505050565b6000614e9982614dcd565b91507fffffffffffffffffffffffffffffffffffffffffffffffffffffffffffffffff821415614ecc57614ecb614f08565b5b600182019050919050565b6000614ee282614dcd565b9150614eed83614dcd565b925082614efd57614efc614f37565b5b828206905092915050565b7f4e487b7100000000000000000000000000000000000000000000000000000000600052601160045260246000fd5b7f4e487b7100000000000000000000000000000000000000000000000000000000600052601260045260246000fd5b7f4e487b7100000000000000000000000000000000000000000000000000000000600052602160045260246000fd5b7f4e487b7100000000000000000000000000000000000000000000000000000000600052602260045260246000fd5b7f4e487b7100000000000000000000000000000000000000000000000000000000600052604160045260246000fd5b6000601f19601f8301169050919050565b7f455243373231456e756d657261626c653a206f776e657220696e646578206f7560008201527f74206f6620626f756e6473000000000000000000000000000000000000000000602082015250565b7f4552433732313a207472616e7366657220746f206e6f6e20455243373231526560008201527f63656976657220696d706c656d656e7465720000000000000000000000000000602082015250565b7f4372696f6c6c6f546f6b656e3a204572726f722c205468697320746f6b656e2060008201527f686173206e6f74206265656e2053686970706564210000000000000000000000602082015250565b7f4372696f6c6c6f546f6b656e3a204572726f722c2053656e642074686520636f60008201527f727265637420616d6f756e74206f662065746865720000000000000000000000602082015250565b7f4f776e61626c653a206e6577206f776e657220697320746865207a65726f206160008201527f6464726573730000000000000000000000000000000000000000000000000000602082015250565b7f4372696f6c6c6f546f6b656e3a204572726f722c205468697320746f6b656e2060008201527f686173206e6f74206265656e204c6f636b656421000000000000000000000000602082015250565b7f4552433732313a20746f6b656e20616c7265616479206d696e74656400000000600082015250565b7f4372696f6c6c6f546f6b656e3a204572726f722c205468697320746f6b656e2060008201527f6973204c6f636b656420616e642063616e206e6f74206265207472616e73666560208201527f7265642021000000000000000000000000000000000000000000000000000000604082015250565b7f4552433732313a207472616e7366657220746f20746865207a65726f2061646460008201527f7265737300000000000000000000000000000000000000000000000000000000602082015250565b7f4552433732313a20617070726f766520746f2063616c6c657200000000000000600082015250565b7f4372696f6c6c6f546f6b656e3a204572726f722c205468697320746f6b656e2060008201527f6973206e6f7420666f722073616c650000000000000000000000000000000000602082015250565b7f4552433732313a206f70657261746f7220717565727920666f72206e6f6e657860008201527f697374656e7420746f6b656e0000000000000000000000000000000000000000602082015250565b7f4372696f6c6c6f546f6b656e3a204572726f722c205468697320746f6b656e2060008201527f63616e206e6f74206265206c6973746564210000000000000000000000000000602082015250565b7f4372696f6c6c6f546f6b656e3a204572726f722c20596f7520617265206e6f7460008201527f2074686520746f6b656e206f776e657221000000000000000000000000000000602082015250565b7f4372696f6c6c6f546f6b656e3a204572726f722c205468697320746f6b656e2060008201527f686173206e6f74206265656e206d696e74656420796574000000000000000000602082015250565b7f4552433732313a20617070726f76652063616c6c6572206973206e6f74206f7760008201527f6e6572206e6f7220617070726f76656420666f7220616c6c0000000000000000602082015250565b7f4552433732313a2062616c616e636520717565727920666f7220746865207a6560008201527f726f206164647265737300000000000000000000000000000000000000000000602082015250565b7f4552433732313a206f776e657220717565727920666f72206e6f6e657869737460008201527f656e7420746f6b656e0000000000000000000000000000000000000000000000602082015250565b7f4552433732313a206d696e7420746f20746865207a65726f2061646472657373600082015250565b7f4552433732313a20617070726f76656420717565727920666f72206e6f6e657860008201527f697374656e7420746f6b656e0000000000000000000000000000000000000000602082015250565b7f4f776e61626c653a2063616c6c6572206973206e6f7420746865206f776e6572600082015250565b7f4372696f6c6c6f546f6b656e3a204572726f722c205472616e7366657220666160008201527f696c65642e000000000000000000000000000000000000000000000000000000602082015250565b7f4552433732313a207472616e73666572206f6620746f6b656e2074686174206960008201527f73206e6f74206f776e0000000000000000000000000000000000000000000000602082015250565b7f4552433732314d657461646174613a2055524920717565727920666f72206e6f60008201527f6e6578697374656e7420746f6b656e0000000000000000000000000000000000602082015250565b7f4552433732313a20617070726f76616c20746f2063757272656e74206f776e6560008201527f7200000000000000000000000000000000000000000000000000000000000000602082015250565b50565b7f5472616e73666572206661696c65642e00000000000000000000000000000000600082015250565b7f4552433732313a207472616e736665722063616c6c6572206973206e6f74206f60008201527f776e6572206e6f7220617070726f766564000000000000000000000000000000602082015250565b7f455243373231456e756d657261626c653a20676c6f62616c20696e646578206f60008201527f7574206f6620626f756e64730000000000000000000000000000000000000000602082015250565b7f4372696f6c6c6f73546f6b656e3a204572726f722c20546f6b656e207761732060008201527f6e6f74206d696e7465642073756363657366756c6c7900000000000000000000602082015250565b6005811061587357615872614f66565b5b50565b61587f81614d50565b811461588a57600080fd5b50565b61589681614d62565b81146158a157600080fd5b50565b6158ad81614d6e565b81146158b857600080fd5b50565b6158c481614dcd565b81146158cf57600080fd5b5056fea2646970667358221220ab38ba110792d8369571a906d3d0602bac8f0a362d64b627615beca9739c829e64736f6c63430008030033",
  "immutableReferences": {},
  "source": "// SPDX-License-Identifier: MIT\npragma solidity 0.8.3;\n\nimport \"@openzeppelin/contracts/token/ERC721/ERC721.sol\";\nimport \"@openzeppelin/contracts/token/ERC721/extensions/ERC721Enumerable.sol\";\nimport \"@openzeppelin/contracts/access/Ownable.sol\";\nimport \"@openzeppelin/contracts/utils/Counters.sol\";\n\n/// @title A contract for creating NFT tokens\n/// @author Josue Perez\n/// @notice You can use this contract to Creates NFT tokens called CriollosToken\n/// This token is linked with a physical assets(a Chocolate) that will be send once\n/// the user buy it at our Market place, after receive the physical assets the user\n/// is able to trade the NFT token using another Market place for instance OpenSea\ncontract CriolloToken is ERC721Enumerable, Ownable {\n    using Counters for Counters.Counter;\n    using Strings for uint256;\n\n    /// @notice Emitted when an user buy a NFT in our MarketPlace\n    /// @param owner The address of the Token Owner,\n    /// @param price The price for the token was bought\n    /// @param id The id of the NFT token.\n    /// @dev The price is only used in the first sale\n    event Purchase(address owner, uint256 price, uint256 id);\n\n    /// @notice Emitted when the token owner unlock the NFT once receive the chocolate\n    /// @param _id The id of the NFT token.\n    /// @param _unlockerAddress Address who unlocked the token\n    event TokenUnlocked(uint256 _id, address _unlockerAddress);\n\n    /// @notice State of the token.\n    /// @dev Used for handling the intial phase of the workflow,\n    /// after Users unlock the token, state should remain the same.\n    enum State {\n        NotListed,\n        ForSale,\n        Locked,\n        Shipped,\n        Unlocked\n    }\n\n    /// @notice State object for handling the state of the NFT\n    /// @dev tokenIs is incremented using Counters\n    struct Criollo {\n        uint256 tokenId;\n        uint256 price;\n        State state;\n    }\n\n    string public baseURI;\n    string public baseExtension = \".json\";\n\n    Counters.Counter private _tokenIdCounter;\n\n    /// @dev Mapping from token ID to Criollo objects\n    mapping(uint256 => Criollo) criollos;\n\n    /// @dev Generate an exception if token can not be Listed in the MarketPlace\n    modifier canBeListed(uint256 _id) {\n        require(\n            criollos[_id].state == State.NotListed,\n            \"CriolloToken: Error, This token can not be listed!\"\n        );\n        _;\n    }\n\n    /// @dev Generate an exception if token is not unlocked\n    modifier isUnlocked(uint256 _id) {\n        require(\n            criollos[_id].state == State.Unlocked,\n            \"CriolloToken: Error, This token is not Unlocked !\"\n        );\n        _;\n    }\n\n    /// @dev Generate an exception if tocken is not Locked.\n    modifier isLocked(uint256 _id) {\n        require(\n            criollos[_id].state == State.Locked,\n            \"CriolloToken: Error, This token has not been Locked!\"\n        );\n        _;\n    }\n\n    /// @dev Generate an exception if tocken is not Shipped\n    modifier isShipped(uint256 _id) {\n        require(\n            criollos[_id].state == State.Shipped,\n            \"CriolloToken: Error, This token has not been Shipped!\"\n        );\n        _;\n    }\n\n    /// @dev Generate an exception if tocken is not For Sale\n    modifier forSale(uint256 _id) {\n        require(\n            criollos[_id].state == State.ForSale ||\n                criollos[_id].state == State.Unlocked,\n            \"CriolloToken: Error, This token is not for sale\"\n        );\n        _;\n    }\n\n    /// @dev Generate an exception if the user does not send exact amount of ether\n    modifier paidExactAmount(uint256 _price) {\n        require(\n            msg.value == _price,\n            \"CriolloToken: Error, Send the correct amount of ether\"\n        );\n        _;\n    }\n\n    /// @notice Constructor called once when deploy the contract\n    /// @param name_ Name of the NFT token\n    /// @param symbol_ Symbol of the NFT\n    /// @param _initBaseURI Contains the base URL where the metadata of the NFT is stored\n    constructor(\n        string memory name_,\n        string memory symbol_,\n        string memory _initBaseURI\n    ) ERC721(name_, symbol_) {\n        setBaseURI(_initBaseURI);\n    }\n\n    function _baseURI() internal view virtual override returns (string memory) {\n        return baseURI;\n    }\n\n    function setBaseURI(string memory _newBaseURI) public onlyOwner {\n        baseURI = _newBaseURI;\n    }\n\n    function setBaseExtension(string memory _newBaseExtension)\n        public\n        onlyOwner\n    {\n        baseExtension = _newBaseExtension;\n    }\n\n    /// @notice Mints a new token\n    /// @dev Only the contract owner can mints tokens\n    /// @param _price Initial price for the token.\n    function safeMint(uint256 _price) public onlyOwner {\n        _tokenIdCounter.increment();\n\n        uint256 _tokenId = _tokenIdCounter.current();\n\n        criollos[_tokenId] = Criollo({\n            price: _price,\n            tokenId: _tokenId,\n            state: State.NotListed\n        });\n\n        _safeMint(msg.sender, _tokenId);\n\n        require(\n            ownerOf(_tokenId) == msg.sender,\n            \"CriollosToken: Error, Token was not minted succesfully\"\n        );\n    }\n\n    function tokenURI(uint256 tokenId)\n        public\n        view\n        virtual\n        override\n        returns (string memory)\n    {\n        require(\n            _exists(tokenId),\n            \"ERC721Metadata: URI query for nonexistent token\"\n        );\n\n        string memory currentBaseURI = _baseURI();\n        return\n            bytes(currentBaseURI).length > 0\n                ? string(\n                    abi.encodePacked(\n                        currentBaseURI,\n                        tokenId.toString(),\n                        baseExtension\n                    )\n                )\n                : \"\";\n    }\n\n    /// @notice Add a token to the market place\n    /// @dev This function can only be used by the contract owner to make the token available to others users in our Market Place\n    /// @param _id Id of the token.\n    /// @param _price Price for the token.\n    function addToMarketPlace(uint256 _id, uint256 _price)\n        public\n        canBeListed(_id)\n        onlyOwner\n    {\n        require(\n            _exists(_id),\n            \"CriolloToken: Error, This token has not been minted yet\"\n        );\n        criollos[_id].state = State.ForSale;\n        criollos[_id].price = _price;\n    }\n\n    /// @notice Fetch a token by Id\n    /// @dev Use this function whenever you need info about a token\n    /// @param _tokenId Id of the token.\n    /// @return tokenId - The Id of the token\n    /// @return price - The price of the token\n    /// @return state - The state of the token\n    function getCriollo(uint256 _tokenId)\n        public\n        view\n        returns (\n            uint256 tokenId,\n            uint256 price,\n            uint256 state\n        )\n    {\n        tokenId = criollos[_tokenId].tokenId;\n        price = criollos[_tokenId].price;\n        state = uint256(criollos[_tokenId].state);\n        return (tokenId, price, state);\n    }\n\n    function fetchMarketItems() public view returns (Criollo[] memory) {\n        uint256 itemsCount = _tokenIdCounter.current();\n        uint256 currentIndex = 0;\n\n        Criollo[] memory items = new Criollo[](itemsCount);\n\n        for (uint256 id = 1; id <= itemsCount; id++) {\n            Criollo storage currentItem = criollos[id];\n            items[currentIndex] = currentItem;\n            currentIndex++;\n        }\n\n        return items;\n    }\n\n    /* Returns onlyl items that a user has purchased */\n    function fetchMyNft() public view returns (Criollo[] memory) {\n        uint256 itemsCount = _tokenIdCounter.current();\n        uint256 itemsOwned = 0;\n        uint256 currentIndex = 0;\n\n        for (uint256 id = 1; id <= itemsCount; id++) {\n            if (ownerOf(id) == msg.sender) {\n                itemsOwned++;\n            }\n        }\n\n        Criollo[] memory items = new Criollo[](itemsOwned);\n\n        for (uint256 id = 1; id <= itemsCount; id++) {\n            if (ownerOf(id) == msg.sender) {\n                Criollo storage currentItem = criollos[id];\n                items[currentIndex] = currentItem;\n                currentIndex++;\n            }\n        }\n        return items;\n    }\n\n    /// @notice Buy a token in Criollos Market Place\n    /// @dev This is a custom function for buying function in our Market PLace.\n    /// @param _id Id of the token.\n    function buy(uint256 _id)\n        external\n        payable\n        forSale(_id)\n        paidExactAmount(criollos[_id].price)\n    {\n        require(\n            _exists(_id),\n            \"CriolloToken: Error, This token has not been minted yet\"\n        );\n        address payable _currentOwner = payable(ownerOf(_id));\n\n        _transfer(ownerOf(_id), msg.sender, _id);\n\n        if (criollos[_id].state == State.ForSale) {\n            criollos[_id].state = State.Locked;\n        }\n\n        (bool success, ) = _currentOwner.call{value: msg.value}(\"\");\n        require(success, \"Transfer failed.\");\n\n        emit Purchase(msg.sender, criollos[_id].price, criollos[_id].tokenId);\n    }\n\n    /// @notice Ship an Item\n    /// @dev Only the contract owner can ship an Item, the token should be sold first\n    /// @param _id Id of the token.\n    function shipped(uint256 _id) public onlyOwner isLocked(_id) {\n        require(\n            _exists(_id),\n            \"CriolloToken: Error, This token has not been minted yet\"\n        );\n        criollos[_id].state = State.Shipped;\n    }\n\n    /// @notice Unlock a Token\n    /// @dev Need to be the owner of the token\n    /// @param _id Id of the token.\n    function unlockToken(uint256 _id) public isShipped(_id) {\n        require(\n            ownerOf(_id) == msg.sender,\n            \"CriolloToken: Error, You are not the token owner!\"\n        );\n        criollos[_id].state = State.Unlocked;\n    }\n\n    /// @notice Withdraw balance\n    /// @dev From the contract owner to specific address.\n    function withdraw() public payable onlyOwner {\n        (bool success, ) = payable(msg.sender).call{\n            value: address(this).balance\n        }(\"\");\n        require(success, \"CriolloToken: Error, Transfer failed.\");\n    }\n\n    /// @notice Transfer function\n    /// @dev This function is overriden from ERC721:_transfer, so we can avoid the token to be transfer if it is not unlocked.\n    function _transfer(\n        address from,\n        address to,\n        uint256 tokenId\n    ) internal override {\n        require(\n            criollos[tokenId].state == State.Unlocked ||\n                (ownerOf(tokenId) == owner() &&\n                    criollos[tokenId].state == State.ForSale),\n            \"CriolloToken: Error, This token is Locked and can not be transfered !\"\n        );\n        super._transfer(from, to, tokenId);\n    }\n\n    function isOwner() public view returns (bool) {\n        return msg.sender == owner();\n    }\n}\n",
  "sourcePath": "/home/josue/workspace/CryptoProjects/blockchain-developer-bootcamp-final-project/contracts/CriolloToken.sol",
  "compiler": {
    "name": "solc",
    "version": "0.8.3+commit.8d00100c.Emscripten.clang"
  },
  "schemaVersion": "3.4.3",
  "updatedAt": "2021-12-17T17:09:08.615Z",
  "networkType": "ethereum",
  "devdoc": {
    "author": "Josue Perez",
    "events": {
      "Purchase(address,uint256,uint256)": {
        "details": "The price is only used in the first sale",
        "params": {
          "id": "The id of the NFT token.",
          "owner": "The address of the Token Owner,",
          "price": "The price for the token was bought"
        }
      },
      "TokenUnlocked(uint256,address)": {
        "params": {
          "_id": "The id of the NFT token.",
          "_unlockerAddress": "Address who unlocked the token"
        }
      }
    },
    "kind": "dev",
    "methods": {
      "addToMarketPlace(uint256,uint256)": {
        "details": "This function can only be used by the contract owner to make the token available to others users in our Market Place",
        "params": {
          "_id": "Id of the token.",
          "_price": "Price for the token."
        }
      },
      "approve(address,uint256)": {
        "details": "See {IERC721-approve}."
      },
      "balanceOf(address)": {
        "details": "See {IERC721-balanceOf}."
      },
      "buy(uint256)": {
        "details": "This is a custom function for buying function in our Market PLace.",
        "params": {
          "_id": "Id of the token."
        }
      },
      "constructor": {
        "params": {
          "_initBaseURI": "Contains the base URL where the metadata of the NFT is stored",
          "name_": "Name of the NFT token",
          "symbol_": "Symbol of the NFT"
        }
      },
      "getApproved(uint256)": {
        "details": "See {IERC721-getApproved}."
      },
      "getCriollo(uint256)": {
        "details": "Use this function whenever you need info about a token",
        "params": {
          "_tokenId": "Id of the token."
        },
        "returns": {
          "price": "- The price of the token",
          "state": "- The state of the token",
          "tokenId": "- The Id of the token"
        }
      },
      "isApprovedForAll(address,address)": {
        "details": "See {IERC721-isApprovedForAll}."
      },
      "name()": {
        "details": "See {IERC721Metadata-name}."
      },
      "owner()": {
        "details": "Returns the address of the current owner."
      },
      "ownerOf(uint256)": {
        "details": "See {IERC721-ownerOf}."
      },
      "renounceOwnership()": {
        "details": "Leaves the contract without owner. It will not be possible to call `onlyOwner` functions anymore. Can only be called by the current owner. NOTE: Renouncing ownership will leave the contract without an owner, thereby removing any functionality that is only available to the owner."
      },
      "safeMint(uint256)": {
        "details": "Only the contract owner can mints tokens",
        "params": {
          "_price": "Initial price for the token."
        }
      },
      "safeTransferFrom(address,address,uint256)": {
        "details": "See {IERC721-safeTransferFrom}."
      },
      "safeTransferFrom(address,address,uint256,bytes)": {
        "details": "See {IERC721-safeTransferFrom}."
      },
      "setApprovalForAll(address,bool)": {
        "details": "See {IERC721-setApprovalForAll}."
      },
      "shipped(uint256)": {
        "details": "Only the contract owner can ship an Item, the token should be sold first",
        "params": {
          "_id": "Id of the token."
        }
      },
      "supportsInterface(bytes4)": {
        "details": "See {IERC165-supportsInterface}."
      },
      "symbol()": {
        "details": "See {IERC721Metadata-symbol}."
      },
      "tokenByIndex(uint256)": {
        "details": "See {IERC721Enumerable-tokenByIndex}."
      },
      "tokenOfOwnerByIndex(address,uint256)": {
        "details": "See {IERC721Enumerable-tokenOfOwnerByIndex}."
      },
      "tokenURI(uint256)": {
        "details": "See {IERC721Metadata-tokenURI}."
      },
      "totalSupply()": {
        "details": "See {IERC721Enumerable-totalSupply}."
      },
      "transferFrom(address,address,uint256)": {
        "details": "See {IERC721-transferFrom}."
      },
      "transferOwnership(address)": {
        "details": "Transfers ownership of the contract to a new account (`newOwner`). Can only be called by the current owner."
      },
      "unlockToken(uint256)": {
        "details": "Need to be the owner of the token",
        "params": {
          "_id": "Id of the token."
        }
      },
      "withdraw()": {
        "details": "From the contract owner to specific address."
      }
    },
    "stateVariables": {
      "criollos": {
        "details": "Mapping from token ID to Criollo objects"
      }
    },
    "title": "A contract for creating NFT tokens",
    "version": 1
  },
  "userdoc": {
    "events": {
      "Purchase(address,uint256,uint256)": {
        "notice": "Emitted when an user buy a NFT in our MarketPlace"
      },
      "TokenUnlocked(uint256,address)": {
        "notice": "Emitted when the token owner unlock the NFT once receive the chocolate"
      }
    },
    "kind": "user",
    "methods": {
      "addToMarketPlace(uint256,uint256)": {
        "notice": "Add a token to the market place"
      },
      "buy(uint256)": {
        "notice": "Buy a token in Criollos Market Place"
      },
      "constructor": {
        "notice": "Constructor called once when deploy the contract"
      },
      "getCriollo(uint256)": {
        "notice": "Fetch a token by Id"
      },
      "safeMint(uint256)": {
        "notice": "Mints a new token"
      },
      "shipped(uint256)": {
        "notice": "Ship an Item"
      },
      "unlockToken(uint256)": {
        "notice": "Unlock a Token"
      },
      "withdraw()": {
        "notice": "Withdraw balance"
      }
    },
    "notice": "You can use this contract to Creates NFT tokens called CriollosToken This token is linked with a physical assets(a Chocolate) that will be send once the user buy it at our Market place, after receive the physical assets the user is able to trade the NFT token using another Market place for instance OpenSea",
    "version": 1
  }
}