{
  "contractName": "CriolloToken",
  "abi": [
    {
      "inputs": [
        {
          "internalType": "string",
          "name": "_name",
          "type": "string"
        },
        {
          "internalType": "string",
          "name": "_symbol",
          "type": "string"
        },
        {
          "internalType": "string",
          "name": "_initBaseURI",
          "type": "string"
        }
      ],
      "stateMutability": "nonpayable",
      "type": "constructor"
    },
    {
      "anonymous": false,
      "inputs": [
        {
          "indexed": true,
          "internalType": "address",
          "name": "owner",
          "type": "address"
        },
        {
          "indexed": true,
          "internalType": "address",
          "name": "approved",
          "type": "address"
        },
        {
          "indexed": true,
          "internalType": "uint256",
          "name": "tokenId",
          "type": "uint256"
        }
      ],
      "name": "Approval",
      "type": "event"
    },
    {
      "anonymous": false,
      "inputs": [
        {
          "indexed": true,
          "internalType": "address",
          "name": "owner",
          "type": "address"
        },
        {
          "indexed": true,
          "internalType": "address",
          "name": "operator",
          "type": "address"
        },
        {
          "indexed": false,
          "internalType": "bool",
          "name": "approved",
          "type": "bool"
        }
      ],
      "name": "ApprovalForAll",
      "type": "event"
    },
    {
      "anonymous": false,
      "inputs": [
        {
          "indexed": true,
          "internalType": "address",
          "name": "previousOwner",
          "type": "address"
        },
        {
          "indexed": true,
          "internalType": "address",
          "name": "newOwner",
          "type": "address"
        }
      ],
      "name": "OwnershipTransferred",
      "type": "event"
    },
    {
      "anonymous": false,
      "inputs": [
        {
          "indexed": false,
          "internalType": "address",
          "name": "account",
          "type": "address"
        }
      ],
      "name": "Paused",
      "type": "event"
    },
    {
      "anonymous": false,
      "inputs": [
        {
          "indexed": true,
          "internalType": "address",
          "name": "from",
          "type": "address"
        },
        {
          "indexed": true,
          "internalType": "address",
          "name": "to",
          "type": "address"
        },
        {
          "indexed": true,
          "internalType": "uint256",
          "name": "tokenId",
          "type": "uint256"
        }
      ],
      "name": "Transfer",
      "type": "event"
    },
    {
      "anonymous": false,
      "inputs": [
        {
          "indexed": false,
          "internalType": "address",
          "name": "account",
          "type": "address"
        }
      ],
      "name": "Unpaused",
      "type": "event"
    },
    {
      "inputs": [
        {
          "internalType": "address",
          "name": "to",
          "type": "address"
        },
        {
          "internalType": "uint256",
          "name": "tokenId",
          "type": "uint256"
        }
      ],
      "name": "approve",
      "outputs": [],
      "stateMutability": "nonpayable",
      "type": "function"
    },
    {
      "inputs": [
        {
          "internalType": "address",
          "name": "owner",
          "type": "address"
        }
      ],
      "name": "balanceOf",
      "outputs": [
        {
          "internalType": "uint256",
          "name": "",
          "type": "uint256"
        }
      ],
      "stateMutability": "view",
      "type": "function"
    },
    {
      "inputs": [],
      "name": "baseExtension",
      "outputs": [
        {
          "internalType": "string",
          "name": "",
          "type": "string"
        }
      ],
      "stateMutability": "view",
      "type": "function"
    },
    {
      "inputs": [],
      "name": "baseURI",
      "outputs": [
        {
          "internalType": "string",
          "name": "",
          "type": "string"
        }
      ],
      "stateMutability": "view",
      "type": "function"
    },
    {
      "inputs": [],
      "name": "cost",
      "outputs": [
        {
          "internalType": "uint256",
          "name": "",
          "type": "uint256"
        }
      ],
      "stateMutability": "view",
      "type": "function"
    },
    {
      "inputs": [
        {
          "internalType": "uint256",
          "name": "tokenId",
          "type": "uint256"
        }
      ],
      "name": "getApproved",
      "outputs": [
        {
          "internalType": "address",
          "name": "",
          "type": "address"
        }
      ],
      "stateMutability": "view",
      "type": "function"
    },
    {
      "inputs": [
        {
          "internalType": "address",
          "name": "owner",
          "type": "address"
        },
        {
          "internalType": "address",
          "name": "operator",
          "type": "address"
        }
      ],
      "name": "isApprovedForAll",
      "outputs": [
        {
          "internalType": "bool",
          "name": "",
          "type": "bool"
        }
      ],
      "stateMutability": "view",
      "type": "function"
    },
    {
      "inputs": [],
      "name": "listingFee",
      "outputs": [
        {
          "internalType": "uint256",
          "name": "",
          "type": "uint256"
        }
      ],
      "stateMutability": "view",
      "type": "function"
    },
    {
      "inputs": [],
      "name": "maxMintAmount",
      "outputs": [
        {
          "internalType": "uint256",
          "name": "",
          "type": "uint256"
        }
      ],
      "stateMutability": "view",
      "type": "function"
    },
    {
      "inputs": [],
      "name": "minPrice",
      "outputs": [
        {
          "internalType": "uint256",
          "name": "",
          "type": "uint256"
        }
      ],
      "stateMutability": "view",
      "type": "function"
    },
    {
      "inputs": [],
      "name": "name",
      "outputs": [
        {
          "internalType": "string",
          "name": "",
          "type": "string"
        }
      ],
      "stateMutability": "view",
      "type": "function"
    },
    {
      "inputs": [],
      "name": "owner",
      "outputs": [
        {
          "internalType": "address",
          "name": "",
          "type": "address"
        }
      ],
      "stateMutability": "view",
      "type": "function"
    },
    {
      "inputs": [
        {
          "internalType": "uint256",
          "name": "tokenId",
          "type": "uint256"
        }
      ],
      "name": "ownerOf",
      "outputs": [
        {
          "internalType": "address",
          "name": "",
          "type": "address"
        }
      ],
      "stateMutability": "view",
      "type": "function"
    },
    {
      "inputs": [],
      "name": "paused",
      "outputs": [
        {
          "internalType": "bool",
          "name": "",
          "type": "bool"
        }
      ],
      "stateMutability": "view",
      "type": "function"
    },
    {
      "inputs": [],
      "name": "renounceOwnership",
      "outputs": [],
      "stateMutability": "nonpayable",
      "type": "function"
    },
    {
      "inputs": [
        {
          "internalType": "address",
          "name": "from",
          "type": "address"
        },
        {
          "internalType": "address",
          "name": "to",
          "type": "address"
        },
        {
          "internalType": "uint256",
          "name": "tokenId",
          "type": "uint256"
        }
      ],
      "name": "safeTransferFrom",
      "outputs": [],
      "stateMutability": "nonpayable",
      "type": "function"
    },
    {
      "inputs": [
        {
          "internalType": "address",
          "name": "from",
          "type": "address"
        },
        {
          "internalType": "address",
          "name": "to",
          "type": "address"
        },
        {
          "internalType": "uint256",
          "name": "tokenId",
          "type": "uint256"
        },
        {
          "internalType": "bytes",
          "name": "_data",
          "type": "bytes"
        }
      ],
      "name": "safeTransferFrom",
      "outputs": [],
      "stateMutability": "nonpayable",
      "type": "function"
    },
    {
      "inputs": [
        {
          "internalType": "address",
          "name": "operator",
          "type": "address"
        },
        {
          "internalType": "bool",
          "name": "approved",
          "type": "bool"
        }
      ],
      "name": "setApprovalForAll",
      "outputs": [],
      "stateMutability": "nonpayable",
      "type": "function"
    },
    {
      "inputs": [
        {
          "internalType": "bytes4",
          "name": "interfaceId",
          "type": "bytes4"
        }
      ],
      "name": "supportsInterface",
      "outputs": [
        {
          "internalType": "bool",
          "name": "",
          "type": "bool"
        }
      ],
      "stateMutability": "view",
      "type": "function"
    },
    {
      "inputs": [],
      "name": "symbol",
      "outputs": [
        {
          "internalType": "string",
          "name": "",
          "type": "string"
        }
      ],
      "stateMutability": "view",
      "type": "function"
    },
    {
      "inputs": [
        {
          "internalType": "address",
          "name": "",
          "type": "address"
        }
      ],
      "name": "tokenOwners",
      "outputs": [
        {
          "internalType": "uint256",
          "name": "",
          "type": "uint256"
        }
      ],
      "stateMutability": "view",
      "type": "function"
    },
    {
      "inputs": [
        {
          "internalType": "uint256",
          "name": "tokenId",
          "type": "uint256"
        }
      ],
      "name": "tokenURI",
      "outputs": [
        {
          "internalType": "string",
          "name": "",
          "type": "string"
        }
      ],
      "stateMutability": "view",
      "type": "function"
    },
    {
      "inputs": [
        {
          "internalType": "address",
          "name": "from",
          "type": "address"
        },
        {
          "internalType": "address",
          "name": "to",
          "type": "address"
        },
        {
          "internalType": "uint256",
          "name": "tokenId",
          "type": "uint256"
        }
      ],
      "name": "transferFrom",
      "outputs": [],
      "stateMutability": "nonpayable",
      "type": "function"
    },
    {
      "inputs": [
        {
          "internalType": "address",
          "name": "newOwner",
          "type": "address"
        }
      ],
      "name": "transferOwnership",
      "outputs": [],
      "stateMutability": "nonpayable",
      "type": "function"
    },
    {
      "inputs": [
        {
          "internalType": "uint256",
          "name": "_newPrice",
          "type": "uint256"
        }
      ],
      "name": "setListingFee",
      "outputs": [],
      "stateMutability": "nonpayable",
      "type": "function"
    },
    {
      "inputs": [
        {
          "internalType": "uint256",
          "name": "_newPrice",
          "type": "uint256"
        }
      ],
      "name": "setMinimumAssetPrice",
      "outputs": [],
      "stateMutability": "nonpayable",
      "type": "function"
    },
    {
      "inputs": [
        {
          "internalType": "string",
          "name": "_newBaseURI",
          "type": "string"
        }
      ],
      "name": "setBaseURI",
      "outputs": [],
      "stateMutability": "nonpayable",
      "type": "function"
    },
    {
      "inputs": [
        {
          "internalType": "string",
          "name": "_newBaseExtension",
          "type": "string"
        }
      ],
      "name": "setBaseExtension",
      "outputs": [],
      "stateMutability": "nonpayable",
      "type": "function"
    },
    {
      "inputs": [],
      "name": "withdraw",
      "outputs": [],
      "stateMutability": "payable",
      "type": "function"
    },
    {
      "inputs": [
        {
          "internalType": "uint256",
          "name": "_mintAmount",
          "type": "uint256"
        }
      ],
      "name": "safeMint",
      "outputs": [],
      "stateMutability": "payable",
      "type": "function"
    },
    {
      "inputs": [
        {
          "internalType": "address",
          "name": "tokenOwner",
          "type": "address"
        }
      ],
      "name": "getTokenID",
      "outputs": [
        {
          "internalType": "uint256",
          "name": "",
          "type": "uint256"
        }
      ],
      "stateMutability": "view",
      "type": "function"
    }
  ],
  "bytecode": "0x60806040526040518060400160405280600581526020017f2e6a736f6e0000000000000000000000000000000000000000000000000000008152506009908051906020019062000051929190620002d4565b506000600a556001600b556658d15e17628000600c556706f05b59d3b20000600d553480156200008057600080fd5b5060405162003f2c38038062003f2c8339818101604052810190620000a69190620003f6565b82828160009080519060200190620000c0929190620002d4565b508060019080519060200190620000d9929190620002d4565b5050506000600660006101000a81548160ff021916908315150217905550620001176200010b6200013160201b60201c565b6200013960201b60201c565b6200012881620001ff60201b60201c565b5050506200068a565b600033905090565b6000600660019054906101000a900473ffffffffffffffffffffffffffffffffffffffff16905081600660016101000a81548173ffffffffffffffffffffffffffffffffffffffff021916908373ffffffffffffffffffffffffffffffffffffffff1602179055508173ffffffffffffffffffffffffffffffffffffffff168173ffffffffffffffffffffffffffffffffffffffff167f8be0079c531659141344cd1fd0a4f28419497f9722a3daafe3b4186f6b6457e060405160405180910390a35050565b6200020f6200013160201b60201c565b73ffffffffffffffffffffffffffffffffffffffff1662000235620002aa60201b60201c565b73ffffffffffffffffffffffffffffffffffffffff16146200028e576040517f08c379a00000000000000000000000000000000000000000000000000000000081526004016200028590620004be565b60405180910390fd5b8060089080519060200190620002a6929190620002d4565b5050565b6000600660019054906101000a900473ffffffffffffffffffffffffffffffffffffffff16905090565b828054620002e29062000586565b90600052602060002090601f01602090048101928262000306576000855562000352565b82601f106200032157805160ff191683800117855562000352565b8280016001018555821562000352579182015b828111156200035157825182559160200191906001019062000334565b5b50905062000361919062000365565b5090565b5b808211156200038057600081600090555060010162000366565b5090565b60006200039b620003958462000509565b620004e0565b905082815260208101848484011115620003b457600080fd5b620003c184828562000550565b509392505050565b600082601f830112620003db57600080fd5b8151620003ed84826020860162000384565b91505092915050565b6000806000606084860312156200040c57600080fd5b600084015167ffffffffffffffff8111156200042757600080fd5b6200043586828701620003c9565b935050602084015167ffffffffffffffff8111156200045357600080fd5b6200046186828701620003c9565b925050604084015167ffffffffffffffff8111156200047f57600080fd5b6200048d86828701620003c9565b9150509250925092565b6000620004a66020836200053f565b9150620004b38262000661565b602082019050919050565b60006020820190508181036000830152620004d98162000497565b9050919050565b6000620004ec620004ff565b9050620004fa8282620005bc565b919050565b6000604051905090565b600067ffffffffffffffff82111562000527576200052662000621565b5b620005328262000650565b9050602081019050919050565b600082825260208201905092915050565b60005b838110156200057057808201518184015260208101905062000553565b8381111562000580576000848401525b50505050565b600060028204905060018216806200059f57607f821691505b60208210811415620005b657620005b5620005f2565b5b50919050565b620005c78262000650565b810181811067ffffffffffffffff82111715620005e957620005e862000621565b5b80604052505050565b7f4e487b7100000000000000000000000000000000000000000000000000000000600052602260045260246000fd5b7f4e487b7100000000000000000000000000000000000000000000000000000000600052604160045260246000fd5b6000601f19601f8301169050919050565b7f4f776e61626c653a2063616c6c6572206973206e6f7420746865206f776e6572600082015250565b613892806200069a6000396000f3fe6080604052600436106101d85760003560e01c80636a1b7ecc11610102578063b88d4fde11610095578063da3ef23f11610064578063da3ef23f14610690578063e45be8eb146106b9578063e985e9c5146106e4578063f2fde38b14610721576101d8565b8063b88d4fde146105d6578063c6682862146105ff578063c87b56dd1461062a578063caf0e7f614610667576101d8565b80638da5cb5b116100d15780638da5cb5b1461051a57806395d89b4114610545578063a22cb46514610570578063ad79e94b14610599576101d8565b80636a1b7ecc146104705780636c0360eb1461049b57806370a08231146104c6578063715018a614610503576101d8565b806323b872dd1161017a57806355f804b31161014957806355f804b3146103a25780635c975abb146103cb5780636352211e146103f657806363f8071c14610433576101d8565b806323b872dd1461032a57806331c864e8146103535780633ccfd60b1461036f57806342842e0e14610379576101d8565b8063095ea7b3116101b6578063095ea7b314610282578063131dbd09146102ab57806313faede6146102d4578063239c70ae146102ff576101d8565b806301ffc9a7146101dd57806306fdde031461021a578063081812fc14610245575b600080fd5b3480156101e957600080fd5b5061020460048036038101906101ff9190612818565b61074a565b6040516102119190612cba565b60405180910390f35b34801561022657600080fd5b5061022f61082c565b60405161023c9190612cd5565b60405180910390f35b34801561025157600080fd5b5061026c600480360381019061026791906128ab565b6108be565b6040516102799190612c53565b60405180910390f35b34801561028e57600080fd5b506102a960048036038101906102a491906127dc565b610943565b005b3480156102b757600080fd5b506102d260048036038101906102cd91906128ab565b610a5b565b005b3480156102e057600080fd5b506102e9610af4565b6040516102f69190612f17565b60405180910390f35b34801561030b57600080fd5b50610314610afa565b6040516103219190612f17565b60405180910390f35b34801561033657600080fd5b50610351600480360381019061034c91906126d6565b610b00565b005b61036d600480360381019061036891906128ab565b610b60565b005b610377610d0b565b005b34801561038557600080fd5b506103a0600480360381019061039b91906126d6565b610e00565b005b3480156103ae57600080fd5b506103c960048036038101906103c4919061286a565b610e20565b005b3480156103d757600080fd5b506103e0610eb6565b6040516103ed9190612cba565b60405180910390f35b34801561040257600080fd5b5061041d600480360381019061041891906128ab565b610ecd565b60405161042a9190612c53565b60405180910390f35b34801561043f57600080fd5b5061045a60048036038101906104559190612671565b610f7f565b6040516104679190612f17565b60405180910390f35b34801561047c57600080fd5b50610485610fc8565b6040516104929190612f17565b60405180910390f35b3480156104a757600080fd5b506104b0610fce565b6040516104bd9190612cd5565b60405180910390f35b3480156104d257600080fd5b506104ed60048036038101906104e89190612671565b61105c565b6040516104fa9190612f17565b60405180910390f35b34801561050f57600080fd5b50610518611114565b005b34801561052657600080fd5b5061052f61119c565b60405161053c9190612c53565b60405180910390f35b34801561055157600080fd5b5061055a6111c6565b6040516105679190612cd5565b60405180910390f35b34801561057c57600080fd5b50610597600480360381019061059291906127a0565b611258565b005b3480156105a557600080fd5b506105c060048036038101906105bb9190612671565b6113d9565b6040516105cd9190612f17565b60405180910390f35b3480156105e257600080fd5b506105fd60048036038101906105f89190612725565b6113f1565b005b34801561060b57600080fd5b50610614611453565b6040516106219190612cd5565b60405180910390f35b34801561063657600080fd5b50610651600480360381019061064c91906128ab565b6114e1565b60405161065e9190612cd5565b60405180910390f35b34801561067357600080fd5b5061068e600480360381019061068991906128ab565b611588565b005b34801561069c57600080fd5b506106b760048036038101906106b2919061286a565b611621565b005b3480156106c557600080fd5b506106ce6116b7565b6040516106db9190612f17565b60405180910390f35b3480156106f057600080fd5b5061070b6004803603810190610706919061269a565b6116bd565b6040516107189190612cba565b60405180910390f35b34801561072d57600080fd5b5061074860048036038101906107439190612671565b611751565b005b60007f80ac58cd000000000000000000000000000000000000000000000000000000007bffffffffffffffffffffffffffffffffffffffffffffffffffffffff1916827bffffffffffffffffffffffffffffffffffffffffffffffffffffffff1916148061081557507f5b5e139f000000000000000000000000000000000000000000000000000000007bffffffffffffffffffffffffffffffffffffffffffffffffffffffff1916827bffffffffffffffffffffffffffffffffffffffffffffffffffffffff1916145b80610825575061082482611849565b5b9050919050565b60606000805461083b906131d2565b80601f0160208091040260200160405190810160405280929190818152602001828054610867906131d2565b80156108b45780601f10610889576101008083540402835291602001916108b4565b820191906000526020600020905b81548152906001019060200180831161089757829003601f168201915b5050505050905090565b60006108c9826118b3565b610908576040517f08c379a00000000000000000000000000000000000000000000000000000000081526004016108ff90612e57565b60405180910390fd5b6004600083815260200190815260200160002060009054906101000a900473ffffffffffffffffffffffffffffffffffffffff169050919050565b600061094e82610ecd565b90508073ffffffffffffffffffffffffffffffffffffffff168373ffffffffffffffffffffffffffffffffffffffff1614156109bf576040517f08c379a00000000000000000000000000000000000000000000000000000000081526004016109b690612ed7565b60405180910390fd5b8073ffffffffffffffffffffffffffffffffffffffff166109de61191f565b73ffffffffffffffffffffffffffffffffffffffff161480610a0d5750610a0c81610a0761191f565b6116bd565b5b610a4c576040517f08c379a0000000000000000000000000000000000000000000000000000000008152600401610a4390612dd7565b60405180910390fd5b610a568383611927565b505050565b610a6361191f565b73ffffffffffffffffffffffffffffffffffffffff16610a8161119c565b73ffffffffffffffffffffffffffffffffffffffff1614610ad7576040517f08c379a0000000000000000000000000000000000000000000000000000000008152600401610ace90612e77565b60405180910390fd5b670de0b6b3a764000081610aeb919061308e565b600c8190555050565b600a5481565b600b5481565b610b11610b0b61191f565b826119e0565b610b50576040517f08c379a0000000000000000000000000000000000000000000000000000000008152600401610b4790612ef7565b60405180910390fd5b610b5b838383611abe565b505050565b610b6861191f565b73ffffffffffffffffffffffffffffffffffffffff16610b8661119c565b73ffffffffffffffffffffffffffffffffffffffff1614610bdc576040517f08c379a0000000000000000000000000000000000000000000000000000000008152600401610bd390612e77565b60405180910390fd5b6000610be73361105c565b14610c27576040517f08c379a0000000000000000000000000000000000000000000000000000000008152600401610c1e90612d57565b60405180910390fd5b60008111610c3457600080fd5b600b54811115610c4357600080fd5b6000610c4f6007611d1a565b9050610c5961119c565b73ffffffffffffffffffffffffffffffffffffffff163373ffffffffffffffffffffffffffffffffffffffff1614610ca65781600a54610c99919061308e565b341015610ca557600080fd5b5b610cb933610cb46007611d1a565b611d28565b610cc36007611d46565b80600e60003373ffffffffffffffffffffffffffffffffffffffff1673ffffffffffffffffffffffffffffffffffffffff168152602001908152602001600020819055505050565b610d1361191f565b73ffffffffffffffffffffffffffffffffffffffff16610d3161119c565b73ffffffffffffffffffffffffffffffffffffffff1614610d87576040517f08c379a0000000000000000000000000000000000000000000000000000000008152600401610d7e90612e77565b60405180910390fd5b60003373ffffffffffffffffffffffffffffffffffffffff1647604051610dad90612c3e565b60006040518083038185875af1925050503d8060008114610dea576040519150601f19603f3d011682016040523d82523d6000602084013e610def565b606091505b5050905080610dfd57600080fd5b50565b610e1b838383604051806020016040528060008152506113f1565b505050565b610e2861191f565b73ffffffffffffffffffffffffffffffffffffffff16610e4661119c565b73ffffffffffffffffffffffffffffffffffffffff1614610e9c576040517f08c379a0000000000000000000000000000000000000000000000000000000008152600401610e9390612e77565b60405180910390fd5b8060089080519060200190610eb2929190612495565b5050565b6000600660009054906101000a900460ff16905090565b6000806002600084815260200190815260200160002060009054906101000a900473ffffffffffffffffffffffffffffffffffffffff169050600073ffffffffffffffffffffffffffffffffffffffff168173ffffffffffffffffffffffffffffffffffffffff161415610f76576040517f08c379a0000000000000000000000000000000000000000000000000000000008152600401610f6d90612e17565b60405180910390fd5b80915050919050565b6000600e60008373ffffffffffffffffffffffffffffffffffffffff1673ffffffffffffffffffffffffffffffffffffffff168152602001908152602001600020549050919050565b600c5481565b60088054610fdb906131d2565b80601f0160208091040260200160405190810160405280929190818152602001828054611007906131d2565b80156110545780601f1061102957610100808354040283529160200191611054565b820191906000526020600020905b81548152906001019060200180831161103757829003601f168201915b505050505081565b60008073ffffffffffffffffffffffffffffffffffffffff168273ffffffffffffffffffffffffffffffffffffffff1614156110cd576040517f08c379a00000000000000000000000000000000000000000000000000000000081526004016110c490612df7565b60405180910390fd5b600360008373ffffffffffffffffffffffffffffffffffffffff1673ffffffffffffffffffffffffffffffffffffffff168152602001908152602001600020549050919050565b61111c61191f565b73ffffffffffffffffffffffffffffffffffffffff1661113a61119c565b73ffffffffffffffffffffffffffffffffffffffff1614611190576040517f08c379a000000000000000000000000000000000000000000000000000000000815260040161118790612e77565b60405180910390fd5b61119a6000611d5c565b565b6000600660019054906101000a900473ffffffffffffffffffffffffffffffffffffffff16905090565b6060600180546111d5906131d2565b80601f0160208091040260200160405190810160405280929190818152602001828054611201906131d2565b801561124e5780601f106112235761010080835404028352916020019161124e565b820191906000526020600020905b81548152906001019060200180831161123157829003601f168201915b5050505050905090565b61126061191f565b73ffffffffffffffffffffffffffffffffffffffff168273ffffffffffffffffffffffffffffffffffffffff1614156112ce576040517f08c379a00000000000000000000000000000000000000000000000000000000081526004016112c590612d97565b60405180910390fd5b80600560006112db61191f565b73ffffffffffffffffffffffffffffffffffffffff1673ffffffffffffffffffffffffffffffffffffffff16815260200190815260200160002060008473ffffffffffffffffffffffffffffffffffffffff1673ffffffffffffffffffffffffffffffffffffffff16815260200190815260200160002060006101000a81548160ff0219169083151502179055508173ffffffffffffffffffffffffffffffffffffffff1661138861191f565b73ffffffffffffffffffffffffffffffffffffffff167f17307eab39ab6107e8899845ad3d59bd9653f200f220920489ca2b5937696c31836040516113cd9190612cba565b60405180910390a35050565b600e6020528060005260406000206000915090505481565b6114026113fc61191f565b836119e0565b611441576040517f08c379a000000000000000000000000000000000000000000000000000000000815260040161143890612ef7565b60405180910390fd5b61144d84848484611e22565b50505050565b60098054611460906131d2565b80601f016020809104026020016040519081016040528092919081815260200182805461148c906131d2565b80156114d95780601f106114ae576101008083540402835291602001916114d9565b820191906000526020600020905b8154815290600101906020018083116114bc57829003601f168201915b505050505081565b60606114ec826118b3565b61152b576040517f08c379a000000000000000000000000000000000000000000000000000000000815260040161152290612eb7565b60405180910390fd5b6000611535611e7e565b905060008151116115555760405180602001604052806000815250611580565b8061155f84611f10565b604051602001611570929190612c1a565b6040516020818303038152906040525b915050919050565b61159061191f565b73ffffffffffffffffffffffffffffffffffffffff166115ae61119c565b73ffffffffffffffffffffffffffffffffffffffff1614611604576040517f08c379a00000000000000000000000000000000000000000000000000000000081526004016115fb90612e77565b60405180910390fd5b670de0b6b3a764000081611618919061308e565b600d8190555050565b61162961191f565b73ffffffffffffffffffffffffffffffffffffffff1661164761119c565b73ffffffffffffffffffffffffffffffffffffffff161461169d576040517f08c379a000000000000000000000000000000000000000000000000000000000815260040161169490612e77565b60405180910390fd5b80600990805190602001906116b3929190612495565b5050565b600d5481565b6000600560008473ffffffffffffffffffffffffffffffffffffffff1673ffffffffffffffffffffffffffffffffffffffff16815260200190815260200160002060008373ffffffffffffffffffffffffffffffffffffffff1673ffffffffffffffffffffffffffffffffffffffff16815260200190815260200160002060009054906101000a900460ff16905092915050565b61175961191f565b73ffffffffffffffffffffffffffffffffffffffff1661177761119c565b73ffffffffffffffffffffffffffffffffffffffff16146117cd576040517f08c379a00000000000000000000000000000000000000000000000000000000081526004016117c490612e77565b60405180910390fd5b600073ffffffffffffffffffffffffffffffffffffffff168173ffffffffffffffffffffffffffffffffffffffff16141561183d576040517f08c379a000000000000000000000000000000000000000000000000000000000815260040161183490612d17565b60405180910390fd5b61184681611d5c565b50565b60007f01ffc9a7000000000000000000000000000000000000000000000000000000007bffffffffffffffffffffffffffffffffffffffffffffffffffffffff1916827bffffffffffffffffffffffffffffffffffffffffffffffffffffffff1916149050919050565b60008073ffffffffffffffffffffffffffffffffffffffff166002600084815260200190815260200160002060009054906101000a900473ffffffffffffffffffffffffffffffffffffffff1673ffffffffffffffffffffffffffffffffffffffff1614159050919050565b600033905090565b816004600083815260200190815260200160002060006101000a81548173ffffffffffffffffffffffffffffffffffffffff021916908373ffffffffffffffffffffffffffffffffffffffff160217905550808273ffffffffffffffffffffffffffffffffffffffff1661199a83610ecd565b73ffffffffffffffffffffffffffffffffffffffff167f8c5be1e5ebec7d5bd14f71427d1e84f3dd0314c0f7b2291e5b200ac8c7c3b92560405160405180910390a45050565b60006119eb826118b3565b611a2a576040517f08c379a0000000000000000000000000000000000000000000000000000000008152600401611a2190612db7565b60405180910390fd5b6000611a3583610ecd565b90508073ffffffffffffffffffffffffffffffffffffffff168473ffffffffffffffffffffffffffffffffffffffff161480611aa457508373ffffffffffffffffffffffffffffffffffffffff16611a8c846108be565b73ffffffffffffffffffffffffffffffffffffffff16145b80611ab55750611ab481856116bd565b5b91505092915050565b8273ffffffffffffffffffffffffffffffffffffffff16611ade82610ecd565b73ffffffffffffffffffffffffffffffffffffffff1614611b34576040517f08c379a0000000000000000000000000000000000000000000000000000000008152600401611b2b90612e97565b60405180910390fd5b600073ffffffffffffffffffffffffffffffffffffffff168273ffffffffffffffffffffffffffffffffffffffff161415611ba4576040517f08c379a0000000000000000000000000000000000000000000000000000000008152600401611b9b90612d77565b60405180910390fd5b611baf8383836120bd565b611bba600082611927565b6001600360008573ffffffffffffffffffffffffffffffffffffffff1673ffffffffffffffffffffffffffffffffffffffff1681526020019081526020016000206000828254611c0a91906130e8565b925050819055506001600360008473ffffffffffffffffffffffffffffffffffffffff1673ffffffffffffffffffffffffffffffffffffffff1681526020019081526020016000206000828254611c619190613007565b92505081905550816002600083815260200190815260200160002060006101000a81548173ffffffffffffffffffffffffffffffffffffffff021916908373ffffffffffffffffffffffffffffffffffffffff160217905550808273ffffffffffffffffffffffffffffffffffffffff168473ffffffffffffffffffffffffffffffffffffffff167fddf252ad1be2c89b69c2b068fc378daa952ba7f163c4a11628f55a4df523b3ef60405160405180910390a4505050565b600081600001549050919050565b611d428282604051806020016040528060008152506120c2565b5050565b6001816000016000828254019250508190555050565b6000600660019054906101000a900473ffffffffffffffffffffffffffffffffffffffff16905081600660016101000a81548173ffffffffffffffffffffffffffffffffffffffff021916908373ffffffffffffffffffffffffffffffffffffffff1602179055508173ffffffffffffffffffffffffffffffffffffffff168173ffffffffffffffffffffffffffffffffffffffff167f8be0079c531659141344cd1fd0a4f28419497f9722a3daafe3b4186f6b6457e060405160405180910390a35050565b611e2d848484611abe565b611e398484848461211d565b611e78576040517f08c379a0000000000000000000000000000000000000000000000000000000008152600401611e6f90612cf7565b60405180910390fd5b50505050565b606060088054611e8d906131d2565b80601f0160208091040260200160405190810160405280929190818152602001828054611eb9906131d2565b8015611f065780601f10611edb57610100808354040283529160200191611f06565b820191906000526020600020905b815481529060010190602001808311611ee957829003601f168201915b5050505050905090565b60606000821415611f58576040518060400160405280600181526020017f300000000000000000000000000000000000000000000000000000000000000081525090506120b8565b600082905060005b60008214611f8a578080611f7390613235565b915050600a82611f83919061305d565b9150611f60565b60008167ffffffffffffffff811115611fcc577f4e487b7100000000000000000000000000000000000000000000000000000000600052604160045260246000fd5b6040519080825280601f01601f191660200182016040528015611ffe5781602001600182028036833780820191505090505b5090505b600085146120b15760018261201791906130e8565b9150600a85612026919061327e565b60306120329190613007565b60f81b81838151811061206e577f4e487b7100000000000000000000000000000000000000000000000000000000600052603260045260246000fd5b60200101907effffffffffffffffffffffffffffffffffffffffffffffffffffffffffffff1916908160001a905350600a856120aa919061305d565b9450612002565b8093505050505b919050565b505050565b6120cc83836122b4565b6120d9600084848461211d565b612118576040517f08c379a000000000000000000000000000000000000000000000000000000000815260040161210f90612cf7565b60405180910390fd5b505050565b600061213e8473ffffffffffffffffffffffffffffffffffffffff16612482565b156122a7578373ffffffffffffffffffffffffffffffffffffffff1663150b7a0261216761191f565b8786866040518563ffffffff1660e01b81526004016121899493929190612c6e565b602060405180830381600087803b1580156121a357600080fd5b505af19250505080156121d457506040513d601f19601f820116820180604052508101906121d19190612841565b60015b612257573d8060008114612204576040519150601f19603f3d011682016040523d82523d6000602084013e612209565b606091505b5060008151141561224f576040517f08c379a000000000000000000000000000000000000000000000000000000000815260040161224690612cf7565b60405180910390fd5b805181602001fd5b63150b7a0260e01b7bffffffffffffffffffffffffffffffffffffffffffffffffffffffff1916817bffffffffffffffffffffffffffffffffffffffffffffffffffffffff1916149150506122ac565b600190505b949350505050565b600073ffffffffffffffffffffffffffffffffffffffff168273ffffffffffffffffffffffffffffffffffffffff161415612324576040517f08c379a000000000000000000000000000000000000000000000000000000000815260040161231b90612e37565b60405180910390fd5b61232d816118b3565b1561236d576040517f08c379a000000000000000000000000000000000000000000000000000000000815260040161236490612d37565b60405180910390fd5b612379600083836120bd565b6001600360008473ffffffffffffffffffffffffffffffffffffffff1673ffffffffffffffffffffffffffffffffffffffff16815260200190815260200160002060008282546123c99190613007565b92505081905550816002600083815260200190815260200160002060006101000a81548173ffffffffffffffffffffffffffffffffffffffff021916908373ffffffffffffffffffffffffffffffffffffffff160217905550808273ffffffffffffffffffffffffffffffffffffffff16600073ffffffffffffffffffffffffffffffffffffffff167fddf252ad1be2c89b69c2b068fc378daa952ba7f163c4a11628f55a4df523b3ef60405160405180910390a45050565b600080823b905060008111915050919050565b8280546124a1906131d2565b90600052602060002090601f0160209004810192826124c3576000855561250a565b82601f106124dc57805160ff191683800117855561250a565b8280016001018555821561250a579182015b828111156125095782518255916020019190600101906124ee565b5b509050612517919061251b565b5090565b5b8082111561253457600081600090555060010161251c565b5090565b600061254b61254684612f57565b612f32565b90508281526020810184848401111561256357600080fd5b61256e848285613190565b509392505050565b600061258961258484612f88565b612f32565b9050828152602081018484840111156125a157600080fd5b6125ac848285613190565b509392505050565b6000813590506125c381613800565b92915050565b6000813590506125d881613817565b92915050565b6000813590506125ed8161382e565b92915050565b6000815190506126028161382e565b92915050565b600082601f83011261261957600080fd5b8135612629848260208601612538565b91505092915050565b600082601f83011261264357600080fd5b8135612653848260208601612576565b91505092915050565b60008135905061266b81613845565b92915050565b60006020828403121561268357600080fd5b6000612691848285016125b4565b91505092915050565b600080604083850312156126ad57600080fd5b60006126bb858286016125b4565b92505060206126cc858286016125b4565b9150509250929050565b6000806000606084860312156126eb57600080fd5b60006126f9868287016125b4565b935050602061270a868287016125b4565b925050604061271b8682870161265c565b9150509250925092565b6000806000806080858703121561273b57600080fd5b6000612749878288016125b4565b945050602061275a878288016125b4565b935050604061276b8782880161265c565b925050606085013567ffffffffffffffff81111561278857600080fd5b61279487828801612608565b91505092959194509250565b600080604083850312156127b357600080fd5b60006127c1858286016125b4565b92505060206127d2858286016125c9565b9150509250929050565b600080604083850312156127ef57600080fd5b60006127fd858286016125b4565b925050602061280e8582860161265c565b9150509250929050565b60006020828403121561282a57600080fd5b6000612838848285016125de565b91505092915050565b60006020828403121561285357600080fd5b6000612861848285016125f3565b91505092915050565b60006020828403121561287c57600080fd5b600082013567ffffffffffffffff81111561289657600080fd5b6128a284828501612632565b91505092915050565b6000602082840312156128bd57600080fd5b60006128cb8482850161265c565b91505092915050565b6128dd8161311c565b82525050565b6128ec8161312e565b82525050565b60006128fd82612fb9565b6129078185612fcf565b935061291781856020860161319f565b6129208161336b565b840191505092915050565b600061293682612fc4565b6129408185612feb565b935061295081856020860161319f565b6129598161336b565b840191505092915050565b600061296f82612fc4565b6129798185612ffc565b935061298981856020860161319f565b80840191505092915050565b60006129a2603283612feb565b91506129ad8261337c565b604082019050919050565b60006129c5602683612feb565b91506129d0826133cb565b604082019050919050565b60006129e8601c83612feb565b91506129f38261341a565b602082019050919050565b6000612a0b601783612feb565b9150612a1682613443565b602082019050919050565b6000612a2e602483612feb565b9150612a398261346c565b604082019050919050565b6000612a51601983612feb565b9150612a5c826134bb565b602082019050919050565b6000612a74602c83612feb565b9150612a7f826134e4565b604082019050919050565b6000612a97603883612feb565b9150612aa282613533565b604082019050919050565b6000612aba602a83612feb565b9150612ac582613582565b604082019050919050565b6000612add602983612feb565b9150612ae8826135d1565b604082019050919050565b6000612b00602083612feb565b9150612b0b82613620565b602082019050919050565b6000612b23602c83612feb565b9150612b2e82613649565b604082019050919050565b6000612b46602083612feb565b9150612b5182613698565b602082019050919050565b6000612b69602983612feb565b9150612b74826136c1565b604082019050919050565b6000612b8c602f83612feb565b9150612b9782613710565b604082019050919050565b6000612baf602183612feb565b9150612bba8261375f565b604082019050919050565b6000612bd2600083612fe0565b9150612bdd826137ae565b600082019050919050565b6000612bf5603183612feb565b9150612c00826137b1565b604082019050919050565b612c1481613186565b82525050565b6000612c268285612964565b9150612c328284612964565b91508190509392505050565b6000612c4982612bc5565b9150819050919050565b6000602082019050612c6860008301846128d4565b92915050565b6000608082019050612c8360008301876128d4565b612c9060208301866128d4565b612c9d6040830185612c0b565b8181036060830152612caf81846128f2565b905095945050505050565b6000602082019050612ccf60008301846128e3565b92915050565b60006020820190508181036000830152612cef818461292b565b905092915050565b60006020820190508181036000830152612d1081612995565b9050919050565b60006020820190508181036000830152612d30816129b8565b9050919050565b60006020820190508181036000830152612d50816129db565b9050919050565b60006020820190508181036000830152612d70816129fe565b9050919050565b60006020820190508181036000830152612d9081612a21565b9050919050565b60006020820190508181036000830152612db081612a44565b9050919050565b60006020820190508181036000830152612dd081612a67565b9050919050565b60006020820190508181036000830152612df081612a8a565b9050919050565b60006020820190508181036000830152612e1081612aad565b9050919050565b60006020820190508181036000830152612e3081612ad0565b9050919050565b60006020820190508181036000830152612e5081612af3565b9050919050565b60006020820190508181036000830152612e7081612b16565b9050919050565b60006020820190508181036000830152612e9081612b39565b9050919050565b60006020820190508181036000830152612eb081612b5c565b9050919050565b60006020820190508181036000830152612ed081612b7f565b9050919050565b60006020820190508181036000830152612ef081612ba2565b9050919050565b60006020820190508181036000830152612f1081612be8565b9050919050565b6000602082019050612f2c6000830184612c0b565b92915050565b6000612f3c612f4d565b9050612f488282613204565b919050565b6000604051905090565b600067ffffffffffffffff821115612f7257612f7161333c565b5b612f7b8261336b565b9050602081019050919050565b600067ffffffffffffffff821115612fa357612fa261333c565b5b612fac8261336b565b9050602081019050919050565b600081519050919050565b600081519050919050565b600082825260208201905092915050565b600081905092915050565b600082825260208201905092915050565b600081905092915050565b600061301282613186565b915061301d83613186565b9250827fffffffffffffffffffffffffffffffffffffffffffffffffffffffffffffffff03821115613052576130516132af565b5b828201905092915050565b600061306882613186565b915061307383613186565b925082613083576130826132de565b5b828204905092915050565b600061309982613186565b91506130a483613186565b9250817fffffffffffffffffffffffffffffffffffffffffffffffffffffffffffffffff04831182151516156130dd576130dc6132af565b5b828202905092915050565b60006130f382613186565b91506130fe83613186565b925082821015613111576131106132af565b5b828203905092915050565b600061312782613166565b9050919050565b60008115159050919050565b60007fffffffff0000000000000000000000000000000000000000000000000000000082169050919050565b600073ffffffffffffffffffffffffffffffffffffffff82169050919050565b6000819050919050565b82818337600083830152505050565b60005b838110156131bd5780820151818401526020810190506131a2565b838111156131cc576000848401525b50505050565b600060028204905060018216806131ea57607f821691505b602082108114156131fe576131fd61330d565b5b50919050565b61320d8261336b565b810181811067ffffffffffffffff8211171561322c5761322b61333c565b5b80604052505050565b600061324082613186565b91507fffffffffffffffffffffffffffffffffffffffffffffffffffffffffffffffff821415613273576132726132af565b5b600182019050919050565b600061328982613186565b915061329483613186565b9250826132a4576132a36132de565b5b828206905092915050565b7f4e487b7100000000000000000000000000000000000000000000000000000000600052601160045260246000fd5b7f4e487b7100000000000000000000000000000000000000000000000000000000600052601260045260246000fd5b7f4e487b7100000000000000000000000000000000000000000000000000000000600052602260045260246000fd5b7f4e487b7100000000000000000000000000000000000000000000000000000000600052604160045260246000fd5b6000601f19601f8301169050919050565b7f4552433732313a207472616e7366657220746f206e6f6e20455243373231526560008201527f63656976657220696d706c656d656e7465720000000000000000000000000000602082015250565b7f4f776e61626c653a206e6577206f776e657220697320746865207a65726f206160008201527f6464726573730000000000000000000000000000000000000000000000000000602082015250565b7f4552433732313a20746f6b656e20616c7265616479206d696e74656400000000600082015250565b7f4f6e6c792031206d696e7420706572206163636f756e74000000000000000000600082015250565b7f4552433732313a207472616e7366657220746f20746865207a65726f2061646460008201527f7265737300000000000000000000000000000000000000000000000000000000602082015250565b7f4552433732313a20617070726f766520746f2063616c6c657200000000000000600082015250565b7f4552433732313a206f70657261746f7220717565727920666f72206e6f6e657860008201527f697374656e7420746f6b656e0000000000000000000000000000000000000000602082015250565b7f4552433732313a20617070726f76652063616c6c6572206973206e6f74206f7760008201527f6e6572206e6f7220617070726f76656420666f7220616c6c0000000000000000602082015250565b7f4552433732313a2062616c616e636520717565727920666f7220746865207a6560008201527f726f206164647265737300000000000000000000000000000000000000000000602082015250565b7f4552433732313a206f776e657220717565727920666f72206e6f6e657869737460008201527f656e7420746f6b656e0000000000000000000000000000000000000000000000602082015250565b7f4552433732313a206d696e7420746f20746865207a65726f2061646472657373600082015250565b7f4552433732313a20617070726f76656420717565727920666f72206e6f6e657860008201527f697374656e7420746f6b656e0000000000000000000000000000000000000000602082015250565b7f4f776e61626c653a2063616c6c6572206973206e6f7420746865206f776e6572600082015250565b7f4552433732313a207472616e73666572206f6620746f6b656e2074686174206960008201527f73206e6f74206f776e0000000000000000000000000000000000000000000000602082015250565b7f4552433732314d657461646174613a2055524920717565727920666f72206e6f60008201527f6e6578697374656e7420746f6b656e0000000000000000000000000000000000602082015250565b7f4552433732313a20617070726f76616c20746f2063757272656e74206f776e6560008201527f7200000000000000000000000000000000000000000000000000000000000000602082015250565b50565b7f4552433732313a207472616e736665722063616c6c6572206973206e6f74206f60008201527f776e6572206e6f7220617070726f766564000000000000000000000000000000602082015250565b6138098161311c565b811461381457600080fd5b50565b6138208161312e565b811461382b57600080fd5b50565b6138378161313a565b811461384257600080fd5b50565b61384e81613186565b811461385957600080fd5b5056fea264697066735822122024a8751bc1a09b96d2f326df6e567a1dfed6104d6b5a4ce7e275ec040ee1fbf864736f6c63430008030033",
  "immutableReferences": {},
  "source": "// SPDX-License-Identifier: MIT\npragma solidity 0.8.3;\n\nimport \"@openzeppelin/contracts/token/ERC721/ERC721.sol\";\nimport \"@openzeppelin/contracts/security/Pausable.sol\";\nimport \"@openzeppelin/contracts/access/Ownable.sol\";\nimport \"@openzeppelin/contracts/utils/Counters.sol\";\n\ncontract CriolloToken is ERC721, Pausable, Ownable {\n    using Counters for Counters.Counter;\n\n    Counters.Counter private _tokenIdCounter;\n    string public baseURI;\n    string public baseExtension = \".json\";\n    uint256 public cost = 0 ether;\n    uint256 public maxMintAmount = 1;\n\n    enum State {\n        ForSale,\n        Locked,\n        Unlocked,\n        Shipped,\n        Delivered\n    }\n\n    uint256 public listingFee = 0.025 ether;\n    uint256 public minPrice = 0.5 ether;\n\n    // internal\n    function _baseURI() internal view virtual override returns (string memory) {\n        return baseURI;\n    }\n\n    function setListingFee(uint256 _newPrice) public onlyOwner {\n        listingFee = _newPrice * (1 ether);\n    }\n\n    function setMinimumAssetPrice(uint256 _newPrice) public onlyOwner {\n        minPrice = _newPrice * (1 ether);\n    }\n\n    mapping(address => uint256) public tokenOwners;\n\n    constructor(\n        string memory _name,\n        string memory _symbol,\n        string memory _initBaseURI\n    ) ERC721(_name, _symbol) {\n        setBaseURI(_initBaseURI);\n    }\n\n    function setBaseURI(string memory _newBaseURI) public onlyOwner {\n        baseURI = _newBaseURI;\n    }\n\n    function setBaseExtension(string memory _newBaseExtension)\n        public\n        onlyOwner\n    {\n        baseExtension = _newBaseExtension;\n    }\n\n    function withdraw() public payable onlyOwner {\n        (bool success, ) = payable(msg.sender).call{\n            value: address(this).balance\n        }(\"\");\n        require(success);\n    }\n\n    function safeMint(uint256 _mintAmount) public payable onlyOwner {\n        require(balanceOf(msg.sender) == 0, \"Only 1 mint per account\");\n        require(_mintAmount > 0);\n        require(_mintAmount <= maxMintAmount);\n\n        uint256 tokenID = _tokenIdCounter.current();\n\n        if (msg.sender != owner()) {\n            require(msg.value >= cost * _mintAmount);\n        }\n\n        _safeMint(msg.sender, _tokenIdCounter.current());\n        _tokenIdCounter.increment();\n\n        tokenOwners[msg.sender] = tokenID;\n    }\n\n    function getTokenID(address tokenOwner) public view returns (uint256) {\n        return tokenOwners[tokenOwner];\n    }\n}\n",
  "sourcePath": "/home/josue/workspace/CryptoProjects/blockchain-developer-bootcamp-final-project/contracts/CriolloToken.sol",
  "compiler": {
    "name": "solc",
    "version": "0.8.3+commit.8d00100c.Emscripten.clang"
  },
  "schemaVersion": "3.4.3",
  "updatedAt": "2021-11-15T06:41:12.183Z",
  "devdoc": {
    "kind": "dev",
    "methods": {
      "approve(address,uint256)": {
        "details": "See {IERC721-approve}."
      },
      "balanceOf(address)": {
        "details": "See {IERC721-balanceOf}."
      },
      "getApproved(uint256)": {
        "details": "See {IERC721-getApproved}."
      },
      "isApprovedForAll(address,address)": {
        "details": "See {IERC721-isApprovedForAll}."
      },
      "name()": {
        "details": "See {IERC721Metadata-name}."
      },
      "owner()": {
        "details": "Returns the address of the current owner."
      },
      "ownerOf(uint256)": {
        "details": "See {IERC721-ownerOf}."
      },
      "paused()": {
        "details": "Returns true if the contract is paused, and false otherwise."
      },
      "renounceOwnership()": {
        "details": "Leaves the contract without owner. It will not be possible to call `onlyOwner` functions anymore. Can only be called by the current owner. NOTE: Renouncing ownership will leave the contract without an owner, thereby removing any functionality that is only available to the owner."
      },
      "safeTransferFrom(address,address,uint256)": {
        "details": "See {IERC721-safeTransferFrom}."
      },
      "safeTransferFrom(address,address,uint256,bytes)": {
        "details": "See {IERC721-safeTransferFrom}."
      },
      "setApprovalForAll(address,bool)": {
        "details": "See {IERC721-setApprovalForAll}."
      },
      "supportsInterface(bytes4)": {
        "details": "See {IERC165-supportsInterface}."
      },
      "symbol()": {
        "details": "See {IERC721Metadata-symbol}."
      },
      "tokenURI(uint256)": {
        "details": "See {IERC721Metadata-tokenURI}."
      },
      "transferFrom(address,address,uint256)": {
        "details": "See {IERC721-transferFrom}."
      },
      "transferOwnership(address)": {
        "details": "Transfers ownership of the contract to a new account (`newOwner`). Can only be called by the current owner."
      }
    },
    "version": 1
  },
  "userdoc": {
    "kind": "user",
    "methods": {},
    "version": 1
  }
}