{
  "contractName": "CriolloToken",
  "abi": [
    {
      "inputs": [
        {
          "internalType": "string",
          "name": "_name",
          "type": "string"
        },
        {
          "internalType": "string",
          "name": "_symbol",
          "type": "string"
        },
        {
          "internalType": "string",
          "name": "_initBaseURI",
          "type": "string"
        }
      ],
      "stateMutability": "nonpayable",
      "type": "constructor"
    },
    {
      "anonymous": false,
      "inputs": [
        {
          "indexed": true,
          "internalType": "address",
          "name": "owner",
          "type": "address"
        },
        {
          "indexed": true,
          "internalType": "address",
          "name": "approved",
          "type": "address"
        },
        {
          "indexed": true,
          "internalType": "uint256",
          "name": "tokenId",
          "type": "uint256"
        }
      ],
      "name": "Approval",
      "type": "event"
    },
    {
      "anonymous": false,
      "inputs": [
        {
          "indexed": true,
          "internalType": "address",
          "name": "owner",
          "type": "address"
        },
        {
          "indexed": true,
          "internalType": "address",
          "name": "operator",
          "type": "address"
        },
        {
          "indexed": false,
          "internalType": "bool",
          "name": "approved",
          "type": "bool"
        }
      ],
      "name": "ApprovalForAll",
      "type": "event"
    },
    {
      "anonymous": false,
      "inputs": [
        {
          "indexed": true,
          "internalType": "address",
          "name": "previousOwner",
          "type": "address"
        },
        {
          "indexed": true,
          "internalType": "address",
          "name": "newOwner",
          "type": "address"
        }
      ],
      "name": "OwnershipTransferred",
      "type": "event"
    },
    {
      "anonymous": false,
      "inputs": [
        {
          "indexed": false,
          "internalType": "address",
          "name": "owner",
          "type": "address"
        },
        {
          "indexed": false,
          "internalType": "uint256",
          "name": "price",
          "type": "uint256"
        },
        {
          "indexed": false,
          "internalType": "uint256",
          "name": "id",
          "type": "uint256"
        }
      ],
      "name": "Purchase",
      "type": "event"
    },
    {
      "anonymous": false,
      "inputs": [
        {
          "indexed": true,
          "internalType": "address",
          "name": "from",
          "type": "address"
        },
        {
          "indexed": true,
          "internalType": "address",
          "name": "to",
          "type": "address"
        },
        {
          "indexed": true,
          "internalType": "uint256",
          "name": "tokenId",
          "type": "uint256"
        }
      ],
      "name": "Transfer",
      "type": "event"
    },
    {
      "inputs": [],
      "name": "_owner",
      "outputs": [
        {
          "internalType": "address payable",
          "name": "",
          "type": "address"
        }
      ],
      "stateMutability": "view",
      "type": "function"
    },
    {
      "inputs": [
        {
          "internalType": "address",
          "name": "to",
          "type": "address"
        },
        {
          "internalType": "uint256",
          "name": "tokenId",
          "type": "uint256"
        }
      ],
      "name": "approve",
      "outputs": [],
      "stateMutability": "nonpayable",
      "type": "function"
    },
    {
      "inputs": [
        {
          "internalType": "address",
          "name": "owner",
          "type": "address"
        }
      ],
      "name": "balanceOf",
      "outputs": [
        {
          "internalType": "uint256",
          "name": "",
          "type": "uint256"
        }
      ],
      "stateMutability": "view",
      "type": "function"
    },
    {
      "inputs": [],
      "name": "baseExtension",
      "outputs": [
        {
          "internalType": "string",
          "name": "",
          "type": "string"
        }
      ],
      "stateMutability": "view",
      "type": "function"
    },
    {
      "inputs": [],
      "name": "baseURI",
      "outputs": [
        {
          "internalType": "string",
          "name": "",
          "type": "string"
        }
      ],
      "stateMutability": "view",
      "type": "function"
    },
    {
      "inputs": [],
      "name": "cost",
      "outputs": [
        {
          "internalType": "uint256",
          "name": "",
          "type": "uint256"
        }
      ],
      "stateMutability": "view",
      "type": "function"
    },
    {
      "inputs": [
        {
          "internalType": "uint256",
          "name": "tokenId",
          "type": "uint256"
        }
      ],
      "name": "getApproved",
      "outputs": [
        {
          "internalType": "address",
          "name": "",
          "type": "address"
        }
      ],
      "stateMutability": "view",
      "type": "function"
    },
    {
      "inputs": [
        {
          "internalType": "address",
          "name": "owner",
          "type": "address"
        },
        {
          "internalType": "address",
          "name": "operator",
          "type": "address"
        }
      ],
      "name": "isApprovedForAll",
      "outputs": [
        {
          "internalType": "bool",
          "name": "",
          "type": "bool"
        }
      ],
      "stateMutability": "view",
      "type": "function"
    },
    {
      "inputs": [],
      "name": "maxMintAmount",
      "outputs": [
        {
          "internalType": "uint256",
          "name": "",
          "type": "uint256"
        }
      ],
      "stateMutability": "view",
      "type": "function"
    },
    {
      "inputs": [],
      "name": "name",
      "outputs": [
        {
          "internalType": "string",
          "name": "",
          "type": "string"
        }
      ],
      "stateMutability": "view",
      "type": "function"
    },
    {
      "inputs": [],
      "name": "owner",
      "outputs": [
        {
          "internalType": "address",
          "name": "",
          "type": "address"
        }
      ],
      "stateMutability": "view",
      "type": "function"
    },
    {
      "inputs": [
        {
          "internalType": "uint256",
          "name": "tokenId",
          "type": "uint256"
        }
      ],
      "name": "ownerOf",
      "outputs": [
        {
          "internalType": "address",
          "name": "",
          "type": "address"
        }
      ],
      "stateMutability": "view",
      "type": "function"
    },
    {
      "inputs": [
        {
          "internalType": "uint256",
          "name": "",
          "type": "uint256"
        }
      ],
      "name": "price",
      "outputs": [
        {
          "internalType": "uint256",
          "name": "",
          "type": "uint256"
        }
      ],
      "stateMutability": "view",
      "type": "function"
    },
    {
      "inputs": [],
      "name": "renounceOwnership",
      "outputs": [],
      "stateMutability": "nonpayable",
      "type": "function"
    },
    {
      "inputs": [
        {
          "internalType": "address",
          "name": "from",
          "type": "address"
        },
        {
          "internalType": "address",
          "name": "to",
          "type": "address"
        },
        {
          "internalType": "uint256",
          "name": "tokenId",
          "type": "uint256"
        }
      ],
      "name": "safeTransferFrom",
      "outputs": [],
      "stateMutability": "nonpayable",
      "type": "function"
    },
    {
      "inputs": [
        {
          "internalType": "address",
          "name": "from",
          "type": "address"
        },
        {
          "internalType": "address",
          "name": "to",
          "type": "address"
        },
        {
          "internalType": "uint256",
          "name": "tokenId",
          "type": "uint256"
        },
        {
          "internalType": "bytes",
          "name": "_data",
          "type": "bytes"
        }
      ],
      "name": "safeTransferFrom",
      "outputs": [],
      "stateMutability": "nonpayable",
      "type": "function"
    },
    {
      "inputs": [
        {
          "internalType": "address",
          "name": "operator",
          "type": "address"
        },
        {
          "internalType": "bool",
          "name": "approved",
          "type": "bool"
        }
      ],
      "name": "setApprovalForAll",
      "outputs": [],
      "stateMutability": "nonpayable",
      "type": "function"
    },
    {
      "inputs": [
        {
          "internalType": "uint256",
          "name": "",
          "type": "uint256"
        }
      ],
      "name": "state",
      "outputs": [
        {
          "internalType": "enum CriolloToken.State",
          "name": "",
          "type": "uint8"
        }
      ],
      "stateMutability": "view",
      "type": "function"
    },
    {
      "inputs": [
        {
          "internalType": "bytes4",
          "name": "interfaceId",
          "type": "bytes4"
        }
      ],
      "name": "supportsInterface",
      "outputs": [
        {
          "internalType": "bool",
          "name": "",
          "type": "bool"
        }
      ],
      "stateMutability": "view",
      "type": "function"
    },
    {
      "inputs": [],
      "name": "symbol",
      "outputs": [
        {
          "internalType": "string",
          "name": "",
          "type": "string"
        }
      ],
      "stateMutability": "view",
      "type": "function"
    },
    {
      "inputs": [
        {
          "internalType": "address",
          "name": "",
          "type": "address"
        }
      ],
      "name": "tokenOwners",
      "outputs": [
        {
          "internalType": "uint256",
          "name": "",
          "type": "uint256"
        }
      ],
      "stateMutability": "view",
      "type": "function"
    },
    {
      "inputs": [
        {
          "internalType": "uint256",
          "name": "tokenId",
          "type": "uint256"
        }
      ],
      "name": "tokenURI",
      "outputs": [
        {
          "internalType": "string",
          "name": "",
          "type": "string"
        }
      ],
      "stateMutability": "view",
      "type": "function"
    },
    {
      "inputs": [
        {
          "internalType": "address",
          "name": "from",
          "type": "address"
        },
        {
          "internalType": "address",
          "name": "to",
          "type": "address"
        },
        {
          "internalType": "uint256",
          "name": "tokenId",
          "type": "uint256"
        }
      ],
      "name": "transferFrom",
      "outputs": [],
      "stateMutability": "nonpayable",
      "type": "function"
    },
    {
      "inputs": [
        {
          "internalType": "address",
          "name": "newOwner",
          "type": "address"
        }
      ],
      "name": "transferOwnership",
      "outputs": [],
      "stateMutability": "nonpayable",
      "type": "function"
    },
    {
      "inputs": [
        {
          "internalType": "string",
          "name": "_newBaseURI",
          "type": "string"
        }
      ],
      "name": "setBaseURI",
      "outputs": [],
      "stateMutability": "nonpayable",
      "type": "function"
    },
    {
      "inputs": [
        {
          "internalType": "string",
          "name": "_newBaseExtension",
          "type": "string"
        }
      ],
      "name": "setBaseExtension",
      "outputs": [],
      "stateMutability": "nonpayable",
      "type": "function"
    },
    {
      "inputs": [],
      "name": "withdraw",
      "outputs": [],
      "stateMutability": "payable",
      "type": "function"
    },
    {
      "inputs": [
        {
          "internalType": "uint256",
          "name": "_price",
          "type": "uint256"
        }
      ],
      "name": "safeMint",
      "outputs": [],
      "stateMutability": "payable",
      "type": "function"
    },
    {
      "inputs": [
        {
          "internalType": "address",
          "name": "tokenOwner",
          "type": "address"
        }
      ],
      "name": "getTokenID",
      "outputs": [
        {
          "internalType": "uint256",
          "name": "",
          "type": "uint256"
        }
      ],
      "stateMutability": "view",
      "type": "function"
    },
    {
      "inputs": [
        {
          "internalType": "uint256",
          "name": "_tokenID",
          "type": "uint256"
        }
      ],
      "name": "getState",
      "outputs": [
        {
          "internalType": "enum CriolloToken.State",
          "name": "",
          "type": "uint8"
        }
      ],
      "stateMutability": "view",
      "type": "function"
    },
    {
      "inputs": [
        {
          "internalType": "uint256",
          "name": "_id",
          "type": "uint256"
        }
      ],
      "name": "buy",
      "outputs": [],
      "stateMutability": "payable",
      "type": "function"
    }
  ],
  "bytecode": "0x60806040526040518060400160405280600581526020017f2e6a736f6e000000000000000000000000000000000000000000000000000000815250600a908051906020019062000051929190620002ea565b506703782dace9d90000600b556001600c553480156200007057600080fd5b50604051620042e2380380620042e283398181016040528101906200009691906200040c565b82828160009080519060200190620000b0929190620002ea565b508060019080519060200190620000c9929190620002ea565b505050620000ec620000e06200014760201b60201c565b6200014f60201b60201c565b33600760006101000a81548173ffffffffffffffffffffffffffffffffffffffff021916908373ffffffffffffffffffffffffffffffffffffffff1602179055506200013e816200021560201b60201c565b505050620006a0565b600033905090565b6000600660009054906101000a900473ffffffffffffffffffffffffffffffffffffffff16905081600660006101000a81548173ffffffffffffffffffffffffffffffffffffffff021916908373ffffffffffffffffffffffffffffffffffffffff1602179055508173ffffffffffffffffffffffffffffffffffffffff168173ffffffffffffffffffffffffffffffffffffffff167f8be0079c531659141344cd1fd0a4f28419497f9722a3daafe3b4186f6b6457e060405160405180910390a35050565b620002256200014760201b60201c565b73ffffffffffffffffffffffffffffffffffffffff166200024b620002c060201b60201c565b73ffffffffffffffffffffffffffffffffffffffff1614620002a4576040517f08c379a00000000000000000000000000000000000000000000000000000000081526004016200029b90620004d4565b60405180910390fd5b8060099080519060200190620002bc929190620002ea565b5050565b6000600660009054906101000a900473ffffffffffffffffffffffffffffffffffffffff16905090565b828054620002f8906200059c565b90600052602060002090601f0160209004810192826200031c576000855562000368565b82601f106200033757805160ff191683800117855562000368565b8280016001018555821562000368579182015b82811115620003675782518255916020019190600101906200034a565b5b5090506200037791906200037b565b5090565b5b80821115620003965760008160009055506001016200037c565b5090565b6000620003b1620003ab846200051f565b620004f6565b905082815260208101848484011115620003ca57600080fd5b620003d784828562000566565b509392505050565b600082601f830112620003f157600080fd5b8151620004038482602086016200039a565b91505092915050565b6000806000606084860312156200042257600080fd5b600084015167ffffffffffffffff8111156200043d57600080fd5b6200044b86828701620003df565b935050602084015167ffffffffffffffff8111156200046957600080fd5b6200047786828701620003df565b925050604084015167ffffffffffffffff8111156200049557600080fd5b620004a386828701620003df565b9150509250925092565b6000620004bc60208362000555565b9150620004c98262000677565b602082019050919050565b60006020820190508181036000830152620004ef81620004ad565b9050919050565b60006200050262000515565b9050620005108282620005d2565b919050565b6000604051905090565b600067ffffffffffffffff8211156200053d576200053c62000637565b5b620005488262000666565b9050602081019050919050565b600082825260208201905092915050565b60005b838110156200058657808201518184015260208101905062000569565b8381111562000596576000848401525b50505050565b60006002820490506001821680620005b557607f821691505b60208210811415620005cc57620005cb62000608565b5b50919050565b620005dd8262000666565b810181811067ffffffffffffffff82111715620005ff57620005fe62000637565b5b80604052505050565b7f4e487b7100000000000000000000000000000000000000000000000000000000600052602260045260246000fd5b7f4e487b7100000000000000000000000000000000000000000000000000000000600052604160045260246000fd5b6000601f19601f8301169050919050565b7f4f776e61626c653a2063616c6c6572206973206e6f7420746865206f776e6572600082015250565b613c3280620006b06000396000f3fe6080604052600436106101d85760003560e01c806363f8071c11610102578063b2bdfa7b11610095578063d96a094a11610064578063d96a094a146106ca578063da3ef23f146106e6578063e985e9c51461070f578063f2fde38b1461074c576101d8565b8063b2bdfa7b1461060e578063b88d4fde14610639578063c668286214610662578063c87b56dd1461068d576101d8565b80638da5cb5b116100d15780638da5cb5b1461055257806395d89b411461057d578063a22cb465146105a8578063ad79e94b146105d1576101d8565b806363f8071c146104965780636c0360eb146104d357806370a08231146104fe578063715018a61461053b576101d8565b806326a49e371161017a57806342842e0e1161014957806342842e0e146103ca57806344c9af28146103f357806355f804b3146104305780636352211e14610459576101d8565b806326a49e371461032a57806331c864e8146103675780633ccfd60b146103835780633e4f49e61461038d576101d8565b8063095ea7b3116101b6578063095ea7b31461028257806313faede6146102ab578063239c70ae146102d657806323b872dd14610301576101d8565b806301ffc9a7146101dd57806306fdde031461021a578063081812fc14610245575b600080fd5b3480156101e957600080fd5b5061020460048036038101906101ff9190612aa1565b610775565b6040516102119190612fd6565b60405180910390f35b34801561022657600080fd5b5061022f610857565b60405161023c919061300c565b60405180910390f35b34801561025157600080fd5b5061026c60048036038101906102679190612b34565b6108e9565b6040516102799190612f1d565b60405180910390f35b34801561028e57600080fd5b506102a960048036038101906102a49190612a65565b61096e565b005b3480156102b757600080fd5b506102c0610a86565b6040516102cd919061326e565b60405180910390f35b3480156102e257600080fd5b506102eb610a8c565b6040516102f8919061326e565b60405180910390f35b34801561030d57600080fd5b506103286004803603810190610323919061295f565b610a92565b005b34801561033657600080fd5b50610351600480360381019061034c9190612b34565b610af2565b60405161035e919061326e565b60405180910390f35b610381600480360381019061037c9190612b34565b610b0a565b005b61038b610c6a565b005b34801561039957600080fd5b506103b460048036038101906103af9190612b34565b610d5f565b6040516103c19190612ff1565b60405180910390f35b3480156103d657600080fd5b506103f160048036038101906103ec919061295f565b610d7f565b005b3480156103ff57600080fd5b5061041a60048036038101906104159190612b34565b610d9f565b6040516104279190612ff1565b60405180910390f35b34801561043c57600080fd5b5061045760048036038101906104529190612af3565b610dc9565b005b34801561046557600080fd5b50610480600480360381019061047b9190612b34565b610e5f565b60405161048d9190612f1d565b60405180910390f35b3480156104a257600080fd5b506104bd60048036038101906104b891906128fa565b610f11565b6040516104ca919061326e565b60405180910390f35b3480156104df57600080fd5b506104e8610f5a565b6040516104f5919061300c565b60405180910390f35b34801561050a57600080fd5b50610525600480360381019061052091906128fa565b610fe8565b604051610532919061326e565b60405180910390f35b34801561054757600080fd5b506105506110a0565b005b34801561055e57600080fd5b50610567611128565b6040516105749190612f1d565b60405180910390f35b34801561058957600080fd5b50610592611152565b60405161059f919061300c565b60405180910390f35b3480156105b457600080fd5b506105cf60048036038101906105ca9190612a29565b6111e4565b005b3480156105dd57600080fd5b506105f860048036038101906105f391906128fa565b611365565b604051610605919061326e565b60405180910390f35b34801561061a57600080fd5b5061062361137d565b6040516106309190612f38565b60405180910390f35b34801561064557600080fd5b50610660600480360381019061065b91906129ae565b6113a3565b005b34801561066e57600080fd5b50610677611405565b604051610684919061300c565b60405180910390f35b34801561069957600080fd5b506106b460048036038101906106af9190612b34565b611493565b6040516106c1919061300c565b60405180910390f35b6106e460048036038101906106df9190612b34565b61153a565b005b3480156106f257600080fd5b5061070d60048036038101906107089190612af3565b6116a9565b005b34801561071b57600080fd5b5061073660048036038101906107319190612923565b61173f565b6040516107439190612fd6565b60405180910390f35b34801561075857600080fd5b50610773600480360381019061076e91906128fa565b6117d3565b005b60007f80ac58cd000000000000000000000000000000000000000000000000000000007bffffffffffffffffffffffffffffffffffffffffffffffffffffffff1916827bffffffffffffffffffffffffffffffffffffffffffffffffffffffff1916148061084057507f5b5e139f000000000000000000000000000000000000000000000000000000007bffffffffffffffffffffffffffffffffffffffffffffffffffffffff1916827bffffffffffffffffffffffffffffffffffffffffffffffffffffffff1916145b80610850575061084f826118cb565b5b9050919050565b60606000805461086690613506565b80601f016020809104026020016040519081016040528092919081815260200182805461089290613506565b80156108df5780601f106108b4576101008083540402835291602001916108df565b820191906000526020600020905b8154815290600101906020018083116108c257829003601f168201915b5050505050905090565b60006108f482611935565b610933576040517f08c379a000000000000000000000000000000000000000000000000000000000815260040161092a906131ae565b60405180910390fd5b6004600083815260200190815260200160002060009054906101000a900473ffffffffffffffffffffffffffffffffffffffff169050919050565b600061097982610e5f565b90508073ffffffffffffffffffffffffffffffffffffffff168373ffffffffffffffffffffffffffffffffffffffff1614156109ea576040517f08c379a00000000000000000000000000000000000000000000000000000000081526004016109e19061322e565b60405180910390fd5b8073ffffffffffffffffffffffffffffffffffffffff16610a096119a1565b73ffffffffffffffffffffffffffffffffffffffff161480610a385750610a3781610a326119a1565b61173f565b5b610a77576040517f08c379a0000000000000000000000000000000000000000000000000000000008152600401610a6e9061312e565b60405180910390fd5b610a8183836119a9565b505050565b600b5481565b600c5481565b610aa3610a9d6119a1565b82611a62565b610ae2576040517f08c379a0000000000000000000000000000000000000000000000000000000008152600401610ad99061324e565b60405180910390fd5b610aed838383611b40565b505050565b600f6020528060005260406000206000915090505481565b610b126119a1565b73ffffffffffffffffffffffffffffffffffffffff16610b30611128565b73ffffffffffffffffffffffffffffffffffffffff1614610b86576040517f08c379a0000000000000000000000000000000000000000000000000000000008152600401610b7d906131ce565b60405180910390fd5b6000610b926008611d9c565b9050610b9e3382611daa565b610ba86008611dc8565b80600d60003373ffffffffffffffffffffffffffffffffffffffff1673ffffffffffffffffffffffffffffffffffffffff1681526020019081526020016000208190555081600f6000838152602001908152602001600020819055506000600e600083815260200190815260200160002060006101000a81548160ff02191690836004811115610c61577f4e487b7100000000000000000000000000000000000000000000000000000000600052602160045260246000fd5b02179055505050565b610c726119a1565b73ffffffffffffffffffffffffffffffffffffffff16610c90611128565b73ffffffffffffffffffffffffffffffffffffffff1614610ce6576040517f08c379a0000000000000000000000000000000000000000000000000000000008152600401610cdd906131ce565b60405180910390fd5b60003373ffffffffffffffffffffffffffffffffffffffff1647604051610d0c90612f08565b60006040518083038185875af1925050503d8060008114610d49576040519150601f19603f3d011682016040523d82523d6000602084013e610d4e565b606091505b5050905080610d5c57600080fd5b50565b600e6020528060005260406000206000915054906101000a900460ff1681565b610d9a838383604051806020016040528060008152506113a3565b505050565b6000600e600083815260200190815260200160002060009054906101000a900460ff169050919050565b610dd16119a1565b73ffffffffffffffffffffffffffffffffffffffff16610def611128565b73ffffffffffffffffffffffffffffffffffffffff1614610e45576040517f08c379a0000000000000000000000000000000000000000000000000000000008152600401610e3c906131ce565b60405180910390fd5b8060099080519060200190610e5b92919061271e565b5050565b6000806002600084815260200190815260200160002060009054906101000a900473ffffffffffffffffffffffffffffffffffffffff169050600073ffffffffffffffffffffffffffffffffffffffff168173ffffffffffffffffffffffffffffffffffffffff161415610f08576040517f08c379a0000000000000000000000000000000000000000000000000000000008152600401610eff9061316e565b60405180910390fd5b80915050919050565b6000600d60008373ffffffffffffffffffffffffffffffffffffffff1673ffffffffffffffffffffffffffffffffffffffff168152602001908152602001600020549050919050565b60098054610f6790613506565b80601f0160208091040260200160405190810160405280929190818152602001828054610f9390613506565b8015610fe05780601f10610fb557610100808354040283529160200191610fe0565b820191906000526020600020905b815481529060010190602001808311610fc357829003601f168201915b505050505081565b60008073ffffffffffffffffffffffffffffffffffffffff168273ffffffffffffffffffffffffffffffffffffffff161415611059576040517f08c379a00000000000000000000000000000000000000000000000000000000081526004016110509061314e565b60405180910390fd5b600360008373ffffffffffffffffffffffffffffffffffffffff1673ffffffffffffffffffffffffffffffffffffffff168152602001908152602001600020549050919050565b6110a86119a1565b73ffffffffffffffffffffffffffffffffffffffff166110c6611128565b73ffffffffffffffffffffffffffffffffffffffff161461111c576040517f08c379a0000000000000000000000000000000000000000000000000000000008152600401611113906131ce565b60405180910390fd5b6111266000611dde565b565b6000600660009054906101000a900473ffffffffffffffffffffffffffffffffffffffff16905090565b60606001805461116190613506565b80601f016020809104026020016040519081016040528092919081815260200182805461118d90613506565b80156111da5780601f106111af576101008083540402835291602001916111da565b820191906000526020600020905b8154815290600101906020018083116111bd57829003601f168201915b5050505050905090565b6111ec6119a1565b73ffffffffffffffffffffffffffffffffffffffff168273ffffffffffffffffffffffffffffffffffffffff16141561125a576040517f08c379a0000000000000000000000000000000000000000000000000000000008152600401611251906130ae565b60405180910390fd5b80600560006112676119a1565b73ffffffffffffffffffffffffffffffffffffffff1673ffffffffffffffffffffffffffffffffffffffff16815260200190815260200160002060008473ffffffffffffffffffffffffffffffffffffffff1673ffffffffffffffffffffffffffffffffffffffff16815260200190815260200160002060006101000a81548160ff0219169083151502179055508173ffffffffffffffffffffffffffffffffffffffff166113146119a1565b73ffffffffffffffffffffffffffffffffffffffff167f17307eab39ab6107e8899845ad3d59bd9653f200f220920489ca2b5937696c31836040516113599190612fd6565b60405180910390a35050565b600d6020528060005260406000206000915090505481565b600760009054906101000a900473ffffffffffffffffffffffffffffffffffffffff1681565b6113b46113ae6119a1565b83611a62565b6113f3576040517f08c379a00000000000000000000000000000000000000000000000000000000081526004016113ea9061324e565b60405180910390fd5b6113ff84848484611ea4565b50505050565b600a805461141290613506565b80601f016020809104026020016040519081016040528092919081815260200182805461143e90613506565b801561148b5780601f106114605761010080835404028352916020019161148b565b820191906000526020600020905b81548152906001019060200180831161146e57829003601f168201915b505050505081565b606061149e82611935565b6114dd576040517f08c379a00000000000000000000000000000000000000000000000000000000081526004016114d49061320e565b60405180910390fd5b60006114e7611f00565b905060008151116115075760405180602001604052806000815250611532565b8061151184611f92565b604051602001611522929190612ee4565b6040516020818303038152906040525b915050919050565b8060006004811115611575577f4e487b7100000000000000000000000000000000000000000000000000000000600052602160045260246000fd5b600e600083815260200190815260200160002060009054906101000a900460ff1660048111156115ce577f4e487b7100000000000000000000000000000000000000000000000000000000600052602160045260246000fd5b146115d857600080fd5b6115e18261213f565b600760009054906101000a900473ffffffffffffffffffffffffffffffffffffffff1673ffffffffffffffffffffffffffffffffffffffff1661162383610e5f565b73ffffffffffffffffffffffffffffffffffffffff16141561164d57611648826121e0565b611657565b611656826122db565b5b7f12cb4648cf3058b17ceeb33e579f8b0bc269fe0843f3900b8e24b6c54871703c33600f6000858152602001908152602001600020548460405161169d93929190612f9f565b60405180910390a15050565b6116b16119a1565b73ffffffffffffffffffffffffffffffffffffffff166116cf611128565b73ffffffffffffffffffffffffffffffffffffffff1614611725576040517f08c379a000000000000000000000000000000000000000000000000000000000815260040161171c906131ce565b60405180910390fd5b80600a908051906020019061173b92919061271e565b5050565b6000600560008473ffffffffffffffffffffffffffffffffffffffff1673ffffffffffffffffffffffffffffffffffffffff16815260200190815260200160002060008373ffffffffffffffffffffffffffffffffffffffff1673ffffffffffffffffffffffffffffffffffffffff16815260200190815260200160002060009054906101000a900460ff16905092915050565b6117db6119a1565b73ffffffffffffffffffffffffffffffffffffffff166117f9611128565b73ffffffffffffffffffffffffffffffffffffffff161461184f576040517f08c379a0000000000000000000000000000000000000000000000000000000008152600401611846906131ce565b60405180910390fd5b600073ffffffffffffffffffffffffffffffffffffffff168173ffffffffffffffffffffffffffffffffffffffff1614156118bf576040517f08c379a00000000000000000000000000000000000000000000000000000000081526004016118b69061304e565b60405180910390fd5b6118c881611dde565b50565b60007f01ffc9a7000000000000000000000000000000000000000000000000000000007bffffffffffffffffffffffffffffffffffffffffffffffffffffffff1916827bffffffffffffffffffffffffffffffffffffffffffffffffffffffff1916149050919050565b60008073ffffffffffffffffffffffffffffffffffffffff166002600084815260200190815260200160002060009054906101000a900473ffffffffffffffffffffffffffffffffffffffff1673ffffffffffffffffffffffffffffffffffffffff1614159050919050565b600033905090565b816004600083815260200190815260200160002060006101000a81548173ffffffffffffffffffffffffffffffffffffffff021916908373ffffffffffffffffffffffffffffffffffffffff160217905550808273ffffffffffffffffffffffffffffffffffffffff16611a1c83610e5f565b73ffffffffffffffffffffffffffffffffffffffff167f8c5be1e5ebec7d5bd14f71427d1e84f3dd0314c0f7b2291e5b200ac8c7c3b92560405160405180910390a45050565b6000611a6d82611935565b611aac576040517f08c379a0000000000000000000000000000000000000000000000000000000008152600401611aa3906130ce565b60405180910390fd5b6000611ab783610e5f565b90508073ffffffffffffffffffffffffffffffffffffffff168473ffffffffffffffffffffffffffffffffffffffff161480611b2657508373ffffffffffffffffffffffffffffffffffffffff16611b0e846108e9565b73ffffffffffffffffffffffffffffffffffffffff16145b80611b375750611b36818561173f565b5b91505092915050565b8273ffffffffffffffffffffffffffffffffffffffff16611b6082610e5f565b73ffffffffffffffffffffffffffffffffffffffff1614611bb6576040517f08c379a0000000000000000000000000000000000000000000000000000000008152600401611bad906131ee565b60405180910390fd5b600073ffffffffffffffffffffffffffffffffffffffff168273ffffffffffffffffffffffffffffffffffffffff161415611c26576040517f08c379a0000000000000000000000000000000000000000000000000000000008152600401611c1d9061308e565b60405180910390fd5b611c31838383612346565b611c3c6000826119a9565b6001600360008573ffffffffffffffffffffffffffffffffffffffff1673ffffffffffffffffffffffffffffffffffffffff1681526020019081526020016000206000828254611c8c91906133e5565b925050819055506001600360008473ffffffffffffffffffffffffffffffffffffffff1673ffffffffffffffffffffffffffffffffffffffff1681526020019081526020016000206000828254611ce3919061335e565b92505081905550816002600083815260200190815260200160002060006101000a81548173ffffffffffffffffffffffffffffffffffffffff021916908373ffffffffffffffffffffffffffffffffffffffff160217905550808273ffffffffffffffffffffffffffffffffffffffff168473ffffffffffffffffffffffffffffffffffffffff167fddf252ad1be2c89b69c2b068fc378daa952ba7f163c4a11628f55a4df523b3ef60405160405180910390a4505050565b600081600001549050919050565b611dc482826040518060200160405280600081525061234b565b5050565b6001816000016000828254019250508190555050565b6000600660009054906101000a900473ffffffffffffffffffffffffffffffffffffffff16905081600660006101000a81548173ffffffffffffffffffffffffffffffffffffffff021916908373ffffffffffffffffffffffffffffffffffffffff1602179055508173ffffffffffffffffffffffffffffffffffffffff168173ffffffffffffffffffffffffffffffffffffffff167f8be0079c531659141344cd1fd0a4f28419497f9722a3daafe3b4186f6b6457e060405160405180910390a35050565b611eaf848484611b40565b611ebb848484846123a6565b611efa576040517f08c379a0000000000000000000000000000000000000000000000000000000008152600401611ef19061302e565b60405180910390fd5b50505050565b606060098054611f0f90613506565b80601f0160208091040260200160405190810160405280929190818152602001828054611f3b90613506565b8015611f885780601f10611f5d57610100808354040283529160200191611f88565b820191906000526020600020905b815481529060010190602001808311611f6b57829003601f168201915b5050505050905090565b60606000821415611fda576040518060400160405280600181526020017f3000000000000000000000000000000000000000000000000000000000000000815250905061213a565b600082905060005b6000821461200c578080611ff590613569565b915050600a8261200591906133b4565b9150611fe2565b60008167ffffffffffffffff81111561204e577f4e487b7100000000000000000000000000000000000000000000000000000000600052604160045260246000fd5b6040519080825280601f01601f1916602001820160405280156120805781602001600182028036833780820191505090505b5090505b600085146121335760018261209991906133e5565b9150600a856120a891906135b2565b60306120b4919061335e565b60f81b8183815181106120f0577f4e487b7100000000000000000000000000000000000000000000000000000000600052603260045260246000fd5b60200101907effffffffffffffffffffffffffffffffffffffffffffffffffffffffffffff1916908160001a905350600a8561212c91906133b4565b9450612084565b8093505050505b919050565b61214881611935565b612187576040517f08c379a000000000000000000000000000000000000000000000000000000000815260040161217e906130ee565b60405180910390fd5b600f6000828152602001908152602001600020543410156121dd576040517f08c379a00000000000000000000000000000000000000000000000000000000081526004016121d49061310e565b60405180910390fd5b50565b61220d600760009054906101000a900473ffffffffffffffffffffffffffffffffffffffff163383611b40565b600760009054906101000a900473ffffffffffffffffffffffffffffffffffffffff1673ffffffffffffffffffffffffffffffffffffffff166108fc349081150290604051600060405180830381858888f19350505050158015612275573d6000803e3d6000fd5b506001600e600083815260200190815260200160002060006101000a81548160ff021916908360048111156122d3577f4e487b7100000000000000000000000000000000000000000000000000000000600052602160045260246000fd5b021790555050565b60006122e682610e5f565b90506122fb6122f483610e5f565b3384611b40565b8073ffffffffffffffffffffffffffffffffffffffff166108fc349081150290604051600060405180830381858888f19350505050158015612341573d6000803e3d6000fd5b505050565b505050565b612355838361253d565b61236260008484846123a6565b6123a1576040517f08c379a00000000000000000000000000000000000000000000000000000000081526004016123989061302e565b60405180910390fd5b505050565b60006123c78473ffffffffffffffffffffffffffffffffffffffff1661270b565b15612530578373ffffffffffffffffffffffffffffffffffffffff1663150b7a026123f06119a1565b8786866040518563ffffffff1660e01b81526004016124129493929190612f53565b602060405180830381600087803b15801561242c57600080fd5b505af192505050801561245d57506040513d601f19601f8201168201806040525081019061245a9190612aca565b60015b6124e0573d806000811461248d576040519150601f19603f3d011682016040523d82523d6000602084013e612492565b606091505b506000815114156124d8576040517f08c379a00000000000000000000000000000000000000000000000000000000081526004016124cf9061302e565b60405180910390fd5b805181602001fd5b63150b7a0260e01b7bffffffffffffffffffffffffffffffffffffffffffffffffffffffff1916817bffffffffffffffffffffffffffffffffffffffffffffffffffffffff191614915050612535565b600190505b949350505050565b600073ffffffffffffffffffffffffffffffffffffffff168273ffffffffffffffffffffffffffffffffffffffff1614156125ad576040517f08c379a00000000000000000000000000000000000000000000000000000000081526004016125a49061318e565b60405180910390fd5b6125b681611935565b156125f6576040517f08c379a00000000000000000000000000000000000000000000000000000000081526004016125ed9061306e565b60405180910390fd5b61260260008383612346565b6001600360008473ffffffffffffffffffffffffffffffffffffffff1673ffffffffffffffffffffffffffffffffffffffff1681526020019081526020016000206000828254612652919061335e565b92505081905550816002600083815260200190815260200160002060006101000a81548173ffffffffffffffffffffffffffffffffffffffff021916908373ffffffffffffffffffffffffffffffffffffffff160217905550808273ffffffffffffffffffffffffffffffffffffffff16600073ffffffffffffffffffffffffffffffffffffffff167fddf252ad1be2c89b69c2b068fc378daa952ba7f163c4a11628f55a4df523b3ef60405160405180910390a45050565b600080823b905060008111915050919050565b82805461272a90613506565b90600052602060002090601f01602090048101928261274c5760008555612793565b82601f1061276557805160ff1916838001178555612793565b82800160010185558215612793579182015b82811115612792578251825591602001919060010190612777565b5b5090506127a091906127a4565b5090565b5b808211156127bd5760008160009055506001016127a5565b5090565b60006127d46127cf846132ae565b613289565b9050828152602081018484840111156127ec57600080fd5b6127f78482856134c4565b509392505050565b600061281261280d846132df565b613289565b90508281526020810184848401111561282a57600080fd5b6128358482856134c4565b509392505050565b60008135905061284c81613ba0565b92915050565b60008135905061286181613bb7565b92915050565b60008135905061287681613bce565b92915050565b60008151905061288b81613bce565b92915050565b600082601f8301126128a257600080fd5b81356128b28482602086016127c1565b91505092915050565b600082601f8301126128cc57600080fd5b81356128dc8482602086016127ff565b91505092915050565b6000813590506128f481613be5565b92915050565b60006020828403121561290c57600080fd5b600061291a8482850161283d565b91505092915050565b6000806040838503121561293657600080fd5b60006129448582860161283d565b92505060206129558582860161283d565b9150509250929050565b60008060006060848603121561297457600080fd5b60006129828682870161283d565b93505060206129938682870161283d565b92505060406129a4868287016128e5565b9150509250925092565b600080600080608085870312156129c457600080fd5b60006129d28782880161283d565b94505060206129e38782880161283d565b93505060406129f4878288016128e5565b925050606085013567ffffffffffffffff811115612a1157600080fd5b612a1d87828801612891565b91505092959194509250565b60008060408385031215612a3c57600080fd5b6000612a4a8582860161283d565b9250506020612a5b85828601612852565b9150509250929050565b60008060408385031215612a7857600080fd5b6000612a868582860161283d565b9250506020612a97858286016128e5565b9150509250929050565b600060208284031215612ab357600080fd5b6000612ac184828501612867565b91505092915050565b600060208284031215612adc57600080fd5b6000612aea8482850161287c565b91505092915050565b600060208284031215612b0557600080fd5b600082013567ffffffffffffffff811115612b1f57600080fd5b612b2b848285016128bb565b91505092915050565b600060208284031215612b4657600080fd5b6000612b54848285016128e5565b91505092915050565b612b668161342b565b82525050565b612b7581613419565b82525050565b612b848161343d565b82525050565b6000612b9582613310565b612b9f8185613326565b9350612baf8185602086016134d3565b612bb8816136ce565b840191505092915050565b612bcc816134b2565b82525050565b6000612bdd8261331b565b612be78185613342565b9350612bf78185602086016134d3565b612c00816136ce565b840191505092915050565b6000612c168261331b565b612c208185613353565b9350612c308185602086016134d3565b80840191505092915050565b6000612c49603283613342565b9150612c54826136df565b604082019050919050565b6000612c6c602683613342565b9150612c778261372e565b604082019050919050565b6000612c8f601c83613342565b9150612c9a8261377d565b602082019050919050565b6000612cb2602483613342565b9150612cbd826137a6565b604082019050919050565b6000612cd5601983613342565b9150612ce0826137f5565b602082019050919050565b6000612cf8602c83613342565b9150612d038261381e565b604082019050919050565b6000612d1b601583613342565b9150612d268261386d565b602082019050919050565b6000612d3e601783613342565b9150612d4982613896565b602082019050919050565b6000612d61603883613342565b9150612d6c826138bf565b604082019050919050565b6000612d84602a83613342565b9150612d8f8261390e565b604082019050919050565b6000612da7602983613342565b9150612db28261395d565b604082019050919050565b6000612dca602083613342565b9150612dd5826139ac565b602082019050919050565b6000612ded602c83613342565b9150612df8826139d5565b604082019050919050565b6000612e10602083613342565b9150612e1b82613a24565b602082019050919050565b6000612e33602983613342565b9150612e3e82613a4d565b604082019050919050565b6000612e56602f83613342565b9150612e6182613a9c565b604082019050919050565b6000612e79602183613342565b9150612e8482613aeb565b604082019050919050565b6000612e9c600083613337565b9150612ea782613b3a565b600082019050919050565b6000612ebf603183613342565b9150612eca82613b3d565b604082019050919050565b612ede816134a8565b82525050565b6000612ef08285612c0b565b9150612efc8284612c0b565b91508190509392505050565b6000612f1382612e8f565b9150819050919050565b6000602082019050612f326000830184612b6c565b92915050565b6000602082019050612f4d6000830184612b5d565b92915050565b6000608082019050612f686000830187612b6c565b612f756020830186612b6c565b612f826040830185612ed5565b8181036060830152612f948184612b8a565b905095945050505050565b6000606082019050612fb46000830186612b6c565b612fc16020830185612ed5565b612fce6040830184612ed5565b949350505050565b6000602082019050612feb6000830184612b7b565b92915050565b60006020820190506130066000830184612bc3565b92915050565b600060208201905081810360008301526130268184612bd2565b905092915050565b6000602082019050818103600083015261304781612c3c565b9050919050565b6000602082019050818103600083015261306781612c5f565b9050919050565b6000602082019050818103600083015261308781612c82565b9050919050565b600060208201905081810360008301526130a781612ca5565b9050919050565b600060208201905081810360008301526130c781612cc8565b9050919050565b600060208201905081810360008301526130e781612ceb565b9050919050565b6000602082019050818103600083015261310781612d0e565b9050919050565b6000602082019050818103600083015261312781612d31565b9050919050565b6000602082019050818103600083015261314781612d54565b9050919050565b6000602082019050818103600083015261316781612d77565b9050919050565b6000602082019050818103600083015261318781612d9a565b9050919050565b600060208201905081810360008301526131a781612dbd565b9050919050565b600060208201905081810360008301526131c781612de0565b9050919050565b600060208201905081810360008301526131e781612e03565b9050919050565b6000602082019050818103600083015261320781612e26565b9050919050565b6000602082019050818103600083015261322781612e49565b9050919050565b6000602082019050818103600083015261324781612e6c565b9050919050565b6000602082019050818103600083015261326781612eb2565b9050919050565b60006020820190506132836000830184612ed5565b92915050565b60006132936132a4565b905061329f8282613538565b919050565b6000604051905090565b600067ffffffffffffffff8211156132c9576132c861369f565b5b6132d2826136ce565b9050602081019050919050565b600067ffffffffffffffff8211156132fa576132f961369f565b5b613303826136ce565b9050602081019050919050565b600081519050919050565b600081519050919050565b600082825260208201905092915050565b600081905092915050565b600082825260208201905092915050565b600081905092915050565b6000613369826134a8565b9150613374836134a8565b9250827fffffffffffffffffffffffffffffffffffffffffffffffffffffffffffffffff038211156133a9576133a86135e3565b5b828201905092915050565b60006133bf826134a8565b91506133ca836134a8565b9250826133da576133d9613612565b5b828204905092915050565b60006133f0826134a8565b91506133fb836134a8565b92508282101561340e5761340d6135e3565b5b828203905092915050565b600061342482613488565b9050919050565b600061343682613488565b9050919050565b60008115159050919050565b60007fffffffff0000000000000000000000000000000000000000000000000000000082169050919050565b600081905061348382613b8c565b919050565b600073ffffffffffffffffffffffffffffffffffffffff82169050919050565b6000819050919050565b60006134bd82613475565b9050919050565b82818337600083830152505050565b60005b838110156134f15780820151818401526020810190506134d6565b83811115613500576000848401525b50505050565b6000600282049050600182168061351e57607f821691505b6020821081141561353257613531613670565b5b50919050565b613541826136ce565b810181811067ffffffffffffffff821117156135605761355f61369f565b5b80604052505050565b6000613574826134a8565b91507fffffffffffffffffffffffffffffffffffffffffffffffffffffffffffffffff8214156135a7576135a66135e3565b5b600182019050919050565b60006135bd826134a8565b91506135c8836134a8565b9250826135d8576135d7613612565b5b828206905092915050565b7f4e487b7100000000000000000000000000000000000000000000000000000000600052601160045260246000fd5b7f4e487b7100000000000000000000000000000000000000000000000000000000600052601260045260246000fd5b7f4e487b7100000000000000000000000000000000000000000000000000000000600052602160045260246000fd5b7f4e487b7100000000000000000000000000000000000000000000000000000000600052602260045260246000fd5b7f4e487b7100000000000000000000000000000000000000000000000000000000600052604160045260246000fd5b6000601f19601f8301169050919050565b7f4552433732313a207472616e7366657220746f206e6f6e20455243373231526560008201527f63656976657220696d706c656d656e7465720000000000000000000000000000602082015250565b7f4f776e61626c653a206e6577206f776e657220697320746865207a65726f206160008201527f6464726573730000000000000000000000000000000000000000000000000000602082015250565b7f4552433732313a20746f6b656e20616c7265616479206d696e74656400000000600082015250565b7f4552433732313a207472616e7366657220746f20746865207a65726f2061646460008201527f7265737300000000000000000000000000000000000000000000000000000000602082015250565b7f4552433732313a20617070726f766520746f2063616c6c657200000000000000600082015250565b7f4552433732313a206f70657261746f7220717565727920666f72206e6f6e657860008201527f697374656e7420746f6b656e0000000000000000000000000000000000000000602082015250565b7f4572726f722c2077726f6e6720546f6b656e2069640000000000000000000000600082015250565b7f4572726f722c20546f6b656e20636f737473206d6f7265000000000000000000600082015250565b7f4552433732313a20617070726f76652063616c6c6572206973206e6f74206f7760008201527f6e6572206e6f7220617070726f76656420666f7220616c6c0000000000000000602082015250565b7f4552433732313a2062616c616e636520717565727920666f7220746865207a6560008201527f726f206164647265737300000000000000000000000000000000000000000000602082015250565b7f4552433732313a206f776e657220717565727920666f72206e6f6e657869737460008201527f656e7420746f6b656e0000000000000000000000000000000000000000000000602082015250565b7f4552433732313a206d696e7420746f20746865207a65726f2061646472657373600082015250565b7f4552433732313a20617070726f76656420717565727920666f72206e6f6e657860008201527f697374656e7420746f6b656e0000000000000000000000000000000000000000602082015250565b7f4f776e61626c653a2063616c6c6572206973206e6f7420746865206f776e6572600082015250565b7f4552433732313a207472616e73666572206f6620746f6b656e2074686174206960008201527f73206e6f74206f776e0000000000000000000000000000000000000000000000602082015250565b7f4552433732314d657461646174613a2055524920717565727920666f72206e6f60008201527f6e6578697374656e7420746f6b656e0000000000000000000000000000000000602082015250565b7f4552433732313a20617070726f76616c20746f2063757272656e74206f776e6560008201527f7200000000000000000000000000000000000000000000000000000000000000602082015250565b50565b7f4552433732313a207472616e736665722063616c6c6572206973206e6f74206f60008201527f776e6572206e6f7220617070726f766564000000000000000000000000000000602082015250565b60058110613b9d57613b9c613641565b5b50565b613ba981613419565b8114613bb457600080fd5b50565b613bc08161343d565b8114613bcb57600080fd5b50565b613bd781613449565b8114613be257600080fd5b50565b613bee816134a8565b8114613bf957600080fd5b5056fea2646970667358221220204d7e7c2e0c6ee5e756c1e9c8a4d46efed09bf79ae48458d5212cacea6be7e564736f6c63430008030033",
  "immutableReferences": {},
  "source": "// SPDX-License-Identifier: MIT\npragma solidity 0.8.3;\n\nimport \"@openzeppelin/contracts/token/ERC721/ERC721.sol\";\nimport \"@openzeppelin/contracts/access/Ownable.sol\";\nimport \"@openzeppelin/contracts/utils/Counters.sol\";\n\ncontract CriolloToken is ERC721, Ownable {\n    using Counters for Counters.Counter;\n\n    address payable public _owner;\n    Counters.Counter private _tokenIdCounter;\n\n    string public baseURI;\n    string public baseExtension = \".json\";\n    uint256 public cost = 0.25 ether;\n    uint256 public maxMintAmount = 1;\n\n    enum State {\n        ForSale,\n        Locked,\n        Unlocked,\n        Shipped,\n        Delivered\n    }\n\n    // internal\n    function _baseURI() internal view virtual override returns (string memory) {\n        return baseURI;\n    }\n\n    event Purchase(address owner, uint256 price, uint256 id);\n\n    mapping(address => uint256) public tokenOwners;\n    mapping(uint256 => State) public state;\n    mapping(uint256 => uint256) public price;\n\n    constructor(\n        string memory _name,\n        string memory _symbol,\n        string memory _initBaseURI\n    ) ERC721(_name, _symbol) {\n        _owner = payable(msg.sender);\n        setBaseURI(_initBaseURI);\n    }\n\n    modifier onlyForSaleTokens(uint256 _id) {\n        require(state[_id] == State.ForSale);\n        _;\n    }\n\n    function setBaseURI(string memory _newBaseURI) public onlyOwner {\n        baseURI = _newBaseURI;\n    }\n\n    function setBaseExtension(string memory _newBaseExtension)\n        public\n        onlyOwner\n    {\n        baseExtension = _newBaseExtension;\n    }\n\n    function withdraw() public payable onlyOwner {\n        (bool success, ) = payable(msg.sender).call{\n            value: address(this).balance\n        }(\"\");\n        require(success);\n    }\n\n    function safeMint(uint256 _price) public payable onlyOwner {\n        uint256 _tokenID = _tokenIdCounter.current();\n\n        //_mint(address(this), _tok_tokenIDenId);\n        //_setTokenURI(_tokenId, _tokenURI);\n\n        _safeMint(msg.sender, _tokenID);\n        _tokenIdCounter.increment();\n\n        tokenOwners[msg.sender] = _tokenID;\n        price[_tokenID] = _price;\n        state[_tokenID] = State.ForSale;\n    }\n\n    function getTokenID(address tokenOwner) public view returns (uint256) {\n        return tokenOwners[tokenOwner];\n    }\n\n    function getState(uint256 _tokenID) public view returns (State) {\n        return state[_tokenID];\n    }\n\n    function buy(uint256 _id) external payable onlyForSaleTokens(_id) {\n        _validate(_id);\n\n        if (ERC721.ownerOf(_id) == _owner) {\n            _buy(_id); //buying to contract owner\n        } else {\n            _trade(_id); //buying to user\n        }\n\n        emit Purchase(msg.sender, price[_id], _id);\n    }\n\n    function _validate(uint256 _id) internal {\n        require(_exists(_id), \"Error, wrong Token id\"); //not exists\n        //require(!sold[_id], \"Error, Token is sold\"); //already sold\n        require(msg.value >= price[_id], \"Error, Token costs more\"); //costs more\n    }\n\n    function _buy(uint256 _id) internal {\n        _transfer(_owner, msg.sender, _id); //nft to user\n        _owner.transfer(msg.value); //eth to owner\n        state[_id] = State.Locked;\n        //sold[_id] = true; //nft is sold\n    }\n\n    function _trade(uint256 _id) internal {\n        address payable _currentOwner = payable(ERC721.ownerOf(_id));\n\n        _transfer(ERC721.ownerOf(_id), msg.sender, _id); //nft to user\n\n        _currentOwner.transfer(msg.value); //eth to owner\n        //sold[_id] = true; //nft is sold\n    }\n}\n",
  "sourcePath": "/home/josue/workspace/CryptoProjects/blockchain-developer-bootcamp-final-project/contracts/CriolloToken.sol",
  "compiler": {
    "name": "solc",
    "version": "0.8.3+commit.8d00100c.Emscripten.clang"
  },
  "schemaVersion": "3.4.3",
  "updatedAt": "2021-11-18T06:03:29.316Z",
  "devdoc": {
    "kind": "dev",
    "methods": {
      "approve(address,uint256)": {
        "details": "See {IERC721-approve}."
      },
      "balanceOf(address)": {
        "details": "See {IERC721-balanceOf}."
      },
      "getApproved(uint256)": {
        "details": "See {IERC721-getApproved}."
      },
      "isApprovedForAll(address,address)": {
        "details": "See {IERC721-isApprovedForAll}."
      },
      "name()": {
        "details": "See {IERC721Metadata-name}."
      },
      "owner()": {
        "details": "Returns the address of the current owner."
      },
      "ownerOf(uint256)": {
        "details": "See {IERC721-ownerOf}."
      },
      "renounceOwnership()": {
        "details": "Leaves the contract without owner. It will not be possible to call `onlyOwner` functions anymore. Can only be called by the current owner. NOTE: Renouncing ownership will leave the contract without an owner, thereby removing any functionality that is only available to the owner."
      },
      "safeTransferFrom(address,address,uint256)": {
        "details": "See {IERC721-safeTransferFrom}."
      },
      "safeTransferFrom(address,address,uint256,bytes)": {
        "details": "See {IERC721-safeTransferFrom}."
      },
      "setApprovalForAll(address,bool)": {
        "details": "See {IERC721-setApprovalForAll}."
      },
      "supportsInterface(bytes4)": {
        "details": "See {IERC165-supportsInterface}."
      },
      "symbol()": {
        "details": "See {IERC721Metadata-symbol}."
      },
      "tokenURI(uint256)": {
        "details": "See {IERC721Metadata-tokenURI}."
      },
      "transferFrom(address,address,uint256)": {
        "details": "See {IERC721-transferFrom}."
      },
      "transferOwnership(address)": {
        "details": "Transfers ownership of the contract to a new account (`newOwner`). Can only be called by the current owner."
      }
    },
    "version": 1
  },
  "userdoc": {
    "kind": "user",
    "methods": {},
    "version": 1
  }
}