{
  "contractName": "CriolloToken",
  "abi": [
    {
      "inputs": [],
      "stateMutability": "nonpayable",
      "type": "constructor"
    },
    {
      "anonymous": false,
      "inputs": [
        {
          "indexed": true,
          "internalType": "address",
          "name": "owner",
          "type": "address"
        },
        {
          "indexed": true,
          "internalType": "address",
          "name": "approved",
          "type": "address"
        },
        {
          "indexed": true,
          "internalType": "uint256",
          "name": "tokenId",
          "type": "uint256"
        }
      ],
      "name": "Approval",
      "type": "event"
    },
    {
      "anonymous": false,
      "inputs": [
        {
          "indexed": true,
          "internalType": "address",
          "name": "owner",
          "type": "address"
        },
        {
          "indexed": true,
          "internalType": "address",
          "name": "operator",
          "type": "address"
        },
        {
          "indexed": false,
          "internalType": "bool",
          "name": "approved",
          "type": "bool"
        }
      ],
      "name": "ApprovalForAll",
      "type": "event"
    },
    {
      "anonymous": false,
      "inputs": [
        {
          "indexed": true,
          "internalType": "address",
          "name": "previousOwner",
          "type": "address"
        },
        {
          "indexed": true,
          "internalType": "address",
          "name": "newOwner",
          "type": "address"
        }
      ],
      "name": "OwnershipTransferred",
      "type": "event"
    },
    {
      "anonymous": false,
      "inputs": [
        {
          "indexed": false,
          "internalType": "address",
          "name": "account",
          "type": "address"
        }
      ],
      "name": "Paused",
      "type": "event"
    },
    {
      "anonymous": false,
      "inputs": [
        {
          "indexed": true,
          "internalType": "address",
          "name": "from",
          "type": "address"
        },
        {
          "indexed": true,
          "internalType": "address",
          "name": "to",
          "type": "address"
        },
        {
          "indexed": true,
          "internalType": "uint256",
          "name": "tokenId",
          "type": "uint256"
        }
      ],
      "name": "Transfer",
      "type": "event"
    },
    {
      "anonymous": false,
      "inputs": [
        {
          "indexed": false,
          "internalType": "address",
          "name": "account",
          "type": "address"
        }
      ],
      "name": "Unpaused",
      "type": "event"
    },
    {
      "inputs": [
        {
          "internalType": "address",
          "name": "to",
          "type": "address"
        },
        {
          "internalType": "uint256",
          "name": "tokenId",
          "type": "uint256"
        }
      ],
      "name": "approve",
      "outputs": [],
      "stateMutability": "nonpayable",
      "type": "function"
    },
    {
      "inputs": [
        {
          "internalType": "address",
          "name": "owner",
          "type": "address"
        }
      ],
      "name": "balanceOf",
      "outputs": [
        {
          "internalType": "uint256",
          "name": "",
          "type": "uint256"
        }
      ],
      "stateMutability": "view",
      "type": "function",
      "constant": true
    },
    {
      "inputs": [
        {
          "internalType": "uint256",
          "name": "tokenId",
          "type": "uint256"
        }
      ],
      "name": "getApproved",
      "outputs": [
        {
          "internalType": "address",
          "name": "",
          "type": "address"
        }
      ],
      "stateMutability": "view",
      "type": "function",
      "constant": true
    },
    {
      "inputs": [
        {
          "internalType": "address",
          "name": "owner",
          "type": "address"
        },
        {
          "internalType": "address",
          "name": "operator",
          "type": "address"
        }
      ],
      "name": "isApprovedForAll",
      "outputs": [
        {
          "internalType": "bool",
          "name": "",
          "type": "bool"
        }
      ],
      "stateMutability": "view",
      "type": "function",
      "constant": true
    },
    {
      "inputs": [],
      "name": "name",
      "outputs": [
        {
          "internalType": "string",
          "name": "",
          "type": "string"
        }
      ],
      "stateMutability": "view",
      "type": "function",
      "constant": true
    },
    {
      "inputs": [],
      "name": "owner",
      "outputs": [
        {
          "internalType": "address",
          "name": "",
          "type": "address"
        }
      ],
      "stateMutability": "view",
      "type": "function",
      "constant": true
    },
    {
      "inputs": [
        {
          "internalType": "uint256",
          "name": "tokenId",
          "type": "uint256"
        }
      ],
      "name": "ownerOf",
      "outputs": [
        {
          "internalType": "address",
          "name": "",
          "type": "address"
        }
      ],
      "stateMutability": "view",
      "type": "function",
      "constant": true
    },
    {
      "inputs": [],
      "name": "paused",
      "outputs": [
        {
          "internalType": "bool",
          "name": "",
          "type": "bool"
        }
      ],
      "stateMutability": "view",
      "type": "function",
      "constant": true
    },
    {
      "inputs": [],
      "name": "renounceOwnership",
      "outputs": [],
      "stateMutability": "nonpayable",
      "type": "function"
    },
    {
      "inputs": [
        {
          "internalType": "address",
          "name": "from",
          "type": "address"
        },
        {
          "internalType": "address",
          "name": "to",
          "type": "address"
        },
        {
          "internalType": "uint256",
          "name": "tokenId",
          "type": "uint256"
        }
      ],
      "name": "safeTransferFrom",
      "outputs": [],
      "stateMutability": "nonpayable",
      "type": "function"
    },
    {
      "inputs": [
        {
          "internalType": "address",
          "name": "from",
          "type": "address"
        },
        {
          "internalType": "address",
          "name": "to",
          "type": "address"
        },
        {
          "internalType": "uint256",
          "name": "tokenId",
          "type": "uint256"
        },
        {
          "internalType": "bytes",
          "name": "_data",
          "type": "bytes"
        }
      ],
      "name": "safeTransferFrom",
      "outputs": [],
      "stateMutability": "nonpayable",
      "type": "function"
    },
    {
      "inputs": [
        {
          "internalType": "address",
          "name": "operator",
          "type": "address"
        },
        {
          "internalType": "bool",
          "name": "approved",
          "type": "bool"
        }
      ],
      "name": "setApprovalForAll",
      "outputs": [],
      "stateMutability": "nonpayable",
      "type": "function"
    },
    {
      "inputs": [
        {
          "internalType": "bytes4",
          "name": "interfaceId",
          "type": "bytes4"
        }
      ],
      "name": "supportsInterface",
      "outputs": [
        {
          "internalType": "bool",
          "name": "",
          "type": "bool"
        }
      ],
      "stateMutability": "view",
      "type": "function",
      "constant": true
    },
    {
      "inputs": [],
      "name": "symbol",
      "outputs": [
        {
          "internalType": "string",
          "name": "",
          "type": "string"
        }
      ],
      "stateMutability": "view",
      "type": "function",
      "constant": true
    },
    {
      "inputs": [
        {
          "internalType": "address",
          "name": "",
          "type": "address"
        }
      ],
      "name": "tokenOwners",
      "outputs": [
        {
          "internalType": "uint256",
          "name": "",
          "type": "uint256"
        }
      ],
      "stateMutability": "view",
      "type": "function",
      "constant": true
    },
    {
      "inputs": [
        {
          "internalType": "uint256",
          "name": "tokenId",
          "type": "uint256"
        }
      ],
      "name": "tokenURI",
      "outputs": [
        {
          "internalType": "string",
          "name": "",
          "type": "string"
        }
      ],
      "stateMutability": "view",
      "type": "function",
      "constant": true
    },
    {
      "inputs": [
        {
          "internalType": "address",
          "name": "from",
          "type": "address"
        },
        {
          "internalType": "address",
          "name": "to",
          "type": "address"
        },
        {
          "internalType": "uint256",
          "name": "tokenId",
          "type": "uint256"
        }
      ],
      "name": "transferFrom",
      "outputs": [],
      "stateMutability": "nonpayable",
      "type": "function"
    },
    {
      "inputs": [
        {
          "internalType": "address",
          "name": "newOwner",
          "type": "address"
        }
      ],
      "name": "transferOwnership",
      "outputs": [],
      "stateMutability": "nonpayable",
      "type": "function"
    },
    {
      "inputs": [
        {
          "internalType": "address",
          "name": "to",
          "type": "address"
        }
      ],
      "name": "safeMint",
      "outputs": [],
      "stateMutability": "nonpayable",
      "type": "function"
    },
    {
      "inputs": [
        {
          "internalType": "address",
          "name": "tokenOwner",
          "type": "address"
        }
      ],
      "name": "getTokenID",
      "outputs": [
        {
          "internalType": "uint256",
          "name": "",
          "type": "uint256"
        }
      ],
      "stateMutability": "view",
      "type": "function",
      "constant": true
    }
  ],
  "bytecode": "0x60806040523480156200001157600080fd5b506040518060400160405280600c81526020017f4372696f6c6c6f546f6b656e00000000000000000000000000000000000000008152506040518060400160405280600381526020017f4352490000000000000000000000000000000000000000000000000000000000815250816000908051906020019062000096929190620001c1565b508060019080519060200190620000af929190620001c1565b5050506000600660006101000a81548160ff021916908315150217905550620000ed620000e1620000f360201b60201c565b620000fb60201b60201c565b620002d6565b600033905090565b6000600660019054906101000a900473ffffffffffffffffffffffffffffffffffffffff16905081600660016101000a81548173ffffffffffffffffffffffffffffffffffffffff021916908373ffffffffffffffffffffffffffffffffffffffff1602179055508173ffffffffffffffffffffffffffffffffffffffff168173ffffffffffffffffffffffffffffffffffffffff167f8be0079c531659141344cd1fd0a4f28419497f9722a3daafe3b4186f6b6457e060405160405180910390a35050565b828054620001cf9062000271565b90600052602060002090601f016020900481019282620001f357600085556200023f565b82601f106200020e57805160ff19168380011785556200023f565b828001600101855582156200023f579182015b828111156200023e57825182559160200191906001019062000221565b5b5090506200024e919062000252565b5090565b5b808211156200026d57600081600090555060010162000253565b5090565b600060028204905060018216806200028a57607f821691505b60208210811415620002a157620002a0620002a7565b5b50919050565b7f4e487b7100000000000000000000000000000000000000000000000000000000600052602260045260246000fd5b612cf880620002e66000396000f3fe608060405234801561001057600080fd5b506004361061012c5760003560e01c806370a08231116100ad578063ad79e94b11610071578063ad79e94b1461032f578063b88d4fde1461035f578063c87b56dd1461037b578063e985e9c5146103ab578063f2fde38b146103db5761012c565b806370a082311461029d578063715018a6146102cd5780638da5cb5b146102d757806395d89b41146102f5578063a22cb465146103135761012c565b806340d097c3116100f457806340d097c3146101e757806342842e0e146102035780635c975abb1461021f5780636352211e1461023d57806363f8071c1461026d5761012c565b806301ffc9a71461013157806306fdde0314610161578063081812fc1461017f578063095ea7b3146101af57806323b872dd146101cb575b600080fd5b61014b60048036038101906101469190611dfc565b6103f7565b6040516101589190612202565b60405180910390f35b6101696104d9565b604051610176919061221d565b60405180910390f35b61019960048036038101906101949190611e4e565b61056b565b6040516101a6919061219b565b60405180910390f35b6101c960048036038101906101c49190611dc0565b6105f0565b005b6101e560048036038101906101e09190611cba565b610708565b005b61020160048036038101906101fc9190611c55565b610768565b005b61021d60048036038101906102189190611cba565b610857565b005b610227610877565b6040516102349190612202565b60405180910390f35b61025760048036038101906102529190611e4e565b61088e565b604051610264919061219b565b60405180910390f35b61028760048036038101906102829190611c55565b610940565b604051610294919061243f565b60405180910390f35b6102b760048036038101906102b29190611c55565b610989565b6040516102c4919061243f565b60405180910390f35b6102d5610a41565b005b6102df610ac9565b6040516102ec919061219b565b60405180910390f35b6102fd610af3565b60405161030a919061221d565b60405180910390f35b61032d60048036038101906103289190611d84565b610b85565b005b61034960048036038101906103449190611c55565b610d06565b604051610356919061243f565b60405180910390f35b61037960048036038101906103749190611d09565b610d1e565b005b61039560048036038101906103909190611e4e565b610d80565b6040516103a2919061221d565b60405180910390f35b6103c560048036038101906103c09190611c7e565b610e27565b6040516103d29190612202565b60405180910390f35b6103f560048036038101906103f09190611c55565b610ebb565b005b60007f80ac58cd000000000000000000000000000000000000000000000000000000007bffffffffffffffffffffffffffffffffffffffffffffffffffffffff1916827bffffffffffffffffffffffffffffffffffffffffffffffffffffffff191614806104c257507f5b5e139f000000000000000000000000000000000000000000000000000000007bffffffffffffffffffffffffffffffffffffffffffffffffffffffff1916827bffffffffffffffffffffffffffffffffffffffffffffffffffffffff1916145b806104d257506104d182610fb3565b5b9050919050565b6060600080546104e890612664565b80601f016020809104026020016040519081016040528092919081815260200182805461051490612664565b80156105615780601f1061053657610100808354040283529160200191610561565b820191906000526020600020905b81548152906001019060200180831161054457829003601f168201915b5050505050905090565b60006105768261101d565b6105b5576040517f08c379a00000000000000000000000000000000000000000000000000000000081526004016105ac9061237f565b60405180910390fd5b6004600083815260200190815260200160002060009054906101000a900473ffffffffffffffffffffffffffffffffffffffff169050919050565b60006105fb8261088e565b90508073ffffffffffffffffffffffffffffffffffffffff168373ffffffffffffffffffffffffffffffffffffffff16141561066c576040517f08c379a0000000000000000000000000000000000000000000000000000000008152600401610663906123ff565b60405180910390fd5b8073ffffffffffffffffffffffffffffffffffffffff1661068b611089565b73ffffffffffffffffffffffffffffffffffffffff1614806106ba57506106b9816106b4611089565b610e27565b5b6106f9576040517f08c379a00000000000000000000000000000000000000000000000000000000081526004016106f0906122ff565b60405180910390fd5b6107038383611091565b505050565b610719610713611089565b8261114a565b610758576040517f08c379a000000000000000000000000000000000000000000000000000000000815260040161074f9061241f565b60405180910390fd5b610763838383611228565b505050565b610770611089565b73ffffffffffffffffffffffffffffffffffffffff1661078e610ac9565b73ffffffffffffffffffffffffffffffffffffffff16146107e4576040517f08c379a00000000000000000000000000000000000000000000000000000000081526004016107db9061239f565b60405180910390fd5b60006107f06007611484565b9050610805826108006007611484565b611492565b61080f60076114b0565b80600860008473ffffffffffffffffffffffffffffffffffffffff1673ffffffffffffffffffffffffffffffffffffffff168152602001908152602001600020819055505050565b61087283838360405180602001604052806000815250610d1e565b505050565b6000600660009054906101000a900460ff16905090565b6000806002600084815260200190815260200160002060009054906101000a900473ffffffffffffffffffffffffffffffffffffffff169050600073ffffffffffffffffffffffffffffffffffffffff168173ffffffffffffffffffffffffffffffffffffffff161415610937576040517f08c379a000000000000000000000000000000000000000000000000000000000815260040161092e9061233f565b60405180910390fd5b80915050919050565b6000600860008373ffffffffffffffffffffffffffffffffffffffff1673ffffffffffffffffffffffffffffffffffffffff168152602001908152602001600020549050919050565b60008073ffffffffffffffffffffffffffffffffffffffff168273ffffffffffffffffffffffffffffffffffffffff1614156109fa576040517f08c379a00000000000000000000000000000000000000000000000000000000081526004016109f19061231f565b60405180910390fd5b600360008373ffffffffffffffffffffffffffffffffffffffff1673ffffffffffffffffffffffffffffffffffffffff168152602001908152602001600020549050919050565b610a49611089565b73ffffffffffffffffffffffffffffffffffffffff16610a67610ac9565b73ffffffffffffffffffffffffffffffffffffffff1614610abd576040517f08c379a0000000000000000000000000000000000000000000000000000000008152600401610ab49061239f565b60405180910390fd5b610ac760006114c6565b565b6000600660019054906101000a900473ffffffffffffffffffffffffffffffffffffffff16905090565b606060018054610b0290612664565b80601f0160208091040260200160405190810160405280929190818152602001828054610b2e90612664565b8015610b7b5780601f10610b5057610100808354040283529160200191610b7b565b820191906000526020600020905b815481529060010190602001808311610b5e57829003601f168201915b5050505050905090565b610b8d611089565b73ffffffffffffffffffffffffffffffffffffffff168273ffffffffffffffffffffffffffffffffffffffff161415610bfb576040517f08c379a0000000000000000000000000000000000000000000000000000000008152600401610bf2906122bf565b60405180910390fd5b8060056000610c08611089565b73ffffffffffffffffffffffffffffffffffffffff1673ffffffffffffffffffffffffffffffffffffffff16815260200190815260200160002060008473ffffffffffffffffffffffffffffffffffffffff1673ffffffffffffffffffffffffffffffffffffffff16815260200190815260200160002060006101000a81548160ff0219169083151502179055508173ffffffffffffffffffffffffffffffffffffffff16610cb5611089565b73ffffffffffffffffffffffffffffffffffffffff167f17307eab39ab6107e8899845ad3d59bd9653f200f220920489ca2b5937696c3183604051610cfa9190612202565b60405180910390a35050565b60086020528060005260406000206000915090505481565b610d2f610d29611089565b8361114a565b610d6e576040517f08c379a0000000000000000000000000000000000000000000000000000000008152600401610d659061241f565b60405180910390fd5b610d7a8484848461158c565b50505050565b6060610d8b8261101d565b610dca576040517f08c379a0000000000000000000000000000000000000000000000000000000008152600401610dc1906123df565b60405180910390fd5b6000610dd46115e8565b90506000815111610df45760405180602001604052806000815250610e1f565b80610dfe846115ff565b604051602001610e0f929190612177565b6040516020818303038152906040525b915050919050565b6000600560008473ffffffffffffffffffffffffffffffffffffffff1673ffffffffffffffffffffffffffffffffffffffff16815260200190815260200160002060008373ffffffffffffffffffffffffffffffffffffffff1673ffffffffffffffffffffffffffffffffffffffff16815260200190815260200160002060009054906101000a900460ff16905092915050565b610ec3611089565b73ffffffffffffffffffffffffffffffffffffffff16610ee1610ac9565b73ffffffffffffffffffffffffffffffffffffffff1614610f37576040517f08c379a0000000000000000000000000000000000000000000000000000000008152600401610f2e9061239f565b60405180910390fd5b600073ffffffffffffffffffffffffffffffffffffffff168173ffffffffffffffffffffffffffffffffffffffff161415610fa7576040517f08c379a0000000000000000000000000000000000000000000000000000000008152600401610f9e9061225f565b60405180910390fd5b610fb0816114c6565b50565b60007f01ffc9a7000000000000000000000000000000000000000000000000000000007bffffffffffffffffffffffffffffffffffffffffffffffffffffffff1916827bffffffffffffffffffffffffffffffffffffffffffffffffffffffff1916149050919050565b60008073ffffffffffffffffffffffffffffffffffffffff166002600084815260200190815260200160002060009054906101000a900473ffffffffffffffffffffffffffffffffffffffff1673ffffffffffffffffffffffffffffffffffffffff1614159050919050565b600033905090565b816004600083815260200190815260200160002060006101000a81548173ffffffffffffffffffffffffffffffffffffffff021916908373ffffffffffffffffffffffffffffffffffffffff160217905550808273ffffffffffffffffffffffffffffffffffffffff166111048361088e565b73ffffffffffffffffffffffffffffffffffffffff167f8c5be1e5ebec7d5bd14f71427d1e84f3dd0314c0f7b2291e5b200ac8c7c3b92560405160405180910390a45050565b60006111558261101d565b611194576040517f08c379a000000000000000000000000000000000000000000000000000000000815260040161118b906122df565b60405180910390fd5b600061119f8361088e565b90508073ffffffffffffffffffffffffffffffffffffffff168473ffffffffffffffffffffffffffffffffffffffff16148061120e57508373ffffffffffffffffffffffffffffffffffffffff166111f68461056b565b73ffffffffffffffffffffffffffffffffffffffff16145b8061121f575061121e8185610e27565b5b91505092915050565b8273ffffffffffffffffffffffffffffffffffffffff166112488261088e565b73ffffffffffffffffffffffffffffffffffffffff161461129e576040517f08c379a0000000000000000000000000000000000000000000000000000000008152600401611295906123bf565b60405180910390fd5b600073ffffffffffffffffffffffffffffffffffffffff168273ffffffffffffffffffffffffffffffffffffffff16141561130e576040517f08c379a00000000000000000000000000000000000000000000000000000000081526004016113059061229f565b60405180910390fd5b6113198383836117ac565b611324600082611091565b6001600360008573ffffffffffffffffffffffffffffffffffffffff1673ffffffffffffffffffffffffffffffffffffffff1681526020019081526020016000206000828254611374919061257a565b925050819055506001600360008473ffffffffffffffffffffffffffffffffffffffff1673ffffffffffffffffffffffffffffffffffffffff16815260200190815260200160002060008282546113cb91906124f3565b92505081905550816002600083815260200190815260200160002060006101000a81548173ffffffffffffffffffffffffffffffffffffffff021916908373ffffffffffffffffffffffffffffffffffffffff160217905550808273ffffffffffffffffffffffffffffffffffffffff168473ffffffffffffffffffffffffffffffffffffffff167fddf252ad1be2c89b69c2b068fc378daa952ba7f163c4a11628f55a4df523b3ef60405160405180910390a4505050565b600081600001549050919050565b6114ac8282604051806020016040528060008152506117b1565b5050565b6001816000016000828254019250508190555050565b6000600660019054906101000a900473ffffffffffffffffffffffffffffffffffffffff16905081600660016101000a81548173ffffffffffffffffffffffffffffffffffffffff021916908373ffffffffffffffffffffffffffffffffffffffff1602179055508173ffffffffffffffffffffffffffffffffffffffff168173ffffffffffffffffffffffffffffffffffffffff167f8be0079c531659141344cd1fd0a4f28419497f9722a3daafe3b4186f6b6457e060405160405180910390a35050565b611597848484611228565b6115a38484848461180c565b6115e2576040517f08c379a00000000000000000000000000000000000000000000000000000000081526004016115d99061223f565b60405180910390fd5b50505050565b606060405180602001604052806000815250905090565b60606000821415611647576040518060400160405280600181526020017f300000000000000000000000000000000000000000000000000000000000000081525090506117a7565b600082905060005b60008214611679578080611662906126c7565b915050600a826116729190612549565b915061164f565b60008167ffffffffffffffff8111156116bb577f4e487b7100000000000000000000000000000000000000000000000000000000600052604160045260246000fd5b6040519080825280601f01601f1916602001820160405280156116ed5781602001600182028036833780820191505090505b5090505b600085146117a057600182611706919061257a565b9150600a856117159190612710565b603061172191906124f3565b60f81b81838151811061175d577f4e487b7100000000000000000000000000000000000000000000000000000000600052603260045260246000fd5b60200101907effffffffffffffffffffffffffffffffffffffffffffffffffffffffffffff1916908160001a905350600a856117999190612549565b94506116f1565b8093505050505b919050565b505050565b6117bb83836119a3565b6117c8600084848461180c565b611807576040517f08c379a00000000000000000000000000000000000000000000000000000000081526004016117fe9061223f565b60405180910390fd5b505050565b600061182d8473ffffffffffffffffffffffffffffffffffffffff16611b71565b15611996578373ffffffffffffffffffffffffffffffffffffffff1663150b7a02611856611089565b8786866040518563ffffffff1660e01b815260040161187894939291906121b6565b602060405180830381600087803b15801561189257600080fd5b505af19250505080156118c357506040513d601f19601f820116820180604052508101906118c09190611e25565b60015b611946573d80600081146118f3576040519150601f19603f3d011682016040523d82523d6000602084013e6118f8565b606091505b5060008151141561193e576040517f08c379a00000000000000000000000000000000000000000000000000000000081526004016119359061223f565b60405180910390fd5b805181602001fd5b63150b7a0260e01b7bffffffffffffffffffffffffffffffffffffffffffffffffffffffff1916817bffffffffffffffffffffffffffffffffffffffffffffffffffffffff19161491505061199b565b600190505b949350505050565b600073ffffffffffffffffffffffffffffffffffffffff168273ffffffffffffffffffffffffffffffffffffffff161415611a13576040517f08c379a0000000000000000000000000000000000000000000000000000000008152600401611a0a9061235f565b60405180910390fd5b611a1c8161101d565b15611a5c576040517f08c379a0000000000000000000000000000000000000000000000000000000008152600401611a539061227f565b60405180910390fd5b611a68600083836117ac565b6001600360008473ffffffffffffffffffffffffffffffffffffffff1673ffffffffffffffffffffffffffffffffffffffff1681526020019081526020016000206000828254611ab891906124f3565b92505081905550816002600083815260200190815260200160002060006101000a81548173ffffffffffffffffffffffffffffffffffffffff021916908373ffffffffffffffffffffffffffffffffffffffff160217905550808273ffffffffffffffffffffffffffffffffffffffff16600073ffffffffffffffffffffffffffffffffffffffff167fddf252ad1be2c89b69c2b068fc378daa952ba7f163c4a11628f55a4df523b3ef60405160405180910390a45050565b600080823b905060008111915050919050565b6000611b97611b928461247f565b61245a565b905082815260208101848484011115611baf57600080fd5b611bba848285612622565b509392505050565b600081359050611bd181612c66565b92915050565b600081359050611be681612c7d565b92915050565b600081359050611bfb81612c94565b92915050565b600081519050611c1081612c94565b92915050565b600082601f830112611c2757600080fd5b8135611c37848260208601611b84565b91505092915050565b600081359050611c4f81612cab565b92915050565b600060208284031215611c6757600080fd5b6000611c7584828501611bc2565b91505092915050565b60008060408385031215611c9157600080fd5b6000611c9f85828601611bc2565b9250506020611cb085828601611bc2565b9150509250929050565b600080600060608486031215611ccf57600080fd5b6000611cdd86828701611bc2565b9350506020611cee86828701611bc2565b9250506040611cff86828701611c40565b9150509250925092565b60008060008060808587031215611d1f57600080fd5b6000611d2d87828801611bc2565b9450506020611d3e87828801611bc2565b9350506040611d4f87828801611c40565b925050606085013567ffffffffffffffff811115611d6c57600080fd5b611d7887828801611c16565b91505092959194509250565b60008060408385031215611d9757600080fd5b6000611da585828601611bc2565b9250506020611db685828601611bd7565b9150509250929050565b60008060408385031215611dd357600080fd5b6000611de185828601611bc2565b9250506020611df285828601611c40565b9150509250929050565b600060208284031215611e0e57600080fd5b6000611e1c84828501611bec565b91505092915050565b600060208284031215611e3757600080fd5b6000611e4584828501611c01565b91505092915050565b600060208284031215611e6057600080fd5b6000611e6e84828501611c40565b91505092915050565b611e80816125ae565b82525050565b611e8f816125c0565b82525050565b6000611ea0826124b0565b611eaa81856124c6565b9350611eba818560208601612631565b611ec3816127fd565b840191505092915050565b6000611ed9826124bb565b611ee381856124d7565b9350611ef3818560208601612631565b611efc816127fd565b840191505092915050565b6000611f12826124bb565b611f1c81856124e8565b9350611f2c818560208601612631565b80840191505092915050565b6000611f456032836124d7565b9150611f508261280e565b604082019050919050565b6000611f686026836124d7565b9150611f738261285d565b604082019050919050565b6000611f8b601c836124d7565b9150611f96826128ac565b602082019050919050565b6000611fae6024836124d7565b9150611fb9826128d5565b604082019050919050565b6000611fd16019836124d7565b9150611fdc82612924565b602082019050919050565b6000611ff4602c836124d7565b9150611fff8261294d565b604082019050919050565b60006120176038836124d7565b91506120228261299c565b604082019050919050565b600061203a602a836124d7565b9150612045826129eb565b604082019050919050565b600061205d6029836124d7565b915061206882612a3a565b604082019050919050565b60006120806020836124d7565b915061208b82612a89565b602082019050919050565b60006120a3602c836124d7565b91506120ae82612ab2565b604082019050919050565b60006120c66020836124d7565b91506120d182612b01565b602082019050919050565b60006120e96029836124d7565b91506120f482612b2a565b604082019050919050565b600061210c602f836124d7565b915061211782612b79565b604082019050919050565b600061212f6021836124d7565b915061213a82612bc8565b604082019050919050565b60006121526031836124d7565b915061215d82612c17565b604082019050919050565b61217181612618565b82525050565b60006121838285611f07565b915061218f8284611f07565b91508190509392505050565b60006020820190506121b06000830184611e77565b92915050565b60006080820190506121cb6000830187611e77565b6121d86020830186611e77565b6121e56040830185612168565b81810360608301526121f78184611e95565b905095945050505050565b60006020820190506122176000830184611e86565b92915050565b600060208201905081810360008301526122378184611ece565b905092915050565b6000602082019050818103600083015261225881611f38565b9050919050565b6000602082019050818103600083015261227881611f5b565b9050919050565b6000602082019050818103600083015261229881611f7e565b9050919050565b600060208201905081810360008301526122b881611fa1565b9050919050565b600060208201905081810360008301526122d881611fc4565b9050919050565b600060208201905081810360008301526122f881611fe7565b9050919050565b600060208201905081810360008301526123188161200a565b9050919050565b600060208201905081810360008301526123388161202d565b9050919050565b6000602082019050818103600083015261235881612050565b9050919050565b6000602082019050818103600083015261237881612073565b9050919050565b6000602082019050818103600083015261239881612096565b9050919050565b600060208201905081810360008301526123b8816120b9565b9050919050565b600060208201905081810360008301526123d8816120dc565b9050919050565b600060208201905081810360008301526123f8816120ff565b9050919050565b6000602082019050818103600083015261241881612122565b9050919050565b6000602082019050818103600083015261243881612145565b9050919050565b60006020820190506124546000830184612168565b92915050565b6000612464612475565b90506124708282612696565b919050565b6000604051905090565b600067ffffffffffffffff82111561249a576124996127ce565b5b6124a3826127fd565b9050602081019050919050565b600081519050919050565b600081519050919050565b600082825260208201905092915050565b600082825260208201905092915050565b600081905092915050565b60006124fe82612618565b915061250983612618565b9250827fffffffffffffffffffffffffffffffffffffffffffffffffffffffffffffffff0382111561253e5761253d612741565b5b828201905092915050565b600061255482612618565b915061255f83612618565b92508261256f5761256e612770565b5b828204905092915050565b600061258582612618565b915061259083612618565b9250828210156125a3576125a2612741565b5b828203905092915050565b60006125b9826125f8565b9050919050565b60008115159050919050565b60007fffffffff0000000000000000000000000000000000000000000000000000000082169050919050565b600073ffffffffffffffffffffffffffffffffffffffff82169050919050565b6000819050919050565b82818337600083830152505050565b60005b8381101561264f578082015181840152602081019050612634565b8381111561265e576000848401525b50505050565b6000600282049050600182168061267c57607f821691505b602082108114156126905761268f61279f565b5b50919050565b61269f826127fd565b810181811067ffffffffffffffff821117156126be576126bd6127ce565b5b80604052505050565b60006126d282612618565b91507fffffffffffffffffffffffffffffffffffffffffffffffffffffffffffffffff82141561270557612704612741565b5b600182019050919050565b600061271b82612618565b915061272683612618565b92508261273657612735612770565b5b828206905092915050565b7f4e487b7100000000000000000000000000000000000000000000000000000000600052601160045260246000fd5b7f4e487b7100000000000000000000000000000000000000000000000000000000600052601260045260246000fd5b7f4e487b7100000000000000000000000000000000000000000000000000000000600052602260045260246000fd5b7f4e487b7100000000000000000000000000000000000000000000000000000000600052604160045260246000fd5b6000601f19601f8301169050919050565b7f4552433732313a207472616e7366657220746f206e6f6e20455243373231526560008201527f63656976657220696d706c656d656e7465720000000000000000000000000000602082015250565b7f4f776e61626c653a206e6577206f776e657220697320746865207a65726f206160008201527f6464726573730000000000000000000000000000000000000000000000000000602082015250565b7f4552433732313a20746f6b656e20616c7265616479206d696e74656400000000600082015250565b7f4552433732313a207472616e7366657220746f20746865207a65726f2061646460008201527f7265737300000000000000000000000000000000000000000000000000000000602082015250565b7f4552433732313a20617070726f766520746f2063616c6c657200000000000000600082015250565b7f4552433732313a206f70657261746f7220717565727920666f72206e6f6e657860008201527f697374656e7420746f6b656e0000000000000000000000000000000000000000602082015250565b7f4552433732313a20617070726f76652063616c6c6572206973206e6f74206f7760008201527f6e6572206e6f7220617070726f76656420666f7220616c6c0000000000000000602082015250565b7f4552433732313a2062616c616e636520717565727920666f7220746865207a6560008201527f726f206164647265737300000000000000000000000000000000000000000000602082015250565b7f4552433732313a206f776e657220717565727920666f72206e6f6e657869737460008201527f656e7420746f6b656e0000000000000000000000000000000000000000000000602082015250565b7f4552433732313a206d696e7420746f20746865207a65726f2061646472657373600082015250565b7f4552433732313a20617070726f76656420717565727920666f72206e6f6e657860008201527f697374656e7420746f6b656e0000000000000000000000000000000000000000602082015250565b7f4f776e61626c653a2063616c6c6572206973206e6f7420746865206f776e6572600082015250565b7f4552433732313a207472616e73666572206f6620746f6b656e2074686174206960008201527f73206e6f74206f776e0000000000000000000000000000000000000000000000602082015250565b7f4552433732314d657461646174613a2055524920717565727920666f72206e6f60008201527f6e6578697374656e7420746f6b656e0000000000000000000000000000000000602082015250565b7f4552433732313a20617070726f76616c20746f2063757272656e74206f776e6560008201527f7200000000000000000000000000000000000000000000000000000000000000602082015250565b7f4552433732313a207472616e736665722063616c6c6572206973206e6f74206f60008201527f776e6572206e6f7220617070726f766564000000000000000000000000000000602082015250565b612c6f816125ae565b8114612c7a57600080fd5b50565b612c86816125c0565b8114612c9157600080fd5b50565b612c9d816125cc565b8114612ca857600080fd5b50565b612cb481612618565b8114612cbf57600080fd5b5056fea2646970667358221220713eeef426d2ec7723beda29fc1e8dd62734c6d73369d7d3dd546d2b08870e8e64736f6c63430008030033",
  "immutableReferences": {},
  "source": "// SPDX-License-Identifier: MIT\npragma solidity 0.8.3;\n\nimport \"@openzeppelin/contracts/token/ERC721/presets/ERC721PresetMinterPauserAutoId.sol\";\nimport \"@openzeppelin/contracts/security/Pausable.sol\";\nimport \"@openzeppelin/contracts/token/ERC721/ERC721.sol\";\nimport \"@openzeppelin/contracts/access/Ownable.sol\";\nimport \"@openzeppelin/contracts/utils/Counters.sol\";\n\ncontract CriolloToken is ERC721, Pausable, Ownable {\n    using Counters for Counters.Counter;\n\n    Counters.Counter private _tokenIdCounter;\n\n    mapping(address => uint256) public tokenOwners;\n\n    constructor() ERC721(\"CriolloToken\", \"CRI\") {}\n\n    function safeMint(address to) public onlyOwner {\n        uint256 tokenID = _tokenIdCounter.current();\n\n        _safeMint(to, _tokenIdCounter.current());\n        _tokenIdCounter.increment();\n\n        tokenOwners[to] = tokenID;\n    }\n\n    function getTokenID(address tokenOwner) public view returns (uint256) {\n        return tokenOwners[tokenOwner];\n    }\n}\n",
  "sourcePath": "/home/josue/workspace/CryptoProjects/blockchain-developer-bootcamp-final-project/contracts/CriolloToken.sol",
  "compiler": {
    "name": "solc",
    "version": "0.8.3+commit.8d00100c.Emscripten.clang"
  },
  "schemaVersion": "3.4.3",
  "updatedAt": "2021-11-14T10:59:43.537Z",
  "networkType": "ethereum",
  "devdoc": {
    "kind": "dev",
    "methods": {
      "approve(address,uint256)": {
        "details": "See {IERC721-approve}."
      },
      "balanceOf(address)": {
        "details": "See {IERC721-balanceOf}."
      },
      "getApproved(uint256)": {
        "details": "See {IERC721-getApproved}."
      },
      "isApprovedForAll(address,address)": {
        "details": "See {IERC721-isApprovedForAll}."
      },
      "name()": {
        "details": "See {IERC721Metadata-name}."
      },
      "owner()": {
        "details": "Returns the address of the current owner."
      },
      "ownerOf(uint256)": {
        "details": "See {IERC721-ownerOf}."
      },
      "paused()": {
        "details": "Returns true if the contract is paused, and false otherwise."
      },
      "renounceOwnership()": {
        "details": "Leaves the contract without owner. It will not be possible to call `onlyOwner` functions anymore. Can only be called by the current owner. NOTE: Renouncing ownership will leave the contract without an owner, thereby removing any functionality that is only available to the owner."
      },
      "safeTransferFrom(address,address,uint256)": {
        "details": "See {IERC721-safeTransferFrom}."
      },
      "safeTransferFrom(address,address,uint256,bytes)": {
        "details": "See {IERC721-safeTransferFrom}."
      },
      "setApprovalForAll(address,bool)": {
        "details": "See {IERC721-setApprovalForAll}."
      },
      "supportsInterface(bytes4)": {
        "details": "See {IERC165-supportsInterface}."
      },
      "symbol()": {
        "details": "See {IERC721Metadata-symbol}."
      },
      "tokenURI(uint256)": {
        "details": "See {IERC721Metadata-tokenURI}."
      },
      "transferFrom(address,address,uint256)": {
        "details": "See {IERC721-transferFrom}."
      },
      "transferOwnership(address)": {
        "details": "Transfers ownership of the contract to a new account (`newOwner`). Can only be called by the current owner."
      }
    },
    "version": 1
  },
  "userdoc": {
    "kind": "user",
    "methods": {},
    "version": 1
  }
}