{
  "contractName": "CriolloToken",
  "abi": [
    {
      "inputs": [
        {
          "internalType": "string",
          "name": "name_",
          "type": "string"
        },
        {
          "internalType": "string",
          "name": "symbol_",
          "type": "string"
        },
        {
          "internalType": "string",
          "name": "_initBaseURI",
          "type": "string"
        }
      ],
      "stateMutability": "nonpayable",
      "type": "constructor"
    },
    {
      "anonymous": false,
      "inputs": [
        {
          "indexed": true,
          "internalType": "address",
          "name": "owner",
          "type": "address"
        },
        {
          "indexed": true,
          "internalType": "address",
          "name": "approved",
          "type": "address"
        },
        {
          "indexed": true,
          "internalType": "uint256",
          "name": "tokenId",
          "type": "uint256"
        }
      ],
      "name": "Approval",
      "type": "event"
    },
    {
      "anonymous": false,
      "inputs": [
        {
          "indexed": true,
          "internalType": "address",
          "name": "owner",
          "type": "address"
        },
        {
          "indexed": true,
          "internalType": "address",
          "name": "operator",
          "type": "address"
        },
        {
          "indexed": false,
          "internalType": "bool",
          "name": "approved",
          "type": "bool"
        }
      ],
      "name": "ApprovalForAll",
      "type": "event"
    },
    {
      "anonymous": false,
      "inputs": [
        {
          "indexed": true,
          "internalType": "address",
          "name": "previousOwner",
          "type": "address"
        },
        {
          "indexed": true,
          "internalType": "address",
          "name": "newOwner",
          "type": "address"
        }
      ],
      "name": "OwnershipTransferred",
      "type": "event"
    },
    {
      "anonymous": false,
      "inputs": [
        {
          "indexed": false,
          "internalType": "address",
          "name": "owner",
          "type": "address"
        },
        {
          "indexed": false,
          "internalType": "uint256",
          "name": "price",
          "type": "uint256"
        },
        {
          "indexed": false,
          "internalType": "uint256",
          "name": "id",
          "type": "uint256"
        }
      ],
      "name": "Purchase",
      "type": "event"
    },
    {
      "anonymous": false,
      "inputs": [
        {
          "indexed": false,
          "internalType": "uint256",
          "name": "_id",
          "type": "uint256"
        },
        {
          "indexed": false,
          "internalType": "address",
          "name": "_unlockerAddress",
          "type": "address"
        }
      ],
      "name": "TokenUnlocked",
      "type": "event"
    },
    {
      "anonymous": false,
      "inputs": [
        {
          "indexed": true,
          "internalType": "address",
          "name": "from",
          "type": "address"
        },
        {
          "indexed": true,
          "internalType": "address",
          "name": "to",
          "type": "address"
        },
        {
          "indexed": true,
          "internalType": "uint256",
          "name": "tokenId",
          "type": "uint256"
        }
      ],
      "name": "Transfer",
      "type": "event"
    },
    {
      "inputs": [
        {
          "internalType": "address",
          "name": "to",
          "type": "address"
        },
        {
          "internalType": "uint256",
          "name": "tokenId",
          "type": "uint256"
        }
      ],
      "name": "approve",
      "outputs": [],
      "stateMutability": "nonpayable",
      "type": "function"
    },
    {
      "inputs": [
        {
          "internalType": "address",
          "name": "owner",
          "type": "address"
        }
      ],
      "name": "balanceOf",
      "outputs": [
        {
          "internalType": "uint256",
          "name": "",
          "type": "uint256"
        }
      ],
      "stateMutability": "view",
      "type": "function"
    },
    {
      "inputs": [],
      "name": "baseExtension",
      "outputs": [
        {
          "internalType": "string",
          "name": "",
          "type": "string"
        }
      ],
      "stateMutability": "view",
      "type": "function"
    },
    {
      "inputs": [],
      "name": "baseURI",
      "outputs": [
        {
          "internalType": "string",
          "name": "",
          "type": "string"
        }
      ],
      "stateMutability": "view",
      "type": "function"
    },
    {
      "inputs": [
        {
          "internalType": "uint256",
          "name": "tokenId",
          "type": "uint256"
        }
      ],
      "name": "getApproved",
      "outputs": [
        {
          "internalType": "address",
          "name": "",
          "type": "address"
        }
      ],
      "stateMutability": "view",
      "type": "function"
    },
    {
      "inputs": [
        {
          "internalType": "address",
          "name": "owner",
          "type": "address"
        },
        {
          "internalType": "address",
          "name": "operator",
          "type": "address"
        }
      ],
      "name": "isApprovedForAll",
      "outputs": [
        {
          "internalType": "bool",
          "name": "",
          "type": "bool"
        }
      ],
      "stateMutability": "view",
      "type": "function"
    },
    {
      "inputs": [],
      "name": "name",
      "outputs": [
        {
          "internalType": "string",
          "name": "",
          "type": "string"
        }
      ],
      "stateMutability": "view",
      "type": "function"
    },
    {
      "inputs": [],
      "name": "owner",
      "outputs": [
        {
          "internalType": "address",
          "name": "",
          "type": "address"
        }
      ],
      "stateMutability": "view",
      "type": "function"
    },
    {
      "inputs": [
        {
          "internalType": "uint256",
          "name": "tokenId",
          "type": "uint256"
        }
      ],
      "name": "ownerOf",
      "outputs": [
        {
          "internalType": "address",
          "name": "",
          "type": "address"
        }
      ],
      "stateMutability": "view",
      "type": "function"
    },
    {
      "inputs": [],
      "name": "renounceOwnership",
      "outputs": [],
      "stateMutability": "nonpayable",
      "type": "function"
    },
    {
      "inputs": [
        {
          "internalType": "address",
          "name": "from",
          "type": "address"
        },
        {
          "internalType": "address",
          "name": "to",
          "type": "address"
        },
        {
          "internalType": "uint256",
          "name": "tokenId",
          "type": "uint256"
        }
      ],
      "name": "safeTransferFrom",
      "outputs": [],
      "stateMutability": "nonpayable",
      "type": "function"
    },
    {
      "inputs": [
        {
          "internalType": "address",
          "name": "from",
          "type": "address"
        },
        {
          "internalType": "address",
          "name": "to",
          "type": "address"
        },
        {
          "internalType": "uint256",
          "name": "tokenId",
          "type": "uint256"
        },
        {
          "internalType": "bytes",
          "name": "_data",
          "type": "bytes"
        }
      ],
      "name": "safeTransferFrom",
      "outputs": [],
      "stateMutability": "nonpayable",
      "type": "function"
    },
    {
      "inputs": [
        {
          "internalType": "address",
          "name": "operator",
          "type": "address"
        },
        {
          "internalType": "bool",
          "name": "approved",
          "type": "bool"
        }
      ],
      "name": "setApprovalForAll",
      "outputs": [],
      "stateMutability": "nonpayable",
      "type": "function"
    },
    {
      "inputs": [
        {
          "internalType": "bytes4",
          "name": "interfaceId",
          "type": "bytes4"
        }
      ],
      "name": "supportsInterface",
      "outputs": [
        {
          "internalType": "bool",
          "name": "",
          "type": "bool"
        }
      ],
      "stateMutability": "view",
      "type": "function"
    },
    {
      "inputs": [],
      "name": "symbol",
      "outputs": [
        {
          "internalType": "string",
          "name": "",
          "type": "string"
        }
      ],
      "stateMutability": "view",
      "type": "function"
    },
    {
      "inputs": [
        {
          "internalType": "uint256",
          "name": "index",
          "type": "uint256"
        }
      ],
      "name": "tokenByIndex",
      "outputs": [
        {
          "internalType": "uint256",
          "name": "",
          "type": "uint256"
        }
      ],
      "stateMutability": "view",
      "type": "function"
    },
    {
      "inputs": [
        {
          "internalType": "address",
          "name": "owner",
          "type": "address"
        },
        {
          "internalType": "uint256",
          "name": "index",
          "type": "uint256"
        }
      ],
      "name": "tokenOfOwnerByIndex",
      "outputs": [
        {
          "internalType": "uint256",
          "name": "",
          "type": "uint256"
        }
      ],
      "stateMutability": "view",
      "type": "function"
    },
    {
      "inputs": [],
      "name": "totalSupply",
      "outputs": [
        {
          "internalType": "uint256",
          "name": "",
          "type": "uint256"
        }
      ],
      "stateMutability": "view",
      "type": "function"
    },
    {
      "inputs": [
        {
          "internalType": "address",
          "name": "from",
          "type": "address"
        },
        {
          "internalType": "address",
          "name": "to",
          "type": "address"
        },
        {
          "internalType": "uint256",
          "name": "tokenId",
          "type": "uint256"
        }
      ],
      "name": "transferFrom",
      "outputs": [],
      "stateMutability": "nonpayable",
      "type": "function"
    },
    {
      "inputs": [
        {
          "internalType": "address",
          "name": "newOwner",
          "type": "address"
        }
      ],
      "name": "transferOwnership",
      "outputs": [],
      "stateMutability": "nonpayable",
      "type": "function"
    },
    {
      "inputs": [
        {
          "internalType": "string",
          "name": "_newBaseURI",
          "type": "string"
        }
      ],
      "name": "setBaseURI",
      "outputs": [],
      "stateMutability": "nonpayable",
      "type": "function"
    },
    {
      "inputs": [
        {
          "internalType": "string",
          "name": "_newBaseExtension",
          "type": "string"
        }
      ],
      "name": "setBaseExtension",
      "outputs": [],
      "stateMutability": "nonpayable",
      "type": "function"
    },
    {
      "inputs": [
        {
          "internalType": "uint256",
          "name": "_price",
          "type": "uint256"
        }
      ],
      "name": "safeMint",
      "outputs": [],
      "stateMutability": "nonpayable",
      "type": "function"
    },
    {
      "inputs": [
        {
          "internalType": "uint256",
          "name": "tokenId",
          "type": "uint256"
        }
      ],
      "name": "tokenURI",
      "outputs": [
        {
          "internalType": "string",
          "name": "",
          "type": "string"
        }
      ],
      "stateMutability": "view",
      "type": "function"
    },
    {
      "inputs": [
        {
          "internalType": "uint256",
          "name": "_id",
          "type": "uint256"
        },
        {
          "internalType": "uint256",
          "name": "_price",
          "type": "uint256"
        }
      ],
      "name": "addToMarketPlace",
      "outputs": [],
      "stateMutability": "nonpayable",
      "type": "function"
    },
    {
      "inputs": [
        {
          "internalType": "uint256",
          "name": "_tokenId",
          "type": "uint256"
        }
      ],
      "name": "getCriollo",
      "outputs": [
        {
          "internalType": "uint256",
          "name": "tokenId",
          "type": "uint256"
        },
        {
          "internalType": "uint256",
          "name": "price",
          "type": "uint256"
        },
        {
          "internalType": "uint256",
          "name": "state",
          "type": "uint256"
        }
      ],
      "stateMutability": "view",
      "type": "function"
    },
    {
      "inputs": [],
      "name": "fetchMarketItems",
      "outputs": [
        {
          "components": [
            {
              "internalType": "uint256",
              "name": "tokenId",
              "type": "uint256"
            },
            {
              "internalType": "uint256",
              "name": "price",
              "type": "uint256"
            },
            {
              "internalType": "enum CriolloToken.State",
              "name": "state",
              "type": "uint8"
            }
          ],
          "internalType": "struct CriolloToken.Criollo[]",
          "name": "",
          "type": "tuple[]"
        }
      ],
      "stateMutability": "view",
      "type": "function"
    },
    {
      "inputs": [],
      "name": "fetchMyNft",
      "outputs": [
        {
          "components": [
            {
              "internalType": "uint256",
              "name": "tokenId",
              "type": "uint256"
            },
            {
              "internalType": "uint256",
              "name": "price",
              "type": "uint256"
            },
            {
              "internalType": "enum CriolloToken.State",
              "name": "state",
              "type": "uint8"
            }
          ],
          "internalType": "struct CriolloToken.Criollo[]",
          "name": "",
          "type": "tuple[]"
        }
      ],
      "stateMutability": "view",
      "type": "function"
    },
    {
      "inputs": [
        {
          "internalType": "uint256",
          "name": "_id",
          "type": "uint256"
        }
      ],
      "name": "buy",
      "outputs": [],
      "stateMutability": "payable",
      "type": "function"
    },
    {
      "inputs": [
        {
          "internalType": "uint256",
          "name": "_id",
          "type": "uint256"
        }
      ],
      "name": "shipped",
      "outputs": [],
      "stateMutability": "nonpayable",
      "type": "function"
    },
    {
      "inputs": [
        {
          "internalType": "uint256",
          "name": "_id",
          "type": "uint256"
        }
      ],
      "name": "unlockToken",
      "outputs": [],
      "stateMutability": "nonpayable",
      "type": "function"
    },
    {
      "inputs": [],
      "name": "withdraw",
      "outputs": [],
      "stateMutability": "payable",
      "type": "function"
    },
    {
      "inputs": [],
      "name": "isOwner",
      "outputs": [
        {
          "internalType": "bool",
          "name": "",
          "type": "bool"
        }
      ],
      "stateMutability": "view",
      "type": "function"
    }
  ],
  "bytecode": "0x60806040526040518060400160405280600581526020017f2e6a736f6e000000000000000000000000000000000000000000000000000000815250600c90805190602001906200005192919062000298565b503480156200005f57600080fd5b5060405162005fc838038062005fc88339818101604052810190620000859190620003ba565b828281600090805190602001906200009f92919062000298565b508060019080519060200190620000b892919062000298565b505050620000db620000cf620000f560201b60201c565b620000fd60201b60201c565b620000ec81620001c360201b60201c565b5050506200064e565b600033905090565b6000600a60009054906101000a900473ffffffffffffffffffffffffffffffffffffffff16905081600a60006101000a81548173ffffffffffffffffffffffffffffffffffffffff021916908373ffffffffffffffffffffffffffffffffffffffff1602179055508173ffffffffffffffffffffffffffffffffffffffff168173ffffffffffffffffffffffffffffffffffffffff167f8be0079c531659141344cd1fd0a4f28419497f9722a3daafe3b4186f6b6457e060405160405180910390a35050565b620001d3620000f560201b60201c565b73ffffffffffffffffffffffffffffffffffffffff16620001f96200026e60201b60201c565b73ffffffffffffffffffffffffffffffffffffffff161462000252576040517f08c379a0000000000000000000000000000000000000000000000000000000008152600401620002499062000482565b60405180910390fd5b80600b90805190602001906200026a92919062000298565b5050565b6000600a60009054906101000a900473ffffffffffffffffffffffffffffffffffffffff16905090565b828054620002a6906200054a565b90600052602060002090601f016020900481019282620002ca576000855562000316565b82601f10620002e557805160ff191683800117855562000316565b8280016001018555821562000316579182015b8281111562000315578251825591602001919060010190620002f8565b5b50905062000325919062000329565b5090565b5b80821115620003445760008160009055506001016200032a565b5090565b60006200035f6200035984620004cd565b620004a4565b9050828152602081018484840111156200037857600080fd5b6200038584828562000514565b509392505050565b600082601f8301126200039f57600080fd5b8151620003b184826020860162000348565b91505092915050565b600080600060608486031215620003d057600080fd5b600084015167ffffffffffffffff811115620003eb57600080fd5b620003f9868287016200038d565b935050602084015167ffffffffffffffff8111156200041757600080fd5b62000425868287016200038d565b925050604084015167ffffffffffffffff8111156200044357600080fd5b62000451868287016200038d565b9150509250925092565b60006200046a60208362000503565b9150620004778262000625565b602082019050919050565b600060208201905081810360008301526200049d816200045b565b9050919050565b6000620004b0620004c3565b9050620004be828262000580565b919050565b6000604051905090565b600067ffffffffffffffff821115620004eb57620004ea620005e5565b5b620004f68262000614565b9050602081019050919050565b600082825260208201905092915050565b60005b838110156200053457808201518184015260208101905062000517565b8381111562000544576000848401525b50505050565b600060028204905060018216806200056357607f821691505b602082108114156200057a5762000579620005b6565b5b50919050565b6200058b8262000614565b810181811067ffffffffffffffff82111715620005ad57620005ac620005e5565b5b80604052505050565b7f4e487b7100000000000000000000000000000000000000000000000000000000600052602260045260246000fd5b7f4e487b7100000000000000000000000000000000000000000000000000000000600052604160045260246000fd5b6000601f19601f8301169050919050565b7f4f776e61626c653a2063616c6c6572206973206e6f7420746865206f776e6572600082015250565b61596a806200065e6000396000f3fe6080604052600436106101ee5760003560e01c806370a082311161010d578063ae3fc702116100a0578063d96a094a1161006f578063d96a094a146106f2578063da3ef23f1461070e578063dd2e0ac014610737578063e985e9c514610760578063f2fde38b1461079d576101ee565b8063ae3fc70214610638578063b88d4fde14610661578063c66828621461068a578063c87b56dd146106b5576101ee565b80638f32d59b116100dc5780638f32d59b1461058e57806395d89b41146105b95780639f7699eb146105e4578063a22cb4651461060f576101ee565b806370a08231146104e6578063715018a6146105235780637a86196f1461053a5780638da5cb5b14610563576101ee565b806331c864e81161018557806355f804b31161015457806355f804b3146104165780636352211e1461043f5780636c0360eb1461047c5780636df43754146104a7576101ee565b806331c864e81461037d5780633ccfd60b146103a657806342842e0e146103b05780634f6ccce7146103d9576101ee565b80630f08efe0116101c15780630f08efe0146102c157806318160ddd146102ec57806323b872dd146103175780632f745c5914610340576101ee565b806301ffc9a7146101f357806306fdde0314610230578063081812fc1461025b578063095ea7b314610298575b600080fd5b3480156101ff57600080fd5b5061021a60048036038101906102159190613f3f565b6107c6565b604051610227919061477c565b60405180910390f35b34801561023c57600080fd5b50610245610840565b6040516102529190614797565b60405180910390f35b34801561026757600080fd5b50610282600480360381019061027d9190613fd2565b6108d2565b60405161028f91906146bc565b60405180910390f35b3480156102a457600080fd5b506102bf60048036038101906102ba9190613f03565b610957565b005b3480156102cd57600080fd5b506102d6610a6f565b6040516102e3919061475a565b60405180910390f35b3480156102f857600080fd5b50610301610c3a565b60405161030e9190614b59565b60405180910390f35b34801561032357600080fd5b5061033e60048036038101906103399190613dfd565b610c47565b005b34801561034c57600080fd5b5061036760048036038101906103629190613f03565b610ca7565b6040516103749190614b59565b60405180910390f35b34801561038957600080fd5b506103a4600480360381019061039f9190613fd2565b610d4c565b005b6103ae610f38565b005b3480156103bc57600080fd5b506103d760048036038101906103d29190613dfd565b611063565b005b3480156103e557600080fd5b5061040060048036038101906103fb9190613fd2565b611083565b60405161040d9190614b59565b60405180910390f35b34801561042257600080fd5b5061043d60048036038101906104389190613f91565b61111a565b005b34801561044b57600080fd5b5061046660048036038101906104619190613fd2565b6111b0565b60405161047391906146bc565b60405180910390f35b34801561048857600080fd5b50610491611262565b60405161049e9190614797565b60405180910390f35b3480156104b357600080fd5b506104ce60048036038101906104c99190613fd2565b6112f0565b6040516104dd93929190614b9d565b60405180910390f35b3480156104f257600080fd5b5061050d60048036038101906105089190613d98565b61138c565b60405161051a9190614b59565b60405180910390f35b34801561052f57600080fd5b50610538611444565b005b34801561054657600080fd5b50610561600480360381019061055c9190613ffb565b6114cc565b005b34801561056f57600080fd5b506105786116ec565b60405161058591906146bc565b60405180910390f35b34801561059a57600080fd5b506105a3611716565b6040516105b0919061477c565b60405180910390f35b3480156105c557600080fd5b506105ce611753565b6040516105db9190614797565b60405180910390f35b3480156105f057600080fd5b506105f96117e5565b604051610606919061475a565b60405180910390f35b34801561061b57600080fd5b5061063660048036038101906106319190613ec7565b611a5d565b005b34801561064457600080fd5b5061065f600480360381019061065a9190613fd2565b611a73565b005b34801561066d57600080fd5b5061068860048036038101906106839190613e4c565b611c77565b005b34801561069657600080fd5b5061069f611cd9565b6040516106ac9190614797565b60405180910390f35b3480156106c157600080fd5b506106dc60048036038101906106d79190613fd2565b611d67565b6040516106e99190614797565b60405180910390f35b61070c60048036038101906107079190613fd2565b611e11565b005b34801561071a57600080fd5b5061073560048036038101906107309190613f91565b612262565b005b34801561074357600080fd5b5061075e60048036038101906107599190613fd2565b6122f8565b005b34801561076c57600080fd5b5061078760048036038101906107829190613dc1565b6124e7565b604051610794919061477c565b60405180910390f35b3480156107a957600080fd5b506107c460048036038101906107bf9190613d98565b61257b565b005b60007f780e9d63000000000000000000000000000000000000000000000000000000007bffffffffffffffffffffffffffffffffffffffffffffffffffffffff1916827bffffffffffffffffffffffffffffffffffffffffffffffffffffffff19161480610839575061083882612673565b5b9050919050565b60606000805461084f90614e8d565b80601f016020809104026020016040519081016040528092919081815260200182805461087b90614e8d565b80156108c85780601f1061089d576101008083540402835291602001916108c8565b820191906000526020600020905b8154815290600101906020018083116108ab57829003601f168201915b5050505050905090565b60006108dd82612755565b61091c576040517f08c379a000000000000000000000000000000000000000000000000000000000815260040161091390614a19565b60405180910390fd5b6004600083815260200190815260200160002060009054906101000a900473ffffffffffffffffffffffffffffffffffffffff169050919050565b6000610962826111b0565b90508073ffffffffffffffffffffffffffffffffffffffff168373ffffffffffffffffffffffffffffffffffffffff1614156109d3576040517f08c379a00000000000000000000000000000000000000000000000000000000081526004016109ca90614ab9565b60405180910390fd5b8073ffffffffffffffffffffffffffffffffffffffff166109f26127c1565b73ffffffffffffffffffffffffffffffffffffffff161480610a215750610a2081610a1b6127c1565b6124e7565b5b610a60576040517f08c379a0000000000000000000000000000000000000000000000000000000008152600401610a5790614999565b60405180910390fd5b610a6a83836127c9565b505050565b60606000610a7d600d612882565b90506000808267ffffffffffffffff811115610ac2577f4e487b7100000000000000000000000000000000000000000000000000000000600052604160045260246000fd5b604051908082528060200260200182016040528015610afb57816020015b610ae8613b63565b815260200190600190039081610ae05790505b5090506000600190505b838111610c30576000600e600083815260200190815260200160002090508060405180606001604052908160008201548152602001600182015481526020016002820160009054906101000a900460ff166004811115610b8e577f4e487b7100000000000000000000000000000000000000000000000000000000600052602160045260246000fd5b6004811115610bc6577f4e487b7100000000000000000000000000000000000000000000000000000000600052602160045260246000fd5b81525050838581518110610c03577f4e487b7100000000000000000000000000000000000000000000000000000000600052603260045260246000fd5b60200260200101819052508380610c1990614ef0565b945050508080610c2890614ef0565b915050610b05565b5080935050505090565b6000600880549050905090565b610c58610c526127c1565b82612890565b610c97576040517f08c379a0000000000000000000000000000000000000000000000000000000008152600401610c8e90614af9565b60405180910390fd5b610ca283838361296e565b505050565b6000610cb28361138c565b8210610cf3576040517f08c379a0000000000000000000000000000000000000000000000000000000008152600401610cea906147b9565b60405180910390fd5b600660008473ffffffffffffffffffffffffffffffffffffffff1673ffffffffffffffffffffffffffffffffffffffff168152602001908152602001600020600083815260200190815260200160002054905092915050565b610d546127c1565b73ffffffffffffffffffffffffffffffffffffffff16610d726116ec565b73ffffffffffffffffffffffffffffffffffffffff1614610dc8576040517f08c379a0000000000000000000000000000000000000000000000000000000008152600401610dbf90614a39565b60405180910390fd5b610dd2600d612b37565b6000610dde600d612882565b9050604051806060016040528082815260200183815260200160006004811115610e31577f4e487b7100000000000000000000000000000000000000000000000000000000600052602160045260246000fd5b815250600e6000838152602001908152602001600020600082015181600001556020820151816001015560408201518160020160006101000a81548160ff02191690836004811115610eac577f4e487b7100000000000000000000000000000000000000000000000000000000600052602160045260246000fd5b0217905550905050610ebe3382612b4d565b3373ffffffffffffffffffffffffffffffffffffffff16610ede826111b0565b73ffffffffffffffffffffffffffffffffffffffff1614610f34576040517f08c379a0000000000000000000000000000000000000000000000000000000008152600401610f2b90614b39565b60405180910390fd5b5050565b610f406127c1565b73ffffffffffffffffffffffffffffffffffffffff16610f5e6116ec565b73ffffffffffffffffffffffffffffffffffffffff1614610fb4576040517f08c379a0000000000000000000000000000000000000000000000000000000008152600401610fab90614a39565b60405180910390fd5b60003373ffffffffffffffffffffffffffffffffffffffff1647604051610fda906146a7565b60006040518083038185875af1925050503d8060008114611017576040519150601f19603f3d011682016040523d82523d6000602084013e61101c565b606091505b5050905080611060576040517f08c379a000000000000000000000000000000000000000000000000000000000815260040161105790614a59565b60405180910390fd5b50565b61107e83838360405180602001604052806000815250611c77565b505050565b600061108d610c3a565b82106110ce576040517f08c379a00000000000000000000000000000000000000000000000000000000081526004016110c590614b19565b60405180910390fd5b60088281548110611108577f4e487b7100000000000000000000000000000000000000000000000000000000600052603260045260246000fd5b90600052602060002001549050919050565b6111226127c1565b73ffffffffffffffffffffffffffffffffffffffff166111406116ec565b73ffffffffffffffffffffffffffffffffffffffff1614611196576040517f08c379a000000000000000000000000000000000000000000000000000000000815260040161118d90614a39565b60405180910390fd5b80600b90805190602001906111ac929190613bbc565b5050565b6000806002600084815260200190815260200160002060009054906101000a900473ffffffffffffffffffffffffffffffffffffffff169050600073ffffffffffffffffffffffffffffffffffffffff168173ffffffffffffffffffffffffffffffffffffffff161415611259576040517f08c379a0000000000000000000000000000000000000000000000000000000008152600401611250906149d9565b60405180910390fd5b80915050919050565b600b805461126f90614e8d565b80601f016020809104026020016040519081016040528092919081815260200182805461129b90614e8d565b80156112e85780601f106112bd576101008083540402835291602001916112e8565b820191906000526020600020905b8154815290600101906020018083116112cb57829003601f168201915b505050505081565b6000806000600e6000858152602001908152602001600020600001549250600e6000858152602001908152602001600020600101549150600e600085815260200190815260200160002060020160009054906101000a900460ff166004811115611383577f4e487b7100000000000000000000000000000000000000000000000000000000600052602160045260246000fd5b90509193909250565b60008073ffffffffffffffffffffffffffffffffffffffff168273ffffffffffffffffffffffffffffffffffffffff1614156113fd576040517f08c379a00000000000000000000000000000000000000000000000000000000081526004016113f4906149b9565b60405180910390fd5b600360008373ffffffffffffffffffffffffffffffffffffffff1673ffffffffffffffffffffffffffffffffffffffff168152602001908152602001600020549050919050565b61144c6127c1565b73ffffffffffffffffffffffffffffffffffffffff1661146a6116ec565b73ffffffffffffffffffffffffffffffffffffffff16146114c0576040517f08c379a00000000000000000000000000000000000000000000000000000000081526004016114b790614a39565b60405180910390fd5b6114ca6000612b6b565b565b8160006004811115611507577f4e487b7100000000000000000000000000000000000000000000000000000000600052602160045260246000fd5b600e600083815260200190815260200160002060020160009054906101000a900460ff166004811115611563577f4e487b7100000000000000000000000000000000000000000000000000000000600052602160045260246000fd5b146115a3576040517f08c379a000000000000000000000000000000000000000000000000000000000815260040161159a90614939565b60405180910390fd5b6115ab6127c1565b73ffffffffffffffffffffffffffffffffffffffff166115c96116ec565b73ffffffffffffffffffffffffffffffffffffffff161461161f576040517f08c379a000000000000000000000000000000000000000000000000000000000815260040161161690614a39565b60405180910390fd5b61162883612755565b611667576040517f08c379a000000000000000000000000000000000000000000000000000000000815260040161165e90614979565b60405180910390fd5b6001600e600085815260200190815260200160002060020160006101000a81548160ff021916908360048111156116c7577f4e487b7100000000000000000000000000000000000000000000000000000000600052602160045260246000fd5b021790555081600e600085815260200190815260200160002060010181905550505050565b6000600a60009054906101000a900473ffffffffffffffffffffffffffffffffffffffff16905090565b60006117206116ec565b73ffffffffffffffffffffffffffffffffffffffff163373ffffffffffffffffffffffffffffffffffffffff1614905090565b60606001805461176290614e8d565b80601f016020809104026020016040519081016040528092919081815260200182805461178e90614e8d565b80156117db5780601f106117b0576101008083540402835291602001916117db565b820191906000526020600020905b8154815290600101906020018083116117be57829003601f168201915b5050505050905090565b606060006117f3600d612882565b90506000806000600190505b838111611864573373ffffffffffffffffffffffffffffffffffffffff16611826826111b0565b73ffffffffffffffffffffffffffffffffffffffff16141561185157828061184d90614ef0565b9350505b808061185c90614ef0565b9150506117ff565b5060008267ffffffffffffffff8111156118a7577f4e487b7100000000000000000000000000000000000000000000000000000000600052604160045260246000fd5b6040519080825280602002602001820160405280156118e057816020015b6118cd613b63565b8152602001906001900390816118c55790505b5090506000600190505b848111611a52573373ffffffffffffffffffffffffffffffffffffffff16611911826111b0565b73ffffffffffffffffffffffffffffffffffffffff161415611a3f576000600e600083815260200190815260200160002090508060405180606001604052908160008201548152602001600182015481526020016002820160009054906101000a900460ff1660048111156119af577f4e487b7100000000000000000000000000000000000000000000000000000000600052602160045260246000fd5b60048111156119e7577f4e487b7100000000000000000000000000000000000000000000000000000000600052602160045260246000fd5b81525050838581518110611a24577f4e487b7100000000000000000000000000000000000000000000000000000000600052603260045260246000fd5b60200260200101819052508380611a3a90614ef0565b945050505b8080611a4a90614ef0565b9150506118ea565b508094505050505090565b611a6f611a686127c1565b8383612c31565b5050565b611a7b6127c1565b73ffffffffffffffffffffffffffffffffffffffff16611a996116ec565b73ffffffffffffffffffffffffffffffffffffffff1614611aef576040517f08c379a0000000000000000000000000000000000000000000000000000000008152600401611ae690614a39565b60405180910390fd5b8060026004811115611b2a577f4e487b7100000000000000000000000000000000000000000000000000000000600052602160045260246000fd5b600e600083815260200190815260200160002060020160009054906101000a900460ff166004811115611b86577f4e487b7100000000000000000000000000000000000000000000000000000000600052602160045260246000fd5b14611bc6576040517f08c379a0000000000000000000000000000000000000000000000000000000008152600401611bbd90614859565b60405180910390fd5b611bcf82612755565b611c0e576040517f08c379a0000000000000000000000000000000000000000000000000000000008152600401611c0590614979565b60405180910390fd5b6003600e600084815260200190815260200160002060020160006101000a81548160ff02191690836004811115611c6e577f4e487b7100000000000000000000000000000000000000000000000000000000600052602160045260246000fd5b02179055505050565b611c88611c826127c1565b83612890565b611cc7576040517f08c379a0000000000000000000000000000000000000000000000000000000008152600401611cbe90614af9565b60405180910390fd5b611cd384848484612d9e565b50505050565b600c8054611ce690614e8d565b80601f0160208091040260200160405190810160405280929190818152602001828054611d1290614e8d565b8015611d5f5780601f10611d3457610100808354040283529160200191611d5f565b820191906000526020600020905b815481529060010190602001808311611d4257829003601f168201915b505050505081565b6060611d7282612755565b611db1576040517f08c379a0000000000000000000000000000000000000000000000000000000008152600401611da890614a99565b60405180910390fd5b6000611dbb612dfa565b90506000815111611ddb5760405180602001604052806000815250611e09565b80611de584612e8c565b600c604051602001611df993929190614676565b6040516020818303038152906040525b915050919050565b8060016004811115611e4c577f4e487b7100000000000000000000000000000000000000000000000000000000600052602160045260246000fd5b600e600083815260200190815260200160002060020160009054906101000a900460ff166004811115611ea8577f4e487b7100000000000000000000000000000000000000000000000000000000600052602160045260246000fd5b1480611f465750600480811115611ee8577f4e487b7100000000000000000000000000000000000000000000000000000000600052602160045260246000fd5b600e600083815260200190815260200160002060020160009054906101000a900460ff166004811115611f44577f4e487b7100000000000000000000000000000000000000000000000000000000600052602160045260246000fd5b145b611f85576040517f08c379a0000000000000000000000000000000000000000000000000000000008152600401611f7c906148f9565b60405180910390fd5b600e600083815260200190815260200160002060010154803414611fde576040517f08c379a0000000000000000000000000000000000000000000000000000000008152600401611fd590614819565b60405180910390fd5b611fe783612755565b612026576040517f08c379a000000000000000000000000000000000000000000000000000000000815260040161201d90614979565b60405180910390fd5b6000612031846111b0565b905061204661203f856111b0565b338661296e565b60016004811115612080577f4e487b7100000000000000000000000000000000000000000000000000000000600052602160045260246000fd5b600e600086815260200190815260200160002060020160009054906101000a900460ff1660048111156120dc577f4e487b7100000000000000000000000000000000000000000000000000000000600052602160045260246000fd5b1415612148576002600e600086815260200190815260200160002060020160006101000a81548160ff02191690836004811115612142577f4e487b7100000000000000000000000000000000000000000000000000000000600052602160045260246000fd5b02179055505b60008173ffffffffffffffffffffffffffffffffffffffff163460405161216e906146a7565b60006040518083038185875af1925050503d80600081146121ab576040519150601f19603f3d011682016040523d82523d6000602084013e6121b0565b606091505b50509050806121f4576040517f08c379a00000000000000000000000000000000000000000000000000000000081526004016121eb90614ad9565b60405180910390fd5b7f12cb4648cf3058b17ceeb33e579f8b0bc269fe0843f3900b8e24b6c54871703c33600e600088815260200190815260200160002060010154600e60008981526020019081526020016000206000015460405161225393929190614723565b60405180910390a15050505050565b61226a6127c1565b73ffffffffffffffffffffffffffffffffffffffff166122886116ec565b73ffffffffffffffffffffffffffffffffffffffff16146122de576040517f08c379a00000000000000000000000000000000000000000000000000000000081526004016122d590614a39565b60405180910390fd5b80600c90805190602001906122f4929190613bbc565b5050565b8060036004811115612333577f4e487b7100000000000000000000000000000000000000000000000000000000600052602160045260246000fd5b600e600083815260200190815260200160002060020160009054906101000a900460ff16600481111561238f577f4e487b7100000000000000000000000000000000000000000000000000000000600052602160045260246000fd5b146123cf576040517f08c379a00000000000000000000000000000000000000000000000000000000081526004016123c6906147f9565b60405180910390fd5b3373ffffffffffffffffffffffffffffffffffffffff166123ef836111b0565b73ffffffffffffffffffffffffffffffffffffffff1614612445576040517f08c379a000000000000000000000000000000000000000000000000000000000815260040161243c90614959565b60405180910390fd5b6004600e600084815260200190815260200160002060020160006101000a81548160ff021916908360048111156124a5577f4e487b7100000000000000000000000000000000000000000000000000000000600052602160045260246000fd5b02179055507f0fe7d9801197f79ef3b1595d19379eb58f0fff5f98b0f6d6f34c03cae5306c3782336040516124db929190614b74565b60405180910390a15050565b6000600560008473ffffffffffffffffffffffffffffffffffffffff1673ffffffffffffffffffffffffffffffffffffffff16815260200190815260200160002060008373ffffffffffffffffffffffffffffffffffffffff1673ffffffffffffffffffffffffffffffffffffffff16815260200190815260200160002060009054906101000a900460ff16905092915050565b6125836127c1565b73ffffffffffffffffffffffffffffffffffffffff166125a16116ec565b73ffffffffffffffffffffffffffffffffffffffff16146125f7576040517f08c379a00000000000000000000000000000000000000000000000000000000081526004016125ee90614a39565b60405180910390fd5b600073ffffffffffffffffffffffffffffffffffffffff168173ffffffffffffffffffffffffffffffffffffffff161415612667576040517f08c379a000000000000000000000000000000000000000000000000000000000815260040161265e90614839565b60405180910390fd5b61267081612b6b565b50565b60007f80ac58cd000000000000000000000000000000000000000000000000000000007bffffffffffffffffffffffffffffffffffffffffffffffffffffffff1916827bffffffffffffffffffffffffffffffffffffffffffffffffffffffff1916148061273e57507f5b5e139f000000000000000000000000000000000000000000000000000000007bffffffffffffffffffffffffffffffffffffffffffffffffffffffff1916827bffffffffffffffffffffffffffffffffffffffffffffffffffffffff1916145b8061274e575061274d82613039565b5b9050919050565b60008073ffffffffffffffffffffffffffffffffffffffff166002600084815260200190815260200160002060009054906101000a900473ffffffffffffffffffffffffffffffffffffffff1673ffffffffffffffffffffffffffffffffffffffff1614159050919050565b600033905090565b816004600083815260200190815260200160002060006101000a81548173ffffffffffffffffffffffffffffffffffffffff021916908373ffffffffffffffffffffffffffffffffffffffff160217905550808273ffffffffffffffffffffffffffffffffffffffff1661283c836111b0565b73ffffffffffffffffffffffffffffffffffffffff167f8c5be1e5ebec7d5bd14f71427d1e84f3dd0314c0f7b2291e5b200ac8c7c3b92560405160405180910390a45050565b600081600001549050919050565b600061289b82612755565b6128da576040517f08c379a00000000000000000000000000000000000000000000000000000000081526004016128d190614919565b60405180910390fd5b60006128e5836111b0565b90508073ffffffffffffffffffffffffffffffffffffffff168473ffffffffffffffffffffffffffffffffffffffff16148061295457508373ffffffffffffffffffffffffffffffffffffffff1661293c846108d2565b73ffffffffffffffffffffffffffffffffffffffff16145b80612965575061296481856124e7565b5b91505092915050565b6004808111156129a7577f4e487b7100000000000000000000000000000000000000000000000000000000600052602160045260246000fd5b600e600083815260200190815260200160002060020160009054906101000a900460ff166004811115612a03577f4e487b7100000000000000000000000000000000000000000000000000000000600052602160045260246000fd5b1480612ae85750612a126116ec565b73ffffffffffffffffffffffffffffffffffffffff16612a31826111b0565b73ffffffffffffffffffffffffffffffffffffffff16148015612ae7575060016004811115612a89577f4e487b7100000000000000000000000000000000000000000000000000000000600052602160045260246000fd5b600e600083815260200190815260200160002060020160009054906101000a900460ff166004811115612ae5577f4e487b7100000000000000000000000000000000000000000000000000000000600052602160045260246000fd5b145b5b612b27576040517f08c379a0000000000000000000000000000000000000000000000000000000008152600401612b1e90614899565b60405180910390fd5b612b328383836130a3565b505050565b6001816000016000828254019250508190555050565b612b678282604051806020016040528060008152506132ff565b5050565b6000600a60009054906101000a900473ffffffffffffffffffffffffffffffffffffffff16905081600a60006101000a81548173ffffffffffffffffffffffffffffffffffffffff021916908373ffffffffffffffffffffffffffffffffffffffff1602179055508173ffffffffffffffffffffffffffffffffffffffff168173ffffffffffffffffffffffffffffffffffffffff167f8be0079c531659141344cd1fd0a4f28419497f9722a3daafe3b4186f6b6457e060405160405180910390a35050565b8173ffffffffffffffffffffffffffffffffffffffff168373ffffffffffffffffffffffffffffffffffffffff161415612ca0576040517f08c379a0000000000000000000000000000000000000000000000000000000008152600401612c97906148d9565b60405180910390fd5b80600560008573ffffffffffffffffffffffffffffffffffffffff1673ffffffffffffffffffffffffffffffffffffffff16815260200190815260200160002060008473ffffffffffffffffffffffffffffffffffffffff1673ffffffffffffffffffffffffffffffffffffffff16815260200190815260200160002060006101000a81548160ff0219169083151502179055508173ffffffffffffffffffffffffffffffffffffffff168373ffffffffffffffffffffffffffffffffffffffff167f17307eab39ab6107e8899845ad3d59bd9653f200f220920489ca2b5937696c3183604051612d91919061477c565b60405180910390a3505050565b612da984848461296e565b612db58484848461335a565b612df4576040517f08c379a0000000000000000000000000000000000000000000000000000000008152600401612deb906147d9565b60405180910390fd5b50505050565b6060600b8054612e0990614e8d565b80601f0160208091040260200160405190810160405280929190818152602001828054612e3590614e8d565b8015612e825780601f10612e5757610100808354040283529160200191612e82565b820191906000526020600020905b815481529060010190602001808311612e6557829003601f168201915b5050505050905090565b60606000821415612ed4576040518060400160405280600181526020017f30000000000000000000000000000000000000000000000000000000000000008152509050613034565b600082905060005b60008214612f06578080612eef90614ef0565b915050600a82612eff9190614d4d565b9150612edc565b60008167ffffffffffffffff811115612f48577f4e487b7100000000000000000000000000000000000000000000000000000000600052604160045260246000fd5b6040519080825280601f01601f191660200182016040528015612f7a5781602001600182028036833780820191505090505b5090505b6000851461302d57600182612f939190614d7e565b9150600a85612fa29190614f39565b6030612fae9190614cf7565b60f81b818381518110612fea577f4e487b7100000000000000000000000000000000000000000000000000000000600052603260045260246000fd5b60200101907effffffffffffffffffffffffffffffffffffffffffffffffffffffffffffff1916908160001a905350600a856130269190614d4d565b9450612f7e565b8093505050505b919050565b60007f01ffc9a7000000000000000000000000000000000000000000000000000000007bffffffffffffffffffffffffffffffffffffffffffffffffffffffff1916827bffffffffffffffffffffffffffffffffffffffffffffffffffffffff1916149050919050565b8273ffffffffffffffffffffffffffffffffffffffff166130c3826111b0565b73ffffffffffffffffffffffffffffffffffffffff1614613119576040517f08c379a000000000000000000000000000000000000000000000000000000000815260040161311090614a79565b60405180910390fd5b600073ffffffffffffffffffffffffffffffffffffffff168273ffffffffffffffffffffffffffffffffffffffff161415613189576040517f08c379a0000000000000000000000000000000000000000000000000000000008152600401613180906148b9565b60405180910390fd5b6131948383836134f1565b61319f6000826127c9565b6001600360008573ffffffffffffffffffffffffffffffffffffffff1673ffffffffffffffffffffffffffffffffffffffff16815260200190815260200160002060008282546131ef9190614d7e565b925050819055506001600360008473ffffffffffffffffffffffffffffffffffffffff1673ffffffffffffffffffffffffffffffffffffffff16815260200190815260200160002060008282546132469190614cf7565b92505081905550816002600083815260200190815260200160002060006101000a81548173ffffffffffffffffffffffffffffffffffffffff021916908373ffffffffffffffffffffffffffffffffffffffff160217905550808273ffffffffffffffffffffffffffffffffffffffff168473ffffffffffffffffffffffffffffffffffffffff167fddf252ad1be2c89b69c2b068fc378daa952ba7f163c4a11628f55a4df523b3ef60405160405180910390a4505050565b6133098383613605565b613316600084848461335a565b613355576040517f08c379a000000000000000000000000000000000000000000000000000000000815260040161334c906147d9565b60405180910390fd5b505050565b600061337b8473ffffffffffffffffffffffffffffffffffffffff166137d3565b156134e4578373ffffffffffffffffffffffffffffffffffffffff1663150b7a026133a46127c1565b8786866040518563ffffffff1660e01b81526004016133c694939291906146d7565b602060405180830381600087803b1580156133e057600080fd5b505af192505050801561341157506040513d601f19601f8201168201806040525081019061340e9190613f68565b60015b613494573d8060008114613441576040519150601f19603f3d011682016040523d82523d6000602084013e613446565b606091505b5060008151141561348c576040517f08c379a0000000000000000000000000000000000000000000000000000000008152600401613483906147d9565b60405180910390fd5b805181602001fd5b63150b7a0260e01b7bffffffffffffffffffffffffffffffffffffffffffffffffffffffff1916817bffffffffffffffffffffffffffffffffffffffffffffffffffffffff1916149150506134e9565b600190505b949350505050565b6134fc8383836137e6565b600073ffffffffffffffffffffffffffffffffffffffff168373ffffffffffffffffffffffffffffffffffffffff16141561353f5761353a816137eb565b61357e565b8173ffffffffffffffffffffffffffffffffffffffff168373ffffffffffffffffffffffffffffffffffffffff161461357d5761357c8382613834565b5b5b600073ffffffffffffffffffffffffffffffffffffffff168273ffffffffffffffffffffffffffffffffffffffff1614156135c1576135bc816139a1565b613600565b8273ffffffffffffffffffffffffffffffffffffffff168273ffffffffffffffffffffffffffffffffffffffff16146135ff576135fe8282613ae4565b5b5b505050565b600073ffffffffffffffffffffffffffffffffffffffff168273ffffffffffffffffffffffffffffffffffffffff161415613675576040517f08c379a000000000000000000000000000000000000000000000000000000000815260040161366c906149f9565b60405180910390fd5b61367e81612755565b156136be576040517f08c379a00000000000000000000000000000000000000000000000000000000081526004016136b590614879565b60405180910390fd5b6136ca600083836134f1565b6001600360008473ffffffffffffffffffffffffffffffffffffffff1673ffffffffffffffffffffffffffffffffffffffff168152602001908152602001600020600082825461371a9190614cf7565b92505081905550816002600083815260200190815260200160002060006101000a81548173ffffffffffffffffffffffffffffffffffffffff021916908373ffffffffffffffffffffffffffffffffffffffff160217905550808273ffffffffffffffffffffffffffffffffffffffff16600073ffffffffffffffffffffffffffffffffffffffff167fddf252ad1be2c89b69c2b068fc378daa952ba7f163c4a11628f55a4df523b3ef60405160405180910390a45050565b600080823b905060008111915050919050565b505050565b6008805490506009600083815260200190815260200160002081905550600881908060018154018082558091505060019003906000526020600020016000909190919091505550565b600060016138418461138c565b61384b9190614d7e565b9050600060076000848152602001908152602001600020549050818114613930576000600660008673ffffffffffffffffffffffffffffffffffffffff1673ffffffffffffffffffffffffffffffffffffffff168152602001908152602001600020600084815260200190815260200160002054905080600660008773ffffffffffffffffffffffffffffffffffffffff1673ffffffffffffffffffffffffffffffffffffffff168152602001908152602001600020600084815260200190815260200160002081905550816007600083815260200190815260200160002081905550505b6007600084815260200190815260200160002060009055600660008573ffffffffffffffffffffffffffffffffffffffff1673ffffffffffffffffffffffffffffffffffffffff16815260200190815260200160002060008381526020019081526020016000206000905550505050565b600060016008805490506139b59190614d7e565b9050600060096000848152602001908152602001600020549050600060088381548110613a0b577f4e487b7100000000000000000000000000000000000000000000000000000000600052603260045260246000fd5b906000526020600020015490508060088381548110613a53577f4e487b7100000000000000000000000000000000000000000000000000000000600052603260045260246000fd5b906000526020600020018190555081600960008381526020019081526020016000208190555060096000858152602001908152602001600020600090556008805480613ac8577f4e487b7100000000000000000000000000000000000000000000000000000000600052603160045260246000fd5b6001900381819060005260206000200160009055905550505050565b6000613aef8361138c565b905081600660008573ffffffffffffffffffffffffffffffffffffffff1673ffffffffffffffffffffffffffffffffffffffff168152602001908152602001600020600083815260200190815260200160002081905550806007600084815260200190815260200160002081905550505050565b6040518060600160405280600081526020016000815260200160006004811115613bb6577f4e487b7100000000000000000000000000000000000000000000000000000000600052602160045260246000fd5b81525090565b828054613bc890614e8d565b90600052602060002090601f016020900481019282613bea5760008555613c31565b82601f10613c0357805160ff1916838001178555613c31565b82800160010185558215613c31579182015b82811115613c30578251825591602001919060010190613c15565b5b509050613c3e9190613c42565b5090565b5b80821115613c5b576000816000905550600101613c43565b5090565b6000613c72613c6d84614bf9565b614bd4565b905082815260208101848484011115613c8a57600080fd5b613c95848285614e4b565b509392505050565b6000613cb0613cab84614c2a565b614bd4565b905082815260208101848484011115613cc857600080fd5b613cd3848285614e4b565b509392505050565b600081359050613cea816158d8565b92915050565b600081359050613cff816158ef565b92915050565b600081359050613d1481615906565b92915050565b600081519050613d2981615906565b92915050565b600082601f830112613d4057600080fd5b8135613d50848260208601613c5f565b91505092915050565b600082601f830112613d6a57600080fd5b8135613d7a848260208601613c9d565b91505092915050565b600081359050613d928161591d565b92915050565b600060208284031215613daa57600080fd5b6000613db884828501613cdb565b91505092915050565b60008060408385031215613dd457600080fd5b6000613de285828601613cdb565b9250506020613df385828601613cdb565b9150509250929050565b600080600060608486031215613e1257600080fd5b6000613e2086828701613cdb565b9350506020613e3186828701613cdb565b9250506040613e4286828701613d83565b9150509250925092565b60008060008060808587031215613e6257600080fd5b6000613e7087828801613cdb565b9450506020613e8187828801613cdb565b9350506040613e9287828801613d83565b925050606085013567ffffffffffffffff811115613eaf57600080fd5b613ebb87828801613d2f565b91505092959194509250565b60008060408385031215613eda57600080fd5b6000613ee885828601613cdb565b9250506020613ef985828601613cf0565b9150509250929050565b60008060408385031215613f1657600080fd5b6000613f2485828601613cdb565b9250506020613f3585828601613d83565b9150509250929050565b600060208284031215613f5157600080fd5b6000613f5f84828501613d05565b91505092915050565b600060208284031215613f7a57600080fd5b6000613f8884828501613d1a565b91505092915050565b600060208284031215613fa357600080fd5b600082013567ffffffffffffffff811115613fbd57600080fd5b613fc984828501613d59565b91505092915050565b600060208284031215613fe457600080fd5b6000613ff284828501613d83565b91505092915050565b6000806040838503121561400e57600080fd5b600061401c85828601613d83565b925050602061402d85828601613d83565b9150509250929050565b60006140438383614616565b60608301905092915050565b61405881614db2565b82525050565b600061406982614c80565b6140738185614cae565b935061407e83614c5b565b8060005b838110156140af5781516140968882614037565b97506140a183614ca1565b925050600181019050614082565b5085935050505092915050565b6140c581614dc4565b82525050565b60006140d682614c8b565b6140e08185614cbf565b93506140f0818560208601614e5a565b6140f981615055565b840191505092915050565b61410d81614e39565b82525050565b600061411e82614c96565b6141288185614cdb565b9350614138818560208601614e5a565b61414181615055565b840191505092915050565b600061415782614c96565b6141618185614cec565b9350614171818560208601614e5a565b80840191505092915050565b6000815461418a81614e8d565b6141948186614cec565b945060018216600081146141af57600181146141c0576141f3565b60ff198316865281860193506141f3565b6141c985614c6b565b60005b838110156141eb578154818901526001820191506020810190506141cc565b838801955050505b50505092915050565b6000614209602b83614cdb565b915061421482615066565b604082019050919050565b600061422c603283614cdb565b9150614237826150b5565b604082019050919050565b600061424f603583614cdb565b915061425a82615104565b604082019050919050565b6000614272603583614cdb565b915061427d82615153565b604082019050919050565b6000614295602683614cdb565b91506142a0826151a2565b604082019050919050565b60006142b8603483614cdb565b91506142c3826151f1565b604082019050919050565b60006142db601c83614cdb565b91506142e682615240565b602082019050919050565b60006142fe604583614cdb565b915061430982615269565b606082019050919050565b6000614321602483614cdb565b915061432c826152de565b604082019050919050565b6000614344601983614cdb565b915061434f8261532d565b602082019050919050565b6000614367602f83614cdb565b915061437282615356565b604082019050919050565b600061438a602c83614cdb565b9150614395826153a5565b604082019050919050565b60006143ad603283614cdb565b91506143b8826153f4565b604082019050919050565b60006143d0603183614cdb565b91506143db82615443565b604082019050919050565b60006143f3603783614cdb565b91506143fe82615492565b604082019050919050565b6000614416603883614cdb565b9150614421826154e1565b604082019050919050565b6000614439602a83614cdb565b915061444482615530565b604082019050919050565b600061445c602983614cdb565b91506144678261557f565b604082019050919050565b600061447f602083614cdb565b915061448a826155ce565b602082019050919050565b60006144a2602c83614cdb565b91506144ad826155f7565b604082019050919050565b60006144c5602083614cdb565b91506144d082615646565b602082019050919050565b60006144e8602583614cdb565b91506144f38261566f565b604082019050919050565b600061450b602983614cdb565b9150614516826156be565b604082019050919050565b600061452e602f83614cdb565b91506145398261570d565b604082019050919050565b6000614551602183614cdb565b915061455c8261575c565b604082019050919050565b6000614574600083614cd0565b915061457f826157ab565b600082019050919050565b6000614597601083614cdb565b91506145a2826157ae565b602082019050919050565b60006145ba603183614cdb565b91506145c5826157d7565b604082019050919050565b60006145dd602c83614cdb565b91506145e882615826565b604082019050919050565b6000614600603683614cdb565b915061460b82615875565b604082019050919050565b60608201600082015161462c6000850182614658565b50602082015161463f6020850182614658565b5060408201516146526040850182614104565b50505050565b61466181614e2f565b82525050565b61467081614e2f565b82525050565b6000614682828661414c565b915061468e828561414c565b915061469a828461417d565b9150819050949350505050565b60006146b282614567565b9150819050919050565b60006020820190506146d1600083018461404f565b92915050565b60006080820190506146ec600083018761404f565b6146f9602083018661404f565b6147066040830185614667565b818103606083015261471881846140cb565b905095945050505050565b6000606082019050614738600083018661404f565b6147456020830185614667565b6147526040830184614667565b949350505050565b60006020820190508181036000830152614774818461405e565b905092915050565b600060208201905061479160008301846140bc565b92915050565b600060208201905081810360008301526147b18184614113565b905092915050565b600060208201905081810360008301526147d2816141fc565b9050919050565b600060208201905081810360008301526147f28161421f565b9050919050565b6000602082019050818103600083015261481281614242565b9050919050565b6000602082019050818103600083015261483281614265565b9050919050565b6000602082019050818103600083015261485281614288565b9050919050565b60006020820190508181036000830152614872816142ab565b9050919050565b60006020820190508181036000830152614892816142ce565b9050919050565b600060208201905081810360008301526148b2816142f1565b9050919050565b600060208201905081810360008301526148d281614314565b9050919050565b600060208201905081810360008301526148f281614337565b9050919050565b600060208201905081810360008301526149128161435a565b9050919050565b600060208201905081810360008301526149328161437d565b9050919050565b60006020820190508181036000830152614952816143a0565b9050919050565b60006020820190508181036000830152614972816143c3565b9050919050565b60006020820190508181036000830152614992816143e6565b9050919050565b600060208201905081810360008301526149b281614409565b9050919050565b600060208201905081810360008301526149d28161442c565b9050919050565b600060208201905081810360008301526149f28161444f565b9050919050565b60006020820190508181036000830152614a1281614472565b9050919050565b60006020820190508181036000830152614a3281614495565b9050919050565b60006020820190508181036000830152614a52816144b8565b9050919050565b60006020820190508181036000830152614a72816144db565b9050919050565b60006020820190508181036000830152614a92816144fe565b9050919050565b60006020820190508181036000830152614ab281614521565b9050919050565b60006020820190508181036000830152614ad281614544565b9050919050565b60006020820190508181036000830152614af28161458a565b9050919050565b60006020820190508181036000830152614b12816145ad565b9050919050565b60006020820190508181036000830152614b32816145d0565b9050919050565b60006020820190508181036000830152614b52816145f3565b9050919050565b6000602082019050614b6e6000830184614667565b92915050565b6000604082019050614b896000830185614667565b614b96602083018461404f565b9392505050565b6000606082019050614bb26000830186614667565b614bbf6020830185614667565b614bcc6040830184614667565b949350505050565b6000614bde614bef565b9050614bea8282614ebf565b919050565b6000604051905090565b600067ffffffffffffffff821115614c1457614c13615026565b5b614c1d82615055565b9050602081019050919050565b600067ffffffffffffffff821115614c4557614c44615026565b5b614c4e82615055565b9050602081019050919050565b6000819050602082019050919050565b60008190508160005260206000209050919050565b600081519050919050565b600081519050919050565b600081519050919050565b6000602082019050919050565b600082825260208201905092915050565b600082825260208201905092915050565b600081905092915050565b600082825260208201905092915050565b600081905092915050565b6000614d0282614e2f565b9150614d0d83614e2f565b9250827fffffffffffffffffffffffffffffffffffffffffffffffffffffffffffffffff03821115614d4257614d41614f6a565b5b828201905092915050565b6000614d5882614e2f565b9150614d6383614e2f565b925082614d7357614d72614f99565b5b828204905092915050565b6000614d8982614e2f565b9150614d9483614e2f565b925082821015614da757614da6614f6a565b5b828203905092915050565b6000614dbd82614e0f565b9050919050565b60008115159050919050565b60007fffffffff0000000000000000000000000000000000000000000000000000000082169050919050565b6000819050614e0a826158c4565b919050565b600073ffffffffffffffffffffffffffffffffffffffff82169050919050565b6000819050919050565b6000614e4482614dfc565b9050919050565b82818337600083830152505050565b60005b83811015614e78578082015181840152602081019050614e5d565b83811115614e87576000848401525b50505050565b60006002820490506001821680614ea557607f821691505b60208210811415614eb957614eb8614ff7565b5b50919050565b614ec882615055565b810181811067ffffffffffffffff82111715614ee757614ee6615026565b5b80604052505050565b6000614efb82614e2f565b91507fffffffffffffffffffffffffffffffffffffffffffffffffffffffffffffffff821415614f2e57614f2d614f6a565b5b600182019050919050565b6000614f4482614e2f565b9150614f4f83614e2f565b925082614f5f57614f5e614f99565b5b828206905092915050565b7f4e487b7100000000000000000000000000000000000000000000000000000000600052601160045260246000fd5b7f4e487b7100000000000000000000000000000000000000000000000000000000600052601260045260246000fd5b7f4e487b7100000000000000000000000000000000000000000000000000000000600052602160045260246000fd5b7f4e487b7100000000000000000000000000000000000000000000000000000000600052602260045260246000fd5b7f4e487b7100000000000000000000000000000000000000000000000000000000600052604160045260246000fd5b6000601f19601f8301169050919050565b7f455243373231456e756d657261626c653a206f776e657220696e646578206f7560008201527f74206f6620626f756e6473000000000000000000000000000000000000000000602082015250565b7f4552433732313a207472616e7366657220746f206e6f6e20455243373231526560008201527f63656976657220696d706c656d656e7465720000000000000000000000000000602082015250565b7f4372696f6c6c6f546f6b656e3a204572726f722c205468697320746f6b656e2060008201527f686173206e6f74206265656e2053686970706564210000000000000000000000602082015250565b7f4372696f6c6c6f546f6b656e3a204572726f722c2053656e642074686520636f60008201527f727265637420616d6f756e74206f662065746865720000000000000000000000602082015250565b7f4f776e61626c653a206e6577206f776e657220697320746865207a65726f206160008201527f6464726573730000000000000000000000000000000000000000000000000000602082015250565b7f4372696f6c6c6f546f6b656e3a204572726f722c205468697320746f6b656e2060008201527f686173206e6f74206265656e204c6f636b656421000000000000000000000000602082015250565b7f4552433732313a20746f6b656e20616c7265616479206d696e74656400000000600082015250565b7f4372696f6c6c6f546f6b656e3a204572726f722c205468697320746f6b656e2060008201527f6973204c6f636b656420616e642063616e206e6f74206265207472616e73666560208201527f7265642021000000000000000000000000000000000000000000000000000000604082015250565b7f4552433732313a207472616e7366657220746f20746865207a65726f2061646460008201527f7265737300000000000000000000000000000000000000000000000000000000602082015250565b7f4552433732313a20617070726f766520746f2063616c6c657200000000000000600082015250565b7f4372696f6c6c6f546f6b656e3a204572726f722c205468697320746f6b656e2060008201527f6973206e6f7420666f722073616c650000000000000000000000000000000000602082015250565b7f4552433732313a206f70657261746f7220717565727920666f72206e6f6e657860008201527f697374656e7420746f6b656e0000000000000000000000000000000000000000602082015250565b7f4372696f6c6c6f546f6b656e3a204572726f722c205468697320746f6b656e2060008201527f63616e206e6f74206265206c6973746564210000000000000000000000000000602082015250565b7f4372696f6c6c6f546f6b656e3a204572726f722c20596f7520617265206e6f7460008201527f2074686520746f6b656e206f776e657221000000000000000000000000000000602082015250565b7f4372696f6c6c6f546f6b656e3a204572726f722c205468697320746f6b656e2060008201527f686173206e6f74206265656e206d696e74656420796574000000000000000000602082015250565b7f4552433732313a20617070726f76652063616c6c6572206973206e6f74206f7760008201527f6e6572206e6f7220617070726f76656420666f7220616c6c0000000000000000602082015250565b7f4552433732313a2062616c616e636520717565727920666f7220746865207a6560008201527f726f206164647265737300000000000000000000000000000000000000000000602082015250565b7f4552433732313a206f776e657220717565727920666f72206e6f6e657869737460008201527f656e7420746f6b656e0000000000000000000000000000000000000000000000602082015250565b7f4552433732313a206d696e7420746f20746865207a65726f2061646472657373600082015250565b7f4552433732313a20617070726f76656420717565727920666f72206e6f6e657860008201527f697374656e7420746f6b656e0000000000000000000000000000000000000000602082015250565b7f4f776e61626c653a2063616c6c6572206973206e6f7420746865206f776e6572600082015250565b7f4372696f6c6c6f546f6b656e3a204572726f722c205472616e7366657220666160008201527f696c65642e000000000000000000000000000000000000000000000000000000602082015250565b7f4552433732313a207472616e73666572206f6620746f6b656e2074686174206960008201527f73206e6f74206f776e0000000000000000000000000000000000000000000000602082015250565b7f4552433732314d657461646174613a2055524920717565727920666f72206e6f60008201527f6e6578697374656e7420746f6b656e0000000000000000000000000000000000602082015250565b7f4552433732313a20617070726f76616c20746f2063757272656e74206f776e6560008201527f7200000000000000000000000000000000000000000000000000000000000000602082015250565b50565b7f5472616e73666572206661696c65642e00000000000000000000000000000000600082015250565b7f4552433732313a207472616e736665722063616c6c6572206973206e6f74206f60008201527f776e6572206e6f7220617070726f766564000000000000000000000000000000602082015250565b7f455243373231456e756d657261626c653a20676c6f62616c20696e646578206f60008201527f7574206f6620626f756e64730000000000000000000000000000000000000000602082015250565b7f4372696f6c6c6f73546f6b656e3a204572726f722c20546f6b656e207761732060008201527f6e6f74206d696e7465642073756363657366756c6c7900000000000000000000602082015250565b600581106158d5576158d4614fc8565b5b50565b6158e181614db2565b81146158ec57600080fd5b50565b6158f881614dc4565b811461590357600080fd5b50565b61590f81614dd0565b811461591a57600080fd5b50565b61592681614e2f565b811461593157600080fd5b5056fea26469706673582212205d67b9fd43006e040eed2913616680ca69c1dbe769c2ca16a86ba771408575b864736f6c63430008030033",
  "immutableReferences": {},
  "source": "// SPDX-License-Identifier: MIT\npragma solidity 0.8.3;\n\nimport \"@openzeppelin/contracts/token/ERC721/ERC721.sol\";\nimport \"@openzeppelin/contracts/token/ERC721/extensions/ERC721Enumerable.sol\";\nimport \"@openzeppelin/contracts/access/Ownable.sol\";\nimport \"@openzeppelin/contracts/utils/Counters.sol\";\n\n/// @title A contract for creating NFT tokens\n/// @author Josue Perez\n/// @notice You can use this contract to Creates NFT tokens called CriollosToken\n/// This token is linked with a physical assets(a Chocolate) that will be send once\n/// the user buy it at our Market place, after receive the physical assets the user\n/// is able to trade the NFT token using another Market place for instance OpenSea\ncontract CriolloToken is ERC721Enumerable, Ownable {\n    using Counters for Counters.Counter;\n    using Strings for uint256;\n\n    /// @notice Emitted when an user buy a NFT in our MarketPlace\n    /// @param owner The address of the Token Owner,\n    /// @param price The price for the token was bought\n    /// @param id The id of the NFT token.\n    /// @dev The price is only used in the first sale\n    event Purchase(address owner, uint256 price, uint256 id);\n\n    /// @notice Emitted when the token owner unlock the NFT once receive the chocolate\n    /// @param _id The id of the NFT token.\n    /// @param _unlockerAddress Address who unlocked the token\n    event TokenUnlocked(uint256 _id, address _unlockerAddress);\n\n    /// @notice State of the token.\n    /// @dev Used for handling the intial phase of the workflow,\n    /// after Users unlock the token, state should remain the same.\n    enum State {\n        NotListed,\n        ForSale,\n        Locked,\n        Shipped,\n        Unlocked\n    }\n\n    /// @notice State object for handling the state of the NFT\n    /// @dev tokenIs is incremented using Counters\n    struct Criollo {\n        uint256 tokenId;\n        uint256 price;\n        State state;\n    }\n\n    string public baseURI;\n    string public baseExtension = \".json\";\n\n    Counters.Counter private _tokenIdCounter;\n\n    /// @dev Mapping from token ID to Criollo objects\n    mapping(uint256 => Criollo) criollos;\n\n    /// @dev Generate an exception if token can not be Listed in the MarketPlace\n    modifier canBeListed(uint256 _id) {\n        require(\n            criollos[_id].state == State.NotListed,\n            \"CriolloToken: Error, This token can not be listed!\"\n        );\n        _;\n    }\n\n    /// @dev Generate an exception if tocken is not Locked.\n    modifier isLocked(uint256 _id) {\n        require(\n            criollos[_id].state == State.Locked,\n            \"CriolloToken: Error, This token has not been Locked!\"\n        );\n        _;\n    }\n\n    /// @dev Generate an exception if tocken is not Shipped\n    modifier isShipped(uint256 _id) {\n        require(\n            criollos[_id].state == State.Shipped,\n            \"CriolloToken: Error, This token has not been Shipped!\"\n        );\n        _;\n    }\n\n    /// @dev Generate an exception if tocken is not For Sale\n    modifier forSale(uint256 _id) {\n        require(\n            criollos[_id].state == State.ForSale ||\n                criollos[_id].state == State.Unlocked,\n            \"CriolloToken: Error, This token is not for sale\"\n        );\n        _;\n    }\n\n    /// @dev Generate an exception if the user does not send exact amount of ether\n    modifier paidExactAmount(uint256 _price) {\n        require(\n            msg.value == _price,\n            \"CriolloToken: Error, Send the correct amount of ether\"\n        );\n        _;\n    }\n\n    /// @notice Constructor called once when deploy the contract\n    /// @param name_ Name of the NFT token\n    /// @param symbol_ Symbol of the NFT\n    /// @param _initBaseURI Contains the base URL where the metadata of the NFT is stored\n    constructor(\n        string memory name_,\n        string memory symbol_,\n        string memory _initBaseURI\n    ) ERC721(name_, symbol_) {\n        setBaseURI(_initBaseURI);\n    }\n\n    function _baseURI() internal view virtual override returns (string memory) {\n        return baseURI;\n    }\n\n    function setBaseURI(string memory _newBaseURI) public onlyOwner {\n        baseURI = _newBaseURI;\n    }\n\n    function setBaseExtension(string memory _newBaseExtension)\n        public\n        onlyOwner\n    {\n        baseExtension = _newBaseExtension;\n    }\n\n    /// @notice Mints a new token\n    /// @dev Only the contract owner can mints tokens\n    /// @param _price Initial price for the token.\n    function safeMint(uint256 _price) public onlyOwner {\n        _tokenIdCounter.increment();\n\n        uint256 _tokenId = _tokenIdCounter.current();\n\n        criollos[_tokenId] = Criollo({\n            price: _price,\n            tokenId: _tokenId,\n            state: State.NotListed\n        });\n\n        _safeMint(msg.sender, _tokenId);\n\n        require(\n            ownerOf(_tokenId) == msg.sender,\n            \"CriollosToken: Error, Token was not minted succesfully\"\n        );\n    }\n\n    /// @notice Get the token URI\n    function tokenURI(uint256 tokenId)\n        public\n        view\n        virtual\n        override\n        returns (string memory)\n    {\n        require(\n            _exists(tokenId),\n            \"ERC721Metadata: URI query for nonexistent token\"\n        );\n\n        string memory currentBaseURI = _baseURI();\n        return\n            bytes(currentBaseURI).length > 0\n                ? string(\n                    abi.encodePacked(\n                        currentBaseURI,\n                        tokenId.toString(),\n                        baseExtension\n                    )\n                )\n                : \"\";\n    }\n\n    /// @notice Add a token to the market place\n    /// @dev This function can only be used by the contract owner to make the token available to others users in our Market Place\n    /// @param _id Id of the token.\n    /// @param _price Price for the token.\n    function addToMarketPlace(uint256 _id, uint256 _price)\n        public\n        canBeListed(_id)\n        onlyOwner\n    {\n        require(\n            _exists(_id),\n            \"CriolloToken: Error, This token has not been minted yet\"\n        );\n        criollos[_id].state = State.ForSale;\n        criollos[_id].price = _price;\n    }\n\n    /// @notice Fetch a token by Id\n    /// @dev Use this function whenever you need info about a token\n    /// @param _tokenId Id of the token.\n    /// @return tokenId - The Id of the token\n    /// @return price - The price of the token\n    /// @return state - The state of the token\n    function getCriollo(uint256 _tokenId)\n        public\n        view\n        returns (\n            uint256 tokenId,\n            uint256 price,\n            uint256 state\n        )\n    {\n        tokenId = criollos[_tokenId].tokenId;\n        price = criollos[_tokenId].price;\n        state = uint256(criollos[_tokenId].state);\n        return (tokenId, price, state);\n    }\n\n    /// @notice Fetch all the NFT\n    /// @return Criollo[] - array of nfts\n    function fetchMarketItems() public view returns (Criollo[] memory) {\n        uint256 itemsCount = _tokenIdCounter.current();\n        uint256 currentIndex = 0;\n\n        Criollo[] memory items = new Criollo[](itemsCount);\n\n        for (uint256 id = 1; id <= itemsCount; id++) {\n            Criollo storage currentItem = criollos[id];\n            items[currentIndex] = currentItem;\n            currentIndex++;\n        }\n\n        return items;\n    }\n\n    /// @notice Fetch owned NFT\n    /// @return Criollo[] - only nfts that a user has purchased\n    function fetchMyNft() public view returns (Criollo[] memory) {\n        uint256 itemsCount = _tokenIdCounter.current();\n        uint256 itemsOwned = 0;\n        uint256 currentIndex = 0;\n\n        for (uint256 id = 1; id <= itemsCount; id++) {\n            if (ownerOf(id) == msg.sender) {\n                itemsOwned++;\n            }\n        }\n\n        Criollo[] memory items = new Criollo[](itemsOwned);\n\n        for (uint256 id = 1; id <= itemsCount; id++) {\n            if (ownerOf(id) == msg.sender) {\n                Criollo storage currentItem = criollos[id];\n                items[currentIndex] = currentItem;\n                currentIndex++;\n            }\n        }\n        return items;\n    }\n\n    /// @notice Buy a token in Criollos Market Place\n    /// @dev This is a custom function for buying function in our Market PLace.\n    /// @param _id Id of the token.\n    function buy(uint256 _id)\n        external\n        payable\n        forSale(_id)\n        paidExactAmount(criollos[_id].price)\n    {\n        require(\n            _exists(_id),\n            \"CriolloToken: Error, This token has not been minted yet\"\n        );\n        address payable _currentOwner = payable(ownerOf(_id));\n\n        _transfer(ownerOf(_id), msg.sender, _id);\n\n        if (criollos[_id].state == State.ForSale) {\n            criollos[_id].state = State.Locked;\n        }\n\n        (bool success, ) = _currentOwner.call{value: msg.value}(\"\");\n        require(success, \"Transfer failed.\");\n\n        emit Purchase(msg.sender, criollos[_id].price, criollos[_id].tokenId);\n    }\n\n    /// @notice Ship an Item\n    /// @dev Only the contract owner can ship an Item, the token should be sold first\n    /// @param _id Id of the token.\n    function shipped(uint256 _id) public onlyOwner isLocked(_id) {\n        require(\n            _exists(_id),\n            \"CriolloToken: Error, This token has not been minted yet\"\n        );\n        criollos[_id].state = State.Shipped;\n    }\n\n    /// @notice Unlock a Token\n    /// @dev Need to be the owner of the token\n    /// @param _id Id of the token.\n    function unlockToken(uint256 _id) public isShipped(_id) {\n        require(\n            ownerOf(_id) == msg.sender,\n            \"CriolloToken: Error, You are not the token owner!\"\n        );\n        criollos[_id].state = State.Unlocked;\n        emit TokenUnlocked(_id, msg.sender);\n    }\n\n    /// @notice Withdraw balance\n    /// @dev From the contract owner to specific address.\n    function withdraw() public payable onlyOwner {\n        (bool success, ) = payable(msg.sender).call{\n            value: address(this).balance\n        }(\"\");\n        require(success, \"CriolloToken: Error, Transfer failed.\");\n    }\n\n    /// @notice Transfer function\n    /// @dev This function is overriden from ERC721:_transfer, so we can avoid the token to be transfer if it is not unlocked.\n    function _transfer(\n        address from,\n        address to,\n        uint256 tokenId\n    ) internal override {\n        require(\n            criollos[tokenId].state == State.Unlocked ||\n                (ownerOf(tokenId) == owner() &&\n                    criollos[tokenId].state == State.ForSale),\n            \"CriolloToken: Error, This token is Locked and can not be transfered !\"\n        );\n        super._transfer(from, to, tokenId);\n    }\n\n    function isOwner() public view returns (bool) {\n        return msg.sender == owner();\n    }\n}\n",
  "sourcePath": "/home/josue/workspace/CryptoProjects/blockchain-developer-bootcamp-final-project/contracts/CriolloToken.sol",
  "compiler": {
    "name": "solc",
    "version": "0.8.3+commit.8d00100c.Emscripten.clang"
  },
  "schemaVersion": "3.4.3",
  "updatedAt": "2021-12-18T23:34:47.354Z",
  "devdoc": {
    "author": "Josue Perez",
    "events": {
      "Purchase(address,uint256,uint256)": {
        "details": "The price is only used in the first sale",
        "params": {
          "id": "The id of the NFT token.",
          "owner": "The address of the Token Owner,",
          "price": "The price for the token was bought"
        }
      },
      "TokenUnlocked(uint256,address)": {
        "params": {
          "_id": "The id of the NFT token.",
          "_unlockerAddress": "Address who unlocked the token"
        }
      }
    },
    "kind": "dev",
    "methods": {
      "addToMarketPlace(uint256,uint256)": {
        "details": "This function can only be used by the contract owner to make the token available to others users in our Market Place",
        "params": {
          "_id": "Id of the token.",
          "_price": "Price for the token."
        }
      },
      "approve(address,uint256)": {
        "details": "See {IERC721-approve}."
      },
      "balanceOf(address)": {
        "details": "See {IERC721-balanceOf}."
      },
      "buy(uint256)": {
        "details": "This is a custom function for buying function in our Market PLace.",
        "params": {
          "_id": "Id of the token."
        }
      },
      "constructor": {
        "params": {
          "_initBaseURI": "Contains the base URL where the metadata of the NFT is stored",
          "name_": "Name of the NFT token",
          "symbol_": "Symbol of the NFT"
        }
      },
      "fetchMarketItems()": {
        "returns": {
          "_0": "Criollo[] - array of nfts"
        }
      },
      "fetchMyNft()": {
        "returns": {
          "_0": "Criollo[] - only nfts that a user has purchased"
        }
      },
      "getApproved(uint256)": {
        "details": "See {IERC721-getApproved}."
      },
      "getCriollo(uint256)": {
        "details": "Use this function whenever you need info about a token",
        "params": {
          "_tokenId": "Id of the token."
        },
        "returns": {
          "price": "- The price of the token",
          "state": "- The state of the token",
          "tokenId": "- The Id of the token"
        }
      },
      "isApprovedForAll(address,address)": {
        "details": "See {IERC721-isApprovedForAll}."
      },
      "name()": {
        "details": "See {IERC721Metadata-name}."
      },
      "owner()": {
        "details": "Returns the address of the current owner."
      },
      "ownerOf(uint256)": {
        "details": "See {IERC721-ownerOf}."
      },
      "renounceOwnership()": {
        "details": "Leaves the contract without owner. It will not be possible to call `onlyOwner` functions anymore. Can only be called by the current owner. NOTE: Renouncing ownership will leave the contract without an owner, thereby removing any functionality that is only available to the owner."
      },
      "safeMint(uint256)": {
        "details": "Only the contract owner can mints tokens",
        "params": {
          "_price": "Initial price for the token."
        }
      },
      "safeTransferFrom(address,address,uint256)": {
        "details": "See {IERC721-safeTransferFrom}."
      },
      "safeTransferFrom(address,address,uint256,bytes)": {
        "details": "See {IERC721-safeTransferFrom}."
      },
      "setApprovalForAll(address,bool)": {
        "details": "See {IERC721-setApprovalForAll}."
      },
      "shipped(uint256)": {
        "details": "Only the contract owner can ship an Item, the token should be sold first",
        "params": {
          "_id": "Id of the token."
        }
      },
      "supportsInterface(bytes4)": {
        "details": "See {IERC165-supportsInterface}."
      },
      "symbol()": {
        "details": "See {IERC721Metadata-symbol}."
      },
      "tokenByIndex(uint256)": {
        "details": "See {IERC721Enumerable-tokenByIndex}."
      },
      "tokenOfOwnerByIndex(address,uint256)": {
        "details": "See {IERC721Enumerable-tokenOfOwnerByIndex}."
      },
      "totalSupply()": {
        "details": "See {IERC721Enumerable-totalSupply}."
      },
      "transferFrom(address,address,uint256)": {
        "details": "See {IERC721-transferFrom}."
      },
      "transferOwnership(address)": {
        "details": "Transfers ownership of the contract to a new account (`newOwner`). Can only be called by the current owner."
      },
      "unlockToken(uint256)": {
        "details": "Need to be the owner of the token",
        "params": {
          "_id": "Id of the token."
        }
      },
      "withdraw()": {
        "details": "From the contract owner to specific address."
      }
    },
    "stateVariables": {
      "criollos": {
        "details": "Mapping from token ID to Criollo objects"
      }
    },
    "title": "A contract for creating NFT tokens",
    "version": 1
  },
  "userdoc": {
    "events": {
      "Purchase(address,uint256,uint256)": {
        "notice": "Emitted when an user buy a NFT in our MarketPlace"
      },
      "TokenUnlocked(uint256,address)": {
        "notice": "Emitted when the token owner unlock the NFT once receive the chocolate"
      }
    },
    "kind": "user",
    "methods": {
      "addToMarketPlace(uint256,uint256)": {
        "notice": "Add a token to the market place"
      },
      "buy(uint256)": {
        "notice": "Buy a token in Criollos Market Place"
      },
      "constructor": {
        "notice": "Constructor called once when deploy the contract"
      },
      "fetchMarketItems()": {
        "notice": "Fetch all the NFT"
      },
      "fetchMyNft()": {
        "notice": "Fetch owned NFT"
      },
      "getCriollo(uint256)": {
        "notice": "Fetch a token by Id"
      },
      "safeMint(uint256)": {
        "notice": "Mints a new token"
      },
      "shipped(uint256)": {
        "notice": "Ship an Item"
      },
      "tokenURI(uint256)": {
        "notice": "Get the token URI"
      },
      "unlockToken(uint256)": {
        "notice": "Unlock a Token"
      },
      "withdraw()": {
        "notice": "Withdraw balance"
      }
    },
    "notice": "You can use this contract to Creates NFT tokens called CriollosToken This token is linked with a physical assets(a Chocolate) that will be send once the user buy it at our Market place, after receive the physical assets the user is able to trade the NFT token using another Market place for instance OpenSea",
    "version": 1
  }
}