{
  "contractName": "CriolloToken",
  "abi": [
    {
      "inputs": [
        {
          "internalType": "string",
          "name": "name_",
          "type": "string"
        },
        {
          "internalType": "string",
          "name": "symbol_",
          "type": "string"
        },
        {
          "internalType": "string",
          "name": "_initBaseURI",
          "type": "string"
        }
      ],
      "stateMutability": "nonpayable",
      "type": "constructor"
    },
    {
      "anonymous": false,
      "inputs": [
        {
          "indexed": true,
          "internalType": "address",
          "name": "owner",
          "type": "address"
        },
        {
          "indexed": true,
          "internalType": "address",
          "name": "approved",
          "type": "address"
        },
        {
          "indexed": true,
          "internalType": "uint256",
          "name": "tokenId",
          "type": "uint256"
        }
      ],
      "name": "Approval",
      "type": "event"
    },
    {
      "anonymous": false,
      "inputs": [
        {
          "indexed": true,
          "internalType": "address",
          "name": "owner",
          "type": "address"
        },
        {
          "indexed": true,
          "internalType": "address",
          "name": "operator",
          "type": "address"
        },
        {
          "indexed": false,
          "internalType": "bool",
          "name": "approved",
          "type": "bool"
        }
      ],
      "name": "ApprovalForAll",
      "type": "event"
    },
    {
      "anonymous": false,
      "inputs": [
        {
          "indexed": true,
          "internalType": "address",
          "name": "previousOwner",
          "type": "address"
        },
        {
          "indexed": true,
          "internalType": "address",
          "name": "newOwner",
          "type": "address"
        }
      ],
      "name": "OwnershipTransferred",
      "type": "event"
    },
    {
      "anonymous": false,
      "inputs": [
        {
          "indexed": false,
          "internalType": "address",
          "name": "owner",
          "type": "address"
        },
        {
          "indexed": false,
          "internalType": "uint256",
          "name": "price",
          "type": "uint256"
        },
        {
          "indexed": false,
          "internalType": "uint256",
          "name": "id",
          "type": "uint256"
        }
      ],
      "name": "Purchase",
      "type": "event"
    },
    {
      "anonymous": false,
      "inputs": [
        {
          "indexed": false,
          "internalType": "uint256",
          "name": "_id",
          "type": "uint256"
        },
        {
          "indexed": false,
          "internalType": "address",
          "name": "_unlockerAddress",
          "type": "address"
        }
      ],
      "name": "TokenUnlocked",
      "type": "event"
    },
    {
      "anonymous": false,
      "inputs": [
        {
          "indexed": true,
          "internalType": "address",
          "name": "from",
          "type": "address"
        },
        {
          "indexed": true,
          "internalType": "address",
          "name": "to",
          "type": "address"
        },
        {
          "indexed": true,
          "internalType": "uint256",
          "name": "tokenId",
          "type": "uint256"
        }
      ],
      "name": "Transfer",
      "type": "event"
    },
    {
      "inputs": [
        {
          "internalType": "address",
          "name": "to",
          "type": "address"
        },
        {
          "internalType": "uint256",
          "name": "tokenId",
          "type": "uint256"
        }
      ],
      "name": "approve",
      "outputs": [],
      "stateMutability": "nonpayable",
      "type": "function"
    },
    {
      "inputs": [
        {
          "internalType": "address",
          "name": "owner",
          "type": "address"
        }
      ],
      "name": "balanceOf",
      "outputs": [
        {
          "internalType": "uint256",
          "name": "",
          "type": "uint256"
        }
      ],
      "stateMutability": "view",
      "type": "function",
      "constant": true
    },
    {
      "inputs": [],
      "name": "baseExtension",
      "outputs": [
        {
          "internalType": "string",
          "name": "",
          "type": "string"
        }
      ],
      "stateMutability": "view",
      "type": "function",
      "constant": true
    },
    {
      "inputs": [],
      "name": "baseURI",
      "outputs": [
        {
          "internalType": "string",
          "name": "",
          "type": "string"
        }
      ],
      "stateMutability": "view",
      "type": "function",
      "constant": true
    },
    {
      "inputs": [
        {
          "internalType": "uint256",
          "name": "tokenId",
          "type": "uint256"
        }
      ],
      "name": "getApproved",
      "outputs": [
        {
          "internalType": "address",
          "name": "",
          "type": "address"
        }
      ],
      "stateMutability": "view",
      "type": "function",
      "constant": true
    },
    {
      "inputs": [
        {
          "internalType": "address",
          "name": "owner",
          "type": "address"
        },
        {
          "internalType": "address",
          "name": "operator",
          "type": "address"
        }
      ],
      "name": "isApprovedForAll",
      "outputs": [
        {
          "internalType": "bool",
          "name": "",
          "type": "bool"
        }
      ],
      "stateMutability": "view",
      "type": "function",
      "constant": true
    },
    {
      "inputs": [],
      "name": "name",
      "outputs": [
        {
          "internalType": "string",
          "name": "",
          "type": "string"
        }
      ],
      "stateMutability": "view",
      "type": "function",
      "constant": true
    },
    {
      "inputs": [],
      "name": "owner",
      "outputs": [
        {
          "internalType": "address",
          "name": "",
          "type": "address"
        }
      ],
      "stateMutability": "view",
      "type": "function",
      "constant": true
    },
    {
      "inputs": [
        {
          "internalType": "uint256",
          "name": "tokenId",
          "type": "uint256"
        }
      ],
      "name": "ownerOf",
      "outputs": [
        {
          "internalType": "address",
          "name": "",
          "type": "address"
        }
      ],
      "stateMutability": "view",
      "type": "function",
      "constant": true
    },
    {
      "inputs": [],
      "name": "renounceOwnership",
      "outputs": [],
      "stateMutability": "nonpayable",
      "type": "function"
    },
    {
      "inputs": [
        {
          "internalType": "address",
          "name": "from",
          "type": "address"
        },
        {
          "internalType": "address",
          "name": "to",
          "type": "address"
        },
        {
          "internalType": "uint256",
          "name": "tokenId",
          "type": "uint256"
        }
      ],
      "name": "safeTransferFrom",
      "outputs": [],
      "stateMutability": "nonpayable",
      "type": "function"
    },
    {
      "inputs": [
        {
          "internalType": "address",
          "name": "from",
          "type": "address"
        },
        {
          "internalType": "address",
          "name": "to",
          "type": "address"
        },
        {
          "internalType": "uint256",
          "name": "tokenId",
          "type": "uint256"
        },
        {
          "internalType": "bytes",
          "name": "_data",
          "type": "bytes"
        }
      ],
      "name": "safeTransferFrom",
      "outputs": [],
      "stateMutability": "nonpayable",
      "type": "function"
    },
    {
      "inputs": [
        {
          "internalType": "address",
          "name": "operator",
          "type": "address"
        },
        {
          "internalType": "bool",
          "name": "approved",
          "type": "bool"
        }
      ],
      "name": "setApprovalForAll",
      "outputs": [],
      "stateMutability": "nonpayable",
      "type": "function"
    },
    {
      "inputs": [
        {
          "internalType": "bytes4",
          "name": "interfaceId",
          "type": "bytes4"
        }
      ],
      "name": "supportsInterface",
      "outputs": [
        {
          "internalType": "bool",
          "name": "",
          "type": "bool"
        }
      ],
      "stateMutability": "view",
      "type": "function",
      "constant": true
    },
    {
      "inputs": [],
      "name": "symbol",
      "outputs": [
        {
          "internalType": "string",
          "name": "",
          "type": "string"
        }
      ],
      "stateMutability": "view",
      "type": "function",
      "constant": true
    },
    {
      "inputs": [
        {
          "internalType": "uint256",
          "name": "index",
          "type": "uint256"
        }
      ],
      "name": "tokenByIndex",
      "outputs": [
        {
          "internalType": "uint256",
          "name": "",
          "type": "uint256"
        }
      ],
      "stateMutability": "view",
      "type": "function",
      "constant": true
    },
    {
      "inputs": [
        {
          "internalType": "address",
          "name": "owner",
          "type": "address"
        },
        {
          "internalType": "uint256",
          "name": "index",
          "type": "uint256"
        }
      ],
      "name": "tokenOfOwnerByIndex",
      "outputs": [
        {
          "internalType": "uint256",
          "name": "",
          "type": "uint256"
        }
      ],
      "stateMutability": "view",
      "type": "function",
      "constant": true
    },
    {
      "inputs": [],
      "name": "totalSupply",
      "outputs": [
        {
          "internalType": "uint256",
          "name": "",
          "type": "uint256"
        }
      ],
      "stateMutability": "view",
      "type": "function",
      "constant": true
    },
    {
      "inputs": [
        {
          "internalType": "address",
          "name": "newOwner",
          "type": "address"
        }
      ],
      "name": "transferOwnership",
      "outputs": [],
      "stateMutability": "nonpayable",
      "type": "function"
    },
    {
      "inputs": [
        {
          "internalType": "string",
          "name": "_newBaseURI",
          "type": "string"
        }
      ],
      "name": "setBaseURI",
      "outputs": [],
      "stateMutability": "nonpayable",
      "type": "function"
    },
    {
      "inputs": [
        {
          "internalType": "string",
          "name": "_newBaseExtension",
          "type": "string"
        }
      ],
      "name": "setBaseExtension",
      "outputs": [],
      "stateMutability": "nonpayable",
      "type": "function"
    },
    {
      "inputs": [
        {
          "internalType": "uint256",
          "name": "_price",
          "type": "uint256"
        }
      ],
      "name": "safeMint",
      "outputs": [],
      "stateMutability": "nonpayable",
      "type": "function"
    },
    {
      "inputs": [
        {
          "internalType": "uint256",
          "name": "tokenId",
          "type": "uint256"
        }
      ],
      "name": "tokenURI",
      "outputs": [
        {
          "internalType": "string",
          "name": "",
          "type": "string"
        }
      ],
      "stateMutability": "view",
      "type": "function",
      "constant": true
    },
    {
      "inputs": [
        {
          "internalType": "uint256",
          "name": "_id",
          "type": "uint256"
        },
        {
          "internalType": "uint256",
          "name": "_price",
          "type": "uint256"
        }
      ],
      "name": "addToMarketPlace",
      "outputs": [],
      "stateMutability": "nonpayable",
      "type": "function"
    },
    {
      "inputs": [
        {
          "internalType": "uint256",
          "name": "_tokenId",
          "type": "uint256"
        }
      ],
      "name": "getCriollo",
      "outputs": [
        {
          "internalType": "uint256",
          "name": "tokenId",
          "type": "uint256"
        },
        {
          "internalType": "uint256",
          "name": "price",
          "type": "uint256"
        },
        {
          "internalType": "uint256",
          "name": "state",
          "type": "uint256"
        }
      ],
      "stateMutability": "view",
      "type": "function",
      "constant": true
    },
    {
      "inputs": [
        {
          "internalType": "uint256",
          "name": "_id",
          "type": "uint256"
        }
      ],
      "name": "buy",
      "outputs": [],
      "stateMutability": "payable",
      "type": "function",
      "payable": true
    },
    {
      "inputs": [
        {
          "internalType": "uint256",
          "name": "_id",
          "type": "uint256"
        }
      ],
      "name": "shipped",
      "outputs": [],
      "stateMutability": "nonpayable",
      "type": "function"
    },
    {
      "inputs": [
        {
          "internalType": "uint256",
          "name": "_id",
          "type": "uint256"
        }
      ],
      "name": "unlockToken",
      "outputs": [],
      "stateMutability": "nonpayable",
      "type": "function"
    },
    {
      "inputs": [],
      "name": "withdraw",
      "outputs": [],
      "stateMutability": "payable",
      "type": "function",
      "payable": true
    },
    {
      "inputs": [
        {
          "internalType": "address",
          "name": "from",
          "type": "address"
        },
        {
          "internalType": "address",
          "name": "to",
          "type": "address"
        },
        {
          "internalType": "uint256",
          "name": "tokenId",
          "type": "uint256"
        }
      ],
      "name": "transferFrom",
      "outputs": [],
      "stateMutability": "nonpayable",
      "type": "function"
    }
  ],
  "bytecode": "0x60806040526040518060400160405280600581526020017f2e6a736f6e000000000000000000000000000000000000000000000000000000815250600c90805190602001906200005192919062000298565b503480156200005f57600080fd5b5060405162005a1938038062005a198339818101604052810190620000859190620003ba565b828281600090805190602001906200009f92919062000298565b508060019080519060200190620000b892919062000298565b505050620000db620000cf620000f560201b60201c565b620000fd60201b60201c565b620000ec81620001c360201b60201c565b5050506200064e565b600033905090565b6000600a60009054906101000a900473ffffffffffffffffffffffffffffffffffffffff16905081600a60006101000a81548173ffffffffffffffffffffffffffffffffffffffff021916908373ffffffffffffffffffffffffffffffffffffffff1602179055508173ffffffffffffffffffffffffffffffffffffffff168173ffffffffffffffffffffffffffffffffffffffff167f8be0079c531659141344cd1fd0a4f28419497f9722a3daafe3b4186f6b6457e060405160405180910390a35050565b620001d3620000f560201b60201c565b73ffffffffffffffffffffffffffffffffffffffff16620001f96200026e60201b60201c565b73ffffffffffffffffffffffffffffffffffffffff161462000252576040517f08c379a0000000000000000000000000000000000000000000000000000000008152600401620002499062000482565b60405180910390fd5b80600b90805190602001906200026a92919062000298565b5050565b6000600a60009054906101000a900473ffffffffffffffffffffffffffffffffffffffff16905090565b828054620002a6906200054a565b90600052602060002090601f016020900481019282620002ca576000855562000316565b82601f10620002e557805160ff191683800117855562000316565b8280016001018555821562000316579182015b8281111562000315578251825591602001919060010190620002f8565b5b50905062000325919062000329565b5090565b5b80821115620003445760008160009055506001016200032a565b5090565b60006200035f6200035984620004cd565b620004a4565b9050828152602081018484840111156200037857600080fd5b6200038584828562000514565b509392505050565b600082601f8301126200039f57600080fd5b8151620003b184826020860162000348565b91505092915050565b600080600060608486031215620003d057600080fd5b600084015167ffffffffffffffff811115620003eb57600080fd5b620003f9868287016200038d565b935050602084015167ffffffffffffffff8111156200041757600080fd5b62000425868287016200038d565b925050604084015167ffffffffffffffff8111156200044357600080fd5b62000451868287016200038d565b9150509250925092565b60006200046a60208362000503565b9150620004778262000625565b602082019050919050565b600060208201905081810360008301526200049d816200045b565b9050919050565b6000620004b0620004c3565b9050620004be828262000580565b919050565b6000604051905090565b600067ffffffffffffffff821115620004eb57620004ea620005e5565b5b620004f68262000614565b9050602081019050919050565b600082825260208201905092915050565b60005b838110156200053457808201518184015260208101905062000517565b8381111562000544576000848401525b50505050565b600060028204905060018216806200056357607f821691505b602082108114156200057a5762000579620005b6565b5b50919050565b6200058b8262000614565b810181811067ffffffffffffffff82111715620005ad57620005ac620005e5565b5b80604052505050565b7f4e487b7100000000000000000000000000000000000000000000000000000000600052602260045260246000fd5b7f4e487b7100000000000000000000000000000000000000000000000000000000600052604160045260246000fd5b6000601f19601f8301169050919050565b7f4f776e61626c653a2063616c6c6572206973206e6f7420746865206f776e6572600082015250565b6153bb806200065e6000396000f3fe6080604052600436106101cd5760003560e01c806370a08231116100f7578063b88d4fde11610095578063da3ef23f11610064578063da3ef23f1461066c578063dd2e0ac014610695578063e985e9c5146106be578063f2fde38b146106fb576101cd565b8063b88d4fde146105bf578063c6682862146105e8578063c87b56dd14610613578063d96a094a14610650576101cd565b80638da5cb5b116100d15780638da5cb5b1461051757806395d89b4114610542578063a22cb4651461056d578063ae3fc70214610596576101cd565b806370a082311461049a578063715018a6146104d75780637a86196f146104ee576101cd565b806331c864e81161016f57806355f804b31161013e57806355f804b3146103ca5780636352211e146103f35780636c0360eb146104305780636df437541461045b576101cd565b806331c864e8146103315780633ccfd60b1461035a57806342842e0e146103645780634f6ccce71461038d576101cd565b8063095ea7b3116101ab578063095ea7b31461027757806318160ddd146102a057806323b872dd146102cb5780632f745c59146102f4576101cd565b806301ffc9a7146101d257806306fdde031461020f578063081812fc1461023a575b600080fd5b3480156101de57600080fd5b506101f960048036038101906101f49190613b52565b610724565b6040516102069190614297565b60405180910390f35b34801561021b57600080fd5b5061022461079e565b60405161023191906142b2565b60405180910390f35b34801561024657600080fd5b50610261600480360381019061025c9190613be5565b610830565b60405161026e91906141f9565b60405180910390f35b34801561028357600080fd5b5061029e60048036038101906102999190613b16565b6108b5565b005b3480156102ac57600080fd5b506102b56109cd565b6040516102c29190614674565b60405180910390f35b3480156102d757600080fd5b506102f260048036038101906102ed9190613a10565b6109da565b005b34801561030057600080fd5b5061031b60048036038101906103169190613b16565b610ba3565b6040516103289190614674565b60405180910390f35b34801561033d57600080fd5b5061035860048036038101906103539190613be5565b610c48565b005b610362610e34565b005b34801561037057600080fd5b5061038b60048036038101906103869190613a10565b610f5f565b005b34801561039957600080fd5b506103b460048036038101906103af9190613be5565b610f7f565b6040516103c19190614674565b60405180910390f35b3480156103d657600080fd5b506103f160048036038101906103ec9190613ba4565b611016565b005b3480156103ff57600080fd5b5061041a60048036038101906104159190613be5565b6110ac565b60405161042791906141f9565b60405180910390f35b34801561043c57600080fd5b5061044561115e565b60405161045291906142b2565b60405180910390f35b34801561046757600080fd5b50610482600480360381019061047d9190613be5565b6111ec565b6040516104919392919061468f565b60405180910390f35b3480156104a657600080fd5b506104c160048036038101906104bc91906139ab565b611288565b6040516104ce9190614674565b60405180910390f35b3480156104e357600080fd5b506104ec611340565b005b3480156104fa57600080fd5b5061051560048036038101906105109190613c0e565b6113c8565b005b34801561052357600080fd5b5061052c6115e8565b60405161053991906141f9565b60405180910390f35b34801561054e57600080fd5b50610557611612565b60405161056491906142b2565b60405180910390f35b34801561057957600080fd5b50610594600480360381019061058f9190613ada565b6116a4565b005b3480156105a257600080fd5b506105bd60048036038101906105b89190613be5565b611825565b005b3480156105cb57600080fd5b506105e660048036038101906105e19190613a5f565b611a29565b005b3480156105f457600080fd5b506105fd611a8b565b60405161060a91906142b2565b60405180910390f35b34801561061f57600080fd5b5061063a60048036038101906106359190613be5565b611b19565b60405161064791906142b2565b60405180910390f35b61066a60048036038101906106659190613be5565b611bc3565b005b34801561067857600080fd5b50610693600480360381019061068e9190613ba4565b612014565b005b3480156106a157600080fd5b506106bc60048036038101906106b79190613be5565b6120aa565b005b3480156106ca57600080fd5b506106e560048036038101906106e091906139d4565b612260565b6040516106f29190614297565b60405180910390f35b34801561070757600080fd5b50610722600480360381019061071d91906139ab565b6122f4565b005b60007f780e9d63000000000000000000000000000000000000000000000000000000007bffffffffffffffffffffffffffffffffffffffffffffffffffffffff1916827bffffffffffffffffffffffffffffffffffffffffffffffffffffffff191614806107975750610796826123ec565b5b9050919050565b6060600080546107ad90614921565b80601f01602080910402602001604051908101604052809291908181526020018280546107d990614921565b80156108265780601f106107fb57610100808354040283529160200191610826565b820191906000526020600020905b81548152906001019060200180831161080957829003601f168201915b5050505050905090565b600061083b826124ce565b61087a576040517f08c379a000000000000000000000000000000000000000000000000000000000815260040161087190614534565b60405180910390fd5b6004600083815260200190815260200160002060009054906101000a900473ffffffffffffffffffffffffffffffffffffffff169050919050565b60006108c0826110ac565b90508073ffffffffffffffffffffffffffffffffffffffff168373ffffffffffffffffffffffffffffffffffffffff161415610931576040517f08c379a0000000000000000000000000000000000000000000000000000000008152600401610928906145d4565b60405180910390fd5b8073ffffffffffffffffffffffffffffffffffffffff1661095061253a565b73ffffffffffffffffffffffffffffffffffffffff16148061097f575061097e8161097961253a565b612260565b5b6109be576040517f08c379a00000000000000000000000000000000000000000000000000000000081526004016109b5906144b4565b60405180910390fd5b6109c88383612542565b505050565b6000600880549050905090565b600480811115610a13577f4e487b7100000000000000000000000000000000000000000000000000000000600052602160045260246000fd5b600e600083815260200190815260200160002060020160009054906101000a900460ff166004811115610a6f577f4e487b7100000000000000000000000000000000000000000000000000000000600052602160045260246000fd5b1480610b545750610a7e6115e8565b73ffffffffffffffffffffffffffffffffffffffff16610a9d826110ac565b73ffffffffffffffffffffffffffffffffffffffff16148015610b53575060016004811115610af5577f4e487b7100000000000000000000000000000000000000000000000000000000600052602160045260246000fd5b600e600083815260200190815260200160002060020160009054906101000a900460ff166004811115610b51577f4e487b7100000000000000000000000000000000000000000000000000000000600052602160045260246000fd5b145b5b610b93576040517f08c379a0000000000000000000000000000000000000000000000000000000008152600401610b8a906143b4565b60405180910390fd5b610b9e8383836125fb565b505050565b6000610bae83611288565b8210610bef576040517f08c379a0000000000000000000000000000000000000000000000000000000008152600401610be6906142d4565b60405180910390fd5b600660008473ffffffffffffffffffffffffffffffffffffffff1673ffffffffffffffffffffffffffffffffffffffff168152602001908152602001600020600083815260200190815260200160002054905092915050565b610c5061253a565b73ffffffffffffffffffffffffffffffffffffffff16610c6e6115e8565b73ffffffffffffffffffffffffffffffffffffffff1614610cc4576040517f08c379a0000000000000000000000000000000000000000000000000000000008152600401610cbb90614554565b60405180910390fd5b6000610cd0600d61265b565b9050604051806060016040528082815260200183815260200160006004811115610d23577f4e487b7100000000000000000000000000000000000000000000000000000000600052602160045260246000fd5b815250600e6000838152602001908152602001600020600082015181600001556020820151816001015560408201518160020160006101000a81548160ff02191690836004811115610d9e577f4e487b7100000000000000000000000000000000000000000000000000000000600052602160045260246000fd5b0217905550905050610db03382612669565b3373ffffffffffffffffffffffffffffffffffffffff16610dd0826110ac565b73ffffffffffffffffffffffffffffffffffffffff1614610e26576040517f08c379a0000000000000000000000000000000000000000000000000000000008152600401610e1d90614654565b60405180910390fd5b610e30600d612687565b5050565b610e3c61253a565b73ffffffffffffffffffffffffffffffffffffffff16610e5a6115e8565b73ffffffffffffffffffffffffffffffffffffffff1614610eb0576040517f08c379a0000000000000000000000000000000000000000000000000000000008152600401610ea790614554565b60405180910390fd5b60003373ffffffffffffffffffffffffffffffffffffffff1647604051610ed6906141e4565b60006040518083038185875af1925050503d8060008114610f13576040519150601f19603f3d011682016040523d82523d6000602084013e610f18565b606091505b5050905080610f5c576040517f08c379a0000000000000000000000000000000000000000000000000000000008152600401610f5390614574565b60405180910390fd5b50565b610f7a83838360405180602001604052806000815250611a29565b505050565b6000610f896109cd565b8210610fca576040517f08c379a0000000000000000000000000000000000000000000000000000000008152600401610fc190614634565b60405180910390fd5b60088281548110611004577f4e487b7100000000000000000000000000000000000000000000000000000000600052603260045260246000fd5b90600052602060002001549050919050565b61101e61253a565b73ffffffffffffffffffffffffffffffffffffffff1661103c6115e8565b73ffffffffffffffffffffffffffffffffffffffff1614611092576040517f08c379a000000000000000000000000000000000000000000000000000000000815260040161108990614554565b60405180910390fd5b80600b90805190602001906110a89291906137cf565b5050565b6000806002600084815260200190815260200160002060009054906101000a900473ffffffffffffffffffffffffffffffffffffffff169050600073ffffffffffffffffffffffffffffffffffffffff168173ffffffffffffffffffffffffffffffffffffffff161415611155576040517f08c379a000000000000000000000000000000000000000000000000000000000815260040161114c906144f4565b60405180910390fd5b80915050919050565b600b805461116b90614921565b80601f016020809104026020016040519081016040528092919081815260200182805461119790614921565b80156111e45780601f106111b9576101008083540402835291602001916111e4565b820191906000526020600020905b8154815290600101906020018083116111c757829003601f168201915b505050505081565b6000806000600e6000858152602001908152602001600020600001549250600e6000858152602001908152602001600020600101549150600e600085815260200190815260200160002060020160009054906101000a900460ff16600481111561127f577f4e487b7100000000000000000000000000000000000000000000000000000000600052602160045260246000fd5b90509193909250565b60008073ffffffffffffffffffffffffffffffffffffffff168273ffffffffffffffffffffffffffffffffffffffff1614156112f9576040517f08c379a00000000000000000000000000000000000000000000000000000000081526004016112f0906144d4565b60405180910390fd5b600360008373ffffffffffffffffffffffffffffffffffffffff1673ffffffffffffffffffffffffffffffffffffffff168152602001908152602001600020549050919050565b61134861253a565b73ffffffffffffffffffffffffffffffffffffffff166113666115e8565b73ffffffffffffffffffffffffffffffffffffffff16146113bc576040517f08c379a00000000000000000000000000000000000000000000000000000000081526004016113b390614554565b60405180910390fd5b6113c6600061269d565b565b8160006004811115611403577f4e487b7100000000000000000000000000000000000000000000000000000000600052602160045260246000fd5b600e600083815260200190815260200160002060020160009054906101000a900460ff16600481111561145f577f4e487b7100000000000000000000000000000000000000000000000000000000600052602160045260246000fd5b1461149f576040517f08c379a000000000000000000000000000000000000000000000000000000000815260040161149690614454565b60405180910390fd5b6114a761253a565b73ffffffffffffffffffffffffffffffffffffffff166114c56115e8565b73ffffffffffffffffffffffffffffffffffffffff161461151b576040517f08c379a000000000000000000000000000000000000000000000000000000000815260040161151290614554565b60405180910390fd5b611524836124ce565b611563576040517f08c379a000000000000000000000000000000000000000000000000000000000815260040161155a90614494565b60405180910390fd5b6001600e600085815260200190815260200160002060020160006101000a81548160ff021916908360048111156115c3577f4e487b7100000000000000000000000000000000000000000000000000000000600052602160045260246000fd5b021790555081600e600085815260200190815260200160002060010181905550505050565b6000600a60009054906101000a900473ffffffffffffffffffffffffffffffffffffffff16905090565b60606001805461162190614921565b80601f016020809104026020016040519081016040528092919081815260200182805461164d90614921565b801561169a5780601f1061166f5761010080835404028352916020019161169a565b820191906000526020600020905b81548152906001019060200180831161167d57829003601f168201915b5050505050905090565b6116ac61253a565b73ffffffffffffffffffffffffffffffffffffffff168273ffffffffffffffffffffffffffffffffffffffff16141561171a576040517f08c379a0000000000000000000000000000000000000000000000000000000008152600401611711906143f4565b60405180910390fd5b806005600061172761253a565b73ffffffffffffffffffffffffffffffffffffffff1673ffffffffffffffffffffffffffffffffffffffff16815260200190815260200160002060008473ffffffffffffffffffffffffffffffffffffffff1673ffffffffffffffffffffffffffffffffffffffff16815260200190815260200160002060006101000a81548160ff0219169083151502179055508173ffffffffffffffffffffffffffffffffffffffff166117d461253a565b73ffffffffffffffffffffffffffffffffffffffff167f17307eab39ab6107e8899845ad3d59bd9653f200f220920489ca2b5937696c31836040516118199190614297565b60405180910390a35050565b61182d61253a565b73ffffffffffffffffffffffffffffffffffffffff1661184b6115e8565b73ffffffffffffffffffffffffffffffffffffffff16146118a1576040517f08c379a000000000000000000000000000000000000000000000000000000000815260040161189890614554565b60405180910390fd5b80600260048111156118dc577f4e487b7100000000000000000000000000000000000000000000000000000000600052602160045260246000fd5b600e600083815260200190815260200160002060020160009054906101000a900460ff166004811115611938577f4e487b7100000000000000000000000000000000000000000000000000000000600052602160045260246000fd5b14611978576040517f08c379a000000000000000000000000000000000000000000000000000000000815260040161196f90614374565b60405180910390fd5b611981826124ce565b6119c0576040517f08c379a00000000000000000000000000000000000000000000000000000000081526004016119b790614494565b60405180910390fd5b6003600e600084815260200190815260200160002060020160006101000a81548160ff02191690836004811115611a20577f4e487b7100000000000000000000000000000000000000000000000000000000600052602160045260246000fd5b02179055505050565b611a3a611a3461253a565b83612763565b611a79576040517f08c379a0000000000000000000000000000000000000000000000000000000008152600401611a7090614614565b60405180910390fd5b611a8584848484612841565b50505050565b600c8054611a9890614921565b80601f0160208091040260200160405190810160405280929190818152602001828054611ac490614921565b8015611b115780601f10611ae657610100808354040283529160200191611b11565b820191906000526020600020905b815481529060010190602001808311611af457829003601f168201915b505050505081565b6060611b24826124ce565b611b63576040517f08c379a0000000000000000000000000000000000000000000000000000000008152600401611b5a906145b4565b60405180910390fd5b6000611b6d61289d565b90506000815111611b8d5760405180602001604052806000815250611bbb565b80611b978461292f565b600c604051602001611bab939291906141b3565b6040516020818303038152906040525b915050919050565b8060016004811115611bfe577f4e487b7100000000000000000000000000000000000000000000000000000000600052602160045260246000fd5b600e600083815260200190815260200160002060020160009054906101000a900460ff166004811115611c5a577f4e487b7100000000000000000000000000000000000000000000000000000000600052602160045260246000fd5b1480611cf85750600480811115611c9a577f4e487b7100000000000000000000000000000000000000000000000000000000600052602160045260246000fd5b600e600083815260200190815260200160002060020160009054906101000a900460ff166004811115611cf6577f4e487b7100000000000000000000000000000000000000000000000000000000600052602160045260246000fd5b145b611d37576040517f08c379a0000000000000000000000000000000000000000000000000000000008152600401611d2e90614414565b60405180910390fd5b600e600083815260200190815260200160002060010154803414611d90576040517f08c379a0000000000000000000000000000000000000000000000000000000008152600401611d8790614334565b60405180910390fd5b611d99836124ce565b611dd8576040517f08c379a0000000000000000000000000000000000000000000000000000000008152600401611dcf90614494565b60405180910390fd5b6000611de3846110ac565b9050611df8611df1856110ac565b33866109da565b60016004811115611e32577f4e487b7100000000000000000000000000000000000000000000000000000000600052602160045260246000fd5b600e600086815260200190815260200160002060020160009054906101000a900460ff166004811115611e8e577f4e487b7100000000000000000000000000000000000000000000000000000000600052602160045260246000fd5b1415611efa576002600e600086815260200190815260200160002060020160006101000a81548160ff02191690836004811115611ef4577f4e487b7100000000000000000000000000000000000000000000000000000000600052602160045260246000fd5b02179055505b60008173ffffffffffffffffffffffffffffffffffffffff1634604051611f20906141e4565b60006040518083038185875af1925050503d8060008114611f5d576040519150601f19603f3d011682016040523d82523d6000602084013e611f62565b606091505b5050905080611fa6576040517f08c379a0000000000000000000000000000000000000000000000000000000008152600401611f9d906145f4565b60405180910390fd5b7f12cb4648cf3058b17ceeb33e579f8b0bc269fe0843f3900b8e24b6c54871703c33600e600088815260200190815260200160002060010154600e60008981526020019081526020016000206000015460405161200593929190614260565b60405180910390a15050505050565b61201c61253a565b73ffffffffffffffffffffffffffffffffffffffff1661203a6115e8565b73ffffffffffffffffffffffffffffffffffffffff1614612090576040517f08c379a000000000000000000000000000000000000000000000000000000000815260040161208790614554565b60405180910390fd5b80600c90805190602001906120a69291906137cf565b5050565b80600360048111156120e5577f4e487b7100000000000000000000000000000000000000000000000000000000600052602160045260246000fd5b600e600083815260200190815260200160002060020160009054906101000a900460ff166004811115612141577f4e487b7100000000000000000000000000000000000000000000000000000000600052602160045260246000fd5b14612181576040517f08c379a000000000000000000000000000000000000000000000000000000000815260040161217890614314565b60405180910390fd5b3373ffffffffffffffffffffffffffffffffffffffff166121a1836110ac565b73ffffffffffffffffffffffffffffffffffffffff16146121f7576040517f08c379a00000000000000000000000000000000000000000000000000000000081526004016121ee90614474565b60405180910390fd5b6004600e600084815260200190815260200160002060020160006101000a81548160ff02191690836004811115612257577f4e487b7100000000000000000000000000000000000000000000000000000000600052602160045260246000fd5b02179055505050565b6000600560008473ffffffffffffffffffffffffffffffffffffffff1673ffffffffffffffffffffffffffffffffffffffff16815260200190815260200160002060008373ffffffffffffffffffffffffffffffffffffffff1673ffffffffffffffffffffffffffffffffffffffff16815260200190815260200160002060009054906101000a900460ff16905092915050565b6122fc61253a565b73ffffffffffffffffffffffffffffffffffffffff1661231a6115e8565b73ffffffffffffffffffffffffffffffffffffffff1614612370576040517f08c379a000000000000000000000000000000000000000000000000000000000815260040161236790614554565b60405180910390fd5b600073ffffffffffffffffffffffffffffffffffffffff168173ffffffffffffffffffffffffffffffffffffffff1614156123e0576040517f08c379a00000000000000000000000000000000000000000000000000000000081526004016123d790614354565b60405180910390fd5b6123e98161269d565b50565b60007f80ac58cd000000000000000000000000000000000000000000000000000000007bffffffffffffffffffffffffffffffffffffffffffffffffffffffff1916827bffffffffffffffffffffffffffffffffffffffffffffffffffffffff191614806124b757507f5b5e139f000000000000000000000000000000000000000000000000000000007bffffffffffffffffffffffffffffffffffffffffffffffffffffffff1916827bffffffffffffffffffffffffffffffffffffffffffffffffffffffff1916145b806124c757506124c682612adc565b5b9050919050565b60008073ffffffffffffffffffffffffffffffffffffffff166002600084815260200190815260200160002060009054906101000a900473ffffffffffffffffffffffffffffffffffffffff1673ffffffffffffffffffffffffffffffffffffffff1614159050919050565b600033905090565b816004600083815260200190815260200160002060006101000a81548173ffffffffffffffffffffffffffffffffffffffff021916908373ffffffffffffffffffffffffffffffffffffffff160217905550808273ffffffffffffffffffffffffffffffffffffffff166125b5836110ac565b73ffffffffffffffffffffffffffffffffffffffff167f8c5be1e5ebec7d5bd14f71427d1e84f3dd0314c0f7b2291e5b200ac8c7c3b92560405160405180910390a45050565b61260c61260661253a565b82612763565b61264b576040517f08c379a000000000000000000000000000000000000000000000000000000000815260040161264290614614565b60405180910390fd5b612656838383612b46565b505050565b600081600001549050919050565b612683828260405180602001604052806000815250612d0f565b5050565b6001816000016000828254019250508190555050565b6000600a60009054906101000a900473ffffffffffffffffffffffffffffffffffffffff16905081600a60006101000a81548173ffffffffffffffffffffffffffffffffffffffff021916908373ffffffffffffffffffffffffffffffffffffffff1602179055508173ffffffffffffffffffffffffffffffffffffffff168173ffffffffffffffffffffffffffffffffffffffff167f8be0079c531659141344cd1fd0a4f28419497f9722a3daafe3b4186f6b6457e060405160405180910390a35050565b600061276e826124ce565b6127ad576040517f08c379a00000000000000000000000000000000000000000000000000000000081526004016127a490614434565b60405180910390fd5b60006127b8836110ac565b90508073ffffffffffffffffffffffffffffffffffffffff168473ffffffffffffffffffffffffffffffffffffffff16148061282757508373ffffffffffffffffffffffffffffffffffffffff1661280f84610830565b73ffffffffffffffffffffffffffffffffffffffff16145b8061283857506128378185612260565b5b91505092915050565b61284c848484612b46565b61285884848484612d6a565b612897576040517f08c379a000000000000000000000000000000000000000000000000000000000815260040161288e906142f4565b60405180910390fd5b50505050565b6060600b80546128ac90614921565b80601f01602080910402602001604051908101604052809291908181526020018280546128d890614921565b80156129255780601f106128fa57610100808354040283529160200191612925565b820191906000526020600020905b81548152906001019060200180831161290857829003601f168201915b5050505050905090565b60606000821415612977576040518060400160405280600181526020017f30000000000000000000000000000000000000000000000000000000000000008152509050612ad7565b600082905060005b600082146129a957808061299290614984565b915050600a826129a29190614806565b915061297f565b60008167ffffffffffffffff8111156129eb577f4e487b7100000000000000000000000000000000000000000000000000000000600052604160045260246000fd5b6040519080825280601f01601f191660200182016040528015612a1d5781602001600182028036833780820191505090505b5090505b60008514612ad057600182612a369190614837565b9150600a85612a4591906149cd565b6030612a5191906147b0565b60f81b818381518110612a8d577f4e487b7100000000000000000000000000000000000000000000000000000000600052603260045260246000fd5b60200101907effffffffffffffffffffffffffffffffffffffffffffffffffffffffffffff1916908160001a905350600a85612ac99190614806565b9450612a21565b8093505050505b919050565b60007f01ffc9a7000000000000000000000000000000000000000000000000000000007bffffffffffffffffffffffffffffffffffffffffffffffffffffffff1916827bffffffffffffffffffffffffffffffffffffffffffffffffffffffff1916149050919050565b600480811115612b7f577f4e487b7100000000000000000000000000000000000000000000000000000000600052602160045260246000fd5b600e600083815260200190815260200160002060020160009054906101000a900460ff166004811115612bdb577f4e487b7100000000000000000000000000000000000000000000000000000000600052602160045260246000fd5b1480612cc05750612bea6115e8565b73ffffffffffffffffffffffffffffffffffffffff16612c09826110ac565b73ffffffffffffffffffffffffffffffffffffffff16148015612cbf575060016004811115612c61577f4e487b7100000000000000000000000000000000000000000000000000000000600052602160045260246000fd5b600e600083815260200190815260200160002060020160009054906101000a900460ff166004811115612cbd577f4e487b7100000000000000000000000000000000000000000000000000000000600052602160045260246000fd5b145b5b612cff576040517f08c379a0000000000000000000000000000000000000000000000000000000008152600401612cf6906143b4565b60405180910390fd5b612d0a838383612f01565b505050565b612d19838361315d565b612d266000848484612d6a565b612d65576040517f08c379a0000000000000000000000000000000000000000000000000000000008152600401612d5c906142f4565b60405180910390fd5b505050565b6000612d8b8473ffffffffffffffffffffffffffffffffffffffff1661332b565b15612ef4578373ffffffffffffffffffffffffffffffffffffffff1663150b7a02612db461253a565b8786866040518563ffffffff1660e01b8152600401612dd69493929190614214565b602060405180830381600087803b158015612df057600080fd5b505af1925050508015612e2157506040513d601f19601f82011682018060405250810190612e1e9190613b7b565b60015b612ea4573d8060008114612e51576040519150601f19603f3d011682016040523d82523d6000602084013e612e56565b606091505b50600081511415612e9c576040517f08c379a0000000000000000000000000000000000000000000000000000000008152600401612e93906142f4565b60405180910390fd5b805181602001fd5b63150b7a0260e01b7bffffffffffffffffffffffffffffffffffffffffffffffffffffffff1916817bffffffffffffffffffffffffffffffffffffffffffffffffffffffff191614915050612ef9565b600190505b949350505050565b8273ffffffffffffffffffffffffffffffffffffffff16612f21826110ac565b73ffffffffffffffffffffffffffffffffffffffff1614612f77576040517f08c379a0000000000000000000000000000000000000000000000000000000008152600401612f6e90614594565b60405180910390fd5b600073ffffffffffffffffffffffffffffffffffffffff168273ffffffffffffffffffffffffffffffffffffffff161415612fe7576040517f08c379a0000000000000000000000000000000000000000000000000000000008152600401612fde906143d4565b60405180910390fd5b612ff283838361333e565b612ffd600082612542565b6001600360008573ffffffffffffffffffffffffffffffffffffffff1673ffffffffffffffffffffffffffffffffffffffff168152602001908152602001600020600082825461304d9190614837565b925050819055506001600360008473ffffffffffffffffffffffffffffffffffffffff1673ffffffffffffffffffffffffffffffffffffffff16815260200190815260200160002060008282546130a491906147b0565b92505081905550816002600083815260200190815260200160002060006101000a81548173ffffffffffffffffffffffffffffffffffffffff021916908373ffffffffffffffffffffffffffffffffffffffff160217905550808273ffffffffffffffffffffffffffffffffffffffff168473ffffffffffffffffffffffffffffffffffffffff167fddf252ad1be2c89b69c2b068fc378daa952ba7f163c4a11628f55a4df523b3ef60405160405180910390a4505050565b600073ffffffffffffffffffffffffffffffffffffffff168273ffffffffffffffffffffffffffffffffffffffff1614156131cd576040517f08c379a00000000000000000000000000000000000000000000000000000000081526004016131c490614514565b60405180910390fd5b6131d6816124ce565b15613216576040517f08c379a000000000000000000000000000000000000000000000000000000000815260040161320d90614394565b60405180910390fd5b6132226000838361333e565b6001600360008473ffffffffffffffffffffffffffffffffffffffff1673ffffffffffffffffffffffffffffffffffffffff168152602001908152602001600020600082825461327291906147b0565b92505081905550816002600083815260200190815260200160002060006101000a81548173ffffffffffffffffffffffffffffffffffffffff021916908373ffffffffffffffffffffffffffffffffffffffff160217905550808273ffffffffffffffffffffffffffffffffffffffff16600073ffffffffffffffffffffffffffffffffffffffff167fddf252ad1be2c89b69c2b068fc378daa952ba7f163c4a11628f55a4df523b3ef60405160405180910390a45050565b600080823b905060008111915050919050565b613349838383613452565b600073ffffffffffffffffffffffffffffffffffffffff168373ffffffffffffffffffffffffffffffffffffffff16141561338c5761338781613457565b6133cb565b8173ffffffffffffffffffffffffffffffffffffffff168373ffffffffffffffffffffffffffffffffffffffff16146133ca576133c983826134a0565b5b5b600073ffffffffffffffffffffffffffffffffffffffff168273ffffffffffffffffffffffffffffffffffffffff16141561340e576134098161360d565b61344d565b8273ffffffffffffffffffffffffffffffffffffffff168273ffffffffffffffffffffffffffffffffffffffff161461344c5761344b8282613750565b5b5b505050565b505050565b6008805490506009600083815260200190815260200160002081905550600881908060018154018082558091505060019003906000526020600020016000909190919091505550565b600060016134ad84611288565b6134b79190614837565b905060006007600084815260200190815260200160002054905081811461359c576000600660008673ffffffffffffffffffffffffffffffffffffffff1673ffffffffffffffffffffffffffffffffffffffff168152602001908152602001600020600084815260200190815260200160002054905080600660008773ffffffffffffffffffffffffffffffffffffffff1673ffffffffffffffffffffffffffffffffffffffff168152602001908152602001600020600084815260200190815260200160002081905550816007600083815260200190815260200160002081905550505b6007600084815260200190815260200160002060009055600660008573ffffffffffffffffffffffffffffffffffffffff1673ffffffffffffffffffffffffffffffffffffffff16815260200190815260200160002060008381526020019081526020016000206000905550505050565b600060016008805490506136219190614837565b9050600060096000848152602001908152602001600020549050600060088381548110613677577f4e487b7100000000000000000000000000000000000000000000000000000000600052603260045260246000fd5b9060005260206000200154905080600883815481106136bf577f4e487b7100000000000000000000000000000000000000000000000000000000600052603260045260246000fd5b906000526020600020018190555081600960008381526020019081526020016000208190555060096000858152602001908152602001600020600090556008805480613734577f4e487b7100000000000000000000000000000000000000000000000000000000600052603160045260246000fd5b6001900381819060005260206000200160009055905550505050565b600061375b83611288565b905081600660008573ffffffffffffffffffffffffffffffffffffffff1673ffffffffffffffffffffffffffffffffffffffff168152602001908152602001600020600083815260200190815260200160002081905550806007600084815260200190815260200160002081905550505050565b8280546137db90614921565b90600052602060002090601f0160209004810192826137fd5760008555613844565b82601f1061381657805160ff1916838001178555613844565b82800160010185558215613844579182015b82811115613843578251825591602001919060010190613828565b5b5090506138519190613855565b5090565b5b8082111561386e576000816000905550600101613856565b5090565b6000613885613880846146eb565b6146c6565b90508281526020810184848401111561389d57600080fd5b6138a88482856148df565b509392505050565b60006138c36138be8461471c565b6146c6565b9050828152602081018484840111156138db57600080fd5b6138e68482856148df565b509392505050565b6000813590506138fd81615329565b92915050565b60008135905061391281615340565b92915050565b60008135905061392781615357565b92915050565b60008151905061393c81615357565b92915050565b600082601f83011261395357600080fd5b8135613963848260208601613872565b91505092915050565b600082601f83011261397d57600080fd5b813561398d8482602086016138b0565b91505092915050565b6000813590506139a58161536e565b92915050565b6000602082840312156139bd57600080fd5b60006139cb848285016138ee565b91505092915050565b600080604083850312156139e757600080fd5b60006139f5858286016138ee565b9250506020613a06858286016138ee565b9150509250929050565b600080600060608486031215613a2557600080fd5b6000613a33868287016138ee565b9350506020613a44868287016138ee565b9250506040613a5586828701613996565b9150509250925092565b60008060008060808587031215613a7557600080fd5b6000613a83878288016138ee565b9450506020613a94878288016138ee565b9350506040613aa587828801613996565b925050606085013567ffffffffffffffff811115613ac257600080fd5b613ace87828801613942565b91505092959194509250565b60008060408385031215613aed57600080fd5b6000613afb858286016138ee565b9250506020613b0c85828601613903565b9150509250929050565b60008060408385031215613b2957600080fd5b6000613b37858286016138ee565b9250506020613b4885828601613996565b9150509250929050565b600060208284031215613b6457600080fd5b6000613b7284828501613918565b91505092915050565b600060208284031215613b8d57600080fd5b6000613b9b8482850161392d565b91505092915050565b600060208284031215613bb657600080fd5b600082013567ffffffffffffffff811115613bd057600080fd5b613bdc8482850161396c565b91505092915050565b600060208284031215613bf757600080fd5b6000613c0584828501613996565b91505092915050565b60008060408385031215613c2157600080fd5b6000613c2f85828601613996565b9250506020613c4085828601613996565b9150509250929050565b613c538161486b565b82525050565b613c628161487d565b82525050565b6000613c7382614762565b613c7d8185614778565b9350613c8d8185602086016148ee565b613c9681614aba565b840191505092915050565b6000613cac8261476d565b613cb68185614794565b9350613cc68185602086016148ee565b613ccf81614aba565b840191505092915050565b6000613ce58261476d565b613cef81856147a5565b9350613cff8185602086016148ee565b80840191505092915050565b60008154613d1881614921565b613d2281866147a5565b94506001821660008114613d3d5760018114613d4e57613d81565b60ff19831686528186019350613d81565b613d578561474d565b60005b83811015613d7957815481890152600182019150602081019050613d5a565b838801955050505b50505092915050565b6000613d97602b83614794565b9150613da282614acb565b604082019050919050565b6000613dba603283614794565b9150613dc582614b1a565b604082019050919050565b6000613ddd603583614794565b9150613de882614b69565b604082019050919050565b6000613e00603583614794565b9150613e0b82614bb8565b604082019050919050565b6000613e23602683614794565b9150613e2e82614c07565b604082019050919050565b6000613e46603483614794565b9150613e5182614c56565b604082019050919050565b6000613e69601c83614794565b9150613e7482614ca5565b602082019050919050565b6000613e8c604583614794565b9150613e9782614cce565b606082019050919050565b6000613eaf602483614794565b9150613eba82614d43565b604082019050919050565b6000613ed2601983614794565b9150613edd82614d92565b602082019050919050565b6000613ef5602f83614794565b9150613f0082614dbb565b604082019050919050565b6000613f18602c83614794565b9150613f2382614e0a565b604082019050919050565b6000613f3b603283614794565b9150613f4682614e59565b604082019050919050565b6000613f5e603183614794565b9150613f6982614ea8565b604082019050919050565b6000613f81603783614794565b9150613f8c82614ef7565b604082019050919050565b6000613fa4603883614794565b9150613faf82614f46565b604082019050919050565b6000613fc7602a83614794565b9150613fd282614f95565b604082019050919050565b6000613fea602983614794565b9150613ff582614fe4565b604082019050919050565b600061400d602083614794565b915061401882615033565b602082019050919050565b6000614030602c83614794565b915061403b8261505c565b604082019050919050565b6000614053602083614794565b915061405e826150ab565b602082019050919050565b6000614076602583614794565b9150614081826150d4565b604082019050919050565b6000614099602983614794565b91506140a482615123565b604082019050919050565b60006140bc602f83614794565b91506140c782615172565b604082019050919050565b60006140df602183614794565b91506140ea826151c1565b604082019050919050565b6000614102600083614789565b915061410d82615210565b600082019050919050565b6000614125601083614794565b915061413082615213565b602082019050919050565b6000614148603183614794565b91506141538261523c565b604082019050919050565b600061416b602c83614794565b91506141768261528b565b604082019050919050565b600061418e603683614794565b9150614199826152da565b604082019050919050565b6141ad816148d5565b82525050565b60006141bf8286613cda565b91506141cb8285613cda565b91506141d78284613d0b565b9150819050949350505050565b60006141ef826140f5565b9150819050919050565b600060208201905061420e6000830184613c4a565b92915050565b60006080820190506142296000830187613c4a565b6142366020830186613c4a565b61424360408301856141a4565b81810360608301526142558184613c68565b905095945050505050565b60006060820190506142756000830186613c4a565b61428260208301856141a4565b61428f60408301846141a4565b949350505050565b60006020820190506142ac6000830184613c59565b92915050565b600060208201905081810360008301526142cc8184613ca1565b905092915050565b600060208201905081810360008301526142ed81613d8a565b9050919050565b6000602082019050818103600083015261430d81613dad565b9050919050565b6000602082019050818103600083015261432d81613dd0565b9050919050565b6000602082019050818103600083015261434d81613df3565b9050919050565b6000602082019050818103600083015261436d81613e16565b9050919050565b6000602082019050818103600083015261438d81613e39565b9050919050565b600060208201905081810360008301526143ad81613e5c565b9050919050565b600060208201905081810360008301526143cd81613e7f565b9050919050565b600060208201905081810360008301526143ed81613ea2565b9050919050565b6000602082019050818103600083015261440d81613ec5565b9050919050565b6000602082019050818103600083015261442d81613ee8565b9050919050565b6000602082019050818103600083015261444d81613f0b565b9050919050565b6000602082019050818103600083015261446d81613f2e565b9050919050565b6000602082019050818103600083015261448d81613f51565b9050919050565b600060208201905081810360008301526144ad81613f74565b9050919050565b600060208201905081810360008301526144cd81613f97565b9050919050565b600060208201905081810360008301526144ed81613fba565b9050919050565b6000602082019050818103600083015261450d81613fdd565b9050919050565b6000602082019050818103600083015261452d81614000565b9050919050565b6000602082019050818103600083015261454d81614023565b9050919050565b6000602082019050818103600083015261456d81614046565b9050919050565b6000602082019050818103600083015261458d81614069565b9050919050565b600060208201905081810360008301526145ad8161408c565b9050919050565b600060208201905081810360008301526145cd816140af565b9050919050565b600060208201905081810360008301526145ed816140d2565b9050919050565b6000602082019050818103600083015261460d81614118565b9050919050565b6000602082019050818103600083015261462d8161413b565b9050919050565b6000602082019050818103600083015261464d8161415e565b9050919050565b6000602082019050818103600083015261466d81614181565b9050919050565b600060208201905061468960008301846141a4565b92915050565b60006060820190506146a460008301866141a4565b6146b160208301856141a4565b6146be60408301846141a4565b949350505050565b60006146d06146e1565b90506146dc8282614953565b919050565b6000604051905090565b600067ffffffffffffffff82111561470657614705614a8b565b5b61470f82614aba565b9050602081019050919050565b600067ffffffffffffffff82111561473757614736614a8b565b5b61474082614aba565b9050602081019050919050565b60008190508160005260206000209050919050565b600081519050919050565b600081519050919050565b600082825260208201905092915050565b600081905092915050565b600082825260208201905092915050565b600081905092915050565b60006147bb826148d5565b91506147c6836148d5565b9250827fffffffffffffffffffffffffffffffffffffffffffffffffffffffffffffffff038211156147fb576147fa6149fe565b5b828201905092915050565b6000614811826148d5565b915061481c836148d5565b92508261482c5761482b614a2d565b5b828204905092915050565b6000614842826148d5565b915061484d836148d5565b9250828210156148605761485f6149fe565b5b828203905092915050565b6000614876826148b5565b9050919050565b60008115159050919050565b60007fffffffff0000000000000000000000000000000000000000000000000000000082169050919050565b600073ffffffffffffffffffffffffffffffffffffffff82169050919050565b6000819050919050565b82818337600083830152505050565b60005b8381101561490c5780820151818401526020810190506148f1565b8381111561491b576000848401525b50505050565b6000600282049050600182168061493957607f821691505b6020821081141561494d5761494c614a5c565b5b50919050565b61495c82614aba565b810181811067ffffffffffffffff8211171561497b5761497a614a8b565b5b80604052505050565b600061498f826148d5565b91507fffffffffffffffffffffffffffffffffffffffffffffffffffffffffffffffff8214156149c2576149c16149fe565b5b600182019050919050565b60006149d8826148d5565b91506149e3836148d5565b9250826149f3576149f2614a2d565b5b828206905092915050565b7f4e487b7100000000000000000000000000000000000000000000000000000000600052601160045260246000fd5b7f4e487b7100000000000000000000000000000000000000000000000000000000600052601260045260246000fd5b7f4e487b7100000000000000000000000000000000000000000000000000000000600052602260045260246000fd5b7f4e487b7100000000000000000000000000000000000000000000000000000000600052604160045260246000fd5b6000601f19601f8301169050919050565b7f455243373231456e756d657261626c653a206f776e657220696e646578206f7560008201527f74206f6620626f756e6473000000000000000000000000000000000000000000602082015250565b7f4552433732313a207472616e7366657220746f206e6f6e20455243373231526560008201527f63656976657220696d706c656d656e7465720000000000000000000000000000602082015250565b7f4372696f6c6c6f546f6b656e3a204572726f722c205468697320746f6b656e2060008201527f686173206e6f74206265656e2053686970706564210000000000000000000000602082015250565b7f4372696f6c6c6f546f6b656e3a204572726f722c2053656e642074686520636f60008201527f727265637420616d6f756e74206f662065746865720000000000000000000000602082015250565b7f4f776e61626c653a206e6577206f776e657220697320746865207a65726f206160008201527f6464726573730000000000000000000000000000000000000000000000000000602082015250565b7f4372696f6c6c6f546f6b656e3a204572726f722c205468697320746f6b656e2060008201527f686173206e6f74206265656e204c6f636b656421000000000000000000000000602082015250565b7f4552433732313a20746f6b656e20616c7265616479206d696e74656400000000600082015250565b7f4372696f6c6c6f546f6b656e3a204572726f722c205468697320746f6b656e2060008201527f6973204c6f636b656420616e642063616e206e6f74206265207472616e73666560208201527f7265642021000000000000000000000000000000000000000000000000000000604082015250565b7f4552433732313a207472616e7366657220746f20746865207a65726f2061646460008201527f7265737300000000000000000000000000000000000000000000000000000000602082015250565b7f4552433732313a20617070726f766520746f2063616c6c657200000000000000600082015250565b7f4372696f6c6c6f546f6b656e3a204572726f722c205468697320746f6b656e2060008201527f6973206e6f7420666f722073616c650000000000000000000000000000000000602082015250565b7f4552433732313a206f70657261746f7220717565727920666f72206e6f6e657860008201527f697374656e7420746f6b656e0000000000000000000000000000000000000000602082015250565b7f4372696f6c6c6f546f6b656e3a204572726f722c205468697320746f6b656e2060008201527f63616e206e6f74206265206c6973746564210000000000000000000000000000602082015250565b7f4372696f6c6c6f546f6b656e3a204572726f722c20596f7520617265206e6f7460008201527f2074686520746f6b656e206f776e657221000000000000000000000000000000602082015250565b7f4372696f6c6c6f546f6b656e3a204572726f722c205468697320746f6b656e2060008201527f686173206e6f74206265656e206d696e74656420796574000000000000000000602082015250565b7f4552433732313a20617070726f76652063616c6c6572206973206e6f74206f7760008201527f6e6572206e6f7220617070726f76656420666f7220616c6c0000000000000000602082015250565b7f4552433732313a2062616c616e636520717565727920666f7220746865207a6560008201527f726f206164647265737300000000000000000000000000000000000000000000602082015250565b7f4552433732313a206f776e657220717565727920666f72206e6f6e657869737460008201527f656e7420746f6b656e0000000000000000000000000000000000000000000000602082015250565b7f4552433732313a206d696e7420746f20746865207a65726f2061646472657373600082015250565b7f4552433732313a20617070726f76656420717565727920666f72206e6f6e657860008201527f697374656e7420746f6b656e0000000000000000000000000000000000000000602082015250565b7f4f776e61626c653a2063616c6c6572206973206e6f7420746865206f776e6572600082015250565b7f4372696f6c6c6f546f6b656e3a204572726f722c205472616e7366657220666160008201527f696c65642e000000000000000000000000000000000000000000000000000000602082015250565b7f4552433732313a207472616e73666572206f6620746f6b656e2074686174206960008201527f73206e6f74206f776e0000000000000000000000000000000000000000000000602082015250565b7f4552433732314d657461646174613a2055524920717565727920666f72206e6f60008201527f6e6578697374656e7420746f6b656e0000000000000000000000000000000000602082015250565b7f4552433732313a20617070726f76616c20746f2063757272656e74206f776e6560008201527f7200000000000000000000000000000000000000000000000000000000000000602082015250565b50565b7f5472616e73666572206661696c65642e00000000000000000000000000000000600082015250565b7f4552433732313a207472616e736665722063616c6c6572206973206e6f74206f60008201527f776e6572206e6f7220617070726f766564000000000000000000000000000000602082015250565b7f455243373231456e756d657261626c653a20676c6f62616c20696e646578206f60008201527f7574206f6620626f756e64730000000000000000000000000000000000000000602082015250565b7f4372696f6c6c6f73546f6b656e3a204572726f722c20546f6b656e207761732060008201527f6e6f74206d696e7465642073756363657366756c6c7900000000000000000000602082015250565b6153328161486b565b811461533d57600080fd5b50565b6153498161487d565b811461535457600080fd5b50565b61536081614889565b811461536b57600080fd5b50565b615377816148d5565b811461538257600080fd5b5056fea2646970667358221220fe678e812423ae83f5f6f95460edaa9fefe969ab5b02d97433e6ca62c695a30564736f6c63430008030033",
  "immutableReferences": {},
  "source": "// SPDX-License-Identifier: MIT\npragma solidity 0.8.3;\n\nimport \"@openzeppelin/contracts/token/ERC721/ERC721.sol\";\nimport \"@openzeppelin/contracts/token/ERC721/extensions/ERC721Enumerable.sol\";\nimport \"@openzeppelin/contracts/access/Ownable.sol\";\nimport \"@openzeppelin/contracts/utils/Counters.sol\";\n\n/// @title A contract for creating NFT tokens\n/// @author Josue Perez\n/// @notice You can use this contract to Creates NFT tokens called CriollosToken\n/// This token is linked with a physical assets(a Chocolate) that will be send once\n/// the user buy it at our Market place, after receive the physical assets the user\n/// is able to trade the NFT token using another Market place for instance OpenSea\ncontract CriolloToken is ERC721Enumerable, Ownable {\n    using Counters for Counters.Counter;\n    using Strings for uint256;\n\n    /// @notice Emitted when an user buy a NFT in our MarketPlace\n    /// @param owner The address of the Token Owner,\n    /// @param price The price for the token was bought\n    /// @param id The id of the NFT token.\n    /// @dev The price is only used in the first sale\n    event Purchase(address owner, uint256 price, uint256 id);\n\n    /// @notice Emitted when the token owner unlock the NFT once receive the chocolate\n    /// @param _id The id of the NFT token.\n    /// @param _unlockerAddress Address who unlocked the token\n    event TokenUnlocked(uint256 _id, address _unlockerAddress);\n\n    /// @notice State of the token.\n    /// @dev Used for handling the intial phase of the workflow,\n    /// after Users unlock the token, state should remain the same.\n    enum State {\n        NotListed,\n        ForSale,\n        Locked,\n        Shipped,\n        Unlocked\n    }\n\n    /// @notice State object for handling the state of the NFT\n    /// @dev tokenIs is incremented using Counters\n    struct Criollo {\n        uint256 tokenId;\n        uint256 price;\n        State state;\n    }\n\n    string public baseURI;\n    string public baseExtension = \".json\";\n\n    Counters.Counter private _tokenIdCounter;\n\n    /// @dev Mapping from token ID to Criollo objects\n    mapping(uint256 => Criollo) criollos;\n\n    /// @dev Generate an exception if token can not be Listed in the MarketPlace\n    modifier canBeListed(uint256 _id) {\n        require(\n            criollos[_id].state == State.NotListed,\n            \"CriolloToken: Error, This token can not be listed!\"\n        );\n        _;\n    }\n\n    /// @dev Generate an exception if token is not unlocked\n    modifier isUnlocked(uint256 _id) {\n        require(\n            criollos[_id].state == State.Unlocked,\n            \"CriolloToken: Error, This token is not Unlocked !\"\n        );\n        _;\n    }\n\n    /// @dev Generate an exception if tocken is not Locked.\n    modifier isLocked(uint256 _id) {\n        require(\n            criollos[_id].state == State.Locked,\n            \"CriolloToken: Error, This token has not been Locked!\"\n        );\n        _;\n    }\n\n    /// @dev Generate an exception if tocken is not Shipped\n    modifier isShipped(uint256 _id) {\n        require(\n            criollos[_id].state == State.Shipped,\n            \"CriolloToken: Error, This token has not been Shipped!\"\n        );\n        _;\n    }\n\n    /// @dev Generate an exception if tocken is not For Sale\n    modifier forSale(uint256 _id) {\n        require(\n            criollos[_id].state == State.ForSale ||\n                criollos[_id].state == State.Unlocked,\n            \"CriolloToken: Error, This token is not for sale\"\n        );\n        _;\n    }\n\n    /// @dev Generate an exception if the user does not send exact amount of ether\n    modifier paidExactAmount(uint256 _price) {\n        require(\n            msg.value == _price,\n            \"CriolloToken: Error, Send the correct amount of ether\"\n        );\n        _;\n    }\n\n    /// @notice Constructor called once when deploy the contract\n    /// @param name_ Name of the NFT token\n    /// @param symbol_ Symbol of the NFT\n    /// @param _initBaseURI Contains the base URL where the metadata of the NFT is stored\n    constructor(\n        string memory name_,\n        string memory symbol_,\n        string memory _initBaseURI\n    ) ERC721(name_, symbol_) {\n        setBaseURI(_initBaseURI);\n    }\n\n    function _baseURI() internal view virtual override returns (string memory) {\n        return baseURI;\n    }\n\n    function setBaseURI(string memory _newBaseURI) public onlyOwner {\n        baseURI = _newBaseURI;\n    }\n\n    function setBaseExtension(string memory _newBaseExtension)\n        public\n        onlyOwner\n    {\n        baseExtension = _newBaseExtension;\n    }\n\n    /// @notice Mints a new token\n    /// @dev Only the contract owner can mints tokens\n    /// @param _price Initial price for the token.\n    function safeMint(uint256 _price) public onlyOwner {\n        uint256 _tokenId = _tokenIdCounter.current();\n\n        criollos[_tokenId] = Criollo({\n            price: _price,\n            tokenId: _tokenId,\n            state: State.NotListed\n        });\n\n        _safeMint(msg.sender, _tokenId);\n\n        require(\n            ownerOf(_tokenId) == msg.sender,\n            \"CriollosToken: Error, Token was not minted succesfully\"\n        );\n\n        _tokenIdCounter.increment();\n    }\n\n    function tokenURI(uint256 tokenId)\n        public\n        view\n        virtual\n        override\n        returns (string memory)\n    {\n        require(\n            _exists(tokenId),\n            \"ERC721Metadata: URI query for nonexistent token\"\n        );\n\n        string memory currentBaseURI = _baseURI();\n        return\n            bytes(currentBaseURI).length > 0\n                ? string(\n                    abi.encodePacked(\n                        currentBaseURI,\n                        tokenId.toString(),\n                        baseExtension\n                    )\n                )\n                : \"\";\n    }\n\n    /// @notice Add a token to the market place\n    /// @dev This function can only be used by the contract owner to make the token available to others users in our Market Place\n    /// @param _id Id of the token.\n    /// @param _price Price for the token.\n    function addToMarketPlace(uint256 _id, uint256 _price)\n        public\n        canBeListed(_id)\n        onlyOwner\n    {\n        require(\n            _exists(_id),\n            \"CriolloToken: Error, This token has not been minted yet\"\n        );\n        criollos[_id].state = State.ForSale;\n        criollos[_id].price = _price;\n    }\n\n    /// @notice Fetch a token by Id\n    /// @dev Use this function whenever you need info about a token\n    /// @param _tokenId Id of the token.\n    /// @return tokenId - The Id of the token\n    /// @return price - The price of the token\n    /// @return state - The state of the token\n    function getCriollo(uint256 _tokenId)\n        public\n        view\n        returns (\n            uint256 tokenId,\n            uint256 price,\n            uint256 state\n        )\n    {\n        tokenId = criollos[_tokenId].tokenId;\n        price = criollos[_tokenId].price;\n        state = uint256(criollos[_tokenId].state);\n        return (tokenId, price, state);\n    }\n\n    /// @notice Buy a token in Criollos Market Place\n    /// @dev This is a custom function for buying function in our Market PLace.\n    /// @param _id Id of the token.\n    function buy(uint256 _id)\n        external\n        payable\n        forSale(_id)\n        paidExactAmount(criollos[_id].price)\n    {\n        require(\n            _exists(_id),\n            \"CriolloToken: Error, This token has not been minted yet\"\n        );\n        address payable _currentOwner = payable(ownerOf(_id));\n\n        transferFrom(ownerOf(_id), msg.sender, _id);\n\n        if (criollos[_id].state == State.ForSale) {\n            criollos[_id].state = State.Locked;\n        }\n\n        (bool success, ) = _currentOwner.call{value: msg.value}(\"\");\n        require(success, \"Transfer failed.\");\n\n        emit Purchase(msg.sender, criollos[_id].price, criollos[_id].tokenId);\n    }\n\n    /// @notice Ship an Item\n    /// @dev Only the contract owner can ship an Item, the token should be sold first\n    /// @param _id Id of the token.\n    function shipped(uint256 _id) public onlyOwner isLocked(_id) {\n        require(\n            _exists(_id),\n            \"CriolloToken: Error, This token has not been minted yet\"\n        );\n        criollos[_id].state = State.Shipped;\n    }\n\n    /// @notice Unlock a Token\n    /// @dev Need to be the owner of the token\n    /// @param _id Id of the token.\n    function unlockToken(uint256 _id) public isShipped(_id) {\n        require(\n            ownerOf(_id) == msg.sender,\n            \"CriolloToken: Error, You are not the token owner!\"\n        );\n        criollos[_id].state = State.Unlocked;\n    }\n\n    /// @notice Withdraw balance\n    /// @dev From the contract owner to specific address.\n    function withdraw() public payable onlyOwner {\n        (bool success, ) = payable(msg.sender).call{\n            value: address(this).balance\n        }(\"\");\n        require(success, \"CriolloToken: Error, Transfer failed.\");\n    }\n\n    /// @notice Transfer function\n    /// @dev This function is overriden from ERC721:_transfer, so we can avoid the token to be transfer if it is not unlocked.\n    function _transfer(\n        address from,\n        address to,\n        uint256 tokenId\n    ) internal override {\n        require(\n            criollos[tokenId].state == State.Unlocked ||\n                (ownerOf(tokenId) == owner() &&\n                    criollos[tokenId].state == State.ForSale),\n            \"CriolloToken: Error, This token is Locked and can not be transfered !\"\n        );\n        super._transfer(from, to, tokenId);\n    }\n\n    function transferFrom(\n        address from,\n        address to,\n        uint256 tokenId\n    ) public override {\n        require(\n            criollos[tokenId].state == State.Unlocked ||\n                (ownerOf(tokenId) == owner() &&\n                    criollos[tokenId].state == State.ForSale),\n            \"CriolloToken: Error, This token is Locked and can not be transfered !\"\n        );\n        super.transferFrom(from, to, tokenId);\n    }\n}\n",
  "sourcePath": "/home/josue/workspace/CryptoProjects/blockchain-developer-bootcamp-final-project/contracts/CriolloToken.sol",
  "compiler": {
    "name": "solc",
    "version": "0.8.3+commit.8d00100c.Emscripten.clang"
  },
  "schemaVersion": "3.4.3",
  "updatedAt": "2021-11-26T09:49:23.963Z",
  "networkType": "ethereum",
  "devdoc": {
    "author": "Josue Perez",
    "events": {
      "Purchase(address,uint256,uint256)": {
        "details": "The price is only used in the first sale",
        "params": {
          "id": "The id of the NFT token.",
          "owner": "The address of the Token Owner,",
          "price": "The price for the token was bought"
        }
      },
      "TokenUnlocked(uint256,address)": {
        "params": {
          "_id": "The id of the NFT token.",
          "_unlockerAddress": "Address who unlocked the token"
        }
      }
    },
    "kind": "dev",
    "methods": {
      "addToMarketPlace(uint256,uint256)": {
        "details": "This function can only be used by the contract owner to make the token available to others users in our Market Place",
        "params": {
          "_id": "Id of the token.",
          "_price": "Price for the token."
        }
      },
      "approve(address,uint256)": {
        "details": "See {IERC721-approve}."
      },
      "balanceOf(address)": {
        "details": "See {IERC721-balanceOf}."
      },
      "buy(uint256)": {
        "details": "This is a custom function for buying function in our Market PLace.",
        "params": {
          "_id": "Id of the token."
        }
      },
      "constructor": {
        "params": {
          "_initBaseURI": "Contains the base URL where the metadata of the NFT is stored",
          "name_": "Name of the NFT token",
          "symbol_": "Symbol of the NFT"
        }
      },
      "getApproved(uint256)": {
        "details": "See {IERC721-getApproved}."
      },
      "getCriollo(uint256)": {
        "details": "Use this function whenever you need info about a token",
        "params": {
          "_tokenId": "Id of the token."
        },
        "returns": {
          "price": "- The price of the token",
          "state": "- The state of the token",
          "tokenId": "- The Id of the token"
        }
      },
      "isApprovedForAll(address,address)": {
        "details": "See {IERC721-isApprovedForAll}."
      },
      "name()": {
        "details": "See {IERC721Metadata-name}."
      },
      "owner()": {
        "details": "Returns the address of the current owner."
      },
      "ownerOf(uint256)": {
        "details": "See {IERC721-ownerOf}."
      },
      "renounceOwnership()": {
        "details": "Leaves the contract without owner. It will not be possible to call `onlyOwner` functions anymore. Can only be called by the current owner. NOTE: Renouncing ownership will leave the contract without an owner, thereby removing any functionality that is only available to the owner."
      },
      "safeMint(uint256)": {
        "details": "Only the contract owner can mints tokens",
        "params": {
          "_price": "Initial price for the token."
        }
      },
      "safeTransferFrom(address,address,uint256)": {
        "details": "See {IERC721-safeTransferFrom}."
      },
      "safeTransferFrom(address,address,uint256,bytes)": {
        "details": "See {IERC721-safeTransferFrom}."
      },
      "setApprovalForAll(address,bool)": {
        "details": "See {IERC721-setApprovalForAll}."
      },
      "shipped(uint256)": {
        "details": "Only the contract owner can ship an Item, the token should be sold first",
        "params": {
          "_id": "Id of the token."
        }
      },
      "supportsInterface(bytes4)": {
        "details": "See {IERC165-supportsInterface}."
      },
      "symbol()": {
        "details": "See {IERC721Metadata-symbol}."
      },
      "tokenByIndex(uint256)": {
        "details": "See {IERC721Enumerable-tokenByIndex}."
      },
      "tokenOfOwnerByIndex(address,uint256)": {
        "details": "See {IERC721Enumerable-tokenOfOwnerByIndex}."
      },
      "tokenURI(uint256)": {
        "details": "See {IERC721Metadata-tokenURI}."
      },
      "totalSupply()": {
        "details": "See {IERC721Enumerable-totalSupply}."
      },
      "transferFrom(address,address,uint256)": {
        "details": "See {IERC721-transferFrom}."
      },
      "transferOwnership(address)": {
        "details": "Transfers ownership of the contract to a new account (`newOwner`). Can only be called by the current owner."
      },
      "unlockToken(uint256)": {
        "details": "Need to be the owner of the token",
        "params": {
          "_id": "Id of the token."
        }
      },
      "withdraw()": {
        "details": "From the contract owner to specific address."
      }
    },
    "stateVariables": {
      "criollos": {
        "details": "Mapping from token ID to Criollo objects"
      }
    },
    "title": "A contract for creating NFT tokens",
    "version": 1
  },
  "userdoc": {
    "events": {
      "Purchase(address,uint256,uint256)": {
        "notice": "Emitted when an user buy a NFT in our MarketPlace"
      },
      "TokenUnlocked(uint256,address)": {
        "notice": "Emitted when the token owner unlock the NFT once receive the chocolate"
      }
    },
    "kind": "user",
    "methods": {
      "addToMarketPlace(uint256,uint256)": {
        "notice": "Add a token to the market place"
      },
      "buy(uint256)": {
        "notice": "Buy a token in Criollos Market Place"
      },
      "constructor": {
        "notice": "Constructor called once when deploy the contract"
      },
      "getCriollo(uint256)": {
        "notice": "Fetch a token by Id"
      },
      "safeMint(uint256)": {
        "notice": "Mints a new token"
      },
      "shipped(uint256)": {
        "notice": "Ship an Item"
      },
      "unlockToken(uint256)": {
        "notice": "Unlock a Token"
      },
      "withdraw()": {
        "notice": "Withdraw balance"
      }
    },
    "notice": "You can use this contract to Creates NFT tokens called CriollosToken This token is linked with a physical assets(a Chocolate) that will be send once the user buy it at our Market place, after receive the physical assets the user is able to trade the NFT token using another Market place for instance OpenSea",
    "version": 1
  }
}