{
  "contractName": "CriolloToken",
  "abi": [
    {
      "inputs": [
        {
          "internalType": "string",
          "name": "name_",
          "type": "string"
        },
        {
          "internalType": "string",
          "name": "symbol_",
          "type": "string"
        },
        {
          "internalType": "string",
          "name": "_initBaseURI",
          "type": "string"
        }
      ],
      "stateMutability": "nonpayable",
      "type": "constructor"
    },
    {
      "anonymous": false,
      "inputs": [
        {
          "indexed": true,
          "internalType": "address",
          "name": "owner",
          "type": "address"
        },
        {
          "indexed": true,
          "internalType": "address",
          "name": "approved",
          "type": "address"
        },
        {
          "indexed": true,
          "internalType": "uint256",
          "name": "tokenId",
          "type": "uint256"
        }
      ],
      "name": "Approval",
      "type": "event"
    },
    {
      "anonymous": false,
      "inputs": [
        {
          "indexed": true,
          "internalType": "address",
          "name": "owner",
          "type": "address"
        },
        {
          "indexed": true,
          "internalType": "address",
          "name": "operator",
          "type": "address"
        },
        {
          "indexed": false,
          "internalType": "bool",
          "name": "approved",
          "type": "bool"
        }
      ],
      "name": "ApprovalForAll",
      "type": "event"
    },
    {
      "anonymous": false,
      "inputs": [
        {
          "indexed": false,
          "internalType": "uint256",
          "name": "_tokenId",
          "type": "uint256"
        }
      ],
      "name": "NewTokenMinted",
      "type": "event"
    },
    {
      "anonymous": false,
      "inputs": [
        {
          "indexed": true,
          "internalType": "address",
          "name": "previousOwner",
          "type": "address"
        },
        {
          "indexed": true,
          "internalType": "address",
          "name": "newOwner",
          "type": "address"
        }
      ],
      "name": "OwnershipTransferred",
      "type": "event"
    },
    {
      "anonymous": false,
      "inputs": [
        {
          "indexed": false,
          "internalType": "address",
          "name": "owner",
          "type": "address"
        },
        {
          "indexed": false,
          "internalType": "uint256",
          "name": "price",
          "type": "uint256"
        },
        {
          "indexed": false,
          "internalType": "uint256",
          "name": "id",
          "type": "uint256"
        }
      ],
      "name": "Purchase",
      "type": "event"
    },
    {
      "anonymous": false,
      "inputs": [
        {
          "indexed": false,
          "internalType": "uint256",
          "name": "_id",
          "type": "uint256"
        },
        {
          "indexed": false,
          "internalType": "address",
          "name": "_unlockerAddress",
          "type": "address"
        }
      ],
      "name": "TokenUnlocked",
      "type": "event"
    },
    {
      "anonymous": false,
      "inputs": [
        {
          "indexed": true,
          "internalType": "address",
          "name": "from",
          "type": "address"
        },
        {
          "indexed": true,
          "internalType": "address",
          "name": "to",
          "type": "address"
        },
        {
          "indexed": true,
          "internalType": "uint256",
          "name": "tokenId",
          "type": "uint256"
        }
      ],
      "name": "Transfer",
      "type": "event"
    },
    {
      "inputs": [],
      "name": "_owner",
      "outputs": [
        {
          "internalType": "address payable",
          "name": "",
          "type": "address"
        }
      ],
      "stateMutability": "view",
      "type": "function"
    },
    {
      "inputs": [
        {
          "internalType": "address",
          "name": "to",
          "type": "address"
        },
        {
          "internalType": "uint256",
          "name": "tokenId",
          "type": "uint256"
        }
      ],
      "name": "approve",
      "outputs": [],
      "stateMutability": "nonpayable",
      "type": "function"
    },
    {
      "inputs": [
        {
          "internalType": "address",
          "name": "owner",
          "type": "address"
        }
      ],
      "name": "balanceOf",
      "outputs": [
        {
          "internalType": "uint256",
          "name": "",
          "type": "uint256"
        }
      ],
      "stateMutability": "view",
      "type": "function"
    },
    {
      "inputs": [],
      "name": "baseExtension",
      "outputs": [
        {
          "internalType": "string",
          "name": "",
          "type": "string"
        }
      ],
      "stateMutability": "view",
      "type": "function"
    },
    {
      "inputs": [],
      "name": "baseURI",
      "outputs": [
        {
          "internalType": "string",
          "name": "",
          "type": "string"
        }
      ],
      "stateMutability": "view",
      "type": "function"
    },
    {
      "inputs": [],
      "name": "cost",
      "outputs": [
        {
          "internalType": "uint256",
          "name": "",
          "type": "uint256"
        }
      ],
      "stateMutability": "view",
      "type": "function"
    },
    {
      "inputs": [
        {
          "internalType": "uint256",
          "name": "tokenId",
          "type": "uint256"
        }
      ],
      "name": "getApproved",
      "outputs": [
        {
          "internalType": "address",
          "name": "",
          "type": "address"
        }
      ],
      "stateMutability": "view",
      "type": "function"
    },
    {
      "inputs": [
        {
          "internalType": "address",
          "name": "owner",
          "type": "address"
        },
        {
          "internalType": "address",
          "name": "operator",
          "type": "address"
        }
      ],
      "name": "isApprovedForAll",
      "outputs": [
        {
          "internalType": "bool",
          "name": "",
          "type": "bool"
        }
      ],
      "stateMutability": "view",
      "type": "function"
    },
    {
      "inputs": [],
      "name": "maxMintAmount",
      "outputs": [
        {
          "internalType": "uint256",
          "name": "",
          "type": "uint256"
        }
      ],
      "stateMutability": "view",
      "type": "function"
    },
    {
      "inputs": [],
      "name": "name",
      "outputs": [
        {
          "internalType": "string",
          "name": "",
          "type": "string"
        }
      ],
      "stateMutability": "view",
      "type": "function"
    },
    {
      "inputs": [],
      "name": "owner",
      "outputs": [
        {
          "internalType": "address",
          "name": "",
          "type": "address"
        }
      ],
      "stateMutability": "view",
      "type": "function"
    },
    {
      "inputs": [
        {
          "internalType": "uint256",
          "name": "tokenId",
          "type": "uint256"
        }
      ],
      "name": "ownerOf",
      "outputs": [
        {
          "internalType": "address",
          "name": "",
          "type": "address"
        }
      ],
      "stateMutability": "view",
      "type": "function"
    },
    {
      "inputs": [],
      "name": "renounceOwnership",
      "outputs": [],
      "stateMutability": "nonpayable",
      "type": "function"
    },
    {
      "inputs": [
        {
          "internalType": "address",
          "name": "from",
          "type": "address"
        },
        {
          "internalType": "address",
          "name": "to",
          "type": "address"
        },
        {
          "internalType": "uint256",
          "name": "tokenId",
          "type": "uint256"
        }
      ],
      "name": "safeTransferFrom",
      "outputs": [],
      "stateMutability": "nonpayable",
      "type": "function"
    },
    {
      "inputs": [
        {
          "internalType": "address",
          "name": "from",
          "type": "address"
        },
        {
          "internalType": "address",
          "name": "to",
          "type": "address"
        },
        {
          "internalType": "uint256",
          "name": "tokenId",
          "type": "uint256"
        },
        {
          "internalType": "bytes",
          "name": "_data",
          "type": "bytes"
        }
      ],
      "name": "safeTransferFrom",
      "outputs": [],
      "stateMutability": "nonpayable",
      "type": "function"
    },
    {
      "inputs": [
        {
          "internalType": "address",
          "name": "operator",
          "type": "address"
        },
        {
          "internalType": "bool",
          "name": "approved",
          "type": "bool"
        }
      ],
      "name": "setApprovalForAll",
      "outputs": [],
      "stateMutability": "nonpayable",
      "type": "function"
    },
    {
      "inputs": [
        {
          "internalType": "bytes4",
          "name": "interfaceId",
          "type": "bytes4"
        }
      ],
      "name": "supportsInterface",
      "outputs": [
        {
          "internalType": "bool",
          "name": "",
          "type": "bool"
        }
      ],
      "stateMutability": "view",
      "type": "function"
    },
    {
      "inputs": [],
      "name": "symbol",
      "outputs": [
        {
          "internalType": "string",
          "name": "",
          "type": "string"
        }
      ],
      "stateMutability": "view",
      "type": "function"
    },
    {
      "inputs": [
        {
          "internalType": "uint256",
          "name": "tokenId",
          "type": "uint256"
        }
      ],
      "name": "tokenURI",
      "outputs": [
        {
          "internalType": "string",
          "name": "",
          "type": "string"
        }
      ],
      "stateMutability": "view",
      "type": "function"
    },
    {
      "inputs": [
        {
          "internalType": "address",
          "name": "from",
          "type": "address"
        },
        {
          "internalType": "address",
          "name": "to",
          "type": "address"
        },
        {
          "internalType": "uint256",
          "name": "tokenId",
          "type": "uint256"
        }
      ],
      "name": "transferFrom",
      "outputs": [],
      "stateMutability": "nonpayable",
      "type": "function"
    },
    {
      "inputs": [
        {
          "internalType": "address",
          "name": "newOwner",
          "type": "address"
        }
      ],
      "name": "transferOwnership",
      "outputs": [],
      "stateMutability": "nonpayable",
      "type": "function"
    },
    {
      "inputs": [
        {
          "internalType": "string",
          "name": "_newBaseURI",
          "type": "string"
        }
      ],
      "name": "setBaseURI",
      "outputs": [],
      "stateMutability": "nonpayable",
      "type": "function"
    },
    {
      "inputs": [
        {
          "internalType": "string",
          "name": "_newBaseExtension",
          "type": "string"
        }
      ],
      "name": "setBaseExtension",
      "outputs": [],
      "stateMutability": "nonpayable",
      "type": "function"
    },
    {
      "inputs": [
        {
          "internalType": "uint256",
          "name": "_price",
          "type": "uint256"
        }
      ],
      "name": "safeMint",
      "outputs": [],
      "stateMutability": "payable",
      "type": "function"
    },
    {
      "inputs": [
        {
          "internalType": "uint256",
          "name": "_id",
          "type": "uint256"
        },
        {
          "internalType": "uint256",
          "name": "_price",
          "type": "uint256"
        }
      ],
      "name": "addToMarketPlace",
      "outputs": [],
      "stateMutability": "nonpayable",
      "type": "function"
    },
    {
      "inputs": [
        {
          "internalType": "uint256",
          "name": "_tokenId",
          "type": "uint256"
        }
      ],
      "name": "getCriollo",
      "outputs": [
        {
          "internalType": "uint256",
          "name": "tokenId",
          "type": "uint256"
        },
        {
          "internalType": "uint256",
          "name": "price",
          "type": "uint256"
        },
        {
          "internalType": "uint256",
          "name": "state",
          "type": "uint256"
        },
        {
          "internalType": "address",
          "name": "tokenOwner",
          "type": "address"
        }
      ],
      "stateMutability": "view",
      "type": "function"
    },
    {
      "inputs": [
        {
          "internalType": "uint256",
          "name": "_id",
          "type": "uint256"
        }
      ],
      "name": "buy",
      "outputs": [],
      "stateMutability": "payable",
      "type": "function"
    },
    {
      "inputs": [
        {
          "internalType": "uint256",
          "name": "_id",
          "type": "uint256"
        }
      ],
      "name": "shipped",
      "outputs": [],
      "stateMutability": "nonpayable",
      "type": "function"
    },
    {
      "inputs": [
        {
          "internalType": "uint256",
          "name": "_id",
          "type": "uint256"
        }
      ],
      "name": "unlockToken",
      "outputs": [],
      "stateMutability": "nonpayable",
      "type": "function"
    },
    {
      "inputs": [],
      "name": "withdraw",
      "outputs": [],
      "stateMutability": "payable",
      "type": "function"
    }
  ],
  "bytecode": "0x60806040526040518060400160405280600581526020017f2e6a736f6e0000000000000000000000000000000000000000000000000000008152506009908051906020019062000051929190620002ea565b506703782dace9d90000600a556001600b553480156200007057600080fd5b50604051620050093803806200500983398181016040528101906200009691906200040c565b82828160009080519060200190620000b0929190620002ea565b508060019080519060200190620000c9929190620002ea565b505050620000ec620000e06200014760201b60201c565b6200014f60201b60201c565b33600760006101000a81548173ffffffffffffffffffffffffffffffffffffffff021916908373ffffffffffffffffffffffffffffffffffffffff1602179055506200013e816200021560201b60201c565b505050620006a0565b600033905090565b6000600660009054906101000a900473ffffffffffffffffffffffffffffffffffffffff16905081600660006101000a81548173ffffffffffffffffffffffffffffffffffffffff021916908373ffffffffffffffffffffffffffffffffffffffff1602179055508173ffffffffffffffffffffffffffffffffffffffff168173ffffffffffffffffffffffffffffffffffffffff167f8be0079c531659141344cd1fd0a4f28419497f9722a3daafe3b4186f6b6457e060405160405180910390a35050565b620002256200014760201b60201c565b73ffffffffffffffffffffffffffffffffffffffff166200024b620002c060201b60201c565b73ffffffffffffffffffffffffffffffffffffffff1614620002a4576040517f08c379a00000000000000000000000000000000000000000000000000000000081526004016200029b90620004d4565b60405180910390fd5b8060089080519060200190620002bc929190620002ea565b5050565b6000600660009054906101000a900473ffffffffffffffffffffffffffffffffffffffff16905090565b828054620002f8906200059c565b90600052602060002090601f0160209004810192826200031c576000855562000368565b82601f106200033757805160ff191683800117855562000368565b8280016001018555821562000368579182015b82811115620003675782518255916020019190600101906200034a565b5b5090506200037791906200037b565b5090565b5b80821115620003965760008160009055506001016200037c565b5090565b6000620003b1620003ab846200051f565b620004f6565b905082815260208101848484011115620003ca57600080fd5b620003d784828562000566565b509392505050565b600082601f830112620003f157600080fd5b8151620004038482602086016200039a565b91505092915050565b6000806000606084860312156200042257600080fd5b600084015167ffffffffffffffff8111156200043d57600080fd5b6200044b86828701620003df565b935050602084015167ffffffffffffffff8111156200046957600080fd5b6200047786828701620003df565b925050604084015167ffffffffffffffff8111156200049557600080fd5b620004a386828701620003df565b9150509250925092565b6000620004bc60208362000555565b9150620004c98262000677565b602082019050919050565b60006020820190508181036000830152620004ef81620004ad565b9050919050565b60006200050262000515565b9050620005108282620005d2565b919050565b6000604051905090565b600067ffffffffffffffff8211156200053d576200053c62000637565b5b620005488262000666565b9050602081019050919050565b600082825260208201905092915050565b60005b838110156200058657808201518184015260208101905062000569565b8381111562000596576000848401525b50505050565b60006002820490506001821680620005b557607f821691505b60208210811415620005cc57620005cb62000608565b5b50919050565b620005dd8262000666565b810181811067ffffffffffffffff82111715620005ff57620005fe62000637565b5b80604052505050565b7f4e487b7100000000000000000000000000000000000000000000000000000000600052602260045260246000fd5b7f4e487b7100000000000000000000000000000000000000000000000000000000600052604160045260246000fd5b6000601f19601f8301169050919050565b7f4f776e61626c653a2063616c6c6572206973206e6f7420746865206f776e6572600082015250565b61495980620006b06000396000f3fe6080604052600436106101cd5760003560e01c8063715018a6116100f7578063b88d4fde11610095578063da3ef23f11610064578063da3ef23f1461063c578063dd2e0ac014610665578063e985e9c51461068e578063f2fde38b146106cb576101cd565b8063b88d4fde1461058f578063c6682862146105b8578063c87b56dd146105e3578063d96a094a14610620576101cd565b806395d89b41116100d157806395d89b41146104e7578063a22cb46514610512578063ae3fc7021461053b578063b2bdfa7b14610564576101cd565b8063715018a61461047c5780637a86196f146104935780638da5cb5b146104bc576101cd565b806331c864e81161016f5780636352211e1161013e5780636352211e146103975780636c0360eb146103d45780636df43754146103ff57806370a082311461043f576101cd565b806331c864e81461031f5780633ccfd60b1461033b57806342842e0e1461034557806355f804b31461036e576101cd565b8063095ea7b3116101ab578063095ea7b31461027757806313faede6146102a0578063239c70ae146102cb57806323b872dd146102f6576101cd565b806301ffc9a7146101d257806306fdde031461020f578063081812fc1461023a575b600080fd5b3480156101de57600080fd5b506101f960048036038101906101f491906133fb565b6106f4565b6040516102069190613a2f565b60405180910390f35b34801561021b57600080fd5b506102246107d6565b6040516102319190613a4a565b60405180910390f35b34801561024657600080fd5b50610261600480360381019061025c919061348e565b610868565b60405161026e9190613976565b60405180910390f35b34801561028357600080fd5b5061029e600480360381019061029991906133bf565b6108ed565b005b3480156102ac57600080fd5b506102b5610a05565b6040516102c29190613d6c565b60405180910390f35b3480156102d757600080fd5b506102e0610a0b565b6040516102ed9190613d6c565b60405180910390f35b34801561030257600080fd5b5061031d600480360381019061031891906132b9565b610a11565b005b6103396004803603810190610334919061348e565b610a71565b005b610343610ca3565b005b34801561035157600080fd5b5061036c600480360381019061036791906132b9565b610d98565b005b34801561037a57600080fd5b506103956004803603810190610390919061344d565b610db8565b005b3480156103a357600080fd5b506103be60048036038101906103b9919061348e565b610e4e565b6040516103cb9190613976565b60405180910390f35b3480156103e057600080fd5b506103e9610f00565b6040516103f69190613a4a565b60405180910390f35b34801561040b57600080fd5b506104266004803603810190610421919061348e565b610f8e565b6040516104369493929190613d87565b60405180910390f35b34801561044b57600080fd5b5061046660048036038101906104619190613254565b611064565b6040516104739190613d6c565b60405180910390f35b34801561048857600080fd5b5061049161111c565b005b34801561049f57600080fd5b506104ba60048036038101906104b591906134b7565b6111a4565b005b3480156104c857600080fd5b506104d161145f565b6040516104de9190613976565b60405180910390f35b3480156104f357600080fd5b506104fc611489565b6040516105099190613a4a565b60405180910390f35b34801561051e57600080fd5b5061053960048036038101906105349190613383565b61151b565b005b34801561054757600080fd5b50610562600480360381019061055d919061348e565b61169c565b005b34801561057057600080fd5b506105796118a2565b6040516105869190613991565b60405180910390f35b34801561059b57600080fd5b506105b660048036038101906105b19190613308565b6118c8565b005b3480156105c457600080fd5b506105cd61192a565b6040516105da9190613a4a565b60405180910390f35b3480156105ef57600080fd5b5061060a6004803603810190610605919061348e565b6119b8565b6040516106179190613a4a565b60405180910390f35b61063a6004803603810190610635919061348e565b611a5f565b005b34801561064857600080fd5b50610663600480360381019061065e919061344d565b611ecf565b005b34801561067157600080fd5b5061068c6004803603810190610687919061348e565b611f65565b005b34801561069a57600080fd5b506106b560048036038101906106b0919061327d565b61211d565b6040516106c29190613a2f565b60405180910390f35b3480156106d757600080fd5b506106f260048036038101906106ed9190613254565b6121b1565b005b60007f80ac58cd000000000000000000000000000000000000000000000000000000007bffffffffffffffffffffffffffffffffffffffffffffffffffffffff1916827bffffffffffffffffffffffffffffffffffffffffffffffffffffffff191614806107bf57507f5b5e139f000000000000000000000000000000000000000000000000000000007bffffffffffffffffffffffffffffffffffffffffffffffffffffffff1916827bffffffffffffffffffffffffffffffffffffffffffffffffffffffff1916145b806107cf57506107ce826122a9565b5b9050919050565b6060600080546107e590614024565b80601f016020809104026020016040519081016040528092919081815260200182805461081190614024565b801561085e5780601f106108335761010080835404028352916020019161085e565b820191906000526020600020905b81548152906001019060200180831161084157829003601f168201915b5050505050905090565b600061087382612313565b6108b2576040517f08c379a00000000000000000000000000000000000000000000000000000000081526004016108a990613c6c565b60405180910390fd5b6004600083815260200190815260200160002060009054906101000a900473ffffffffffffffffffffffffffffffffffffffff169050919050565b60006108f882610e4e565b90508073ffffffffffffffffffffffffffffffffffffffff168373ffffffffffffffffffffffffffffffffffffffff161415610969576040517f08c379a000000000000000000000000000000000000000000000000000000000815260040161096090613d2c565b60405180910390fd5b8073ffffffffffffffffffffffffffffffffffffffff1661098861237f565b73ffffffffffffffffffffffffffffffffffffffff1614806109b757506109b6816109b161237f565b61211d565b5b6109f6576040517f08c379a00000000000000000000000000000000000000000000000000000000081526004016109ed90613bec565b60405180910390fd5b610a008383612387565b505050565b600a5481565b600b5481565b610a22610a1c61237f565b82612440565b610a61576040517f08c379a0000000000000000000000000000000000000000000000000000000008152600401610a5890613d4c565b60405180910390fd5b610a6c83838361251e565b505050565b610a7961237f565b73ffffffffffffffffffffffffffffffffffffffff16610a9761145f565b73ffffffffffffffffffffffffffffffffffffffff1614610aed576040517f08c379a0000000000000000000000000000000000000000000000000000000008152600401610ae490613cac565b60405180910390fd5b6000610af9600c6126a1565b9050610b0533826126af565b604051806080016040528082815260200183815260200160006004811115610b56577f4e487b7100000000000000000000000000000000000000000000000000000000600052602160045260246000fd5b8152602001600760009054906101000a900473ffffffffffffffffffffffffffffffffffffffff1673ffffffffffffffffffffffffffffffffffffffff16815250600d6000838152602001908152602001600020600082015181600001556020820151816001015560408201518160020160006101000a81548160ff02191690836004811115610c0f577f4e487b7100000000000000000000000000000000000000000000000000000000600052602160045260246000fd5b021790555060608201518160020160016101000a81548173ffffffffffffffffffffffffffffffffffffffff021916908373ffffffffffffffffffffffffffffffffffffffff1602179055509050507ffa1f1c46f96656e5cd3a96cec39616adf4f55f5078c8dc2fbfb9226289a1622d81604051610c8d9190613d6c565b60405180910390a1610c9f600c6126cd565b5050565b610cab61237f565b73ffffffffffffffffffffffffffffffffffffffff16610cc961145f565b73ffffffffffffffffffffffffffffffffffffffff1614610d1f576040517f08c379a0000000000000000000000000000000000000000000000000000000008152600401610d1690613cac565b60405180910390fd5b60003373ffffffffffffffffffffffffffffffffffffffff1647604051610d4590613961565b60006040518083038185875af1925050503d8060008114610d82576040519150601f19603f3d011682016040523d82523d6000602084013e610d87565b606091505b5050905080610d9557600080fd5b50565b610db3838383604051806020016040528060008152506118c8565b505050565b610dc061237f565b73ffffffffffffffffffffffffffffffffffffffff16610dde61145f565b73ffffffffffffffffffffffffffffffffffffffff1614610e34576040517f08c379a0000000000000000000000000000000000000000000000000000000008152600401610e2b90613cac565b60405180910390fd5b8060089080519060200190610e4a929190613078565b5050565b6000806002600084815260200190815260200160002060009054906101000a900473ffffffffffffffffffffffffffffffffffffffff169050600073ffffffffffffffffffffffffffffffffffffffff168173ffffffffffffffffffffffffffffffffffffffff161415610ef7576040517f08c379a0000000000000000000000000000000000000000000000000000000008152600401610eee90613c2c565b60405180910390fd5b80915050919050565b60088054610f0d90614024565b80601f0160208091040260200160405190810160405280929190818152602001828054610f3990614024565b8015610f865780601f10610f5b57610100808354040283529160200191610f86565b820191906000526020600020905b815481529060010190602001808311610f6957829003601f168201915b505050505081565b600080600080600d6000868152602001908152602001600020600001549350600d6000868152602001908152602001600020600101549250600d600086815260200190815260200160002060020160009054906101000a900460ff166004811115611022577f4e487b7100000000000000000000000000000000000000000000000000000000600052602160045260246000fd5b9150600d600086815260200190815260200160002060020160019054906101000a900473ffffffffffffffffffffffffffffffffffffffff1690509193509193565b60008073ffffffffffffffffffffffffffffffffffffffff168273ffffffffffffffffffffffffffffffffffffffff1614156110d5576040517f08c379a00000000000000000000000000000000000000000000000000000000081526004016110cc90613c0c565b60405180910390fd5b600360008373ffffffffffffffffffffffffffffffffffffffff1673ffffffffffffffffffffffffffffffffffffffff168152602001908152602001600020549050919050565b61112461237f565b73ffffffffffffffffffffffffffffffffffffffff1661114261145f565b73ffffffffffffffffffffffffffffffffffffffff1614611198576040517f08c379a000000000000000000000000000000000000000000000000000000000815260040161118f90613cac565b60405180910390fd5b6111a260006126e3565b565b816111ae81612313565b6111ed576040517f08c379a00000000000000000000000000000000000000000000000000000000081526004016111e490613bcc565b60405180910390fd5b823373ffffffffffffffffffffffffffffffffffffffff1661120e82610e4e565b73ffffffffffffffffffffffffffffffffffffffff1614611264576040517f08c379a000000000000000000000000000000000000000000000000000000000815260040161125b90613bac565b60405180910390fd5b836000600481111561129f577f4e487b7100000000000000000000000000000000000000000000000000000000600052602160045260246000fd5b600d600083815260200190815260200160002060020160009054906101000a900460ff1660048111156112fb577f4e487b7100000000000000000000000000000000000000000000000000000000600052602160045260246000fd5b1480611399575060048081111561133b577f4e487b7100000000000000000000000000000000000000000000000000000000600052602160045260246000fd5b600d600083815260200190815260200160002060020160009054906101000a900460ff166004811115611397577f4e487b7100000000000000000000000000000000000000000000000000000000600052602160045260246000fd5b145b6113d8576040517f08c379a00000000000000000000000000000000000000000000000000000000081526004016113cf90613b8c565b60405180910390fd5b6001600d600087815260200190815260200160002060020160006101000a81548160ff02191690836004811115611438577f4e487b7100000000000000000000000000000000000000000000000000000000600052602160045260246000fd5b021790555083600d6000878152602001908152602001600020600101819055505050505050565b6000600660009054906101000a900473ffffffffffffffffffffffffffffffffffffffff16905090565b60606001805461149890614024565b80601f01602080910402602001604051908101604052809291908181526020018280546114c490614024565b80156115115780601f106114e657610100808354040283529160200191611511565b820191906000526020600020905b8154815290600101906020018083116114f457829003601f168201915b5050505050905090565b61152361237f565b73ffffffffffffffffffffffffffffffffffffffff168273ffffffffffffffffffffffffffffffffffffffff161415611591576040517f08c379a000000000000000000000000000000000000000000000000000000000815260040161158890613b2c565b60405180910390fd5b806005600061159e61237f565b73ffffffffffffffffffffffffffffffffffffffff1673ffffffffffffffffffffffffffffffffffffffff16815260200190815260200160002060008473ffffffffffffffffffffffffffffffffffffffff1673ffffffffffffffffffffffffffffffffffffffff16815260200190815260200160002060006101000a81548160ff0219169083151502179055508173ffffffffffffffffffffffffffffffffffffffff1661164b61237f565b73ffffffffffffffffffffffffffffffffffffffff167f17307eab39ab6107e8899845ad3d59bd9653f200f220920489ca2b5937696c31836040516116909190613a2f565b60405180910390a35050565b6116a461237f565b73ffffffffffffffffffffffffffffffffffffffff166116c261145f565b73ffffffffffffffffffffffffffffffffffffffff1614611718576040517f08c379a000000000000000000000000000000000000000000000000000000000815260040161170f90613cac565b60405180910390fd5b8061172281612313565b611761576040517f08c379a000000000000000000000000000000000000000000000000000000000815260040161175890613bcc565b60405180910390fd5b816002600481111561179c577f4e487b7100000000000000000000000000000000000000000000000000000000600052602160045260246000fd5b600d600083815260200190815260200160002060020160009054906101000a900460ff1660048111156117f8577f4e487b7100000000000000000000000000000000000000000000000000000000600052602160045260246000fd5b14611838576040517f08c379a000000000000000000000000000000000000000000000000000000000815260040161182f90613acc565b60405180910390fd5b6003600d600085815260200190815260200160002060020160006101000a81548160ff02191690836004811115611898577f4e487b7100000000000000000000000000000000000000000000000000000000600052602160045260246000fd5b0217905550505050565b600760009054906101000a900473ffffffffffffffffffffffffffffffffffffffff1681565b6118d96118d361237f565b83612440565b611918576040517f08c379a000000000000000000000000000000000000000000000000000000000815260040161190f90613d4c565b60405180910390fd5b611924848484846127a9565b50505050565b6009805461193790614024565b80601f016020809104026020016040519081016040528092919081815260200182805461196390614024565b80156119b05780601f10611985576101008083540402835291602001916119b0565b820191906000526020600020905b81548152906001019060200180831161199357829003601f168201915b505050505081565b60606119c382612313565b611a02576040517f08c379a00000000000000000000000000000000000000000000000000000000081526004016119f990613d0c565b60405180910390fd5b6000611a0c612805565b90506000815111611a2c5760405180602001604052806000815250611a57565b80611a3684612897565b604051602001611a4792919061393d565b6040516020818303038152906040525b915050919050565b80611a6981612313565b611aa8576040517f08c379a0000000000000000000000000000000000000000000000000000000008152600401611a9f90613bcc565b60405180910390fd5b8160016004811115611ae3577f4e487b7100000000000000000000000000000000000000000000000000000000600052602160045260246000fd5b600d600083815260200190815260200160002060020160009054906101000a900460ff166004811115611b3f577f4e487b7100000000000000000000000000000000000000000000000000000000600052602160045260246000fd5b1480611bdd5750600480811115611b7f577f4e487b7100000000000000000000000000000000000000000000000000000000600052602160045260246000fd5b600d600083815260200190815260200160002060020160009054906101000a900460ff166004811115611bdb577f4e487b7100000000000000000000000000000000000000000000000000000000600052602160045260246000fd5b145b611c1c576040517f08c379a0000000000000000000000000000000000000000000000000000000008152600401611c1390613b4c565b60405180910390fd5b600d60008481526020019081526020016000206001015480341015611c76576040517f08c379a0000000000000000000000000000000000000000000000000000000008152600401611c6d90613ccc565b60405180910390fd5b6000600d600086815260200190815260200160002060020160019054906101000a900473ffffffffffffffffffffffffffffffffffffffff169050611cc4611cbd86610e4e565b338761251e565b8073ffffffffffffffffffffffffffffffffffffffff166108fc349081150290604051600060405180830381858888f19350505050158015611d0a573d6000803e3d6000fd5b5033600d600087815260200190815260200160002060020160016101000a81548173ffffffffffffffffffffffffffffffffffffffff021916908373ffffffffffffffffffffffffffffffffffffffff16021790555060026004811115611d9a577f4e487b7100000000000000000000000000000000000000000000000000000000600052602160045260246000fd5b600d600087815260200190815260200160002060020160009054906101000a900460ff166004811115611df6577f4e487b7100000000000000000000000000000000000000000000000000000000600052602160045260246000fd5b14611e61576002600d600087815260200190815260200160002060020160006101000a81548160ff02191690836004811115611e5b577f4e487b7100000000000000000000000000000000000000000000000000000000600052602160045260246000fd5b02179055505b7f12cb4648cf3058b17ceeb33e579f8b0bc269fe0843f3900b8e24b6c54871703c33600d600088815260200190815260200160002060010154600d600089815260200190815260200160002060000154604051611ec0939291906139f8565b60405180910390a15050505050565b611ed761237f565b73ffffffffffffffffffffffffffffffffffffffff16611ef561145f565b73ffffffffffffffffffffffffffffffffffffffff1614611f4b576040517f08c379a0000000000000000000000000000000000000000000000000000000008152600401611f4290613cac565b60405180910390fd5b8060099080519060200190611f61929190613078565b5050565b8060036004811115611fa0577f4e487b7100000000000000000000000000000000000000000000000000000000600052602160045260246000fd5b600d600083815260200190815260200160002060020160009054906101000a900460ff166004811115611ffc577f4e487b7100000000000000000000000000000000000000000000000000000000600052602160045260246000fd5b1461203c576040517f08c379a000000000000000000000000000000000000000000000000000000000815260040161203390613a8c565b60405180910390fd5b813373ffffffffffffffffffffffffffffffffffffffff1661205d82610e4e565b73ffffffffffffffffffffffffffffffffffffffff16146120b3576040517f08c379a00000000000000000000000000000000000000000000000000000000081526004016120aa90613bac565b60405180910390fd5b6004600d600085815260200190815260200160002060020160006101000a81548160ff02191690836004811115612113577f4e487b7100000000000000000000000000000000000000000000000000000000600052602160045260246000fd5b0217905550505050565b6000600560008473ffffffffffffffffffffffffffffffffffffffff1673ffffffffffffffffffffffffffffffffffffffff16815260200190815260200160002060008373ffffffffffffffffffffffffffffffffffffffff1673ffffffffffffffffffffffffffffffffffffffff16815260200190815260200160002060009054906101000a900460ff16905092915050565b6121b961237f565b73ffffffffffffffffffffffffffffffffffffffff166121d761145f565b73ffffffffffffffffffffffffffffffffffffffff161461222d576040517f08c379a000000000000000000000000000000000000000000000000000000000815260040161222490613cac565b60405180910390fd5b600073ffffffffffffffffffffffffffffffffffffffff168173ffffffffffffffffffffffffffffffffffffffff16141561229d576040517f08c379a000000000000000000000000000000000000000000000000000000000815260040161229490613aac565b60405180910390fd5b6122a6816126e3565b50565b60007f01ffc9a7000000000000000000000000000000000000000000000000000000007bffffffffffffffffffffffffffffffffffffffffffffffffffffffff1916827bffffffffffffffffffffffffffffffffffffffffffffffffffffffff1916149050919050565b60008073ffffffffffffffffffffffffffffffffffffffff166002600084815260200190815260200160002060009054906101000a900473ffffffffffffffffffffffffffffffffffffffff1673ffffffffffffffffffffffffffffffffffffffff1614159050919050565b600033905090565b816004600083815260200190815260200160002060006101000a81548173ffffffffffffffffffffffffffffffffffffffff021916908373ffffffffffffffffffffffffffffffffffffffff160217905550808273ffffffffffffffffffffffffffffffffffffffff166123fa83610e4e565b73ffffffffffffffffffffffffffffffffffffffff167f8c5be1e5ebec7d5bd14f71427d1e84f3dd0314c0f7b2291e5b200ac8c7c3b92560405160405180910390a45050565b600061244b82612313565b61248a576040517f08c379a000000000000000000000000000000000000000000000000000000000815260040161248190613b6c565b60405180910390fd5b600061249583610e4e565b90508073ffffffffffffffffffffffffffffffffffffffff168473ffffffffffffffffffffffffffffffffffffffff16148061250457508373ffffffffffffffffffffffffffffffffffffffff166124ec84610868565b73ffffffffffffffffffffffffffffffffffffffff16145b806125155750612514818561211d565b5b91505092915050565b600480811115612557577f4e487b7100000000000000000000000000000000000000000000000000000000600052602160045260246000fd5b600d600083815260200190815260200160002060020160009054906101000a900460ff1660048111156125b3577f4e487b7100000000000000000000000000000000000000000000000000000000600052602160045260246000fd5b14806126525750600160048111156125f4577f4e487b7100000000000000000000000000000000000000000000000000000000600052602160045260246000fd5b600d600083815260200190815260200160002060020160009054906101000a900460ff166004811115612650577f4e487b7100000000000000000000000000000000000000000000000000000000600052602160045260246000fd5b145b612691576040517f08c379a000000000000000000000000000000000000000000000000000000000815260040161268890613c8c565b60405180910390fd5b61269c838383612a44565b505050565b600081600001549050919050565b6126c9828260405180602001604052806000815250612ca0565b5050565b6001816000016000828254019250508190555050565b6000600660009054906101000a900473ffffffffffffffffffffffffffffffffffffffff16905081600660006101000a81548173ffffffffffffffffffffffffffffffffffffffff021916908373ffffffffffffffffffffffffffffffffffffffff1602179055508173ffffffffffffffffffffffffffffffffffffffff168173ffffffffffffffffffffffffffffffffffffffff167f8be0079c531659141344cd1fd0a4f28419497f9722a3daafe3b4186f6b6457e060405160405180910390a35050565b6127b484848461251e565b6127c084848484612cfb565b6127ff576040517f08c379a00000000000000000000000000000000000000000000000000000000081526004016127f690613a6c565b60405180910390fd5b50505050565b60606008805461281490614024565b80601f016020809104026020016040519081016040528092919081815260200182805461284090614024565b801561288d5780601f106128625761010080835404028352916020019161288d565b820191906000526020600020905b81548152906001019060200180831161287057829003601f168201915b5050505050905090565b606060008214156128df576040518060400160405280600181526020017f30000000000000000000000000000000000000000000000000000000000000008152509050612a3f565b600082905060005b600082146129115780806128fa90614087565b915050600a8261290a9190613ef7565b91506128e7565b60008167ffffffffffffffff811115612953577f4e487b7100000000000000000000000000000000000000000000000000000000600052604160045260246000fd5b6040519080825280601f01601f1916602001820160405280156129855781602001600182028036833780820191505090505b5090505b60008514612a385760018261299e9190613f28565b9150600a856129ad91906140d0565b60306129b99190613ea1565b60f81b8183815181106129f5577f4e487b7100000000000000000000000000000000000000000000000000000000600052603260045260246000fd5b60200101907effffffffffffffffffffffffffffffffffffffffffffffffffffffffffffff1916908160001a905350600a85612a319190613ef7565b9450612989565b8093505050505b919050565b8273ffffffffffffffffffffffffffffffffffffffff16612a6482610e4e565b73ffffffffffffffffffffffffffffffffffffffff1614612aba576040517f08c379a0000000000000000000000000000000000000000000000000000000008152600401612ab190613cec565b60405180910390fd5b600073ffffffffffffffffffffffffffffffffffffffff168273ffffffffffffffffffffffffffffffffffffffff161415612b2a576040517f08c379a0000000000000000000000000000000000000000000000000000000008152600401612b2190613b0c565b60405180910390fd5b612b35838383612e92565b612b40600082612387565b6001600360008573ffffffffffffffffffffffffffffffffffffffff1673ffffffffffffffffffffffffffffffffffffffff1681526020019081526020016000206000828254612b909190613f28565b925050819055506001600360008473ffffffffffffffffffffffffffffffffffffffff1673ffffffffffffffffffffffffffffffffffffffff1681526020019081526020016000206000828254612be79190613ea1565b92505081905550816002600083815260200190815260200160002060006101000a81548173ffffffffffffffffffffffffffffffffffffffff021916908373ffffffffffffffffffffffffffffffffffffffff160217905550808273ffffffffffffffffffffffffffffffffffffffff168473ffffffffffffffffffffffffffffffffffffffff167fddf252ad1be2c89b69c2b068fc378daa952ba7f163c4a11628f55a4df523b3ef60405160405180910390a4505050565b612caa8383612e97565b612cb76000848484612cfb565b612cf6576040517f08c379a0000000000000000000000000000000000000000000000000000000008152600401612ced90613a6c565b60405180910390fd5b505050565b6000612d1c8473ffffffffffffffffffffffffffffffffffffffff16613065565b15612e85578373ffffffffffffffffffffffffffffffffffffffff1663150b7a02612d4561237f565b8786866040518563ffffffff1660e01b8152600401612d6794939291906139ac565b602060405180830381600087803b158015612d8157600080fd5b505af1925050508015612db257506040513d601f19601f82011682018060405250810190612daf9190613424565b60015b612e35573d8060008114612de2576040519150601f19603f3d011682016040523d82523d6000602084013e612de7565b606091505b50600081511415612e2d576040517f08c379a0000000000000000000000000000000000000000000000000000000008152600401612e2490613a6c565b60405180910390fd5b805181602001fd5b63150b7a0260e01b7bffffffffffffffffffffffffffffffffffffffffffffffffffffffff1916817bffffffffffffffffffffffffffffffffffffffffffffffffffffffff191614915050612e8a565b600190505b949350505050565b505050565b600073ffffffffffffffffffffffffffffffffffffffff168273ffffffffffffffffffffffffffffffffffffffff161415612f07576040517f08c379a0000000000000000000000000000000000000000000000000000000008152600401612efe90613c4c565b60405180910390fd5b612f1081612313565b15612f50576040517f08c379a0000000000000000000000000000000000000000000000000000000008152600401612f4790613aec565b60405180910390fd5b612f5c60008383612e92565b6001600360008473ffffffffffffffffffffffffffffffffffffffff1673ffffffffffffffffffffffffffffffffffffffff1681526020019081526020016000206000828254612fac9190613ea1565b92505081905550816002600083815260200190815260200160002060006101000a81548173ffffffffffffffffffffffffffffffffffffffff021916908373ffffffffffffffffffffffffffffffffffffffff160217905550808273ffffffffffffffffffffffffffffffffffffffff16600073ffffffffffffffffffffffffffffffffffffffff167fddf252ad1be2c89b69c2b068fc378daa952ba7f163c4a11628f55a4df523b3ef60405160405180910390a45050565b600080823b905060008111915050919050565b82805461308490614024565b90600052602060002090601f0160209004810192826130a657600085556130ed565b82601f106130bf57805160ff19168380011785556130ed565b828001600101855582156130ed579182015b828111156130ec5782518255916020019190600101906130d1565b5b5090506130fa91906130fe565b5090565b5b808211156131175760008160009055506001016130ff565b5090565b600061312e61312984613df1565b613dcc565b90508281526020810184848401111561314657600080fd5b613151848285613fe2565b509392505050565b600061316c61316784613e22565b613dcc565b90508281526020810184848401111561318457600080fd5b61318f848285613fe2565b509392505050565b6000813590506131a6816148c7565b92915050565b6000813590506131bb816148de565b92915050565b6000813590506131d0816148f5565b92915050565b6000815190506131e5816148f5565b92915050565b600082601f8301126131fc57600080fd5b813561320c84826020860161311b565b91505092915050565b600082601f83011261322657600080fd5b8135613236848260208601613159565b91505092915050565b60008135905061324e8161490c565b92915050565b60006020828403121561326657600080fd5b600061327484828501613197565b91505092915050565b6000806040838503121561329057600080fd5b600061329e85828601613197565b92505060206132af85828601613197565b9150509250929050565b6000806000606084860312156132ce57600080fd5b60006132dc86828701613197565b93505060206132ed86828701613197565b92505060406132fe8682870161323f565b9150509250925092565b6000806000806080858703121561331e57600080fd5b600061332c87828801613197565b945050602061333d87828801613197565b935050604061334e8782880161323f565b925050606085013567ffffffffffffffff81111561336b57600080fd5b613377878288016131eb565b91505092959194509250565b6000806040838503121561339657600080fd5b60006133a485828601613197565b92505060206133b5858286016131ac565b9150509250929050565b600080604083850312156133d257600080fd5b60006133e085828601613197565b92505060206133f18582860161323f565b9150509250929050565b60006020828403121561340d57600080fd5b600061341b848285016131c1565b91505092915050565b60006020828403121561343657600080fd5b6000613444848285016131d6565b91505092915050565b60006020828403121561345f57600080fd5b600082013567ffffffffffffffff81111561347957600080fd5b61348584828501613215565b91505092915050565b6000602082840312156134a057600080fd5b60006134ae8482850161323f565b91505092915050565b600080604083850312156134ca57600080fd5b60006134d88582860161323f565b92505060206134e98582860161323f565b9150509250929050565b6134fc81613f6e565b82525050565b61350b81613f5c565b82525050565b61351a81613f80565b82525050565b600061352b82613e53565b6135358185613e69565b9350613545818560208601613ff1565b61354e816141bd565b840191505092915050565b600061356482613e5e565b61356e8185613e85565b935061357e818560208601613ff1565b613587816141bd565b840191505092915050565b600061359d82613e5e565b6135a78185613e96565b93506135b7818560208601613ff1565b80840191505092915050565b60006135d0603283613e85565b91506135db826141ce565b604082019050919050565b60006135f3603583613e85565b91506135fe8261421d565b604082019050919050565b6000613616602683613e85565b91506136218261426c565b604082019050919050565b6000613639603483613e85565b9150613644826142bb565b604082019050919050565b600061365c601c83613e85565b91506136678261430a565b602082019050919050565b600061367f602483613e85565b915061368a82614333565b604082019050919050565b60006136a2601983613e85565b91506136ad82614382565b602082019050919050565b60006136c5602f83613e85565b91506136d0826143ab565b604082019050919050565b60006136e8602c83613e85565b91506136f3826143fa565b604082019050919050565b600061370b603283613e85565b915061371682614449565b604082019050919050565b600061372e603183613e85565b915061373982614498565b604082019050919050565b6000613751603783613e85565b915061375c826144e7565b604082019050919050565b6000613774603883613e85565b915061377f82614536565b604082019050919050565b6000613797602a83613e85565b91506137a282614585565b604082019050919050565b60006137ba602983613e85565b91506137c5826145d4565b604082019050919050565b60006137dd602083613e85565b91506137e882614623565b602082019050919050565b6000613800602c83613e85565b915061380b8261464c565b604082019050919050565b6000613823604183613e85565b915061382e8261469b565b606082019050919050565b6000613846602083613e85565b915061385182614710565b602082019050919050565b6000613869602483613e85565b915061387482614739565b604082019050919050565b600061388c602983613e85565b915061389782614788565b604082019050919050565b60006138af602f83613e85565b91506138ba826147d7565b604082019050919050565b60006138d2602183613e85565b91506138dd82614826565b604082019050919050565b60006138f5600083613e7a565b915061390082614875565b600082019050919050565b6000613918603183613e85565b915061392382614878565b604082019050919050565b61393781613fd8565b82525050565b60006139498285613592565b91506139558284613592565b91508190509392505050565b600061396c826138e8565b9150819050919050565b600060208201905061398b6000830184613502565b92915050565b60006020820190506139a660008301846134f3565b92915050565b60006080820190506139c16000830187613502565b6139ce6020830186613502565b6139db604083018561392e565b81810360608301526139ed8184613520565b905095945050505050565b6000606082019050613a0d6000830186613502565b613a1a602083018561392e565b613a27604083018461392e565b949350505050565b6000602082019050613a446000830184613511565b92915050565b60006020820190508181036000830152613a648184613559565b905092915050565b60006020820190508181036000830152613a85816135c3565b9050919050565b60006020820190508181036000830152613aa5816135e6565b9050919050565b60006020820190508181036000830152613ac581613609565b9050919050565b60006020820190508181036000830152613ae58161362c565b9050919050565b60006020820190508181036000830152613b058161364f565b9050919050565b60006020820190508181036000830152613b2581613672565b9050919050565b60006020820190508181036000830152613b4581613695565b9050919050565b60006020820190508181036000830152613b65816136b8565b9050919050565b60006020820190508181036000830152613b85816136db565b9050919050565b60006020820190508181036000830152613ba5816136fe565b9050919050565b60006020820190508181036000830152613bc581613721565b9050919050565b60006020820190508181036000830152613be581613744565b9050919050565b60006020820190508181036000830152613c0581613767565b9050919050565b60006020820190508181036000830152613c258161378a565b9050919050565b60006020820190508181036000830152613c45816137ad565b9050919050565b60006020820190508181036000830152613c65816137d0565b9050919050565b60006020820190508181036000830152613c85816137f3565b9050919050565b60006020820190508181036000830152613ca581613816565b9050919050565b60006020820190508181036000830152613cc581613839565b9050919050565b60006020820190508181036000830152613ce58161385c565b9050919050565b60006020820190508181036000830152613d058161387f565b9050919050565b60006020820190508181036000830152613d25816138a2565b9050919050565b60006020820190508181036000830152613d45816138c5565b9050919050565b60006020820190508181036000830152613d658161390b565b9050919050565b6000602082019050613d81600083018461392e565b92915050565b6000608082019050613d9c600083018761392e565b613da9602083018661392e565b613db6604083018561392e565b613dc36060830184613502565b95945050505050565b6000613dd6613de7565b9050613de28282614056565b919050565b6000604051905090565b600067ffffffffffffffff821115613e0c57613e0b61418e565b5b613e15826141bd565b9050602081019050919050565b600067ffffffffffffffff821115613e3d57613e3c61418e565b5b613e46826141bd565b9050602081019050919050565b600081519050919050565b600081519050919050565b600082825260208201905092915050565b600081905092915050565b600082825260208201905092915050565b600081905092915050565b6000613eac82613fd8565b9150613eb783613fd8565b9250827fffffffffffffffffffffffffffffffffffffffffffffffffffffffffffffffff03821115613eec57613eeb614101565b5b828201905092915050565b6000613f0282613fd8565b9150613f0d83613fd8565b925082613f1d57613f1c614130565b5b828204905092915050565b6000613f3382613fd8565b9150613f3e83613fd8565b925082821015613f5157613f50614101565b5b828203905092915050565b6000613f6782613fb8565b9050919050565b6000613f7982613fb8565b9050919050565b60008115159050919050565b60007fffffffff0000000000000000000000000000000000000000000000000000000082169050919050565b600073ffffffffffffffffffffffffffffffffffffffff82169050919050565b6000819050919050565b82818337600083830152505050565b60005b8381101561400f578082015181840152602081019050613ff4565b8381111561401e576000848401525b50505050565b6000600282049050600182168061403c57607f821691505b602082108114156140505761404f61415f565b5b50919050565b61405f826141bd565b810181811067ffffffffffffffff8211171561407e5761407d61418e565b5b80604052505050565b600061409282613fd8565b91507fffffffffffffffffffffffffffffffffffffffffffffffffffffffffffffffff8214156140c5576140c4614101565b5b600182019050919050565b60006140db82613fd8565b91506140e683613fd8565b9250826140f6576140f5614130565b5b828206905092915050565b7f4e487b7100000000000000000000000000000000000000000000000000000000600052601160045260246000fd5b7f4e487b7100000000000000000000000000000000000000000000000000000000600052601260045260246000fd5b7f4e487b7100000000000000000000000000000000000000000000000000000000600052602260045260246000fd5b7f4e487b7100000000000000000000000000000000000000000000000000000000600052604160045260246000fd5b6000601f19601f8301169050919050565b7f4552433732313a207472616e7366657220746f206e6f6e20455243373231526560008201527f63656976657220696d706c656d656e7465720000000000000000000000000000602082015250565b7f4372696f6c6c6f546f6b656e3a204572726f722c205468697320746f6b656e2060008201527f686173206e6f74206265656e2053686970706564210000000000000000000000602082015250565b7f4f776e61626c653a206e6577206f776e657220697320746865207a65726f206160008201527f6464726573730000000000000000000000000000000000000000000000000000602082015250565b7f4372696f6c6c6f546f6b656e3a204572726f722c205468697320746f6b656e2060008201527f686173206e6f74206265656e204c6f636b656421000000000000000000000000602082015250565b7f4552433732313a20746f6b656e20616c7265616479206d696e74656400000000600082015250565b7f4552433732313a207472616e7366657220746f20746865207a65726f2061646460008201527f7265737300000000000000000000000000000000000000000000000000000000602082015250565b7f4552433732313a20617070726f766520746f2063616c6c657200000000000000600082015250565b7f4372696f6c6c6f546f6b656e3a204572726f722c205468697320746f6b656e2060008201527f6973206e6f7420666f722073616c650000000000000000000000000000000000602082015250565b7f4552433732313a206f70657261746f7220717565727920666f72206e6f6e657860008201527f697374656e7420746f6b656e0000000000000000000000000000000000000000602082015250565b7f4372696f6c6c6f546f6b656e3a204572726f722c205468697320746f6b656e2060008201527f63616e206e6f74206265206c6973746564210000000000000000000000000000602082015250565b7f4372696f6c6c6f546f6b656e3a204572726f722c20596f7520617265206e6f7460008201527f2074686520746f6b656e206f776e657221000000000000000000000000000000602082015250565b7f4372696f6c6c6f546f6b656e3a204572726f722c205468697320746f6b656e2060008201527f686173206e6f74206265656e206d696e74656420796574000000000000000000602082015250565b7f4552433732313a20617070726f76652063616c6c6572206973206e6f74206f7760008201527f6e6572206e6f7220617070726f76656420666f7220616c6c0000000000000000602082015250565b7f4552433732313a2062616c616e636520717565727920666f7220746865207a6560008201527f726f206164647265737300000000000000000000000000000000000000000000602082015250565b7f4552433732313a206f776e657220717565727920666f72206e6f6e657869737460008201527f656e7420746f6b656e0000000000000000000000000000000000000000000000602082015250565b7f4552433732313a206d696e7420746f20746865207a65726f2061646472657373600082015250565b7f4552433732313a20617070726f76656420717565727920666f72206e6f6e657860008201527f697374656e7420746f6b656e0000000000000000000000000000000000000000602082015250565b7f4372696f6c6c6f546f6b656e3a204572726f722c205468697320746f6b656e2060008201527f6973206e6f74204c6f636b656420666f72206265656e2074726e61736665722060208201527f2100000000000000000000000000000000000000000000000000000000000000604082015250565b7f4f776e61626c653a2063616c6c6572206973206e6f7420746865206f776e6572600082015250565b7f4372696f6c6c6f546f6b656e3a204572726f722c20546f6b656e20636f73742060008201527f6d6f726500000000000000000000000000000000000000000000000000000000602082015250565b7f4552433732313a207472616e73666572206f6620746f6b656e2074686174206960008201527f73206e6f74206f776e0000000000000000000000000000000000000000000000602082015250565b7f4552433732314d657461646174613a2055524920717565727920666f72206e6f60008201527f6e6578697374656e7420746f6b656e0000000000000000000000000000000000602082015250565b7f4552433732313a20617070726f76616c20746f2063757272656e74206f776e6560008201527f7200000000000000000000000000000000000000000000000000000000000000602082015250565b50565b7f4552433732313a207472616e736665722063616c6c6572206973206e6f74206f60008201527f776e6572206e6f7220617070726f766564000000000000000000000000000000602082015250565b6148d081613f5c565b81146148db57600080fd5b50565b6148e781613f80565b81146148f257600080fd5b50565b6148fe81613f8c565b811461490957600080fd5b50565b61491581613fd8565b811461492057600080fd5b5056fea26469706673582212209a091249bb533fc2b07b83b2559b84ed611abaeead42a7c55a9d107da1d4c61864736f6c63430008030033",
  "immutableReferences": {},
  "source": "// SPDX-License-Identifier: MIT\npragma solidity 0.8.3;\n\nimport \"@openzeppelin/contracts/token/ERC721/ERC721.sol\";\nimport \"@openzeppelin/contracts/access/Ownable.sol\";\nimport \"@openzeppelin/contracts/utils/Counters.sol\";\n\ncontract CriolloToken is ERC721, Ownable {\n    using Counters for Counters.Counter;\n\n    event Purchase(address owner, uint256 price, uint256 id);\n    event TokenUnlocked(uint256 _id, address _unlockerAddress);\n    event NewTokenMinted(uint256 _tokenId);\n\n    enum State {\n        NotListed,\n        ForSale,\n        Locked,\n        Shipped,\n        Unlocked\n    }\n    struct Criollo {\n        uint256 tokenId;\n        uint256 price;\n        State state;\n        address payable tokenOwner;\n    }\n\n    address payable public _owner;\n    string public baseURI;\n    string public baseExtension = \".json\";\n    uint256 public cost = 0.25 ether;\n    uint256 public maxMintAmount = 1;\n\n    Counters.Counter private _tokenIdCounter;\n\n    mapping(uint256 => Criollo) criollos;\n\n    modifier isMinted(uint256 _id) {\n        require(\n            _exists(_id),\n            \"CriolloToken: Error, This token has not been minted yet\"\n        );\n        _;\n    }\n    modifier isOwner(uint256 _id) {\n        require(\n            ownerOf(_id) == msg.sender,\n            \"CriolloToken: Error, You are not the token owner!\"\n        );\n        _;\n    }\n\n    modifier canBeListed(uint256 _id) {\n        require(\n            criollos[_id].state == State.NotListed ||\n                criollos[_id].state == State.Unlocked,\n            \"CriolloToken: Error, This token can not be listed!\"\n        );\n        _;\n    }\n\n    modifier isUnlocked(uint256 _id) {\n        require(\n            criollos[_id].state == State.Unlocked,\n            \"CriolloToken: Error, This token is not Unlocked !\"\n        );\n        _;\n    }\n\n    modifier isLocked(uint256 _id) {\n        require(\n            criollos[_id].state == State.Locked,\n            \"CriolloToken: Error, This token has not been Locked!\"\n        );\n        _;\n    }\n\n    modifier isShipped(uint256 _id) {\n        require(\n            criollos[_id].state == State.Shipped,\n            \"CriolloToken: Error, This token has not been Shipped!\"\n        );\n        _;\n    }\n\n    modifier forSale(uint256 _id) {\n        require(\n            criollos[_id].state == State.ForSale ||\n                criollos[_id].state == State.Unlocked,\n            \"CriolloToken: Error, This token is not for sale\"\n        );\n        _;\n    }\n\n    modifier paidEnough(uint256 _price) {\n        require(msg.value >= _price, \"CriolloToken: Error, Token cost more\");\n        _;\n    }\n\n    constructor(\n        string memory name_,\n        string memory symbol_,\n        string memory _initBaseURI\n    ) ERC721(name_, symbol_) {\n        _owner = payable(msg.sender);\n        setBaseURI(_initBaseURI);\n    }\n\n    function _baseURI() internal view virtual override returns (string memory) {\n        return baseURI;\n    }\n\n    function setBaseURI(string memory _newBaseURI) public onlyOwner {\n        baseURI = _newBaseURI;\n    }\n\n    function setBaseExtension(string memory _newBaseExtension)\n        public\n        onlyOwner\n    {\n        baseExtension = _newBaseExtension;\n    }\n\n    function safeMint(uint256 _price) public payable onlyOwner {\n        uint256 _tokenId = _tokenIdCounter.current();\n\n        _safeMint(msg.sender, _tokenId);\n\n        criollos[_tokenId] = Criollo({\n            price: _price,\n            tokenId: _tokenId,\n            state: State.NotListed,\n            tokenOwner: _owner\n        });\n\n        emit NewTokenMinted(_tokenId);\n\n        _tokenIdCounter.increment();\n    }\n\n    function addToMarketPlace(uint256 _id, uint256 _price)\n        public\n        isMinted(_id)\n        isOwner(_id)\n        canBeListed(_id)\n    {\n        criollos[_id].state = State.ForSale;\n        criollos[_id].price = _price;\n    }\n\n    function getCriollo(uint256 _tokenId)\n        public\n        view\n        returns (\n            uint256 tokenId,\n            uint256 price,\n            uint256 state,\n            address tokenOwner\n        )\n    {\n        tokenId = criollos[_tokenId].tokenId;\n        price = criollos[_tokenId].price;\n        state = uint256(criollos[_tokenId].state);\n        tokenOwner = criollos[_tokenId].tokenOwner;\n        return (tokenId, price, state, tokenOwner);\n    }\n\n    function buy(uint256 _id)\n        external\n        payable\n        isMinted(_id)\n        forSale(_id)\n        paidEnough(criollos[_id].price)\n    {\n        address payable _currentOwner = criollos[_id].tokenOwner;\n\n        _transfer(ownerOf(_id), msg.sender, _id);\n        _currentOwner.transfer(msg.value);\n\n        criollos[_id].tokenOwner = payable(msg.sender);\n\n        if (criollos[_id].state != State.Locked) {\n            criollos[_id].state = State.Locked;\n        }\n\n        emit Purchase(msg.sender, criollos[_id].price, criollos[_id].tokenId);\n    }\n\n    function shipped(uint256 _id) public onlyOwner isMinted(_id) isLocked(_id) {\n        criollos[_id].state = State.Shipped;\n    }\n\n    function unlockToken(uint256 _id) public isShipped(_id) isOwner(_id) {\n        criollos[_id].state = State.Unlocked;\n    }\n\n    function withdraw() public payable onlyOwner {\n        (bool success, ) = payable(msg.sender).call{\n            value: address(this).balance\n        }(\"\");\n        require(success);\n    }\n\n    function _buyFromCriollo(uint256 _id) internal {\n        address payable _currentOwner = criollos[_id].tokenOwner;\n\n        _transfer(ownerOf(_id), msg.sender, _id);\n        _currentOwner.transfer(msg.value);\n\n        criollos[_id].tokenOwner = payable(msg.sender);\n        criollos[_id].state = State.Locked;\n    }\n\n    function _buyFromUser(uint256 _id) internal isUnlocked(_id) {\n        address payable _currentOwner = criollos[_id].tokenOwner;\n\n        _transfer(_currentOwner, msg.sender, _id);\n        _currentOwner.transfer(msg.value);\n        criollos[_id].tokenOwner = payable(msg.sender);\n    }\n\n    function _transfer(\n        address from,\n        address to,\n        uint256 tokenId\n    ) internal override {\n        require(\n            criollos[tokenId].state == State.Unlocked ||\n                criollos[tokenId].state == State.ForSale,\n            \"CriolloToken: Error, This token is not Locked for been trnasfer !\"\n        );\n        super._transfer(from, to, tokenId);\n    }\n}\n",
  "sourcePath": "/home/josue/workspace/CryptoProjects/blockchain-developer-bootcamp-final-project/contracts/CriolloToken.sol",
  "compiler": {
    "name": "solc",
    "version": "0.8.3+commit.8d00100c.Emscripten.clang"
  },
  "schemaVersion": "3.4.3",
  "updatedAt": "2021-11-23T19:44:15.754Z",
  "devdoc": {
    "kind": "dev",
    "methods": {
      "approve(address,uint256)": {
        "details": "See {IERC721-approve}."
      },
      "balanceOf(address)": {
        "details": "See {IERC721-balanceOf}."
      },
      "getApproved(uint256)": {
        "details": "See {IERC721-getApproved}."
      },
      "isApprovedForAll(address,address)": {
        "details": "See {IERC721-isApprovedForAll}."
      },
      "name()": {
        "details": "See {IERC721Metadata-name}."
      },
      "owner()": {
        "details": "Returns the address of the current owner."
      },
      "ownerOf(uint256)": {
        "details": "See {IERC721-ownerOf}."
      },
      "renounceOwnership()": {
        "details": "Leaves the contract without owner. It will not be possible to call `onlyOwner` functions anymore. Can only be called by the current owner. NOTE: Renouncing ownership will leave the contract without an owner, thereby removing any functionality that is only available to the owner."
      },
      "safeTransferFrom(address,address,uint256)": {
        "details": "See {IERC721-safeTransferFrom}."
      },
      "safeTransferFrom(address,address,uint256,bytes)": {
        "details": "See {IERC721-safeTransferFrom}."
      },
      "setApprovalForAll(address,bool)": {
        "details": "See {IERC721-setApprovalForAll}."
      },
      "supportsInterface(bytes4)": {
        "details": "See {IERC165-supportsInterface}."
      },
      "symbol()": {
        "details": "See {IERC721Metadata-symbol}."
      },
      "tokenURI(uint256)": {
        "details": "See {IERC721Metadata-tokenURI}."
      },
      "transferFrom(address,address,uint256)": {
        "details": "See {IERC721-transferFrom}."
      },
      "transferOwnership(address)": {
        "details": "Transfers ownership of the contract to a new account (`newOwner`). Can only be called by the current owner."
      }
    },
    "version": 1
  },
  "userdoc": {
    "kind": "user",
    "methods": {},
    "version": 1
  }
}