{
  "contractName": "CriolloToken",
  "abi": [
    {
      "inputs": [
        {
          "internalType": "string",
          "name": "name_",
          "type": "string"
        },
        {
          "internalType": "string",
          "name": "symbol_",
          "type": "string"
        },
        {
          "internalType": "string",
          "name": "_initBaseURI",
          "type": "string"
        }
      ],
      "stateMutability": "nonpayable",
      "type": "constructor"
    },
    {
      "anonymous": false,
      "inputs": [
        {
          "indexed": true,
          "internalType": "address",
          "name": "owner",
          "type": "address"
        },
        {
          "indexed": true,
          "internalType": "address",
          "name": "approved",
          "type": "address"
        },
        {
          "indexed": true,
          "internalType": "uint256",
          "name": "tokenId",
          "type": "uint256"
        }
      ],
      "name": "Approval",
      "type": "event"
    },
    {
      "anonymous": false,
      "inputs": [
        {
          "indexed": true,
          "internalType": "address",
          "name": "owner",
          "type": "address"
        },
        {
          "indexed": true,
          "internalType": "address",
          "name": "operator",
          "type": "address"
        },
        {
          "indexed": false,
          "internalType": "bool",
          "name": "approved",
          "type": "bool"
        }
      ],
      "name": "ApprovalForAll",
      "type": "event"
    },
    {
      "anonymous": false,
      "inputs": [
        {
          "indexed": true,
          "internalType": "address",
          "name": "previousOwner",
          "type": "address"
        },
        {
          "indexed": true,
          "internalType": "address",
          "name": "newOwner",
          "type": "address"
        }
      ],
      "name": "OwnershipTransferred",
      "type": "event"
    },
    {
      "anonymous": false,
      "inputs": [
        {
          "indexed": false,
          "internalType": "address",
          "name": "owner",
          "type": "address"
        },
        {
          "indexed": false,
          "internalType": "uint256",
          "name": "price",
          "type": "uint256"
        },
        {
          "indexed": false,
          "internalType": "uint256",
          "name": "id",
          "type": "uint256"
        }
      ],
      "name": "Purchase",
      "type": "event"
    },
    {
      "anonymous": false,
      "inputs": [
        {
          "indexed": false,
          "internalType": "uint256",
          "name": "_id",
          "type": "uint256"
        },
        {
          "indexed": false,
          "internalType": "address",
          "name": "_unlockerAddress",
          "type": "address"
        }
      ],
      "name": "TokenUnlocked",
      "type": "event"
    },
    {
      "anonymous": false,
      "inputs": [
        {
          "indexed": true,
          "internalType": "address",
          "name": "from",
          "type": "address"
        },
        {
          "indexed": true,
          "internalType": "address",
          "name": "to",
          "type": "address"
        },
        {
          "indexed": true,
          "internalType": "uint256",
          "name": "tokenId",
          "type": "uint256"
        }
      ],
      "name": "Transfer",
      "type": "event"
    },
    {
      "inputs": [
        {
          "internalType": "address",
          "name": "to",
          "type": "address"
        },
        {
          "internalType": "uint256",
          "name": "tokenId",
          "type": "uint256"
        }
      ],
      "name": "approve",
      "outputs": [],
      "stateMutability": "nonpayable",
      "type": "function"
    },
    {
      "inputs": [
        {
          "internalType": "address",
          "name": "owner",
          "type": "address"
        }
      ],
      "name": "balanceOf",
      "outputs": [
        {
          "internalType": "uint256",
          "name": "",
          "type": "uint256"
        }
      ],
      "stateMutability": "view",
      "type": "function",
      "constant": true
    },
    {
      "inputs": [],
      "name": "baseExtension",
      "outputs": [
        {
          "internalType": "string",
          "name": "",
          "type": "string"
        }
      ],
      "stateMutability": "view",
      "type": "function",
      "constant": true
    },
    {
      "inputs": [],
      "name": "baseURI",
      "outputs": [
        {
          "internalType": "string",
          "name": "",
          "type": "string"
        }
      ],
      "stateMutability": "view",
      "type": "function",
      "constant": true
    },
    {
      "inputs": [
        {
          "internalType": "uint256",
          "name": "tokenId",
          "type": "uint256"
        }
      ],
      "name": "getApproved",
      "outputs": [
        {
          "internalType": "address",
          "name": "",
          "type": "address"
        }
      ],
      "stateMutability": "view",
      "type": "function",
      "constant": true
    },
    {
      "inputs": [
        {
          "internalType": "address",
          "name": "owner",
          "type": "address"
        },
        {
          "internalType": "address",
          "name": "operator",
          "type": "address"
        }
      ],
      "name": "isApprovedForAll",
      "outputs": [
        {
          "internalType": "bool",
          "name": "",
          "type": "bool"
        }
      ],
      "stateMutability": "view",
      "type": "function",
      "constant": true
    },
    {
      "inputs": [],
      "name": "name",
      "outputs": [
        {
          "internalType": "string",
          "name": "",
          "type": "string"
        }
      ],
      "stateMutability": "view",
      "type": "function",
      "constant": true
    },
    {
      "inputs": [],
      "name": "owner",
      "outputs": [
        {
          "internalType": "address",
          "name": "",
          "type": "address"
        }
      ],
      "stateMutability": "view",
      "type": "function",
      "constant": true
    },
    {
      "inputs": [
        {
          "internalType": "uint256",
          "name": "tokenId",
          "type": "uint256"
        }
      ],
      "name": "ownerOf",
      "outputs": [
        {
          "internalType": "address",
          "name": "",
          "type": "address"
        }
      ],
      "stateMutability": "view",
      "type": "function",
      "constant": true
    },
    {
      "inputs": [],
      "name": "renounceOwnership",
      "outputs": [],
      "stateMutability": "nonpayable",
      "type": "function"
    },
    {
      "inputs": [
        {
          "internalType": "address",
          "name": "from",
          "type": "address"
        },
        {
          "internalType": "address",
          "name": "to",
          "type": "address"
        },
        {
          "internalType": "uint256",
          "name": "tokenId",
          "type": "uint256"
        }
      ],
      "name": "safeTransferFrom",
      "outputs": [],
      "stateMutability": "nonpayable",
      "type": "function"
    },
    {
      "inputs": [
        {
          "internalType": "address",
          "name": "from",
          "type": "address"
        },
        {
          "internalType": "address",
          "name": "to",
          "type": "address"
        },
        {
          "internalType": "uint256",
          "name": "tokenId",
          "type": "uint256"
        },
        {
          "internalType": "bytes",
          "name": "_data",
          "type": "bytes"
        }
      ],
      "name": "safeTransferFrom",
      "outputs": [],
      "stateMutability": "nonpayable",
      "type": "function"
    },
    {
      "inputs": [
        {
          "internalType": "address",
          "name": "operator",
          "type": "address"
        },
        {
          "internalType": "bool",
          "name": "approved",
          "type": "bool"
        }
      ],
      "name": "setApprovalForAll",
      "outputs": [],
      "stateMutability": "nonpayable",
      "type": "function"
    },
    {
      "inputs": [
        {
          "internalType": "bytes4",
          "name": "interfaceId",
          "type": "bytes4"
        }
      ],
      "name": "supportsInterface",
      "outputs": [
        {
          "internalType": "bool",
          "name": "",
          "type": "bool"
        }
      ],
      "stateMutability": "view",
      "type": "function",
      "constant": true
    },
    {
      "inputs": [],
      "name": "symbol",
      "outputs": [
        {
          "internalType": "string",
          "name": "",
          "type": "string"
        }
      ],
      "stateMutability": "view",
      "type": "function",
      "constant": true
    },
    {
      "inputs": [
        {
          "internalType": "uint256",
          "name": "index",
          "type": "uint256"
        }
      ],
      "name": "tokenByIndex",
      "outputs": [
        {
          "internalType": "uint256",
          "name": "",
          "type": "uint256"
        }
      ],
      "stateMutability": "view",
      "type": "function",
      "constant": true
    },
    {
      "inputs": [
        {
          "internalType": "address",
          "name": "owner",
          "type": "address"
        },
        {
          "internalType": "uint256",
          "name": "index",
          "type": "uint256"
        }
      ],
      "name": "tokenOfOwnerByIndex",
      "outputs": [
        {
          "internalType": "uint256",
          "name": "",
          "type": "uint256"
        }
      ],
      "stateMutability": "view",
      "type": "function",
      "constant": true
    },
    {
      "inputs": [],
      "name": "totalSupply",
      "outputs": [
        {
          "internalType": "uint256",
          "name": "",
          "type": "uint256"
        }
      ],
      "stateMutability": "view",
      "type": "function",
      "constant": true
    },
    {
      "inputs": [
        {
          "internalType": "address",
          "name": "from",
          "type": "address"
        },
        {
          "internalType": "address",
          "name": "to",
          "type": "address"
        },
        {
          "internalType": "uint256",
          "name": "tokenId",
          "type": "uint256"
        }
      ],
      "name": "transferFrom",
      "outputs": [],
      "stateMutability": "nonpayable",
      "type": "function"
    },
    {
      "inputs": [
        {
          "internalType": "address",
          "name": "newOwner",
          "type": "address"
        }
      ],
      "name": "transferOwnership",
      "outputs": [],
      "stateMutability": "nonpayable",
      "type": "function"
    },
    {
      "inputs": [
        {
          "internalType": "string",
          "name": "_newBaseURI",
          "type": "string"
        }
      ],
      "name": "setBaseURI",
      "outputs": [],
      "stateMutability": "nonpayable",
      "type": "function"
    },
    {
      "inputs": [
        {
          "internalType": "string",
          "name": "_newBaseExtension",
          "type": "string"
        }
      ],
      "name": "setBaseExtension",
      "outputs": [],
      "stateMutability": "nonpayable",
      "type": "function"
    },
    {
      "inputs": [
        {
          "internalType": "uint256",
          "name": "_price",
          "type": "uint256"
        }
      ],
      "name": "safeMint",
      "outputs": [],
      "stateMutability": "nonpayable",
      "type": "function"
    },
    {
      "inputs": [
        {
          "internalType": "uint256",
          "name": "tokenId",
          "type": "uint256"
        }
      ],
      "name": "tokenURI",
      "outputs": [
        {
          "internalType": "string",
          "name": "",
          "type": "string"
        }
      ],
      "stateMutability": "view",
      "type": "function",
      "constant": true
    },
    {
      "inputs": [
        {
          "internalType": "uint256",
          "name": "_id",
          "type": "uint256"
        },
        {
          "internalType": "uint256",
          "name": "_price",
          "type": "uint256"
        }
      ],
      "name": "addToMarketPlace",
      "outputs": [],
      "stateMutability": "nonpayable",
      "type": "function"
    },
    {
      "inputs": [
        {
          "internalType": "uint256",
          "name": "_tokenId",
          "type": "uint256"
        }
      ],
      "name": "getCriollo",
      "outputs": [
        {
          "internalType": "uint256",
          "name": "tokenId",
          "type": "uint256"
        },
        {
          "internalType": "uint256",
          "name": "price",
          "type": "uint256"
        },
        {
          "internalType": "uint256",
          "name": "state",
          "type": "uint256"
        }
      ],
      "stateMutability": "view",
      "type": "function",
      "constant": true
    },
    {
      "inputs": [],
      "name": "fetchMarketItems",
      "outputs": [
        {
          "components": [
            {
              "internalType": "uint256",
              "name": "tokenId",
              "type": "uint256"
            },
            {
              "internalType": "uint256",
              "name": "price",
              "type": "uint256"
            },
            {
              "internalType": "enum CriolloToken.State",
              "name": "state",
              "type": "uint8"
            }
          ],
          "internalType": "struct CriolloToken.Criollo[]",
          "name": "",
          "type": "tuple[]"
        }
      ],
      "stateMutability": "view",
      "type": "function",
      "constant": true
    },
    {
      "inputs": [
        {
          "internalType": "uint256",
          "name": "_id",
          "type": "uint256"
        }
      ],
      "name": "buy",
      "outputs": [],
      "stateMutability": "payable",
      "type": "function",
      "payable": true
    },
    {
      "inputs": [
        {
          "internalType": "uint256",
          "name": "_id",
          "type": "uint256"
        }
      ],
      "name": "shipped",
      "outputs": [],
      "stateMutability": "nonpayable",
      "type": "function"
    },
    {
      "inputs": [
        {
          "internalType": "uint256",
          "name": "_id",
          "type": "uint256"
        }
      ],
      "name": "unlockToken",
      "outputs": [],
      "stateMutability": "nonpayable",
      "type": "function"
    },
    {
      "inputs": [],
      "name": "withdraw",
      "outputs": [],
      "stateMutability": "payable",
      "type": "function",
      "payable": true
    }
  ],
  "bytecode": "0x60806040526040518060400160405280600581526020017f2e6a736f6e000000000000000000000000000000000000000000000000000000815250600c90805190602001906200005192919062000298565b503480156200005f57600080fd5b5060405162005c5238038062005c528339818101604052810190620000859190620003ba565b828281600090805190602001906200009f92919062000298565b508060019080519060200190620000b892919062000298565b505050620000db620000cf620000f560201b60201c565b620000fd60201b60201c565b620000ec81620001c360201b60201c565b5050506200064e565b600033905090565b6000600a60009054906101000a900473ffffffffffffffffffffffffffffffffffffffff16905081600a60006101000a81548173ffffffffffffffffffffffffffffffffffffffff021916908373ffffffffffffffffffffffffffffffffffffffff1602179055508173ffffffffffffffffffffffffffffffffffffffff168173ffffffffffffffffffffffffffffffffffffffff167f8be0079c531659141344cd1fd0a4f28419497f9722a3daafe3b4186f6b6457e060405160405180910390a35050565b620001d3620000f560201b60201c565b73ffffffffffffffffffffffffffffffffffffffff16620001f96200026e60201b60201c565b73ffffffffffffffffffffffffffffffffffffffff161462000252576040517f08c379a0000000000000000000000000000000000000000000000000000000008152600401620002499062000482565b60405180910390fd5b80600b90805190602001906200026a92919062000298565b5050565b6000600a60009054906101000a900473ffffffffffffffffffffffffffffffffffffffff16905090565b828054620002a6906200054a565b90600052602060002090601f016020900481019282620002ca576000855562000316565b82601f10620002e557805160ff191683800117855562000316565b8280016001018555821562000316579182015b8281111562000315578251825591602001919060010190620002f8565b5b50905062000325919062000329565b5090565b5b80821115620003445760008160009055506001016200032a565b5090565b60006200035f6200035984620004cd565b620004a4565b9050828152602081018484840111156200037857600080fd5b6200038584828562000514565b509392505050565b600082601f8301126200039f57600080fd5b8151620003b184826020860162000348565b91505092915050565b600080600060608486031215620003d057600080fd5b600084015167ffffffffffffffff811115620003eb57600080fd5b620003f9868287016200038d565b935050602084015167ffffffffffffffff8111156200041757600080fd5b62000425868287016200038d565b925050604084015167ffffffffffffffff8111156200044357600080fd5b62000451868287016200038d565b9150509250925092565b60006200046a60208362000503565b9150620004778262000625565b602082019050919050565b600060208201905081810360008301526200049d816200045b565b9050919050565b6000620004b0620004c3565b9050620004be828262000580565b919050565b6000604051905090565b600067ffffffffffffffff821115620004eb57620004ea620005e5565b5b620004f68262000614565b9050602081019050919050565b600082825260208201905092915050565b60005b838110156200053457808201518184015260208101905062000517565b8381111562000544576000848401525b50505050565b600060028204905060018216806200056357607f821691505b602082108114156200057a5762000579620005b6565b5b50919050565b6200058b8262000614565b810181811067ffffffffffffffff82111715620005ad57620005ac620005e5565b5b80604052505050565b7f4e487b7100000000000000000000000000000000000000000000000000000000600052602260045260246000fd5b7f4e487b7100000000000000000000000000000000000000000000000000000000600052604160045260246000fd5b6000601f19601f8301169050919050565b7f4f776e61626c653a2063616c6c6572206973206e6f7420746865206f776e6572600082015250565b6155f4806200065e6000396000f3fe6080604052600436106101d85760003560e01c80636df4375411610102578063b88d4fde11610095578063da3ef23f11610064578063da3ef23f146106a2578063dd2e0ac0146106cb578063e985e9c5146106f4578063f2fde38b14610731576101d8565b8063b88d4fde146105f5578063c66828621461061e578063c87b56dd14610649578063d96a094a14610686576101d8565b80638da5cb5b116100d15780638da5cb5b1461054d57806395d89b4114610578578063a22cb465146105a3578063ae3fc702146105cc576101d8565b80636df437541461049157806370a08231146104d0578063715018a61461050d5780637a86196f14610524576101d8565b80632f745c591161017a5780634f6ccce7116101495780634f6ccce7146103c357806355f804b3146104005780636352211e146104295780636c0360eb14610466576101d8565b80632f745c591461032a57806331c864e8146103675780633ccfd60b1461039057806342842e0e1461039a576101d8565b8063095ea7b3116101b6578063095ea7b3146102825780630f08efe0146102ab57806318160ddd146102d657806323b872dd14610301576101d8565b806301ffc9a7146101dd57806306fdde031461021a578063081812fc14610245575b600080fd5b3480156101e957600080fd5b5061020460048036038101906101ff9190613bf2565b61075a565b604051610211919061442f565b60405180910390f35b34801561022657600080fd5b5061022f6107d4565b60405161023c919061444a565b60405180910390f35b34801561025157600080fd5b5061026c60048036038101906102679190613c85565b610866565b604051610279919061436f565b60405180910390f35b34801561028e57600080fd5b506102a960048036038101906102a49190613bb6565b6108eb565b005b3480156102b757600080fd5b506102c0610a03565b6040516102cd919061440d565b60405180910390f35b3480156102e257600080fd5b506102eb610bdd565b6040516102f8919061480c565b60405180910390f35b34801561030d57600080fd5b5061032860048036038101906103239190613ab0565b610bea565b005b34801561033657600080fd5b50610351600480360381019061034c9190613bb6565b610c4a565b60405161035e919061480c565b60405180910390f35b34801561037357600080fd5b5061038e60048036038101906103899190613c85565b610cef565b005b610398610edb565b005b3480156103a657600080fd5b506103c160048036038101906103bc9190613ab0565b611006565b005b3480156103cf57600080fd5b506103ea60048036038101906103e59190613c85565b611026565b6040516103f7919061480c565b60405180910390f35b34801561040c57600080fd5b5061042760048036038101906104229190613c44565b6110bd565b005b34801561043557600080fd5b50610450600480360381019061044b9190613c85565b611153565b60405161045d919061436f565b60405180910390f35b34801561047257600080fd5b5061047b611205565b604051610488919061444a565b60405180910390f35b34801561049d57600080fd5b506104b860048036038101906104b39190613c85565b611293565b6040516104c793929190614827565b60405180910390f35b3480156104dc57600080fd5b506104f760048036038101906104f29190613a4b565b61132f565b604051610504919061480c565b60405180910390f35b34801561051957600080fd5b506105226113e7565b005b34801561053057600080fd5b5061054b60048036038101906105469190613cae565b61146f565b005b34801561055957600080fd5b5061056261168f565b60405161056f919061436f565b60405180910390f35b34801561058457600080fd5b5061058d6116b9565b60405161059a919061444a565b60405180910390f35b3480156105af57600080fd5b506105ca60048036038101906105c59190613b7a565b61174b565b005b3480156105d857600080fd5b506105f360048036038101906105ee9190613c85565b6118cc565b005b34801561060157600080fd5b5061061c60048036038101906106179190613aff565b611ad0565b005b34801561062a57600080fd5b50610633611b32565b604051610640919061444a565b60405180910390f35b34801561065557600080fd5b50610670600480360381019061066b9190613c85565b611bc0565b60405161067d919061444a565b60405180910390f35b6106a0600480360381019061069b9190613c85565b611c6a565b005b3480156106ae57600080fd5b506106c960048036038101906106c49190613c44565b6120bb565b005b3480156106d757600080fd5b506106f260048036038101906106ed9190613c85565b612151565b005b34801561070057600080fd5b5061071b60048036038101906107169190613a74565b612307565b604051610728919061442f565b60405180910390f35b34801561073d57600080fd5b5061075860048036038101906107539190613a4b565b61239b565b005b60007f780e9d63000000000000000000000000000000000000000000000000000000007bffffffffffffffffffffffffffffffffffffffffffffffffffffffff1916827bffffffffffffffffffffffffffffffffffffffffffffffffffffffff191614806107cd57506107cc82612493565b5b9050919050565b6060600080546107e390614b17565b80601f016020809104026020016040519081016040528092919081815260200182805461080f90614b17565b801561085c5780601f106108315761010080835404028352916020019161085c565b820191906000526020600020905b81548152906001019060200180831161083f57829003601f168201915b5050505050905090565b600061087182612575565b6108b0576040517f08c379a00000000000000000000000000000000000000000000000000000000081526004016108a7906146cc565b60405180910390fd5b6004600083815260200190815260200160002060009054906101000a900473ffffffffffffffffffffffffffffffffffffffff169050919050565b60006108f682611153565b90508073ffffffffffffffffffffffffffffffffffffffff168373ffffffffffffffffffffffffffffffffffffffff161415610967576040517f08c379a000000000000000000000000000000000000000000000000000000000815260040161095e9061476c565b60405180910390fd5b8073ffffffffffffffffffffffffffffffffffffffff166109866125e1565b73ffffffffffffffffffffffffffffffffffffffff1614806109b557506109b4816109af6125e1565b612307565b5b6109f4576040517f08c379a00000000000000000000000000000000000000000000000000000000081526004016109eb9061464c565b60405180910390fd5b6109fe83836125e9565b505050565b60606000610a11600d6126a2565b90506000808267ffffffffffffffff811115610a56577f4e487b7100000000000000000000000000000000000000000000000000000000600052604160045260246000fd5b604051908082528060200260200182016040528015610a8f57816020015b610a7c613816565b815260200190600190039081610a745790505b50905060005b83811015610bd3576000600182610aac9190614981565b90506000600e600083815260200190815260200160002090508060405180606001604052908160008201548152602001600182015481526020016002820160009054906101000a900460ff166004811115610b30577f4e487b7100000000000000000000000000000000000000000000000000000000600052602160045260246000fd5b6004811115610b68577f4e487b7100000000000000000000000000000000000000000000000000000000600052602160045260246000fd5b81525050848681518110610ba5577f4e487b7100000000000000000000000000000000000000000000000000000000600052603260045260246000fd5b60200260200101819052508480610bbb90614b7a565b95505050508080610bcb90614b7a565b915050610a95565b5080935050505090565b6000600880549050905090565b610bfb610bf56125e1565b826126b0565b610c3a576040517f08c379a0000000000000000000000000000000000000000000000000000000008152600401610c31906147ac565b60405180910390fd5b610c4583838361278e565b505050565b6000610c558361132f565b8210610c96576040517f08c379a0000000000000000000000000000000000000000000000000000000008152600401610c8d9061446c565b60405180910390fd5b600660008473ffffffffffffffffffffffffffffffffffffffff1673ffffffffffffffffffffffffffffffffffffffff168152602001908152602001600020600083815260200190815260200160002054905092915050565b610cf76125e1565b73ffffffffffffffffffffffffffffffffffffffff16610d1561168f565b73ffffffffffffffffffffffffffffffffffffffff1614610d6b576040517f08c379a0000000000000000000000000000000000000000000000000000000008152600401610d62906146ec565b60405180910390fd5b610d75600d612957565b6000610d81600d6126a2565b9050604051806060016040528082815260200183815260200160006004811115610dd4577f4e487b7100000000000000000000000000000000000000000000000000000000600052602160045260246000fd5b815250600e6000838152602001908152602001600020600082015181600001556020820151816001015560408201518160020160006101000a81548160ff02191690836004811115610e4f577f4e487b7100000000000000000000000000000000000000000000000000000000600052602160045260246000fd5b0217905550905050610e61338261296d565b3373ffffffffffffffffffffffffffffffffffffffff16610e8182611153565b73ffffffffffffffffffffffffffffffffffffffff1614610ed7576040517f08c379a0000000000000000000000000000000000000000000000000000000008152600401610ece906147ec565b60405180910390fd5b5050565b610ee36125e1565b73ffffffffffffffffffffffffffffffffffffffff16610f0161168f565b73ffffffffffffffffffffffffffffffffffffffff1614610f57576040517f08c379a0000000000000000000000000000000000000000000000000000000008152600401610f4e906146ec565b60405180910390fd5b60003373ffffffffffffffffffffffffffffffffffffffff1647604051610f7d9061435a565b60006040518083038185875af1925050503d8060008114610fba576040519150601f19603f3d011682016040523d82523d6000602084013e610fbf565b606091505b5050905080611003576040517f08c379a0000000000000000000000000000000000000000000000000000000008152600401610ffa9061470c565b60405180910390fd5b50565b61102183838360405180602001604052806000815250611ad0565b505050565b6000611030610bdd565b8210611071576040517f08c379a0000000000000000000000000000000000000000000000000000000008152600401611068906147cc565b60405180910390fd5b600882815481106110ab577f4e487b7100000000000000000000000000000000000000000000000000000000600052603260045260246000fd5b90600052602060002001549050919050565b6110c56125e1565b73ffffffffffffffffffffffffffffffffffffffff166110e361168f565b73ffffffffffffffffffffffffffffffffffffffff1614611139576040517f08c379a0000000000000000000000000000000000000000000000000000000008152600401611130906146ec565b60405180910390fd5b80600b908051906020019061114f92919061386f565b5050565b6000806002600084815260200190815260200160002060009054906101000a900473ffffffffffffffffffffffffffffffffffffffff169050600073ffffffffffffffffffffffffffffffffffffffff168173ffffffffffffffffffffffffffffffffffffffff1614156111fc576040517f08c379a00000000000000000000000000000000000000000000000000000000081526004016111f39061468c565b60405180910390fd5b80915050919050565b600b805461121290614b17565b80601f016020809104026020016040519081016040528092919081815260200182805461123e90614b17565b801561128b5780601f106112605761010080835404028352916020019161128b565b820191906000526020600020905b81548152906001019060200180831161126e57829003601f168201915b505050505081565b6000806000600e6000858152602001908152602001600020600001549250600e6000858152602001908152602001600020600101549150600e600085815260200190815260200160002060020160009054906101000a900460ff166004811115611326577f4e487b7100000000000000000000000000000000000000000000000000000000600052602160045260246000fd5b90509193909250565b60008073ffffffffffffffffffffffffffffffffffffffff168273ffffffffffffffffffffffffffffffffffffffff1614156113a0576040517f08c379a00000000000000000000000000000000000000000000000000000000081526004016113979061466c565b60405180910390fd5b600360008373ffffffffffffffffffffffffffffffffffffffff1673ffffffffffffffffffffffffffffffffffffffff168152602001908152602001600020549050919050565b6113ef6125e1565b73ffffffffffffffffffffffffffffffffffffffff1661140d61168f565b73ffffffffffffffffffffffffffffffffffffffff1614611463576040517f08c379a000000000000000000000000000000000000000000000000000000000815260040161145a906146ec565b60405180910390fd5b61146d600061298b565b565b81600060048111156114aa577f4e487b7100000000000000000000000000000000000000000000000000000000600052602160045260246000fd5b600e600083815260200190815260200160002060020160009054906101000a900460ff166004811115611506577f4e487b7100000000000000000000000000000000000000000000000000000000600052602160045260246000fd5b14611546576040517f08c379a000000000000000000000000000000000000000000000000000000000815260040161153d906145ec565b60405180910390fd5b61154e6125e1565b73ffffffffffffffffffffffffffffffffffffffff1661156c61168f565b73ffffffffffffffffffffffffffffffffffffffff16146115c2576040517f08c379a00000000000000000000000000000000000000000000000000000000081526004016115b9906146ec565b60405180910390fd5b6115cb83612575565b61160a576040517f08c379a00000000000000000000000000000000000000000000000000000000081526004016116019061462c565b60405180910390fd5b6001600e600085815260200190815260200160002060020160006101000a81548160ff0219169083600481111561166a577f4e487b7100000000000000000000000000000000000000000000000000000000600052602160045260246000fd5b021790555081600e600085815260200190815260200160002060010181905550505050565b6000600a60009054906101000a900473ffffffffffffffffffffffffffffffffffffffff16905090565b6060600180546116c890614b17565b80601f01602080910402602001604051908101604052809291908181526020018280546116f490614b17565b80156117415780601f1061171657610100808354040283529160200191611741565b820191906000526020600020905b81548152906001019060200180831161172457829003601f168201915b5050505050905090565b6117536125e1565b73ffffffffffffffffffffffffffffffffffffffff168273ffffffffffffffffffffffffffffffffffffffff1614156117c1576040517f08c379a00000000000000000000000000000000000000000000000000000000081526004016117b89061458c565b60405180910390fd5b80600560006117ce6125e1565b73ffffffffffffffffffffffffffffffffffffffff1673ffffffffffffffffffffffffffffffffffffffff16815260200190815260200160002060008473ffffffffffffffffffffffffffffffffffffffff1673ffffffffffffffffffffffffffffffffffffffff16815260200190815260200160002060006101000a81548160ff0219169083151502179055508173ffffffffffffffffffffffffffffffffffffffff1661187b6125e1565b73ffffffffffffffffffffffffffffffffffffffff167f17307eab39ab6107e8899845ad3d59bd9653f200f220920489ca2b5937696c31836040516118c0919061442f565b60405180910390a35050565b6118d46125e1565b73ffffffffffffffffffffffffffffffffffffffff166118f261168f565b73ffffffffffffffffffffffffffffffffffffffff1614611948576040517f08c379a000000000000000000000000000000000000000000000000000000000815260040161193f906146ec565b60405180910390fd5b8060026004811115611983577f4e487b7100000000000000000000000000000000000000000000000000000000600052602160045260246000fd5b600e600083815260200190815260200160002060020160009054906101000a900460ff1660048111156119df577f4e487b7100000000000000000000000000000000000000000000000000000000600052602160045260246000fd5b14611a1f576040517f08c379a0000000000000000000000000000000000000000000000000000000008152600401611a169061450c565b60405180910390fd5b611a2882612575565b611a67576040517f08c379a0000000000000000000000000000000000000000000000000000000008152600401611a5e9061462c565b60405180910390fd5b6003600e600084815260200190815260200160002060020160006101000a81548160ff02191690836004811115611ac7577f4e487b7100000000000000000000000000000000000000000000000000000000600052602160045260246000fd5b02179055505050565b611ae1611adb6125e1565b836126b0565b611b20576040517f08c379a0000000000000000000000000000000000000000000000000000000008152600401611b17906147ac565b60405180910390fd5b611b2c84848484612a51565b50505050565b600c8054611b3f90614b17565b80601f0160208091040260200160405190810160405280929190818152602001828054611b6b90614b17565b8015611bb85780601f10611b8d57610100808354040283529160200191611bb8565b820191906000526020600020905b815481529060010190602001808311611b9b57829003601f168201915b505050505081565b6060611bcb82612575565b611c0a576040517f08c379a0000000000000000000000000000000000000000000000000000000008152600401611c019061474c565b60405180910390fd5b6000611c14612aad565b90506000815111611c345760405180602001604052806000815250611c62565b80611c3e84612b3f565b600c604051602001611c5293929190614329565b6040516020818303038152906040525b915050919050565b8060016004811115611ca5577f4e487b7100000000000000000000000000000000000000000000000000000000600052602160045260246000fd5b600e600083815260200190815260200160002060020160009054906101000a900460ff166004811115611d01577f4e487b7100000000000000000000000000000000000000000000000000000000600052602160045260246000fd5b1480611d9f5750600480811115611d41577f4e487b7100000000000000000000000000000000000000000000000000000000600052602160045260246000fd5b600e600083815260200190815260200160002060020160009054906101000a900460ff166004811115611d9d577f4e487b7100000000000000000000000000000000000000000000000000000000600052602160045260246000fd5b145b611dde576040517f08c379a0000000000000000000000000000000000000000000000000000000008152600401611dd5906145ac565b60405180910390fd5b600e600083815260200190815260200160002060010154803414611e37576040517f08c379a0000000000000000000000000000000000000000000000000000000008152600401611e2e906144cc565b60405180910390fd5b611e4083612575565b611e7f576040517f08c379a0000000000000000000000000000000000000000000000000000000008152600401611e769061462c565b60405180910390fd5b6000611e8a84611153565b9050611e9f611e9885611153565b338661278e565b60016004811115611ed9577f4e487b7100000000000000000000000000000000000000000000000000000000600052602160045260246000fd5b600e600086815260200190815260200160002060020160009054906101000a900460ff166004811115611f35577f4e487b7100000000000000000000000000000000000000000000000000000000600052602160045260246000fd5b1415611fa1576002600e600086815260200190815260200160002060020160006101000a81548160ff02191690836004811115611f9b577f4e487b7100000000000000000000000000000000000000000000000000000000600052602160045260246000fd5b02179055505b60008173ffffffffffffffffffffffffffffffffffffffff1634604051611fc79061435a565b60006040518083038185875af1925050503d8060008114612004576040519150601f19603f3d011682016040523d82523d6000602084013e612009565b606091505b505090508061204d576040517f08c379a00000000000000000000000000000000000000000000000000000000081526004016120449061478c565b60405180910390fd5b7f12cb4648cf3058b17ceeb33e579f8b0bc269fe0843f3900b8e24b6c54871703c33600e600088815260200190815260200160002060010154600e6000898152602001908152602001600020600001546040516120ac939291906143d6565b60405180910390a15050505050565b6120c36125e1565b73ffffffffffffffffffffffffffffffffffffffff166120e161168f565b73ffffffffffffffffffffffffffffffffffffffff1614612137576040517f08c379a000000000000000000000000000000000000000000000000000000000815260040161212e906146ec565b60405180910390fd5b80600c908051906020019061214d92919061386f565b5050565b806003600481111561218c577f4e487b7100000000000000000000000000000000000000000000000000000000600052602160045260246000fd5b600e600083815260200190815260200160002060020160009054906101000a900460ff1660048111156121e8577f4e487b7100000000000000000000000000000000000000000000000000000000600052602160045260246000fd5b14612228576040517f08c379a000000000000000000000000000000000000000000000000000000000815260040161221f906144ac565b60405180910390fd5b3373ffffffffffffffffffffffffffffffffffffffff1661224883611153565b73ffffffffffffffffffffffffffffffffffffffff161461229e576040517f08c379a00000000000000000000000000000000000000000000000000000000081526004016122959061460c565b60405180910390fd5b6004600e600084815260200190815260200160002060020160006101000a81548160ff021916908360048111156122fe577f4e487b7100000000000000000000000000000000000000000000000000000000600052602160045260246000fd5b02179055505050565b6000600560008473ffffffffffffffffffffffffffffffffffffffff1673ffffffffffffffffffffffffffffffffffffffff16815260200190815260200160002060008373ffffffffffffffffffffffffffffffffffffffff1673ffffffffffffffffffffffffffffffffffffffff16815260200190815260200160002060009054906101000a900460ff16905092915050565b6123a36125e1565b73ffffffffffffffffffffffffffffffffffffffff166123c161168f565b73ffffffffffffffffffffffffffffffffffffffff1614612417576040517f08c379a000000000000000000000000000000000000000000000000000000000815260040161240e906146ec565b60405180910390fd5b600073ffffffffffffffffffffffffffffffffffffffff168173ffffffffffffffffffffffffffffffffffffffff161415612487576040517f08c379a000000000000000000000000000000000000000000000000000000000815260040161247e906144ec565b60405180910390fd5b6124908161298b565b50565b60007f80ac58cd000000000000000000000000000000000000000000000000000000007bffffffffffffffffffffffffffffffffffffffffffffffffffffffff1916827bffffffffffffffffffffffffffffffffffffffffffffffffffffffff1916148061255e57507f5b5e139f000000000000000000000000000000000000000000000000000000007bffffffffffffffffffffffffffffffffffffffffffffffffffffffff1916827bffffffffffffffffffffffffffffffffffffffffffffffffffffffff1916145b8061256e575061256d82612cec565b5b9050919050565b60008073ffffffffffffffffffffffffffffffffffffffff166002600084815260200190815260200160002060009054906101000a900473ffffffffffffffffffffffffffffffffffffffff1673ffffffffffffffffffffffffffffffffffffffff1614159050919050565b600033905090565b816004600083815260200190815260200160002060006101000a81548173ffffffffffffffffffffffffffffffffffffffff021916908373ffffffffffffffffffffffffffffffffffffffff160217905550808273ffffffffffffffffffffffffffffffffffffffff1661265c83611153565b73ffffffffffffffffffffffffffffffffffffffff167f8c5be1e5ebec7d5bd14f71427d1e84f3dd0314c0f7b2291e5b200ac8c7c3b92560405160405180910390a45050565b600081600001549050919050565b60006126bb82612575565b6126fa576040517f08c379a00000000000000000000000000000000000000000000000000000000081526004016126f1906145cc565b60405180910390fd5b600061270583611153565b90508073ffffffffffffffffffffffffffffffffffffffff168473ffffffffffffffffffffffffffffffffffffffff16148061277457508373ffffffffffffffffffffffffffffffffffffffff1661275c84610866565b73ffffffffffffffffffffffffffffffffffffffff16145b8061278557506127848185612307565b5b91505092915050565b6004808111156127c7577f4e487b7100000000000000000000000000000000000000000000000000000000600052602160045260246000fd5b600e600083815260200190815260200160002060020160009054906101000a900460ff166004811115612823577f4e487b7100000000000000000000000000000000000000000000000000000000600052602160045260246000fd5b1480612908575061283261168f565b73ffffffffffffffffffffffffffffffffffffffff1661285182611153565b73ffffffffffffffffffffffffffffffffffffffff161480156129075750600160048111156128a9577f4e487b7100000000000000000000000000000000000000000000000000000000600052602160045260246000fd5b600e600083815260200190815260200160002060020160009054906101000a900460ff166004811115612905577f4e487b7100000000000000000000000000000000000000000000000000000000600052602160045260246000fd5b145b5b612947576040517f08c379a000000000000000000000000000000000000000000000000000000000815260040161293e9061454c565b60405180910390fd5b612952838383612d56565b505050565b6001816000016000828254019250508190555050565b612987828260405180602001604052806000815250612fb2565b5050565b6000600a60009054906101000a900473ffffffffffffffffffffffffffffffffffffffff16905081600a60006101000a81548173ffffffffffffffffffffffffffffffffffffffff021916908373ffffffffffffffffffffffffffffffffffffffff1602179055508173ffffffffffffffffffffffffffffffffffffffff168173ffffffffffffffffffffffffffffffffffffffff167f8be0079c531659141344cd1fd0a4f28419497f9722a3daafe3b4186f6b6457e060405160405180910390a35050565b612a5c84848461278e565b612a688484848461300d565b612aa7576040517f08c379a0000000000000000000000000000000000000000000000000000000008152600401612a9e9061448c565b60405180910390fd5b50505050565b6060600b8054612abc90614b17565b80601f0160208091040260200160405190810160405280929190818152602001828054612ae890614b17565b8015612b355780601f10612b0a57610100808354040283529160200191612b35565b820191906000526020600020905b815481529060010190602001808311612b1857829003601f168201915b5050505050905090565b60606000821415612b87576040518060400160405280600181526020017f30000000000000000000000000000000000000000000000000000000000000008152509050612ce7565b600082905060005b60008214612bb9578080612ba290614b7a565b915050600a82612bb291906149d7565b9150612b8f565b60008167ffffffffffffffff811115612bfb577f4e487b7100000000000000000000000000000000000000000000000000000000600052604160045260246000fd5b6040519080825280601f01601f191660200182016040528015612c2d5781602001600182028036833780820191505090505b5090505b60008514612ce057600182612c469190614a08565b9150600a85612c559190614bc3565b6030612c619190614981565b60f81b818381518110612c9d577f4e487b7100000000000000000000000000000000000000000000000000000000600052603260045260246000fd5b60200101907effffffffffffffffffffffffffffffffffffffffffffffffffffffffffffff1916908160001a905350600a85612cd991906149d7565b9450612c31565b8093505050505b919050565b60007f01ffc9a7000000000000000000000000000000000000000000000000000000007bffffffffffffffffffffffffffffffffffffffffffffffffffffffff1916827bffffffffffffffffffffffffffffffffffffffffffffffffffffffff1916149050919050565b8273ffffffffffffffffffffffffffffffffffffffff16612d7682611153565b73ffffffffffffffffffffffffffffffffffffffff1614612dcc576040517f08c379a0000000000000000000000000000000000000000000000000000000008152600401612dc39061472c565b60405180910390fd5b600073ffffffffffffffffffffffffffffffffffffffff168273ffffffffffffffffffffffffffffffffffffffff161415612e3c576040517f08c379a0000000000000000000000000000000000000000000000000000000008152600401612e339061456c565b60405180910390fd5b612e478383836131a4565b612e526000826125e9565b6001600360008573ffffffffffffffffffffffffffffffffffffffff1673ffffffffffffffffffffffffffffffffffffffff1681526020019081526020016000206000828254612ea29190614a08565b925050819055506001600360008473ffffffffffffffffffffffffffffffffffffffff1673ffffffffffffffffffffffffffffffffffffffff1681526020019081526020016000206000828254612ef99190614981565b92505081905550816002600083815260200190815260200160002060006101000a81548173ffffffffffffffffffffffffffffffffffffffff021916908373ffffffffffffffffffffffffffffffffffffffff160217905550808273ffffffffffffffffffffffffffffffffffffffff168473ffffffffffffffffffffffffffffffffffffffff167fddf252ad1be2c89b69c2b068fc378daa952ba7f163c4a11628f55a4df523b3ef60405160405180910390a4505050565b612fbc83836132b8565b612fc9600084848461300d565b613008576040517f08c379a0000000000000000000000000000000000000000000000000000000008152600401612fff9061448c565b60405180910390fd5b505050565b600061302e8473ffffffffffffffffffffffffffffffffffffffff16613486565b15613197578373ffffffffffffffffffffffffffffffffffffffff1663150b7a026130576125e1565b8786866040518563ffffffff1660e01b8152600401613079949392919061438a565b602060405180830381600087803b15801561309357600080fd5b505af19250505080156130c457506040513d601f19601f820116820180604052508101906130c19190613c1b565b60015b613147573d80600081146130f4576040519150601f19603f3d011682016040523d82523d6000602084013e6130f9565b606091505b5060008151141561313f576040517f08c379a00000000000000000000000000000000000000000000000000000000081526004016131369061448c565b60405180910390fd5b805181602001fd5b63150b7a0260e01b7bffffffffffffffffffffffffffffffffffffffffffffffffffffffff1916817bffffffffffffffffffffffffffffffffffffffffffffffffffffffff19161491505061319c565b600190505b949350505050565b6131af838383613499565b600073ffffffffffffffffffffffffffffffffffffffff168373ffffffffffffffffffffffffffffffffffffffff1614156131f2576131ed8161349e565b613231565b8173ffffffffffffffffffffffffffffffffffffffff168373ffffffffffffffffffffffffffffffffffffffff16146132305761322f83826134e7565b5b5b600073ffffffffffffffffffffffffffffffffffffffff168273ffffffffffffffffffffffffffffffffffffffff1614156132745761326f81613654565b6132b3565b8273ffffffffffffffffffffffffffffffffffffffff168273ffffffffffffffffffffffffffffffffffffffff16146132b2576132b18282613797565b5b5b505050565b600073ffffffffffffffffffffffffffffffffffffffff168273ffffffffffffffffffffffffffffffffffffffff161415613328576040517f08c379a000000000000000000000000000000000000000000000000000000000815260040161331f906146ac565b60405180910390fd5b61333181612575565b15613371576040517f08c379a00000000000000000000000000000000000000000000000000000000081526004016133689061452c565b60405180910390fd5b61337d600083836131a4565b6001600360008473ffffffffffffffffffffffffffffffffffffffff1673ffffffffffffffffffffffffffffffffffffffff16815260200190815260200160002060008282546133cd9190614981565b92505081905550816002600083815260200190815260200160002060006101000a81548173ffffffffffffffffffffffffffffffffffffffff021916908373ffffffffffffffffffffffffffffffffffffffff160217905550808273ffffffffffffffffffffffffffffffffffffffff16600073ffffffffffffffffffffffffffffffffffffffff167fddf252ad1be2c89b69c2b068fc378daa952ba7f163c4a11628f55a4df523b3ef60405160405180910390a45050565b600080823b905060008111915050919050565b505050565b6008805490506009600083815260200190815260200160002081905550600881908060018154018082558091505060019003906000526020600020016000909190919091505550565b600060016134f48461132f565b6134fe9190614a08565b90506000600760008481526020019081526020016000205490508181146135e3576000600660008673ffffffffffffffffffffffffffffffffffffffff1673ffffffffffffffffffffffffffffffffffffffff168152602001908152602001600020600084815260200190815260200160002054905080600660008773ffffffffffffffffffffffffffffffffffffffff1673ffffffffffffffffffffffffffffffffffffffff168152602001908152602001600020600084815260200190815260200160002081905550816007600083815260200190815260200160002081905550505b6007600084815260200190815260200160002060009055600660008573ffffffffffffffffffffffffffffffffffffffff1673ffffffffffffffffffffffffffffffffffffffff16815260200190815260200160002060008381526020019081526020016000206000905550505050565b600060016008805490506136689190614a08565b90506000600960008481526020019081526020016000205490506000600883815481106136be577f4e487b7100000000000000000000000000000000000000000000000000000000600052603260045260246000fd5b906000526020600020015490508060088381548110613706577f4e487b7100000000000000000000000000000000000000000000000000000000600052603260045260246000fd5b90600052602060002001819055508160096000838152602001908152602001600020819055506009600085815260200190815260200160002060009055600880548061377b577f4e487b7100000000000000000000000000000000000000000000000000000000600052603160045260246000fd5b6001900381819060005260206000200160009055905550505050565b60006137a28361132f565b905081600660008573ffffffffffffffffffffffffffffffffffffffff1673ffffffffffffffffffffffffffffffffffffffff168152602001908152602001600020600083815260200190815260200160002081905550806007600084815260200190815260200160002081905550505050565b6040518060600160405280600081526020016000815260200160006004811115613869577f4e487b7100000000000000000000000000000000000000000000000000000000600052602160045260246000fd5b81525090565b82805461387b90614b17565b90600052602060002090601f01602090048101928261389d57600085556138e4565b82601f106138b657805160ff19168380011785556138e4565b828001600101855582156138e4579182015b828111156138e35782518255916020019190600101906138c8565b5b5090506138f191906138f5565b5090565b5b8082111561390e5760008160009055506001016138f6565b5090565b600061392561392084614883565b61485e565b90508281526020810184848401111561393d57600080fd5b613948848285614ad5565b509392505050565b600061396361395e846148b4565b61485e565b90508281526020810184848401111561397b57600080fd5b613986848285614ad5565b509392505050565b60008135905061399d81615562565b92915050565b6000813590506139b281615579565b92915050565b6000813590506139c781615590565b92915050565b6000815190506139dc81615590565b92915050565b600082601f8301126139f357600080fd5b8135613a03848260208601613912565b91505092915050565b600082601f830112613a1d57600080fd5b8135613a2d848260208601613950565b91505092915050565b600081359050613a45816155a7565b92915050565b600060208284031215613a5d57600080fd5b6000613a6b8482850161398e565b91505092915050565b60008060408385031215613a8757600080fd5b6000613a958582860161398e565b9250506020613aa68582860161398e565b9150509250929050565b600080600060608486031215613ac557600080fd5b6000613ad38682870161398e565b9350506020613ae48682870161398e565b9250506040613af586828701613a36565b9150509250925092565b60008060008060808587031215613b1557600080fd5b6000613b238782880161398e565b9450506020613b348782880161398e565b9350506040613b4587828801613a36565b925050606085013567ffffffffffffffff811115613b6257600080fd5b613b6e878288016139e2565b91505092959194509250565b60008060408385031215613b8d57600080fd5b6000613b9b8582860161398e565b9250506020613bac858286016139a3565b9150509250929050565b60008060408385031215613bc957600080fd5b6000613bd78582860161398e565b9250506020613be885828601613a36565b9150509250929050565b600060208284031215613c0457600080fd5b6000613c12848285016139b8565b91505092915050565b600060208284031215613c2d57600080fd5b6000613c3b848285016139cd565b91505092915050565b600060208284031215613c5657600080fd5b600082013567ffffffffffffffff811115613c7057600080fd5b613c7c84828501613a0c565b91505092915050565b600060208284031215613c9757600080fd5b6000613ca584828501613a36565b91505092915050565b60008060408385031215613cc157600080fd5b6000613ccf85828601613a36565b9250506020613ce085828601613a36565b9150509250929050565b6000613cf683836142c9565b60608301905092915050565b613d0b81614a3c565b82525050565b6000613d1c8261490a565b613d268185614938565b9350613d31836148e5565b8060005b83811015613d62578151613d498882613cea565b9750613d548361492b565b925050600181019050613d35565b5085935050505092915050565b613d7881614a4e565b82525050565b6000613d8982614915565b613d938185614949565b9350613da3818560208601614ae4565b613dac81614cdf565b840191505092915050565b613dc081614ac3565b82525050565b6000613dd182614920565b613ddb8185614965565b9350613deb818560208601614ae4565b613df481614cdf565b840191505092915050565b6000613e0a82614920565b613e148185614976565b9350613e24818560208601614ae4565b80840191505092915050565b60008154613e3d81614b17565b613e478186614976565b94506001821660008114613e625760018114613e7357613ea6565b60ff19831686528186019350613ea6565b613e7c856148f5565b60005b83811015613e9e57815481890152600182019150602081019050613e7f565b838801955050505b50505092915050565b6000613ebc602b83614965565b9150613ec782614cf0565b604082019050919050565b6000613edf603283614965565b9150613eea82614d3f565b604082019050919050565b6000613f02603583614965565b9150613f0d82614d8e565b604082019050919050565b6000613f25603583614965565b9150613f3082614ddd565b604082019050919050565b6000613f48602683614965565b9150613f5382614e2c565b604082019050919050565b6000613f6b603483614965565b9150613f7682614e7b565b604082019050919050565b6000613f8e601c83614965565b9150613f9982614eca565b602082019050919050565b6000613fb1604583614965565b9150613fbc82614ef3565b606082019050919050565b6000613fd4602483614965565b9150613fdf82614f68565b604082019050919050565b6000613ff7601983614965565b915061400282614fb7565b602082019050919050565b600061401a602f83614965565b915061402582614fe0565b604082019050919050565b600061403d602c83614965565b91506140488261502f565b604082019050919050565b6000614060603283614965565b915061406b8261507e565b604082019050919050565b6000614083603183614965565b915061408e826150cd565b604082019050919050565b60006140a6603783614965565b91506140b18261511c565b604082019050919050565b60006140c9603883614965565b91506140d48261516b565b604082019050919050565b60006140ec602a83614965565b91506140f7826151ba565b604082019050919050565b600061410f602983614965565b915061411a82615209565b604082019050919050565b6000614132602083614965565b915061413d82615258565b602082019050919050565b6000614155602c83614965565b915061416082615281565b604082019050919050565b6000614178602083614965565b9150614183826152d0565b602082019050919050565b600061419b602583614965565b91506141a6826152f9565b604082019050919050565b60006141be602983614965565b91506141c982615348565b604082019050919050565b60006141e1602f83614965565b91506141ec82615397565b604082019050919050565b6000614204602183614965565b915061420f826153e6565b604082019050919050565b600061422760008361495a565b915061423282615435565b600082019050919050565b600061424a601083614965565b915061425582615438565b602082019050919050565b600061426d603183614965565b915061427882615461565b604082019050919050565b6000614290602c83614965565b915061429b826154b0565b604082019050919050565b60006142b3603683614965565b91506142be826154ff565b604082019050919050565b6060820160008201516142df600085018261430b565b5060208201516142f2602085018261430b565b5060408201516143056040850182613db7565b50505050565b61431481614ab9565b82525050565b61432381614ab9565b82525050565b60006143358286613dff565b91506143418285613dff565b915061434d8284613e30565b9150819050949350505050565b60006143658261421a565b9150819050919050565b60006020820190506143846000830184613d02565b92915050565b600060808201905061439f6000830187613d02565b6143ac6020830186613d02565b6143b9604083018561431a565b81810360608301526143cb8184613d7e565b905095945050505050565b60006060820190506143eb6000830186613d02565b6143f8602083018561431a565b614405604083018461431a565b949350505050565b600060208201905081810360008301526144278184613d11565b905092915050565b60006020820190506144446000830184613d6f565b92915050565b600060208201905081810360008301526144648184613dc6565b905092915050565b6000602082019050818103600083015261448581613eaf565b9050919050565b600060208201905081810360008301526144a581613ed2565b9050919050565b600060208201905081810360008301526144c581613ef5565b9050919050565b600060208201905081810360008301526144e581613f18565b9050919050565b6000602082019050818103600083015261450581613f3b565b9050919050565b6000602082019050818103600083015261452581613f5e565b9050919050565b6000602082019050818103600083015261454581613f81565b9050919050565b6000602082019050818103600083015261456581613fa4565b9050919050565b6000602082019050818103600083015261458581613fc7565b9050919050565b600060208201905081810360008301526145a581613fea565b9050919050565b600060208201905081810360008301526145c58161400d565b9050919050565b600060208201905081810360008301526145e581614030565b9050919050565b6000602082019050818103600083015261460581614053565b9050919050565b6000602082019050818103600083015261462581614076565b9050919050565b6000602082019050818103600083015261464581614099565b9050919050565b60006020820190508181036000830152614665816140bc565b9050919050565b60006020820190508181036000830152614685816140df565b9050919050565b600060208201905081810360008301526146a581614102565b9050919050565b600060208201905081810360008301526146c581614125565b9050919050565b600060208201905081810360008301526146e581614148565b9050919050565b600060208201905081810360008301526147058161416b565b9050919050565b600060208201905081810360008301526147258161418e565b9050919050565b60006020820190508181036000830152614745816141b1565b9050919050565b60006020820190508181036000830152614765816141d4565b9050919050565b60006020820190508181036000830152614785816141f7565b9050919050565b600060208201905081810360008301526147a58161423d565b9050919050565b600060208201905081810360008301526147c581614260565b9050919050565b600060208201905081810360008301526147e581614283565b9050919050565b60006020820190508181036000830152614805816142a6565b9050919050565b6000602082019050614821600083018461431a565b92915050565b600060608201905061483c600083018661431a565b614849602083018561431a565b614856604083018461431a565b949350505050565b6000614868614879565b90506148748282614b49565b919050565b6000604051905090565b600067ffffffffffffffff82111561489e5761489d614cb0565b5b6148a782614cdf565b9050602081019050919050565b600067ffffffffffffffff8211156148cf576148ce614cb0565b5b6148d882614cdf565b9050602081019050919050565b6000819050602082019050919050565b60008190508160005260206000209050919050565b600081519050919050565b600081519050919050565b600081519050919050565b6000602082019050919050565b600082825260208201905092915050565b600082825260208201905092915050565b600081905092915050565b600082825260208201905092915050565b600081905092915050565b600061498c82614ab9565b915061499783614ab9565b9250827fffffffffffffffffffffffffffffffffffffffffffffffffffffffffffffffff038211156149cc576149cb614bf4565b5b828201905092915050565b60006149e282614ab9565b91506149ed83614ab9565b9250826149fd576149fc614c23565b5b828204905092915050565b6000614a1382614ab9565b9150614a1e83614ab9565b925082821015614a3157614a30614bf4565b5b828203905092915050565b6000614a4782614a99565b9050919050565b60008115159050919050565b60007fffffffff0000000000000000000000000000000000000000000000000000000082169050919050565b6000819050614a948261554e565b919050565b600073ffffffffffffffffffffffffffffffffffffffff82169050919050565b6000819050919050565b6000614ace82614a86565b9050919050565b82818337600083830152505050565b60005b83811015614b02578082015181840152602081019050614ae7565b83811115614b11576000848401525b50505050565b60006002820490506001821680614b2f57607f821691505b60208210811415614b4357614b42614c81565b5b50919050565b614b5282614cdf565b810181811067ffffffffffffffff82111715614b7157614b70614cb0565b5b80604052505050565b6000614b8582614ab9565b91507fffffffffffffffffffffffffffffffffffffffffffffffffffffffffffffffff821415614bb857614bb7614bf4565b5b600182019050919050565b6000614bce82614ab9565b9150614bd983614ab9565b925082614be957614be8614c23565b5b828206905092915050565b7f4e487b7100000000000000000000000000000000000000000000000000000000600052601160045260246000fd5b7f4e487b7100000000000000000000000000000000000000000000000000000000600052601260045260246000fd5b7f4e487b7100000000000000000000000000000000000000000000000000000000600052602160045260246000fd5b7f4e487b7100000000000000000000000000000000000000000000000000000000600052602260045260246000fd5b7f4e487b7100000000000000000000000000000000000000000000000000000000600052604160045260246000fd5b6000601f19601f8301169050919050565b7f455243373231456e756d657261626c653a206f776e657220696e646578206f7560008201527f74206f6620626f756e6473000000000000000000000000000000000000000000602082015250565b7f4552433732313a207472616e7366657220746f206e6f6e20455243373231526560008201527f63656976657220696d706c656d656e7465720000000000000000000000000000602082015250565b7f4372696f6c6c6f546f6b656e3a204572726f722c205468697320746f6b656e2060008201527f686173206e6f74206265656e2053686970706564210000000000000000000000602082015250565b7f4372696f6c6c6f546f6b656e3a204572726f722c2053656e642074686520636f60008201527f727265637420616d6f756e74206f662065746865720000000000000000000000602082015250565b7f4f776e61626c653a206e6577206f776e657220697320746865207a65726f206160008201527f6464726573730000000000000000000000000000000000000000000000000000602082015250565b7f4372696f6c6c6f546f6b656e3a204572726f722c205468697320746f6b656e2060008201527f686173206e6f74206265656e204c6f636b656421000000000000000000000000602082015250565b7f4552433732313a20746f6b656e20616c7265616479206d696e74656400000000600082015250565b7f4372696f6c6c6f546f6b656e3a204572726f722c205468697320746f6b656e2060008201527f6973204c6f636b656420616e642063616e206e6f74206265207472616e73666560208201527f7265642021000000000000000000000000000000000000000000000000000000604082015250565b7f4552433732313a207472616e7366657220746f20746865207a65726f2061646460008201527f7265737300000000000000000000000000000000000000000000000000000000602082015250565b7f4552433732313a20617070726f766520746f2063616c6c657200000000000000600082015250565b7f4372696f6c6c6f546f6b656e3a204572726f722c205468697320746f6b656e2060008201527f6973206e6f7420666f722073616c650000000000000000000000000000000000602082015250565b7f4552433732313a206f70657261746f7220717565727920666f72206e6f6e657860008201527f697374656e7420746f6b656e0000000000000000000000000000000000000000602082015250565b7f4372696f6c6c6f546f6b656e3a204572726f722c205468697320746f6b656e2060008201527f63616e206e6f74206265206c6973746564210000000000000000000000000000602082015250565b7f4372696f6c6c6f546f6b656e3a204572726f722c20596f7520617265206e6f7460008201527f2074686520746f6b656e206f776e657221000000000000000000000000000000602082015250565b7f4372696f6c6c6f546f6b656e3a204572726f722c205468697320746f6b656e2060008201527f686173206e6f74206265656e206d696e74656420796574000000000000000000602082015250565b7f4552433732313a20617070726f76652063616c6c6572206973206e6f74206f7760008201527f6e6572206e6f7220617070726f76656420666f7220616c6c0000000000000000602082015250565b7f4552433732313a2062616c616e636520717565727920666f7220746865207a6560008201527f726f206164647265737300000000000000000000000000000000000000000000602082015250565b7f4552433732313a206f776e657220717565727920666f72206e6f6e657869737460008201527f656e7420746f6b656e0000000000000000000000000000000000000000000000602082015250565b7f4552433732313a206d696e7420746f20746865207a65726f2061646472657373600082015250565b7f4552433732313a20617070726f76656420717565727920666f72206e6f6e657860008201527f697374656e7420746f6b656e0000000000000000000000000000000000000000602082015250565b7f4f776e61626c653a2063616c6c6572206973206e6f7420746865206f776e6572600082015250565b7f4372696f6c6c6f546f6b656e3a204572726f722c205472616e7366657220666160008201527f696c65642e000000000000000000000000000000000000000000000000000000602082015250565b7f4552433732313a207472616e73666572206f6620746f6b656e2074686174206960008201527f73206e6f74206f776e0000000000000000000000000000000000000000000000602082015250565b7f4552433732314d657461646174613a2055524920717565727920666f72206e6f60008201527f6e6578697374656e7420746f6b656e0000000000000000000000000000000000602082015250565b7f4552433732313a20617070726f76616c20746f2063757272656e74206f776e6560008201527f7200000000000000000000000000000000000000000000000000000000000000602082015250565b50565b7f5472616e73666572206661696c65642e00000000000000000000000000000000600082015250565b7f4552433732313a207472616e736665722063616c6c6572206973206e6f74206f60008201527f776e6572206e6f7220617070726f766564000000000000000000000000000000602082015250565b7f455243373231456e756d657261626c653a20676c6f62616c20696e646578206f60008201527f7574206f6620626f756e64730000000000000000000000000000000000000000602082015250565b7f4372696f6c6c6f73546f6b656e3a204572726f722c20546f6b656e207761732060008201527f6e6f74206d696e7465642073756363657366756c6c7900000000000000000000602082015250565b6005811061555f5761555e614c52565b5b50565b61556b81614a3c565b811461557657600080fd5b50565b61558281614a4e565b811461558d57600080fd5b50565b61559981614a5a565b81146155a457600080fd5b50565b6155b081614ab9565b81146155bb57600080fd5b5056fea264697066735822122084f06854ee92bdb36f60cc5273f3c8ae1e5c21591e8f049b2c3e0f7aa5c3a80f64736f6c63430008030033",
  "immutableReferences": {},
  "source": "// SPDX-License-Identifier: MIT\npragma solidity 0.8.3;\n\nimport \"@openzeppelin/contracts/token/ERC721/ERC721.sol\";\nimport \"@openzeppelin/contracts/token/ERC721/extensions/ERC721Enumerable.sol\";\nimport \"@openzeppelin/contracts/access/Ownable.sol\";\nimport \"@openzeppelin/contracts/utils/Counters.sol\";\n\n/// @title A contract for creating NFT tokens\n/// @author Josue Perez\n/// @notice You can use this contract to Creates NFT tokens called CriollosToken\n/// This token is linked with a physical assets(a Chocolate) that will be send once\n/// the user buy it at our Market place, after receive the physical assets the user\n/// is able to trade the NFT token using another Market place for instance OpenSea\ncontract CriolloToken is ERC721Enumerable, Ownable {\n    using Counters for Counters.Counter;\n    using Strings for uint256;\n\n    /// @notice Emitted when an user buy a NFT in our MarketPlace\n    /// @param owner The address of the Token Owner,\n    /// @param price The price for the token was bought\n    /// @param id The id of the NFT token.\n    /// @dev The price is only used in the first sale\n    event Purchase(address owner, uint256 price, uint256 id);\n\n    /// @notice Emitted when the token owner unlock the NFT once receive the chocolate\n    /// @param _id The id of the NFT token.\n    /// @param _unlockerAddress Address who unlocked the token\n    event TokenUnlocked(uint256 _id, address _unlockerAddress);\n\n    /// @notice State of the token.\n    /// @dev Used for handling the intial phase of the workflow,\n    /// after Users unlock the token, state should remain the same.\n    enum State {\n        NotListed,\n        ForSale,\n        Locked,\n        Shipped,\n        Unlocked\n    }\n\n    /// @notice State object for handling the state of the NFT\n    /// @dev tokenIs is incremented using Counters\n    struct Criollo {\n        uint256 tokenId;\n        uint256 price;\n        State state;\n    }\n\n    string public baseURI;\n    string public baseExtension = \".json\";\n\n    Counters.Counter private _tokenIdCounter;\n\n    /// @dev Mapping from token ID to Criollo objects\n    mapping(uint256 => Criollo) criollos;\n\n    /// @dev Generate an exception if token can not be Listed in the MarketPlace\n    modifier canBeListed(uint256 _id) {\n        require(\n            criollos[_id].state == State.NotListed,\n            \"CriolloToken: Error, This token can not be listed!\"\n        );\n        _;\n    }\n\n    /// @dev Generate an exception if token is not unlocked\n    modifier isUnlocked(uint256 _id) {\n        require(\n            criollos[_id].state == State.Unlocked,\n            \"CriolloToken: Error, This token is not Unlocked !\"\n        );\n        _;\n    }\n\n    /// @dev Generate an exception if tocken is not Locked.\n    modifier isLocked(uint256 _id) {\n        require(\n            criollos[_id].state == State.Locked,\n            \"CriolloToken: Error, This token has not been Locked!\"\n        );\n        _;\n    }\n\n    /// @dev Generate an exception if tocken is not Shipped\n    modifier isShipped(uint256 _id) {\n        require(\n            criollos[_id].state == State.Shipped,\n            \"CriolloToken: Error, This token has not been Shipped!\"\n        );\n        _;\n    }\n\n    /// @dev Generate an exception if tocken is not For Sale\n    modifier forSale(uint256 _id) {\n        require(\n            criollos[_id].state == State.ForSale ||\n                criollos[_id].state == State.Unlocked,\n            \"CriolloToken: Error, This token is not for sale\"\n        );\n        _;\n    }\n\n    /// @dev Generate an exception if the user does not send exact amount of ether\n    modifier paidExactAmount(uint256 _price) {\n        require(\n            msg.value == _price,\n            \"CriolloToken: Error, Send the correct amount of ether\"\n        );\n        _;\n    }\n\n    /// @notice Constructor called once when deploy the contract\n    /// @param name_ Name of the NFT token\n    /// @param symbol_ Symbol of the NFT\n    /// @param _initBaseURI Contains the base URL where the metadata of the NFT is stored\n    constructor(\n        string memory name_,\n        string memory symbol_,\n        string memory _initBaseURI\n    ) ERC721(name_, symbol_) {\n        setBaseURI(_initBaseURI);\n    }\n\n    function _baseURI() internal view virtual override returns (string memory) {\n        return baseURI;\n    }\n\n    function setBaseURI(string memory _newBaseURI) public onlyOwner {\n        baseURI = _newBaseURI;\n    }\n\n    function setBaseExtension(string memory _newBaseExtension)\n        public\n        onlyOwner\n    {\n        baseExtension = _newBaseExtension;\n    }\n\n    /// @notice Mints a new token\n    /// @dev Only the contract owner can mints tokens\n    /// @param _price Initial price for the token.\n    function safeMint(uint256 _price) public onlyOwner {\n        _tokenIdCounter.increment();\n\n        uint256 _tokenId = _tokenIdCounter.current();\n\n        criollos[_tokenId] = Criollo({\n            price: _price,\n            tokenId: _tokenId,\n            state: State.NotListed\n        });\n\n        _safeMint(msg.sender, _tokenId);\n\n        require(\n            ownerOf(_tokenId) == msg.sender,\n            \"CriollosToken: Error, Token was not minted succesfully\"\n        );\n    }\n\n    function tokenURI(uint256 tokenId)\n        public\n        view\n        virtual\n        override\n        returns (string memory)\n    {\n        require(\n            _exists(tokenId),\n            \"ERC721Metadata: URI query for nonexistent token\"\n        );\n\n        string memory currentBaseURI = _baseURI();\n        return\n            bytes(currentBaseURI).length > 0\n                ? string(\n                    abi.encodePacked(\n                        currentBaseURI,\n                        tokenId.toString(),\n                        baseExtension\n                    )\n                )\n                : \"\";\n    }\n\n    /// @notice Add a token to the market place\n    /// @dev This function can only be used by the contract owner to make the token available to others users in our Market Place\n    /// @param _id Id of the token.\n    /// @param _price Price for the token.\n    function addToMarketPlace(uint256 _id, uint256 _price)\n        public\n        canBeListed(_id)\n        onlyOwner\n    {\n        require(\n            _exists(_id),\n            \"CriolloToken: Error, This token has not been minted yet\"\n        );\n        criollos[_id].state = State.ForSale;\n        criollos[_id].price = _price;\n    }\n\n    /// @notice Fetch a token by Id\n    /// @dev Use this function whenever you need info about a token\n    /// @param _tokenId Id of the token.\n    /// @return tokenId - The Id of the token\n    /// @return price - The price of the token\n    /// @return state - The state of the token\n    function getCriollo(uint256 _tokenId)\n        public\n        view\n        returns (\n            uint256 tokenId,\n            uint256 price,\n            uint256 state\n        )\n    {\n        tokenId = criollos[_tokenId].tokenId;\n        price = criollos[_tokenId].price;\n        state = uint256(criollos[_tokenId].state);\n        return (tokenId, price, state);\n    }\n\n    function fetchMarketItems() public view returns (Criollo[] memory) {\n        uint256 itemsCount = _tokenIdCounter.current();\n        uint256 currentIndex = 0;\n\n        Criollo[] memory items = new Criollo[](itemsCount);\n\n        for (uint256 i = 0; i < itemsCount; i++) {\n            uint256 currentId = i + 1;\n            Criollo storage currentItem = criollos[currentId];\n            items[currentIndex] = currentItem;\n            currentIndex++;\n        }\n\n        return items;\n    }\n\n    /// @notice Buy a token in Criollos Market Place\n    /// @dev This is a custom function for buying function in our Market PLace.\n    /// @param _id Id of the token.\n    function buy(uint256 _id)\n        external\n        payable\n        forSale(_id)\n        paidExactAmount(criollos[_id].price)\n    {\n        require(\n            _exists(_id),\n            \"CriolloToken: Error, This token has not been minted yet\"\n        );\n        address payable _currentOwner = payable(ownerOf(_id));\n\n        _transfer(ownerOf(_id), msg.sender, _id);\n\n        if (criollos[_id].state == State.ForSale) {\n            criollos[_id].state = State.Locked;\n        }\n\n        (bool success, ) = _currentOwner.call{value: msg.value}(\"\");\n        require(success, \"Transfer failed.\");\n\n        emit Purchase(msg.sender, criollos[_id].price, criollos[_id].tokenId);\n    }\n\n    /// @notice Ship an Item\n    /// @dev Only the contract owner can ship an Item, the token should be sold first\n    /// @param _id Id of the token.\n    function shipped(uint256 _id) public onlyOwner isLocked(_id) {\n        require(\n            _exists(_id),\n            \"CriolloToken: Error, This token has not been minted yet\"\n        );\n        criollos[_id].state = State.Shipped;\n    }\n\n    /// @notice Unlock a Token\n    /// @dev Need to be the owner of the token\n    /// @param _id Id of the token.\n    function unlockToken(uint256 _id) public isShipped(_id) {\n        require(\n            ownerOf(_id) == msg.sender,\n            \"CriolloToken: Error, You are not the token owner!\"\n        );\n        criollos[_id].state = State.Unlocked;\n    }\n\n    /// @notice Withdraw balance\n    /// @dev From the contract owner to specific address.\n    function withdraw() public payable onlyOwner {\n        (bool success, ) = payable(msg.sender).call{\n            value: address(this).balance\n        }(\"\");\n        require(success, \"CriolloToken: Error, Transfer failed.\");\n    }\n\n    /// @notice Transfer function\n    /// @dev This function is overriden from ERC721:_transfer, so we can avoid the token to be transfer if it is not unlocked.\n    function _transfer(\n        address from,\n        address to,\n        uint256 tokenId\n    ) internal override {\n        require(\n            criollos[tokenId].state == State.Unlocked ||\n                (ownerOf(tokenId) == owner() &&\n                    criollos[tokenId].state == State.ForSale),\n            \"CriolloToken: Error, This token is Locked and can not be transfered !\"\n        );\n        super._transfer(from, to, tokenId);\n    }\n}\n",
  "sourcePath": "/home/josue/workspace/CryptoProjects/blockchain-developer-bootcamp-final-project/contracts/CriolloToken.sol",
  "compiler": {
    "name": "solc",
    "version": "0.8.3+commit.8d00100c.Emscripten.clang"
  },
  "schemaVersion": "3.4.3",
  "updatedAt": "2021-12-13T07:29:59.439Z",
  "networkType": "ethereum",
  "devdoc": {
    "author": "Josue Perez",
    "events": {
      "Purchase(address,uint256,uint256)": {
        "details": "The price is only used in the first sale",
        "params": {
          "id": "The id of the NFT token.",
          "owner": "The address of the Token Owner,",
          "price": "The price for the token was bought"
        }
      },
      "TokenUnlocked(uint256,address)": {
        "params": {
          "_id": "The id of the NFT token.",
          "_unlockerAddress": "Address who unlocked the token"
        }
      }
    },
    "kind": "dev",
    "methods": {
      "addToMarketPlace(uint256,uint256)": {
        "details": "This function can only be used by the contract owner to make the token available to others users in our Market Place",
        "params": {
          "_id": "Id of the token.",
          "_price": "Price for the token."
        }
      },
      "approve(address,uint256)": {
        "details": "See {IERC721-approve}."
      },
      "balanceOf(address)": {
        "details": "See {IERC721-balanceOf}."
      },
      "buy(uint256)": {
        "details": "This is a custom function for buying function in our Market PLace.",
        "params": {
          "_id": "Id of the token."
        }
      },
      "constructor": {
        "params": {
          "_initBaseURI": "Contains the base URL where the metadata of the NFT is stored",
          "name_": "Name of the NFT token",
          "symbol_": "Symbol of the NFT"
        }
      },
      "getApproved(uint256)": {
        "details": "See {IERC721-getApproved}."
      },
      "getCriollo(uint256)": {
        "details": "Use this function whenever you need info about a token",
        "params": {
          "_tokenId": "Id of the token."
        },
        "returns": {
          "price": "- The price of the token",
          "state": "- The state of the token",
          "tokenId": "- The Id of the token"
        }
      },
      "isApprovedForAll(address,address)": {
        "details": "See {IERC721-isApprovedForAll}."
      },
      "name()": {
        "details": "See {IERC721Metadata-name}."
      },
      "owner()": {
        "details": "Returns the address of the current owner."
      },
      "ownerOf(uint256)": {
        "details": "See {IERC721-ownerOf}."
      },
      "renounceOwnership()": {
        "details": "Leaves the contract without owner. It will not be possible to call `onlyOwner` functions anymore. Can only be called by the current owner. NOTE: Renouncing ownership will leave the contract without an owner, thereby removing any functionality that is only available to the owner."
      },
      "safeMint(uint256)": {
        "details": "Only the contract owner can mints tokens",
        "params": {
          "_price": "Initial price for the token."
        }
      },
      "safeTransferFrom(address,address,uint256)": {
        "details": "See {IERC721-safeTransferFrom}."
      },
      "safeTransferFrom(address,address,uint256,bytes)": {
        "details": "See {IERC721-safeTransferFrom}."
      },
      "setApprovalForAll(address,bool)": {
        "details": "See {IERC721-setApprovalForAll}."
      },
      "shipped(uint256)": {
        "details": "Only the contract owner can ship an Item, the token should be sold first",
        "params": {
          "_id": "Id of the token."
        }
      },
      "supportsInterface(bytes4)": {
        "details": "See {IERC165-supportsInterface}."
      },
      "symbol()": {
        "details": "See {IERC721Metadata-symbol}."
      },
      "tokenByIndex(uint256)": {
        "details": "See {IERC721Enumerable-tokenByIndex}."
      },
      "tokenOfOwnerByIndex(address,uint256)": {
        "details": "See {IERC721Enumerable-tokenOfOwnerByIndex}."
      },
      "tokenURI(uint256)": {
        "details": "See {IERC721Metadata-tokenURI}."
      },
      "totalSupply()": {
        "details": "See {IERC721Enumerable-totalSupply}."
      },
      "transferFrom(address,address,uint256)": {
        "details": "See {IERC721-transferFrom}."
      },
      "transferOwnership(address)": {
        "details": "Transfers ownership of the contract to a new account (`newOwner`). Can only be called by the current owner."
      },
      "unlockToken(uint256)": {
        "details": "Need to be the owner of the token",
        "params": {
          "_id": "Id of the token."
        }
      },
      "withdraw()": {
        "details": "From the contract owner to specific address."
      }
    },
    "stateVariables": {
      "criollos": {
        "details": "Mapping from token ID to Criollo objects"
      }
    },
    "title": "A contract for creating NFT tokens",
    "version": 1
  },
  "userdoc": {
    "events": {
      "Purchase(address,uint256,uint256)": {
        "notice": "Emitted when an user buy a NFT in our MarketPlace"
      },
      "TokenUnlocked(uint256,address)": {
        "notice": "Emitted when the token owner unlock the NFT once receive the chocolate"
      }
    },
    "kind": "user",
    "methods": {
      "addToMarketPlace(uint256,uint256)": {
        "notice": "Add a token to the market place"
      },
      "buy(uint256)": {
        "notice": "Buy a token in Criollos Market Place"
      },
      "constructor": {
        "notice": "Constructor called once when deploy the contract"
      },
      "getCriollo(uint256)": {
        "notice": "Fetch a token by Id"
      },
      "safeMint(uint256)": {
        "notice": "Mints a new token"
      },
      "shipped(uint256)": {
        "notice": "Ship an Item"
      },
      "unlockToken(uint256)": {
        "notice": "Unlock a Token"
      },
      "withdraw()": {
        "notice": "Withdraw balance"
      }
    },
    "notice": "You can use this contract to Creates NFT tokens called CriollosToken This token is linked with a physical assets(a Chocolate) that will be send once the user buy it at our Market place, after receive the physical assets the user is able to trade the NFT token using another Market place for instance OpenSea",
    "version": 1
  }
}